{
  "contractName": "Crowdsale",
  "abi": [
    {
      "inputs": [
        {
          "internalType": "address",
          "name": "_newOwner",
          "type": "address"
        },
        {
          "internalType": "address payable",
          "name": "_wallet",
          "type": "address"
        },
        {
          "internalType": "contract Swan",
          "name": "_token",
          "type": "address"
        },
        {
          "internalType": "uint256",
          "name": "_ethPriceInCents",
          "type": "uint256"
        }
      ],
      "payable": false,
      "stateMutability": "nonpayable",
      "type": "constructor"
    },
    {
      "anonymous": false,
      "inputs": [
        {
          "indexed": true,
          "internalType": "address",
          "name": "from",
          "type": "address"
        },
        {
          "indexed": true,
          "internalType": "address",
          "name": "_to",
          "type": "address"
        }
      ],
      "name": "OwnershipTransferred",
      "type": "event"
    },
    {
      "anonymous": false,
      "inputs": [],
      "name": "Pause",
      "type": "event"
    },
    {
      "anonymous": false,
      "inputs": [
        {
          "indexed": true,
          "internalType": "address",
          "name": "purchaser",
          "type": "address"
        },
        {
          "indexed": true,
          "internalType": "address",
          "name": "beneficiary",
          "type": "address"
        },
        {
          "indexed": false,
          "internalType": "uint256",
          "name": "value",
          "type": "uint256"
        },
        {
          "indexed": false,
          "internalType": "uint256",
          "name": "amount",
          "type": "uint256"
        }
      ],
      "name": "TokenPurchase",
      "type": "event"
    },
    {
      "anonymous": false,
      "inputs": [],
      "name": "Unpause",
      "type": "event"
    },
    {
      "payable": true,
      "stateMutability": "payable",
      "type": "fallback"
    },
    {
      "constant": true,
      "inputs": [],
      "name": "Paused",
      "outputs": [
        {
          "internalType": "bool",
          "name": "",
          "type": "bool"
        }
      ],
      "payable": false,
      "stateMutability": "view",
      "type": "function"
    },
    {
      "constant": false,
      "inputs": [],
      "name": "acceptOwnership",
      "outputs": [],
      "payable": false,
      "stateMutability": "nonpayable",
      "type": "function"
    },
    {
      "constant": true,
      "inputs": [],
      "name": "bonusPercentPreSale",
      "outputs": [
        {
          "internalType": "uint256",
          "name": "",
          "type": "uint256"
        }
      ],
      "payable": false,
      "stateMutability": "view",
      "type": "function"
    },
    {
      "constant": true,
      "inputs": [],
      "name": "bonusPercentPrivateSale",
      "outputs": [
        {
          "internalType": "uint256",
          "name": "",
          "type": "uint256"
        }
      ],
      "payable": false,
      "stateMutability": "view",
      "type": "function"
    },
    {
      "constant": true,
      "inputs": [],
      "name": "bonusPercentRoudFour",
      "outputs": [
        {
          "internalType": "uint256",
          "name": "",
          "type": "uint256"
        }
      ],
      "payable": false,
      "stateMutability": "view",
      "type": "function"
    },
    {
      "constant": true,
      "inputs": [],
      "name": "bonusPercentRoudOne",
      "outputs": [
        {
          "internalType": "uint256",
          "name": "",
          "type": "uint256"
        }
      ],
      "payable": false,
      "stateMutability": "view",
      "type": "function"
    },
    {
      "constant": true,
      "inputs": [],
      "name": "bonusPercentRoudThree",
      "outputs": [
        {
          "internalType": "uint256",
          "name": "",
          "type": "uint256"
        }
      ],
      "payable": false,
      "stateMutability": "view",
      "type": "function"
    },
    {
      "constant": true,
      "inputs": [],
      "name": "bonusPercentRoudTwo",
      "outputs": [
        {
          "internalType": "uint256",
          "name": "",
          "type": "uint256"
        }
      ],
      "payable": false,
      "stateMutability": "view",
      "type": "function"
    },
    {
      "constant": true,
      "inputs": [],
      "name": "crowdSaleRoundFour",
      "outputs": [
        {
          "internalType": "uint256",
          "name": "",
          "type": "uint256"
        }
      ],
      "payable": false,
      "stateMutability": "view",
      "type": "function"
    },
    {
      "constant": true,
      "inputs": [],
      "name": "crowdSaleRoundFourLimit",
      "outputs": [
        {
          "internalType": "uint256",
          "name": "",
          "type": "uint256"
        }
      ],
      "payable": false,
      "stateMutability": "view",
      "type": "function"
    },
    {
      "constant": true,
      "inputs": [],
      "name": "crowdSaleRoundOne",
      "outputs": [
        {
          "internalType": "uint256",
          "name": "",
          "type": "uint256"
        }
      ],
      "payable": false,
      "stateMutability": "view",
      "type": "function"
    },
    {
      "constant": true,
      "inputs": [],
      "name": "crowdSaleRoundOneLimit",
      "outputs": [
        {
          "internalType": "uint256",
          "name": "",
          "type": "uint256"
        }
      ],
      "payable": false,
      "stateMutability": "view",
      "type": "function"
    },
    {
      "constant": true,
      "inputs": [],
      "name": "crowdSaleRoundThree",
      "outputs": [
        {
          "internalType": "uint256",
          "name": "",
          "type": "uint256"
        }
      ],
      "payable": false,
      "stateMutability": "view",
      "type": "function"
    },
    {
      "constant": true,
      "inputs": [],
      "name": "crowdSaleRoundThreeLimit",
      "outputs": [
        {
          "internalType": "uint256",
          "name": "",
          "type": "uint256"
        }
      ],
      "payable": false,
      "stateMutability": "view",
      "type": "function"
    },
    {
      "constant": true,
      "inputs": [],
      "name": "crowdSaleRoundTwo",
      "outputs": [
        {
          "internalType": "uint256",
          "name": "",
          "type": "uint256"
        }
      ],
      "payable": false,
      "stateMutability": "view",
      "type": "function"
    },
    {
      "constant": true,
      "inputs": [],
      "name": "crowdSaleRoundTwoLimit",
      "outputs": [
        {
          "internalType": "uint256",
          "name": "",
          "type": "uint256"
        }
      ],
      "payable": false,
      "stateMutability": "view",
      "type": "function"
    },
    {
      "constant": true,
      "inputs": [],
      "name": "crowdSaleStarted",
      "outputs": [
        {
          "internalType": "bool",
          "name": "",
          "type": "bool"
        }
      ],
      "payable": false,
      "stateMutability": "view",
      "type": "function"
    },
    {
      "constant": true,
      "inputs": [],
      "name": "ethPrice",
      "outputs": [
        {
          "internalType": "uint256",
          "name": "",
          "type": "uint256"
        }
      ],
      "payable": false,
      "stateMutability": "view",
      "type": "function"
    },
    {
      "constant": true,
      "inputs": [],
      "name": "hardCap",
      "outputs": [
        {
          "internalType": "uint256",
          "name": "",
          "type": "uint256"
        }
      ],
      "payable": false,
      "stateMutability": "view",
      "type": "function"
    },
    {
      "constant": true,
      "inputs": [],
      "name": "maximumInvestment",
      "outputs": [
        {
          "internalType": "uint256",
          "name": "",
          "type": "uint256"
        }
      ],
      "payable": false,
      "stateMutability": "view",
      "type": "function"
    },
    {
      "constant": true,
      "inputs": [],
      "name": "minimumInvestment",
      "outputs": [
        {
          "internalType": "uint256",
          "name": "",
          "type": "uint256"
        }
      ],
      "payable": false,
      "stateMutability": "view",
      "type": "function"
    },
    {
      "constant": true,
      "inputs": [],
      "name": "newOwner",
      "outputs": [
        {
          "internalType": "address",
          "name": "",
          "type": "address"
        }
      ],
      "payable": false,
      "stateMutability": "view",
      "type": "function"
    },
    {
      "constant": true,
      "inputs": [],
      "name": "owner",
      "outputs": [
        {
          "internalType": "address",
          "name": "",
          "type": "address"
        }
      ],
      "payable": false,
      "stateMutability": "view",
      "type": "function"
    },
    {
      "constant": true,
      "inputs": [],
      "name": "paused",
      "outputs": [
        {
          "internalType": "bool",
          "name": "",
          "type": "bool"
        }
      ],
      "payable": false,
      "stateMutability": "view",
      "type": "function"
    },
    {
      "constant": true,
      "inputs": [],
      "name": "preSaleTokensLimit",
      "outputs": [
        {
          "internalType": "uint256",
          "name": "",
          "type": "uint256"
        }
      ],
      "payable": false,
      "stateMutability": "view",
      "type": "function"
    },
    {
      "constant": true,
      "inputs": [],
      "name": "preSaleTokensSold",
      "outputs": [
        {
          "internalType": "uint256",
          "name": "",
          "type": "uint256"
        }
      ],
      "payable": false,
      "stateMutability": "view",
      "type": "function"
    },
    {
      "constant": true,
      "inputs": [],
      "name": "privateSaletokenLimit",
      "outputs": [
        {
          "internalType": "uint256",
          "name": "",
          "type": "uint256"
        }
      ],
      "payable": false,
      "stateMutability": "view",
      "type": "function"
    },
    {
      "constant": true,
      "inputs": [],
      "name": "privateSaletokenSold",
      "outputs": [
        {
          "internalType": "uint256",
          "name": "",
          "type": "uint256"
        }
      ],
      "payable": false,
      "stateMutability": "view",
      "type": "function"
    },
    {
      "constant": true,
      "inputs": [],
      "name": "softCap",
      "outputs": [
        {
          "internalType": "uint256",
          "name": "",
          "type": "uint256"
        }
      ],
      "payable": false,
      "stateMutability": "view",
      "type": "function"
    },
    {
      "constant": true,
      "inputs": [],
      "name": "token",
      "outputs": [
        {
          "internalType": "contract Swan",
          "name": "",
          "type": "address"
        }
      ],
      "payable": false,
      "stateMutability": "view",
      "type": "function"
    },
    {
      "constant": true,
      "inputs": [],
      "name": "tokensForSale",
      "outputs": [
        {
          "internalType": "uint256",
          "name": "",
          "type": "uint256"
        }
      ],
      "payable": false,
      "stateMutability": "view",
      "type": "function"
    },
    {
      "constant": true,
      "inputs": [],
      "name": "tokensInOneDollar",
      "outputs": [
        {
          "internalType": "uint256",
          "name": "",
          "type": "uint256"
        }
      ],
      "payable": false,
      "stateMutability": "view",
      "type": "function"
    },
    {
      "constant": false,
      "inputs": [
        {
          "internalType": "address",
          "name": "newOwnerAddress",
          "type": "address"
        }
      ],
      "name": "transferOwnership",
      "outputs": [],
      "payable": false,
      "stateMutability": "nonpayable",
      "type": "function"
    },
    {
      "constant": false,
      "inputs": [],
      "name": "unpause",
      "outputs": [],
      "payable": false,
      "stateMutability": "nonpayable",
      "type": "function"
    },
    {
      "constant": true,
      "inputs": [],
      "name": "wallet",
      "outputs": [
        {
          "internalType": "address payable",
          "name": "",
          "type": "address"
        }
      ],
      "payable": false,
      "stateMutability": "view",
      "type": "function"
    },
    {
      "constant": true,
      "inputs": [
        {
          "internalType": "address",
          "name": "",
          "type": "address"
        }
      ],
      "name": "whitelistedContributors",
      "outputs": [
        {
          "internalType": "bool",
          "name": "",
          "type": "bool"
        }
      ],
      "payable": false,
      "stateMutability": "view",
      "type": "function"
    },
    {
      "constant": false,
      "inputs": [
        {
          "internalType": "address[]",
          "name": "addrs",
          "type": "address[]"
        }
      ],
      "name": "authorizeKyc",
      "outputs": [
        {
          "internalType": "bool",
          "name": "success",
          "type": "bool"
        }
      ],
      "payable": false,
      "stateMutability": "nonpayable",
      "type": "function"
    },
    {
      "constant": false,
      "inputs": [],
      "name": "pause",
      "outputs": [],
      "payable": false,
      "stateMutability": "nonpayable",
      "type": "function"
    },
    {
      "constant": false,
      "inputs": [],
      "name": "restartSale",
      "outputs": [],
      "payable": false,
      "stateMutability": "nonpayable",
      "type": "function"
    },
    {
      "constant": false,
      "inputs": [],
      "name": "startPrivateSale",
      "outputs": [],
      "payable": false,
      "stateMutability": "nonpayable",
      "type": "function"
    },
    {
      "constant": false,
      "inputs": [],
      "name": "endPrivateSale",
      "outputs": [],
      "payable": false,
      "stateMutability": "nonpayable",
      "type": "function"
    },
    {
      "constant": false,
      "inputs": [],
      "name": "startPreSale",
      "outputs": [],
      "payable": false,
      "stateMutability": "nonpayable",
      "type": "function"
    },
    {
      "constant": false,
      "inputs": [],
      "name": "endPreSale",
      "outputs": [],
      "payable": false,
      "stateMutability": "nonpayable",
      "type": "function"
    },
    {
      "constant": false,
      "inputs": [],
      "name": "startCrowdSaleRoundOne",
      "outputs": [],
      "payable": false,
      "stateMutability": "nonpayable",
      "type": "function"
    },
    {
      "constant": false,
      "inputs": [],
      "name": "endCrowdSaleRoundOne",
      "outputs": [],
      "payable": false,
      "stateMutability": "nonpayable",
      "type": "function"
    },
    {
      "constant": false,
      "inputs": [],
      "name": "startCrowdSaleRoundTwo",
      "outputs": [],
      "payable": false,
      "stateMutability": "nonpayable",
      "type": "function"
    },
    {
      "constant": false,
      "inputs": [],
      "name": "endCrowdSaleRoundTwo",
      "outputs": [],
      "payable": false,
      "stateMutability": "nonpayable",
      "type": "function"
    },
    {
      "constant": false,
      "inputs": [],
      "name": "startCrowdSaleRoundThree",
      "outputs": [],
      "payable": false,
      "stateMutability": "nonpayable",
      "type": "function"
    },
    {
      "constant": false,
      "inputs": [],
      "name": "endCrowdSaleRoundThree",
      "outputs": [],
      "payable": false,
      "stateMutability": "nonpayable",
      "type": "function"
    },
    {
      "constant": false,
      "inputs": [],
      "name": "startCrowdSaleRoundFour",
      "outputs": [],
      "payable": false,
      "stateMutability": "nonpayable",
      "type": "function"
    },
    {
      "constant": false,
      "inputs": [],
      "name": "endCrowdSaleRoundFour",
      "outputs": [],
      "payable": false,
      "stateMutability": "nonpayable",
      "type": "function"
    },
    {
      "constant": true,
      "inputs": [],
      "name": "getStage",
      "outputs": [
        {
          "internalType": "string",
          "name": "",
          "type": "string"
        }
      ],
      "payable": false,
      "stateMutability": "view",
      "type": "function"
    },
    {
      "constant": false,
      "inputs": [
        {
          "internalType": "uint256",
          "name": "_ethPriceInCents",
          "type": "uint256"
        }
      ],
      "name": "setEthPriceInCents",
      "outputs": [
        {
          "internalType": "bool",
          "name": "",
          "type": "bool"
        }
      ],
      "payable": false,
      "stateMutability": "nonpayable",
      "type": "function"
    },
    {
      "constant": false,
      "inputs": [
        {
          "internalType": "address",
          "name": "_beneficiary",
          "type": "address"
        }
      ],
      "name": "buyTokens",
      "outputs": [],
      "payable": true,
      "stateMutability": "payable",
      "type": "function"
    }
  ],
  "bytecode": "0x60806040526001805460ff60a01b1916905560006004819055631dcd650060059081556c01c45d49276606214ee0000000600655600782905560088290556009829055600a828155600b839055600c839055639502f900600d819055638f0d1800600e556389173700600f9081556383215600601055637d2b7500601155601291909155601960148181556015556016919091556017919091556018919091555561c350601a556301312d00601b556103e8601c55601d805460ff191690553480156100ca57600080fd5b50604051612be1380380612be1833981810160405260808110156100ed57600080fd5b5080516020820151604083015160609093015160008054601380546001600160a01b03199081166001600160a01b039687161790915590811694841694851781169094178155600380549094169290941691909117909155600255601d805461ff0019169055612a7e90819061016390396000f3fe6080604052600436106103345760003560e01c806379ba5097116101ab578063d4470aa0116100f7578063edfc825711610095578063fb86a4041161006f578063fb86a404146108b4578063fc0c546a146108c9578063fcaa7664146108de578063ff186b2e1461096857610334565b8063edfc825714610857578063ee889ed01461086c578063f2fde38b1461088157610334565b8063dc8371d6116100d1578063dc8371d6146107f2578063e2acae2a14610807578063e6a23c3d1461081c578063ec8ac4d81461083157610334565b8063d4470aa0146107b3578063d4ee1d90146107c8578063d80f6d3d146107dd57610334565b8063a7a8511411610164578063ba6169fe1161013e578063ba6169fe14610741578063c031470114610756578063c7b850dd1461076b578063c806dcc61461079e57610334565b8063a7a8511414610702578063b121acf014610717578063b904088e1461072c57610334565b806379ba5097146106845780638456cb59146106995780638635cfd1146106ae5780638da5cb5b146106c3578063906a26e0146106d85780639e87fac8146106ed57610334565b8063338dbf591161028557806365fbf8a0116102235780636cea50a1116101fd5780636cea50a11461059557806370d7a0e7146105aa578063747112851461065a57806376be6b2b1461066f57610334565b806365fbf8a014610556578063691901e01461056b5780636adf0c271461058057610334565b806353bf5af41161025f57806353bf5af41461050257806355dd574c146105175780635c975abb1461052c57806363d6ac1f1461054157610334565b8063338dbf59146104a75780633f4ba83a146104bc578063521eb273146104d157610334565b806312aef8c3116102f257806322c5d0b2116102cc57806322c5d0b214610453578063238b6d4014610468578063297aeb831461047d5780632b925b251461049257610334565b806312aef8c31461041457806316b42ec2146104295780631b56ea7e1461043e57610334565b806241edee1461035b578063044f9afe146103825780630c1d7cb6146103c05780630dfd0e73146103d55780630ee13ced146103ea57806310ea759f146103ff575b6000546001600160a01b031633146103545761034f3361097d565b610359565b600080fd5b005b34801561036757600080fd5b50610370610bd1565b60408051918252519081900360200190f35b34801561038e57600080fd5b506103ac600480360360208110156103a557600080fd5b5035610bd7565b604080519115158252519081900360200190f35b3480156103cc57600080fd5b50610370610c2e565b3480156103e157600080fd5b50610370610c34565b3480156103f657600080fd5b50610359610c3a565b34801561040b57600080fd5b50610370610cf4565b34801561042057600080fd5b50610370610cfa565b34801561043557600080fd5b50610370610d00565b34801561044a57600080fd5b50610370610d06565b34801561045f57600080fd5b50610370610d0c565b34801561047457600080fd5b50610370610d12565b34801561048957600080fd5b50610370610d18565b34801561049e57600080fd5b50610370610d1e565b3480156104b357600080fd5b50610359610d24565b3480156104c857600080fd5b50610359610de9565b3480156104dd57600080fd5b506104e6610ec5565b604080516001600160a01b039092168252519081900360200190f35b34801561050e57600080fd5b50610359610ed4565b34801561052357600080fd5b50610359610f8b565b34801561053857600080fd5b506103ac611058565b34801561054d57600080fd5b50610359611068565b34801561056257600080fd5b50610370611135565b34801561057757600080fd5b5061037061113b565b34801561058c57600080fd5b50610370611141565b3480156105a157600080fd5b506103ac611147565b3480156105b657600080fd5b506103ac600480360360208110156105cd57600080fd5b8101906020810181356401000000008111156105e857600080fd5b8201836020820111156105fa57600080fd5b8035906020019184602083028401116401000000008311171561061c57600080fd5b919080806020026020016040519081016040528093929190818152602001838360200280828437600092019190915250929550611150945050505050565b34801561066657600080fd5b50610359611201565b34801561067b57600080fd5b506103706112ef565b34801561069057600080fd5b506103596112f5565b3480156106a557600080fd5b506103596113b8565b3480156106ba57600080fd5b50610370611502565b3480156106cf57600080fd5b506104e6611508565b3480156106e457600080fd5b50610370611517565b3480156106f957600080fd5b506103ac61151d565b34801561070e57600080fd5b5061037061152d565b34801561072357600080fd5b50610359611533565b34801561073857600080fd5b506103706115ea565b34801561074d57600080fd5b506103596115f0565b34801561076257600080fd5b506103596116a7565b34801561077757600080fd5b506103ac6004803603602081101561078e57600080fd5b50356001600160a01b0316611774565b3480156107aa57600080fd5b50610359611789565b3480156107bf57600080fd5b50610370611840565b3480156107d457600080fd5b506104e6611846565b3480156107e957600080fd5b50610370611855565b3480156107fe57600080fd5b5061035961185b565b34801561081357600080fd5b50610370611928565b34801561082857600080fd5b5061035961192e565b6103596004803603602081101561084757600080fd5b50356001600160a01b031661097d565b34801561086357600080fd5b506103706119fb565b34801561087857600080fd5b50610359611a01565b34801561088d57600080fd5b50610359600480360360208110156108a457600080fd5b50356001600160a01b0316611ace565b3480156108c057600080fd5b50610370611b82565b3480156108d557600080fd5b506104e6611b88565b3480156108ea57600080fd5b506108f3611b97565b6040805160208082528351818301528351919283929083019185019080838360005b8381101561092d578181015183820152602001610915565b50505050905090810190601f16801561095a5780820380516001836020036101000a031916815260200191505b509250505060405180910390f35b34801561097457600080fd5b50610370612013565b601d5460ff166109d0576040805162461bcd60e51b815260206004820152601960248201527818dc9bddd914d85b1948139bdd081cdd185c9d1959081e595d603a1b604482015290519081900360640190fd5b600154600160a01b900460ff1615610a24576040805162461bcd60e51b815260206004820152601260248201527110dbdb9d1c9858dd081a5cc814185d5cd95960721b604482015290519081900360640190fd5b6001600160a01b0381166000908152601e602052604090205460ff161515600114610a96576040805162461bcd60e51b815260206004820152601960248201527f4e6f7420612077686974656c6973746564496e766573746f7200000000000000604482015290519081900360640190fd5b601d546301000000900460ff1615610aea576040805162461bcd60e51b815260206004820152601260248201527110dbdb9d1c9858dd081a5cc814185d5cd95960721b604482015290519081900360640190fd5b60003490506000610b1e670de0b6b3a7640000610b126002548561201990919063ffffffff16565b9063ffffffff61207b16565b9050610b29816120e5565b6000610b348261214d565b9050610b3f8261239f565b610b49848261273b565b6013546040516001600160a01b03909116903480156108fc02916000818181858888f19350505050158015610b82573d6000803e3d6000fd5b50604080518481526020810183905281516001600160a01b0387169233927f623b3804fa71d67900d064613da8f94b9617215ee90799290593e1745087ad18929081900390910190a350505050565b600e5481565b600080546001600160a01b03163314610c25576040805162461bcd60e51b81526020600482015260176024820152600080516020612a08833981519152604482015290519081900360640190fd5b50600255600190565b60115481565b601c5481565b6000546001600160a01b03163314610c87576040805162461bcd60e51b81526020600482015260176024820152600080516020612a08833981519152604482015290519081900360640190fd5b600b601d54610100900460ff16600d811115610c9f57fe5b14610cdb5760405162461bcd60e51b81526004018080602001828103825260228152602001806129c36022913960400191505060405180910390fd5b601d8054600c919061ff001916610100835b0217905550565b60155481565b60065481565b600a5481565b60165481565b600c5481565b60125481565b60175481565b601a5481565b6000546001600160a01b03163314610d71576040805162461bcd60e51b81526020600482015260176024820152600080516020612a08833981519152604482015290519081900360640190fd5b601d5460ff1615610dc9576040805162461bcd60e51b815260206004820152601960248201527f43726f776473616c6520416c7265616479205374617274656400000000000000604482015290519081900360640190fd5b601d805460ff19166001178082556002919061ff00191661010083610ced565b6000546001600160a01b03163314610e36576040805162461bcd60e51b81526020600482015260176024820152600080516020612a08833981519152604482015290519081900360640190fd5b600154600160a01b900460ff16610e8d576040805162461bcd60e51b815260206004820152601660248201527510dbdb9d1c9858dd081a5cc8139bdd0814185d5cd95960521b604482015290519081900360640190fd5b6001805460ff60a01b191690556040517f7805862f689e2f13df9f062ff482ad3ad112aca9e0847911ed832e158c525b3390600090a1565b6013546001600160a01b031681565b6000546001600160a01b03163314610f21576040805162461bcd60e51b81526020600482015260176024820152600080516020612a08833981519152604482015290519081900360640190fd5b6008601d54610100900460ff16600d811115610f3957fe5b14610f755760405162461bcd60e51b815260040180806020018281038252602281526020018061292a6022913960400191505060405180910390fd5b601d80546009919061ff00191661010083610ced565b6000546001600160a01b03163314610fd8576040805162461bcd60e51b81526020600482015260176024820152600080516020612a08833981519152604482015290519081900360640190fd5b6003601d54610100900460ff16600d811115610ff057fe5b14611042576040805162461bcd60e51b815260206004820152601b60248201527f507269766174652053616c65204469646e277420656e64207965740000000000604482015290519081900360640190fd5b601d80546004919061ff00191661010083610ced565b600154600160a01b900460ff1681565b6000546001600160a01b031633146110b5576040805162461bcd60e51b81526020600482015260176024820152600080516020612a08833981519152604482015290519081900360640190fd5b6007601d54610100900460ff16600d8111156110cd57fe5b1461111f576040805162461bcd60e51b815260206004820181905260248201527f43726f776453616c65526f756e644f6e65204469646e277420656e6420796574604482015290519081900360640190fd5b601d80546008919061ff00191661010083610ced565b60105481565b60095481565b600f5481565b601d5460ff1681565b600080546001600160a01b0316331461119e576040805162461bcd60e51b81526020600482015260176024820152600080516020612a08833981519152604482015290519081900360640190fd5b815160005b818110156111f7576001601e60008684815181106111bd57fe5b6020908102919091018101516001600160a01b03168252810191909152604001600020805460ff19169115159190911790556001016111a3565b5060019392505050565b6000546001600160a01b0316331461124e576040805162461bcd60e51b81526020600482015260176024820152600080516020612a08833981519152604482015290519081900360640190fd5b6001601d54610100900460ff16600d81111561126657fe5b146112b8576040805162461bcd60e51b815260206004820152601960248201527f63757272656e745374616765206973206e6f7420504155534500000000000000604482015290519081900360640190fd5b601d805460ff62010000820416919061ff00191661010083600d8111156112db57fe5b0217905550601d805463ff00000019169055565b60085481565b6001546001600160a01b03163314611354576040805162461bcd60e51b815260206004820181905260248201527f43616c6c6572206973206e6f74207468652073656c6563746564204f776e6572604482015290519081900360640190fd5b600154600080546040516001600160a01b0393841693909116917f8be0079c531659141344cd1fd0a4f28419497f9722a3daafe3b4186f6b6457e091a360018054600080546001600160a01b03199081166001600160a01b03841617909155169055565b6000546001600160a01b03163314611405576040805162461bcd60e51b81526020600482015260176024820152600080516020612a08833981519152604482015290519081900360640190fd5b601d546301000000900460ff1615611464576040805162461bcd60e51b815260206004820152601a60248201527f636f6e747261637420697320616c726561647920506175736564000000000000604482015290519081900360640190fd5b601d5460ff166114bb576040805162461bcd60e51b815260206004820152601960248201527f43726f776473616c6520616c7265616479207374617274656400000000000000604482015290519081900360640190fd5b601d805460ff610100820416919062ff000019166201000083600d8111156114df57fe5b0217905550601d805461ff0019166101001763ff00000019166301000000179055565b60185481565b6000546001600160a01b031681565b60055481565b601d546301000000900460ff1681565b600b5481565b6000546001600160a01b03163314611580576040805162461bcd60e51b81526020600482015260176024820152600080516020612a08833981519152604482015290519081900360640190fd5b6006601d54610100900460ff16600d81111561159857fe5b146115d45760405162461bcd60e51b8152600401808060200182810382526022815260200180612a286022913960400191505060405180910390fd5b601d80546007919061ff00191661010083610ced565b601b5481565b6000546001600160a01b0316331461163d576040805162461bcd60e51b81526020600482015260176024820152600080516020612a08833981519152604482015290519081900360640190fd5b600a601d54610100900460ff16600d81111561165557fe5b146116915760405162461bcd60e51b81526004018080602001828103825260248152602001806128696024913960400191505060405180910390fd5b601d8054600b919061ff00191661010083610ced565b6000546001600160a01b031633146116f4576040805162461bcd60e51b81526020600482015260176024820152600080516020612a08833981519152604482015290519081900360640190fd5b6005601d54610100900460ff16600d81111561170c57fe5b1461175e576040805162461bcd60e51b815260206004820152601760248201527f5072652053616c65204469646e277420656e6420796574000000000000000000604482015290519081900360640190fd5b601d80546006919061ff00191661010083610ced565b601e6020526000908152604090205460ff1681565b6000546001600160a01b031633146117d6576040805162461bcd60e51b81526020600482015260176024820152600080516020612a08833981519152604482015290519081900360640190fd5b600c601d54610100900460ff16600d8111156117ee57fe5b1461182a5760405162461bcd60e51b81526004018080602001828103825260238152602001806129e56023913960400191505060405180910390fd5b601d8054600d919061ff00191661010083610ced565b600d5481565b6001546001600160a01b031681565b60075481565b6000546001600160a01b031633146118a8576040805162461bcd60e51b81526020600482015260176024820152600080516020612a08833981519152604482015290519081900360640190fd5b6009601d54610100900460ff16600d8111156118c057fe5b14611912576040805162461bcd60e51b815260206004820181905260248201527f43726f776453616c65526f756e6454776f204469646e277420656e6420796574604482015290519081900360640190fd5b601d8054600a919061ff00191661010083610ced565b60145481565b6000546001600160a01b0316331461197b576040805162461bcd60e51b81526020600482015260176024820152600080516020612a08833981519152604482015290519081900360640190fd5b6002601d54610100900460ff16600d81111561199357fe5b146119e5576040805162461bcd60e51b815260206004820152601a60248201527f43726f776473616c65206469646e277420537461727420796574000000000000604482015290519081900360640190fd5b601d80546003919061ff00191661010083610ced565b60195481565b6000546001600160a01b03163314611a4e576040805162461bcd60e51b81526020600482015260176024820152600080516020612a08833981519152604482015290519081900360640190fd5b6004601d54610100900460ff16600d811115611a6657fe5b14611ab8576040805162461bcd60e51b815260206004820152601960248201527f5072652053616c65206469646e27742053746172742079657400000000000000604482015290519081900360640190fd5b601d80546005919061ff00191661010083610ced565b6000546001600160a01b03163314611b1b576040805162461bcd60e51b81526020600482015260176024820152600080516020612a08833981519152604482015290519081900360640190fd5b6001600160a01b038116611b605760405162461bcd60e51b815260040180806020018281038252602e815260200180612995602e913960400191505060405180910390fd5b600180546001600160a01b0319166001600160a01b0392909216919091179055565b60045481565b6003546001600160a01b031681565b60606002601d54610100900460ff16600d811115611bb157fe5b1415611be65750604080518082019091526012815271141c9a5d985d194814d85b194814dd185c9d60721b6020820152612010565b6003601d54610100900460ff16600d811115611bfe57fe5b1415611c31575060408051808201909152601081526f141c9a5d985d194814d85b1948115b9960821b6020820152612010565b6004601d54610100900460ff16600d811115611c4957fe5b1415611c7b575060408051808201909152600f81526e141c995cd85b194814dd185c9d1959608a1b6020820152612010565b6005601d54610100900460ff16600d811115611c9357fe5b1415611cc3575060408051808201909152600d81526c141c995cd85b1948115b991959609a1b6020820152612010565b6006601d54610100900460ff16600d811115611cdb57fe5b1415611d1b575060408051808201909152601b81527f43726f776453616c6520526f756e64204f6e65205374617274656400000000006020820152612010565b6007601d54610100900460ff16600d811115611d3357fe5b1415611d73575060408051808201909152601781527f43726f776453616c6520526f756e64204f6e6520456e640000000000000000006020820152612010565b6008601d54610100900460ff16600d811115611d8b57fe5b1415611dcb575060408051808201909152601b81527f43726f776453616c6520526f756e642054776f205374617274656400000000006020820152612010565b6009601d54610100900460ff16600d811115611de357fe5b1415611e23575060408051808201909152601781527f43726f776453616c6520526f756e642054776f20456e640000000000000000006020820152612010565b600a601d54610100900460ff16600d811115611e3b57fe5b1415611e7b575060408051808201909152601d81527f43726f776453616c6520526f756e6420546872656520537461727465640000006020820152612010565b600b601d54610100900460ff16600d811115611e9357fe5b1415611ed3575060408051808201909152601981527f43726f776453616c6520526f756e6420546872656520456e64000000000000006020820152612010565b600c601d54610100900460ff16600d811115611eeb57fe5b1415611f2b575060408051808201909152601c81527f43726f776453616c6520526f756e6420466f75722053746172746564000000006020820152612010565b600d601d54610100900460ff16600d811115611f4357fe5b1415611f83575060408051808201909152601881527f43726f776453616c6520526f756e6420466f757220456e6400000000000000006020820152612010565b6001601d54610100900460ff16600d811115611f9b57fe5b1415611fc457506040805180820190915260068152651c185d5cd95960d21b6020820152612010565b6000601d54610100900460ff16600d811115611fdc57fe5b1415612010575060408051808201909152601581527410dc9bddd914d85b1948139bdd0814dd185c9d1959605a1b60208201525b90565b60025481565b60008261202857506000612075565b8282028284828161203557fe5b04146120725760405162461bcd60e51b81526004018080602001828103825260218152602001806129746021913960400191505060405180910390fd5b90505b92915050565b60008082116120d1576040805162461bcd60e51b815260206004820152601a60248201527f536166654d6174683a206469766973696f6e206279207a65726f000000000000604482015290519081900360640190fd5b60008284816120dc57fe5b04949350505050565b601a5481101580156120f95750601b548111155b61214a576040805162461bcd60e51b815260206004820152601b60248201527f5f70726556616c69646174655075726368617365206661696c65640000000000604482015290519081900360640190fd5b50565b601d5460009060ff166121a3576040805162461bcd60e51b815260206004820152601960248201527818dc9bddd914d85b1948139bdd081cdd185c9d1959081e595d603a1b604482015290519081900360640190fd5b60008080806002601d54610100900460ff16600d8111156121c057fe5b1415612237576121ec6064610b1260196121e08a8463ffffffff61207b16565b9063ffffffff61201916565b9350612203601c548561201990919063ffffffff16565b601c5490935061221e906121e088606463ffffffff61207b16565b9150612230838363ffffffff61274916565b9050612396565b6004601d54610100900460ff16600d81111561224f57fe5b141561226f576121ec6064610b1260196121e08a8463ffffffff61207b16565b6006601d54610100900460ff16600d81111561228757fe5b14156122a7576121ec6064610b1260196121e08a8463ffffffff61207b16565b6008601d54610100900460ff16600d8111156122bf57fe5b14156122df576121ec6064610b1260196121e08a8463ffffffff61207b16565b600a601d54610100900460ff16600d8111156122f757fe5b1415612317576121ec6064610b1260196121e08a8463ffffffff61207b16565b600c601d54610100900460ff16600d81111561232f57fe5b14156123965761234f6064610b1260196121e08a8463ffffffff61207b16565b9350612366601c548561201990919063ffffffff16565b601c54909350612381906121e088606463ffffffff61207b16565b9150612393838363ffffffff61274916565b90505b95945050505050565b6002601d54610100900460ff16600d8111156123b757fe5b141561242b57600d546007546123d3908363ffffffff61274916565b11156124105760405162461bcd60e51b81526004018080602001828103825260228152602001806129086022913960400191505060405180910390fd5b600754612423908263ffffffff61274916565b60075561214a565b6004601d54610100900460ff16600d81111561244357fe5b14156124cd57600e5460085461245f908363ffffffff61274916565b11156124b2576040805162461bcd60e51b815260206004820152601e60248201527f50726553616c65537461727420636f6e646974696f6e73204661696c65640000604482015290519081900360640190fd5b6008546124c5908263ffffffff61274916565b60085561214a565b6006601d54610100900460ff16600d8111156124e557fe5b141561255957600f54600954612501908363ffffffff61274916565b111561253e5760405162461bcd60e51b815260040180806020018281038252602881526020018061294c6028913960400191505060405180910390fd5b600954612551908263ffffffff61274916565b60095561214a565b6008601d54610100900460ff16600d81111561257157fe5b14156125e557601054600a5461258d908363ffffffff61274916565b11156125ca5760405162461bcd60e51b81526004018080602001828103825260288152602001806128e06028913960400191505060405180910390fd5b600a546125dd908263ffffffff61274916565b600a5561214a565b600a601d54610100900460ff16600d8111156125fd57fe5b141561267157601154600b54612619908363ffffffff61274916565b11156126565760405162461bcd60e51b815260040180806020018281038252602a81526020018061288d602a913960400191505060405180910390fd5b600b54612669908263ffffffff61274916565b600b5561214a565b600c601d54610100900460ff16600d81111561268957fe5b14156126fd57601254600c546126a5908363ffffffff61274916565b11156126e25760405162461bcd60e51b81526004018080602001828103825260298152602001806128b76029913960400191505060405180910390fd5b600c546126f5908263ffffffff61274916565b600c5561214a565b6040805162461bcd60e51b815260206004820152600e60248201526d4e6f206163746976652053616c6560901b604482015290519081900360640190fd5b61274582826127a3565b5050565b600082820183811015612072576040805162461bcd60e51b815260206004820152601b60248201527f536166654d6174683a206164646974696f6e206f766572666c6f770000000000604482015290519081900360640190fd5b6003546040805163a9059cbb60e01b81526001600160a01b038581166004830152602482018590529151919092169163a9059cbb9160448083019260209291908290030181600087803b1580156127f957600080fd5b505af115801561280d573d6000803e3d6000fd5b505050506040513d602081101561282357600080fd5b5051612745576040805162461bcd60e51b815260206004820152600f60248201526e151c985b9cd9995c8811985a5b1959608a1b604482015290519081900360640190fdfe43726f776453616c65526f756e645468726565204469646e27742073746172742079657443726f776453616c65526f756e645468726565537461727420636f6e646974696f6e73204661696c656443726f776453616c65526f756e64466f7572537461727420636f6e646974696f6e73204661696c656443726f776453616c65526f756e6454776f537461727420636f6e646974696f6e73204661696c65645072697661746553616c65537461727420636f6e646974696f6e73204661696c656443726f776453616c65526f756e6454776f204469646e27742073746172742079657443726f776453616c65526f756e644f6e65537461727420636f6e646974696f6e73204661696c6564536166654d6174683a206d756c7469706c69636174696f6e206f766572666c6f77496e76616c696420416464726573733a204e6577206f776e657220697320746865207a65726f206164647265737343726f776453616c65526f756e645468726565204469646e277420656e642079657443726f776453616c65526f756e64466f7572204469646e27742073746172742079657443616c6c6572206973204e6f7420746865204f574e455200000000000000000043726f776453616c65526f756e644f6e65204469646e277420737461727420796574a265627a7a72315820bb9f9cf384028e4359219cc6cd11ac61b6f37159e04882b8e8fe1ce99897ceff64736f6c63430005100032",
  "source": "pragma solidity 0.5.16;\n\ninterface Swan {\n    function transfer (address, uint256) external returns (bool);\n    // function burnTokensForSale() external returns (bool);\n    // function saleTransfer(address,uint256,bool) external returns (bool);\n    // function finalize() external returns (bool);\n}\n\ncontract Owned {\n\n    address public owner;\n    address public newOwner;\n\n    event OwnershipTransferred(address indexed from, address indexed _to);\n\n    constructor(address _owner) public {\n        owner = _owner;\n    }\n\n    modifier onlyOwner {\n        require(msg.sender == owner,\"Caller is Not the OWNER\");\n        _;\n    }\n\n    function transferOwnership(address newOwnerAddress) external onlyOwner {\n        require(newOwnerAddress != address(0), \"Invalid Address: New owner is the zero address\");\n        newOwner = newOwnerAddress;\n    }\n    function acceptOwnership() external {\n        require(msg.sender == newOwner,\"Caller is not the selected Owner\");\n        emit OwnershipTransferred(owner, newOwner);\n        owner = newOwner;\n        newOwner = address(0);\n    }\n}\n\ncontract Pausable is Owned {\n    event Pause();\n    event Unpause();\n\n    bool public paused = false;\n\n    modifier whenNotPaused() {\n      require(!paused,\"Contract is Paused\");\n      _;\n    }\n\n    modifier whenPaused() {\n      require(paused,\"Contract is Not Paused\");\n      _;\n    }\n\n    function pause() onlyOwner whenNotPaused external {\n      paused = true;\n      emit Pause();\n    }\n\n    function unpause() onlyOwner whenPaused external {\n      paused = false;\n      emit Unpause();\n    }\n}\n\n\n/**\n * @dev Wrappers over Solidity's arithmetic operations with added overflow\n * checks.\n *\n * Arithmetic operations in Solidity wrap on overflow. This can easily result\n * in bugs, because programmers usually assume that an overflow raises an\n * error, which is the standard behavior in high level programming languages.\n * `SafeMath` restores this intuition by reverting the transaction when an\n * operation overflows.\n *\n * Using this library instead of the unchecked operations eliminates an entire\n * class of bugs, so it's recommended to use it always.\n */\nlibrary SafeMath {\n    /**\n     * @dev Returns the addition of two unsigned integers, reverting on\n     * overflow.\n     *\n     * Counterpart to Solidity's `+` operator.\n     *\n     * Requirements:\n     * - Addition cannot overflow.\n     */\n    function add(uint256 a, uint256 b) internal pure returns (uint256) {\n        uint256 c = a + b;\n        require(c >= a, \"SafeMath: addition overflow\");\n\n        return c;\n    }\n\n    /**\n     * @dev Returns the subtraction of two unsigned integers, reverting on\n     * overflow (when the result is negative).\n     *\n     * Counterpart to Solidity's `-` operator.\n     *\n     * Requirements:\n     * - Subtraction cannot overflow.\n     */\n    function sub(uint256 a, uint256 b) internal pure returns (uint256) {\n        require(b <= a, \"SafeMath: subtraction overflow\");\n        uint256 c = a - b;\n\n        return c;\n    }\n\n    /**\n     * @dev Returns the multiplication of two unsigned integers, reverting on\n     * overflow.\n     *\n     * Counterpart to Solidity's `*` operator.\n     *\n     * Requirements:\n     * - Multiplication cannot overflow.\n     */\n    function mul(uint256 a, uint256 b) internal pure returns (uint256) {\n        // Gas optimization: this is cheaper than requiring 'a' not being zero, but the\n        // benefit is lost if 'b' is also tested.\n        // See: https://github.com/OpenZeppelin/openzeppelin-solidity/pull/522\n        if (a == 0) {\n            return 0;\n        }\n\n        uint256 c = a * b;\n        require(c / a == b, \"SafeMath: multiplication overflow\");\n\n        return c;\n    }\n\n    /**\n     * @dev Returns the integer division of two unsigned integers. Reverts on\n     * division by zero. The result is rounded towards zero.\n     *\n     * Counterpart to Solidity's `/` operator. Note: this function uses a\n     * `revert` opcode (which leaves remaining gas untouched) while Solidity\n     * uses an invalid opcode to revert (consuming all remaining gas).\n     *\n     * Requirements:\n     * - The divisor cannot be zero.\n     */\n    function div(uint256 a, uint256 b) internal pure returns (uint256) {\n        // Solidity only automatically asserts when dividing by 0\n        require(b > 0, \"SafeMath: division by zero\");\n        uint256 c = a / b;\n        // assert(a == b * c + a % b); // There is no case in which this doesn't hold\n\n        return c;\n    }\n\n}\n\ncontract Crowdsale is Pausable { \n  \n  using SafeMath for uint256;\n  uint256 public ethPrice; // 1 Ether price in USD cents.\n\n  Swan public token;\n\n  uint256 public hardCap = 0; \n  uint256 public softCap = 500000000; // in cents \n\n  //total tokens for sale \n  uint256 public tokensForSale = 140000000000 ether;\n\n  // tokens sold in each round of sale \n  uint256 public privateSaletokenSold = 0;\n  uint256 public preSaleTokensSold = 0;\n  uint256 public crowdSaleRoundOne = 0;\n  uint256 public crowdSaleRoundTwo = 0;\n  uint256 public crowdSaleRoundThree = 0;\n  uint256 public crowdSaleRoundFour = 0;\n\n  // tokenSoldLimit in rounds\n  uint256 public privateSaletokenLimit = 2500000000;\n  uint256 public preSaleTokensLimit = 2400000000;\n  uint256 public crowdSaleRoundOneLimit = 2300000000;\n  uint256 public crowdSaleRoundTwoLimit = 2200000000;\n  uint256 public crowdSaleRoundThreeLimit = 2100000000;\n  uint256 public crowdSaleRoundFourLimit = 2500000000;\n\n  \n  // Address where funds are collected\n  address  payable public  wallet;\n\n  uint256 public bonusPercentPrivateSale  = 25;\n  uint256 public bonusPercentPreSale = 20;\n  uint256 public bonusPercentRoudOne = 15;\n  uint256 public bonusPercentRoudTwo = 10;\n  uint256 public bonusPercentRoudThree = 5;\n  uint256 public bonusPercentRoudFour = 0;  \n\n// user limit\n\n  uint256 public minimumInvestment = 50000;\n  uint256 public maximumInvestment = 20000000;\n  uint256 public tokensInOneDollar = 1000;\n\n  bool public crowdSaleStarted = false;\n\n  enum Stages {CrowdSaleNotStarted, Pause, PrivateSaleStart,PrivateSaleEnd, PreSaleStart, PreSaleEnd, CrowdSaleRoundOneStart,CrowdSaleRoundOneEnd, CrowdSaleRoundTwoStart, CrowdSaleRoundTwoEnd, CrowdSaleRoundThreeStart, CrowdSaleRoundThreeEnd, CrowdSaleRoundFourStart, CrowdSaleRoundFourEnd}\n\n  Stages currentStage;\n  Stages previousStage;\n  bool public Paused;\n\n   // adreess vs state mapping (1 for exists , zero default);\n   mapping (address => bool) public whitelistedContributors;\n\n  \n   modifier CrowdsaleStarted(){\n\n      require(crowdSaleStarted,\"crowdSale Not started yet\");\n      _;\n   }\n \n    /**\n    * Event for token purchase logging\n    * @param purchaser who paid for the tokens\n    * @param beneficiary who got the tokens\n    * @param value weis paid for purchase\n    * @param amount amount of tokens purchased\n    */\n    event TokenPurchase(address indexed purchaser, address indexed beneficiary, uint256 value, uint256 amount);\n\n    /**\n    *@dev initializes the crowdsale contract \n    * @param _newOwner Address who has special power to change the ether price in cents according to the market price\n    * @param _wallet Address where collected funds will be forwarded to\n    * @param _token Address of the token being sold\n    *  @param _ethPriceInCents ether price in cents\n    */\n    constructor(address _newOwner, address payable _wallet, Swan _token,uint256 _ethPriceInCents) Owned(_newOwner) public {\n\n        wallet = _wallet;\n        owner = _newOwner;\n        token = _token;\n        ethPrice = _ethPriceInCents; //ethPrice in cents\n        currentStage = Stages.CrowdSaleNotStarted;\n\n    }\n    \n    /**\n    * @dev fallback function ***DO NOT OVERRIDE***\n    */\n    function () external payable {\n    \n     if(msg.sender != owner){\n\n        buyTokens(msg.sender); \n\n     }\n     else{\n     revert();\n     }\n     \n    }\n\n    /**\n    * @dev whitelist addresses of investors.\n    * @param addrs ,array of addresses of investors to be whitelisted\n    * Note:= Array length must be less than 200.\n    */\n    function authorizeKyc(address[] memory addrs) public onlyOwner returns (bool success) {\n        uint arrayLength = addrs.length;\n        for (uint x = 0; x < arrayLength; x++) \n        {\n            whitelistedContributors[addrs[x]] = true;\n        }\n        return true;\n    }\n    \n    /**\n    * @dev calling this function will pause the sale\n    */\n    \n    function pause() public onlyOwner {\n      require(!Paused,\"contract is already Paused\");\n      require(crowdSaleStarted,\"Crowdsale already started\");\n      previousStage=currentStage;\n      currentStage=Stages.Pause;\n      Paused = true;\n    }\n  \n    function restartSale() public onlyOwner {\n      require(currentStage == Stages.Pause,\"currentStage is not PAUSE\");\n      currentStage=previousStage;\n      Paused = false;\n    }\n\n    function startPrivateSale() public onlyOwner {\n      require(!crowdSaleStarted,\"Crowdsale Already Started\");\n      crowdSaleStarted = true;\n      currentStage = Stages.PrivateSaleStart;\n    }\n\n    function endPrivateSale() public onlyOwner {\n\n      require(currentStage == Stages.PrivateSaleStart,\"Crowdsale didn't Start yet\");\n      currentStage = Stages.PrivateSaleEnd;\n\n    }\n\n    function startPreSale() public onlyOwner {\n\n    require(currentStage == Stages.PrivateSaleEnd,\"Private Sale Didn't end yet\");\n    currentStage = Stages.PreSaleStart;\n   \n    }\n\n    function endPreSale() public onlyOwner {\n\n    require(currentStage == Stages.PreSaleStart,\"Pre Sale didn't Start yet\");\n    currentStage = Stages.PreSaleEnd;\n   \n    }\n\n    function startCrowdSaleRoundOne() public onlyOwner {\n\n    require(currentStage == Stages.PreSaleEnd,\"Pre Sale Didn't end yet\");\n    currentStage = Stages.CrowdSaleRoundOneStart;\n\n    }\n\n    function endCrowdSaleRoundOne() public onlyOwner {\n\n    require(currentStage == Stages.CrowdSaleRoundOneStart,\"CrowdSaleRoundOne Didn't start yet\");\n    currentStage = Stages.CrowdSaleRoundOneEnd;\n\n    }\n\n    function startCrowdSaleRoundTwo() public onlyOwner {\n\n    require(currentStage == Stages.CrowdSaleRoundOneEnd,\"CrowdSaleRoundOne Didn't end yet\");\n    currentStage = Stages.CrowdSaleRoundTwoStart;\n\n    }\n\n    function endCrowdSaleRoundTwo() public onlyOwner {\n\n    require(currentStage == Stages.CrowdSaleRoundTwoStart,\"CrowdSaleRoundTwo Didn't start yet\");\n    currentStage = Stages.CrowdSaleRoundTwoEnd;\n\n    }\n\n    function startCrowdSaleRoundThree() public onlyOwner {\n\n    require(currentStage == Stages.CrowdSaleRoundTwoEnd,\"CrowdSaleRoundTwo Didn't end yet\");\n    currentStage = Stages.CrowdSaleRoundThreeStart;\n\n    }\n\n    function endCrowdSaleRoundThree() public onlyOwner {\n\n    require(currentStage == Stages.CrowdSaleRoundThreeStart,\"CrowdSaleRoundThree Didn't start yet\");\n    currentStage = Stages.CrowdSaleRoundThreeEnd;\n\n    }\n\n    function startCrowdSaleRoundFour() public onlyOwner {\n\n    require(currentStage == Stages.CrowdSaleRoundThreeEnd,\"CrowdSaleRoundThree Didn't end yet\");\n    currentStage = Stages.CrowdSaleRoundFourStart;\n\n    }\n\n    function endCrowdSaleRoundFour() public onlyOwner {\n\n    require(currentStage == Stages.CrowdSaleRoundFourStart,\"CrowdSaleRoundFour Didn't start yet\");\n    currentStage = Stages.CrowdSaleRoundFourEnd;\n\n    }\n\n    function getStage() public view returns (string memory) {\n    if (currentStage == Stages.PrivateSaleStart) return 'Private Sale Start';\n    else if (currentStage == Stages.PrivateSaleEnd) return 'Private Sale End';\n    else if (currentStage == Stages.PreSaleStart) return 'Presale Started';\n    else if (currentStage == Stages.PreSaleEnd) return 'Presale Ended';\n    else if (currentStage == Stages.CrowdSaleRoundOneStart) return 'CrowdSale Round One Started';\n    else if (currentStage == Stages.CrowdSaleRoundOneEnd) return 'CrowdSale Round One End';\n    else if (currentStage == Stages.CrowdSaleRoundTwoStart) return 'CrowdSale Round Two Started';\n    else if (currentStage == Stages.CrowdSaleRoundTwoEnd) return 'CrowdSale Round Two End';\n    else if (currentStage == Stages.CrowdSaleRoundThreeStart) return 'CrowdSale Round Three Started';\n    else if (currentStage == Stages.CrowdSaleRoundThreeEnd) return 'CrowdSale Round Three End';\n    else if (currentStage == Stages.CrowdSaleRoundFourStart) return 'CrowdSale Round Four Started';    \n    else if (currentStage == Stages.CrowdSaleRoundFourEnd) return 'CrowdSale Round Four End';   \n    else if (currentStage == Stages.Pause) return 'paused';\n    else if (currentStage == Stages.CrowdSaleNotStarted) return 'CrowdSale Not Started';    \n    }\n    \n   /**\n   * @dev sets the value of ether price in cents.Can be called only by the owner account.\n   * @param _ethPriceInCents price in cents .\n   */\n   function setEthPriceInCents(uint _ethPriceInCents) onlyOwner public returns(bool) {\n        ethPrice = _ethPriceInCents;\n        return true;\n    }\n\n   /**\n   * @param _beneficiary Address performing the token purchase\n   */\n   function buyTokens(address _beneficiary) CrowdsaleStarted whenNotPaused public payable {\n\n    require(whitelistedContributors[_beneficiary] == true, \"Not a whitelistedInvestor\");\n    require(!Paused, \"Contract is Paused\");\n    uint256 weiAmount = msg.value;\n    uint256 usdCents = weiAmount.mul(ethPrice).div(1 ether); \n\n    _preValidatePurchase(usdCents);\n\n    uint256 tokens = _getTokenAmount(usdCents);\n\n    _validateTokenCapLimits(usdCents);\n\n    _processPurchase(_beneficiary,tokens);\n\n    wallet.transfer(msg.value);\n\n    emit TokenPurchase(msg.sender, _beneficiary, weiAmount, tokens);\n   }\n  \n   /**\n   * @dev Validation of an incoming purchase. Use require statemens to revert state when conditions are not met. Use super to concatenate validations.\n   * @param _usdCents Value in usdincents involved in the purchase\n   */\n   function _preValidatePurchase(uint256 _usdCents) internal view { \n\n       require(_usdCents >= minimumInvestment && _usdCents <= maximumInvestment,\"_preValidatePurchase failed\");\n\n    }\n    \n    /**\n    * @dev Validation of the capped restrictions.\n    * @param _tokenValue amount\n    */\n\n    function _validateTokenCapLimits(uint256 _tokenValue) internal {\n     \n    if (currentStage == Stages.PrivateSaleStart) {\n        \n        require(privateSaletokenSold.add(_tokenValue) <= privateSaletokenLimit,\"PrivateSaleStart conditions Failed\");\n        privateSaletokenSold = privateSaletokenSold.add(_tokenValue);\n        \n    }\n\n    else if (currentStage == Stages.PreSaleStart) {\n        \n        require(preSaleTokensSold.add(_tokenValue) <= preSaleTokensLimit,\"PreSaleStart conditions Failed\");\n        preSaleTokensSold = preSaleTokensSold.add(_tokenValue);\n        \n    }\n\n    else if (currentStage == Stages.CrowdSaleRoundOneStart) {\n        \n        require(crowdSaleRoundOne.add(_tokenValue) <= crowdSaleRoundOneLimit,\"CrowdSaleRoundOneStart conditions Failed\");\n        crowdSaleRoundOne = crowdSaleRoundOne.add(_tokenValue);        \n        \n    }\n\n    else if (currentStage == Stages.CrowdSaleRoundTwoStart) {\n        \n        require(crowdSaleRoundTwo.add(_tokenValue) <= crowdSaleRoundTwoLimit,\"CrowdSaleRoundTwoStart conditions Failed\");\n        crowdSaleRoundTwo = crowdSaleRoundTwo.add(_tokenValue);        \n        \n    }\n\n    else if (currentStage == Stages.CrowdSaleRoundThreeStart) {\n        \n        require(crowdSaleRoundThree.add(_tokenValue) <= crowdSaleRoundThreeLimit,\"CrowdSaleRoundThreeStart conditions Failed\");\n        crowdSaleRoundThree = crowdSaleRoundThree.add(_tokenValue);        \n        \n    }\n\n    else if (currentStage == Stages.CrowdSaleRoundFourStart) {\n        \n        require(crowdSaleRoundFour.add(_tokenValue) <= crowdSaleRoundFourLimit,\"CrowdSaleRoundFourStart conditions Failed\");\n        crowdSaleRoundFour = crowdSaleRoundFour.add(_tokenValue);        \n\n    }    \n\n    else { revert(\"No active Sale\");}\n\n   }\n   \n   /**\n   * @dev Source of tokens. Override this method to modify the way in which the crowdsale ultimately gets and sends its tokens.\n   * @param _beneficiary Address performing the token purchase\n   * @param _tokenAmount Number of tokens to be emitted\n   */\n   function _deliverTokens(address _beneficiary, uint256 _tokenAmount) internal {\n       require(token.transfer(_beneficiary, _tokenAmount),\"Transfer Failed\");    \n   }\n\n   /**\n   * @dev Executed when a purchase has been validated and is ready to be executed. Not necessarily emits/sends tokens.\n   * @param _beneficiary Address receiving the tokens\n   * @param _tokenAmount Number of tokens to be purchased\n   */\n   function _processPurchase(address _beneficiary, uint256 _tokenAmount) internal {\n    _deliverTokens(_beneficiary, _tokenAmount);\n   }\n  \n\n    /**\n    * @param _usdCents Value in usd cents to be converted into tokens\n    * @return Number of tokens that can be purchased with the specified _usdCents\n    */\n    function _getTokenAmount(uint256 _usdCents) CrowdsaleStarted internal view returns (uint256) {\n\n         uint256 bonusUSD;\n         uint256 bonusTokens;\n         uint256 actualTokens;\n         uint256 totalTokens;\n\n     \n      if (currentStage == Stages.PrivateSaleStart) {\n         \n\n         bonusUSD = (_usdCents.div(100)).mul(25).div(100);\n         bonusTokens = bonusUSD.mul(tokensInOneDollar);\n         actualTokens = _usdCents.div(100).mul(tokensInOneDollar);\n         totalTokens = bonusTokens.add(actualTokens);\n\n\n      }\n      else if (currentStage == Stages.PreSaleStart) {\n\n         bonusUSD = (_usdCents.div(100)).mul(25).div(100);\n         bonusTokens = bonusUSD.mul(tokensInOneDollar);\n         actualTokens = _usdCents.div(100).mul(tokensInOneDollar);\n         totalTokens = bonusTokens.add(actualTokens); \n         \n      }\n      else if (currentStage == Stages.CrowdSaleRoundOneStart) {\n\n         bonusUSD = (_usdCents.div(100)).mul(25).div(100);\n         bonusTokens = bonusUSD.mul(tokensInOneDollar);\n         actualTokens = _usdCents.div(100).mul(tokensInOneDollar);\n         totalTokens = bonusTokens.add(actualTokens);\n         \n      }\n      else if (currentStage == Stages.CrowdSaleRoundTwoStart) {\n\n         bonusUSD = (_usdCents.div(100)).mul(25).div(100);\n         bonusTokens = bonusUSD.mul(tokensInOneDollar);\n         actualTokens = _usdCents.div(100).mul(tokensInOneDollar);\n         totalTokens = bonusTokens.add(actualTokens);\n      }\n      else if (currentStage == Stages.CrowdSaleRoundThreeStart) {\n\n         bonusUSD = (_usdCents.div(100)).mul(25).div(100);\n         bonusTokens = bonusUSD.mul(tokensInOneDollar);\n         actualTokens = _usdCents.div(100).mul(tokensInOneDollar);\n         totalTokens = bonusTokens.add(actualTokens);         \n\n      }\n      else if (currentStage == Stages.CrowdSaleRoundFourStart) {\n\n         bonusUSD = (_usdCents.div(100)).mul(25).div(100);\n         bonusTokens = bonusUSD.mul(tokensInOneDollar);\n         actualTokens = _usdCents.div(100).mul(tokensInOneDollar);\n         totalTokens = bonusTokens.add(actualTokens);         \n\n      }\n    \n      return totalTokens;\n    }\n    \n    /**\n    * @dev finalize the crowdsale.After finalizing ,tokens transfer can be done.\n    */\n    // function finalizeSale() public  onlyOwner {\n    //     require(currentStage == Stages.CrowdSaleRoundFourEnd);\n    //     require(token.finalize());\n        \n    // }\n\n\n}\n",
  "sourcePath": "/home/zaryab/blockchain_begins/all_about_ethereum/quillHash_CODES/NewSwan/swan_smart_contracts/contracts/Crowdsale.sol",
  "compiler": {
    "name": "solc",
    "version": "0.5.16+commit.9c3226ce.Emscripten.clang"
  },
  "schemaVersion": "3.2.2",
  "updatedAt": "2020-12-08T13:50:32.850Z",
  "networkType": "ethereum",
  "devdoc": {
    "methods": {
      "authorizeKyc(address[])": {
        "details": "whitelist addresses of investors.",
        "params": {
          "addrs": ",array of addresses of investors to be whitelisted Note:= Array length must be less than 200."
        }
      },
      "buyTokens(address)": {
        "params": {
          "_beneficiary": "Address performing the token purchase"
        }
      },
      "constructor": {
        "params": {
          "_ethPriceInCents": "ether price in cents",
          "_newOwner": "Address who has special power to change the ether price in cents according to the market price",
          "_token": "Address of the token being sold",
          "_wallet": "Address where collected funds will be forwarded to"
        }
      },
      "pause()": {
        "details": "calling this function will pause the sale"
      },
      "setEthPriceInCents(uint256)": {
        "details": "sets the value of ether price in cents.Can be called only by the owner account.",
        "params": {
          "_ethPriceInCents": "price in cents ."
        }
      }
    }
  },
  "userdoc": {
    "methods": {
      "constructor": "dev initializes the crowdsale contract "
    }
  }
}