{
  "contractName": "Crowdsale",
  "abi": [
    {
      "inputs": [
        {
          "internalType": "address",
          "name": "_newOwner",
          "type": "address"
        },
        {
          "internalType": "address payable",
          "name": "_wallet",
          "type": "address"
        },
        {
          "internalType": "contract SwanToken",
          "name": "_token",
          "type": "address"
        },
        {
          "internalType": "uint256",
          "name": "_ethPriceInCents",
          "type": "uint256"
        }
      ],
      "payable": false,
      "stateMutability": "nonpayable",
      "type": "constructor"
    },
    {
      "anonymous": false,
      "inputs": [
        {
          "indexed": true,
          "internalType": "address",
          "name": "from",
          "type": "address"
        },
        {
          "indexed": true,
          "internalType": "address",
          "name": "_to",
          "type": "address"
        }
      ],
      "name": "OwnershipTransferred",
      "type": "event"
    },
    {
      "anonymous": false,
      "inputs": [],
      "name": "Pause",
      "type": "event"
    },
    {
      "anonymous": false,
      "inputs": [
        {
          "indexed": true,
          "internalType": "address",
          "name": "purchaser",
          "type": "address"
        },
        {
          "indexed": true,
          "internalType": "address",
          "name": "beneficiary",
          "type": "address"
        },
        {
          "indexed": false,
          "internalType": "uint256",
          "name": "value",
          "type": "uint256"
        },
        {
          "indexed": false,
          "internalType": "uint256",
          "name": "amount",
          "type": "uint256"
        }
      ],
      "name": "TokenPurchase",
      "type": "event"
    },
    {
      "anonymous": false,
      "inputs": [],
      "name": "Unpause",
      "type": "event"
    },
    {
      "payable": true,
      "stateMutability": "payable",
      "type": "fallback"
    },
    {
      "constant": true,
      "inputs": [],
      "name": "Paused",
      "outputs": [
        {
          "internalType": "bool",
          "name": "",
          "type": "bool"
        }
      ],
      "payable": false,
      "stateMutability": "view",
      "type": "function"
    },
    {
      "constant": false,
      "inputs": [],
      "name": "acceptOwnership",
      "outputs": [],
      "payable": false,
      "stateMutability": "nonpayable",
      "type": "function"
    },
    {
      "constant": true,
      "inputs": [],
      "name": "bonusPercentPreSale",
      "outputs": [
        {
          "internalType": "uint256",
          "name": "",
          "type": "uint256"
        }
      ],
      "payable": false,
      "stateMutability": "view",
      "type": "function"
    },
    {
      "constant": true,
      "inputs": [],
      "name": "bonusPercentPrivateSale",
      "outputs": [
        {
          "internalType": "uint256",
          "name": "",
          "type": "uint256"
        }
      ],
      "payable": false,
      "stateMutability": "view",
      "type": "function"
    },
    {
      "constant": true,
      "inputs": [],
      "name": "bonusPercentRoudFour",
      "outputs": [
        {
          "internalType": "uint256",
          "name": "",
          "type": "uint256"
        }
      ],
      "payable": false,
      "stateMutability": "view",
      "type": "function"
    },
    {
      "constant": true,
      "inputs": [],
      "name": "bonusPercentRoudOne",
      "outputs": [
        {
          "internalType": "uint256",
          "name": "",
          "type": "uint256"
        }
      ],
      "payable": false,
      "stateMutability": "view",
      "type": "function"
    },
    {
      "constant": true,
      "inputs": [],
      "name": "bonusPercentRoudThree",
      "outputs": [
        {
          "internalType": "uint256",
          "name": "",
          "type": "uint256"
        }
      ],
      "payable": false,
      "stateMutability": "view",
      "type": "function"
    },
    {
      "constant": true,
      "inputs": [],
      "name": "bonusPercentRoudTwo",
      "outputs": [
        {
          "internalType": "uint256",
          "name": "",
          "type": "uint256"
        }
      ],
      "payable": false,
      "stateMutability": "view",
      "type": "function"
    },
    {
      "constant": true,
      "inputs": [],
      "name": "crowdSaleRoundFour",
      "outputs": [
        {
          "internalType": "uint256",
          "name": "",
          "type": "uint256"
        }
      ],
      "payable": false,
      "stateMutability": "view",
      "type": "function"
    },
    {
      "constant": true,
      "inputs": [],
      "name": "crowdSaleRoundFourLimit",
      "outputs": [
        {
          "internalType": "uint256",
          "name": "",
          "type": "uint256"
        }
      ],
      "payable": false,
      "stateMutability": "view",
      "type": "function"
    },
    {
      "constant": true,
      "inputs": [],
      "name": "crowdSaleRoundOne",
      "outputs": [
        {
          "internalType": "uint256",
          "name": "",
          "type": "uint256"
        }
      ],
      "payable": false,
      "stateMutability": "view",
      "type": "function"
    },
    {
      "constant": true,
      "inputs": [],
      "name": "crowdSaleRoundOneLimit",
      "outputs": [
        {
          "internalType": "uint256",
          "name": "",
          "type": "uint256"
        }
      ],
      "payable": false,
      "stateMutability": "view",
      "type": "function"
    },
    {
      "constant": true,
      "inputs": [],
      "name": "crowdSaleRoundThree",
      "outputs": [
        {
          "internalType": "uint256",
          "name": "",
          "type": "uint256"
        }
      ],
      "payable": false,
      "stateMutability": "view",
      "type": "function"
    },
    {
      "constant": true,
      "inputs": [],
      "name": "crowdSaleRoundThreeLimit",
      "outputs": [
        {
          "internalType": "uint256",
          "name": "",
          "type": "uint256"
        }
      ],
      "payable": false,
      "stateMutability": "view",
      "type": "function"
    },
    {
      "constant": true,
      "inputs": [],
      "name": "crowdSaleRoundTwo",
      "outputs": [
        {
          "internalType": "uint256",
          "name": "",
          "type": "uint256"
        }
      ],
      "payable": false,
      "stateMutability": "view",
      "type": "function"
    },
    {
      "constant": true,
      "inputs": [],
      "name": "crowdSaleRoundTwoLimit",
      "outputs": [
        {
          "internalType": "uint256",
          "name": "",
          "type": "uint256"
        }
      ],
      "payable": false,
      "stateMutability": "view",
      "type": "function"
    },
    {
      "constant": true,
      "inputs": [],
      "name": "crowdSaleStarted",
      "outputs": [
        {
          "internalType": "bool",
          "name": "",
          "type": "bool"
        }
      ],
      "payable": false,
      "stateMutability": "view",
      "type": "function"
    },
    {
      "constant": true,
      "inputs": [],
      "name": "ethPrice",
      "outputs": [
        {
          "internalType": "uint256",
          "name": "",
          "type": "uint256"
        }
      ],
      "payable": false,
      "stateMutability": "view",
      "type": "function"
    },
    {
      "constant": true,
      "inputs": [],
      "name": "hardCap",
      "outputs": [
        {
          "internalType": "uint256",
          "name": "",
          "type": "uint256"
        }
      ],
      "payable": false,
      "stateMutability": "view",
      "type": "function"
    },
    {
      "constant": true,
      "inputs": [],
      "name": "maximumInvestment",
      "outputs": [
        {
          "internalType": "uint256",
          "name": "",
          "type": "uint256"
        }
      ],
      "payable": false,
      "stateMutability": "view",
      "type": "function"
    },
    {
      "constant": true,
      "inputs": [],
      "name": "minimumInvestment",
      "outputs": [
        {
          "internalType": "uint256",
          "name": "",
          "type": "uint256"
        }
      ],
      "payable": false,
      "stateMutability": "view",
      "type": "function"
    },
    {
      "constant": true,
      "inputs": [],
      "name": "newOwner",
      "outputs": [
        {
          "internalType": "address",
          "name": "",
          "type": "address"
        }
      ],
      "payable": false,
      "stateMutability": "view",
      "type": "function"
    },
    {
      "constant": true,
      "inputs": [],
      "name": "owner",
      "outputs": [
        {
          "internalType": "address",
          "name": "",
          "type": "address"
        }
      ],
      "payable": false,
      "stateMutability": "view",
      "type": "function"
    },
    {
      "constant": true,
      "inputs": [],
      "name": "paused",
      "outputs": [
        {
          "internalType": "bool",
          "name": "",
          "type": "bool"
        }
      ],
      "payable": false,
      "stateMutability": "view",
      "type": "function"
    },
    {
      "constant": true,
      "inputs": [],
      "name": "preSaleTokensLimit",
      "outputs": [
        {
          "internalType": "uint256",
          "name": "",
          "type": "uint256"
        }
      ],
      "payable": false,
      "stateMutability": "view",
      "type": "function"
    },
    {
      "constant": true,
      "inputs": [],
      "name": "preSaleTokensSold",
      "outputs": [
        {
          "internalType": "uint256",
          "name": "",
          "type": "uint256"
        }
      ],
      "payable": false,
      "stateMutability": "view",
      "type": "function"
    },
    {
      "constant": true,
      "inputs": [],
      "name": "privateSaletokenLimit",
      "outputs": [
        {
          "internalType": "uint256",
          "name": "",
          "type": "uint256"
        }
      ],
      "payable": false,
      "stateMutability": "view",
      "type": "function"
    },
    {
      "constant": true,
      "inputs": [],
      "name": "privateSaletokenSold",
      "outputs": [
        {
          "internalType": "uint256",
          "name": "",
          "type": "uint256"
        }
      ],
      "payable": false,
      "stateMutability": "view",
      "type": "function"
    },
    {
      "constant": true,
      "inputs": [],
      "name": "softCap",
      "outputs": [
        {
          "internalType": "uint256",
          "name": "",
          "type": "uint256"
        }
      ],
      "payable": false,
      "stateMutability": "view",
      "type": "function"
    },
    {
      "constant": true,
      "inputs": [],
      "name": "token",
      "outputs": [
        {
          "internalType": "contract SwanToken",
          "name": "",
          "type": "address"
        }
      ],
      "payable": false,
      "stateMutability": "view",
      "type": "function"
    },
    {
      "constant": true,
      "inputs": [],
      "name": "tokensForSale",
      "outputs": [
        {
          "internalType": "uint256",
          "name": "",
          "type": "uint256"
        }
      ],
      "payable": false,
      "stateMutability": "view",
      "type": "function"
    },
    {
      "constant": true,
      "inputs": [],
      "name": "tokensInOneDollar",
      "outputs": [
        {
          "internalType": "uint256",
          "name": "",
          "type": "uint256"
        }
      ],
      "payable": false,
      "stateMutability": "view",
      "type": "function"
    },
    {
      "constant": true,
      "inputs": [],
      "name": "totalRaisedInCents",
      "outputs": [
        {
          "internalType": "uint256",
          "name": "",
          "type": "uint256"
        }
      ],
      "payable": false,
      "stateMutability": "view",
      "type": "function"
    },
    {
      "constant": false,
      "inputs": [
        {
          "internalType": "address",
          "name": "_newOwner",
          "type": "address"
        }
      ],
      "name": "transferOwnership",
      "outputs": [],
      "payable": false,
      "stateMutability": "nonpayable",
      "type": "function"
    },
    {
      "constant": false,
      "inputs": [],
      "name": "unpause",
      "outputs": [],
      "payable": false,
      "stateMutability": "nonpayable",
      "type": "function"
    },
    {
      "constant": true,
      "inputs": [],
      "name": "wallet",
      "outputs": [
        {
          "internalType": "address payable",
          "name": "",
          "type": "address"
        }
      ],
      "payable": false,
      "stateMutability": "view",
      "type": "function"
    },
    {
      "constant": true,
      "inputs": [
        {
          "internalType": "address",
          "name": "",
          "type": "address"
        }
      ],
      "name": "whitelistedContributors",
      "outputs": [
        {
          "internalType": "bool",
          "name": "",
          "type": "bool"
        }
      ],
      "payable": false,
      "stateMutability": "view",
      "type": "function"
    },
    {
      "constant": false,
      "inputs": [
        {
          "internalType": "address[]",
          "name": "addrs",
          "type": "address[]"
        }
      ],
      "name": "authorizeKyc",
      "outputs": [
        {
          "internalType": "bool",
          "name": "success",
          "type": "bool"
        }
      ],
      "payable": false,
      "stateMutability": "nonpayable",
      "type": "function"
    },
    {
      "constant": false,
      "inputs": [],
      "name": "pause",
      "outputs": [],
      "payable": false,
      "stateMutability": "nonpayable",
      "type": "function"
    },
    {
      "constant": false,
      "inputs": [],
      "name": "restartSale",
      "outputs": [],
      "payable": false,
      "stateMutability": "nonpayable",
      "type": "function"
    },
    {
      "constant": false,
      "inputs": [],
      "name": "startPrivateSale",
      "outputs": [],
      "payable": false,
      "stateMutability": "nonpayable",
      "type": "function"
    },
    {
      "constant": false,
      "inputs": [],
      "name": "endPrivateSale",
      "outputs": [],
      "payable": false,
      "stateMutability": "nonpayable",
      "type": "function"
    },
    {
      "constant": false,
      "inputs": [],
      "name": "startPreSale",
      "outputs": [],
      "payable": false,
      "stateMutability": "nonpayable",
      "type": "function"
    },
    {
      "constant": false,
      "inputs": [],
      "name": "endPreSale",
      "outputs": [],
      "payable": false,
      "stateMutability": "nonpayable",
      "type": "function"
    },
    {
      "constant": false,
      "inputs": [],
      "name": "startCrowdSaleRoundOne",
      "outputs": [],
      "payable": false,
      "stateMutability": "nonpayable",
      "type": "function"
    },
    {
      "constant": false,
      "inputs": [],
      "name": "endCrowdSaleRoundOne",
      "outputs": [],
      "payable": false,
      "stateMutability": "nonpayable",
      "type": "function"
    },
    {
      "constant": false,
      "inputs": [],
      "name": "startCrowdSaleRoundTwo",
      "outputs": [],
      "payable": false,
      "stateMutability": "nonpayable",
      "type": "function"
    },
    {
      "constant": false,
      "inputs": [],
      "name": "endCrowdSaleRoundTwo",
      "outputs": [],
      "payable": false,
      "stateMutability": "nonpayable",
      "type": "function"
    },
    {
      "constant": false,
      "inputs": [],
      "name": "startCrowdSaleRoundThree",
      "outputs": [],
      "payable": false,
      "stateMutability": "nonpayable",
      "type": "function"
    },
    {
      "constant": false,
      "inputs": [],
      "name": "endCrowdSaleRoundThree",
      "outputs": [],
      "payable": false,
      "stateMutability": "nonpayable",
      "type": "function"
    },
    {
      "constant": false,
      "inputs": [],
      "name": "startCrowdSaleRoundFour",
      "outputs": [],
      "payable": false,
      "stateMutability": "nonpayable",
      "type": "function"
    },
    {
      "constant": false,
      "inputs": [],
      "name": "endCrowdSaleRoundFour",
      "outputs": [],
      "payable": false,
      "stateMutability": "nonpayable",
      "type": "function"
    },
    {
      "constant": true,
      "inputs": [],
      "name": "getStage",
      "outputs": [
        {
          "internalType": "string",
          "name": "",
          "type": "string"
        }
      ],
      "payable": false,
      "stateMutability": "view",
      "type": "function"
    },
    {
      "constant": false,
      "inputs": [
        {
          "internalType": "uint256",
          "name": "_ethPriceInCents",
          "type": "uint256"
        }
      ],
      "name": "setEthPriceInCents",
      "outputs": [
        {
          "internalType": "bool",
          "name": "",
          "type": "bool"
        }
      ],
      "payable": false,
      "stateMutability": "nonpayable",
      "type": "function"
    },
    {
      "constant": false,
      "inputs": [
        {
          "internalType": "address",
          "name": "_beneficiary",
          "type": "address"
        }
      ],
      "name": "buyTokens",
      "outputs": [],
      "payable": true,
      "stateMutability": "payable",
      "type": "function"
    },
    {
      "constant": false,
      "inputs": [],
      "name": "finalizeSale",
      "outputs": [],
      "payable": false,
      "stateMutability": "nonpayable",
      "type": "function"
    },
    {
      "constant": true,
      "inputs": [],
      "name": "isSoftCapReached",
      "outputs": [
        {
          "internalType": "bool",
          "name": "",
          "type": "bool"
        }
      ],
      "payable": false,
      "stateMutability": "view",
      "type": "function"
    }
  ],
  "bytecode": "0x60806040526001805460ff60a01b1916905560006004819055631dcd650060059081556c01c45d49276606214ee0000000600655600782905560088290556009829055600a828155600b839055600c839055639502f900600d819055638f0d1800600e556389173700600f9081556383215600601055637d2b7500601155601291909155601960148181556015556016919091556017919091556018919091555561c350601a556301312d00601b556103e8601c55601d805460ff191690553480156100ca57600080fd5b50604051611faa380380611faa833981810160405260808110156100ed57600080fd5b5080516020820151604083015160609093015160008054601380546001600160a01b03199081166001600160a01b039687161790915590811694841694851781169094178155600380549094169290941691909117909155600255601f805460ff19169055611e4890819061016290396000f3fe6080604052600436106103755760003560e01c806379ba5097116101d1578063c806dcc611610102578063ec8ac4d8116100a0578063fb86a4041161006f578063fb86a40414610934578063fc0c546a14610949578063fcaa76641461095e578063ff186b2e146109e857610375565b8063ec8ac4d8146108b1578063edfc8257146108d7578063ee889ed0146108ec578063f2fde38b1461090157610375565b8063d80f6d3d116100dc578063d80f6d3d1461085d578063dc8371d614610872578063e2acae2a14610887578063e6a23c3d1461089c57610375565b8063c806dcc61461081e578063d4470aa014610833578063d4ee1d901461084857610375565b8063a7a851141161016f578063ba6169fe11610149578063ba6169fe146107ac578063bc950708146107c1578063c0314701146107d6578063c7b850dd146107eb57610375565b8063a7a851141461076d578063b121acf014610782578063b904088e1461079757610375565b80638635cfd1116101ab5780638635cfd1146107195780638da5cb5b1461072e578063906a26e0146107435780639e87fac81461075857610375565b806379ba5097146106da57806380d32f85146106ef5780638456cb591461070457610375565b80633f4ba83a116102ab57806365fbf8a0116102495780636cea50a1116102235780636cea50a1146105eb57806370d7a0e71461060057806374711285146106b057806376be6b2b146106c557610375565b806365fbf8a0146105ac578063691901e0146105c15780636adf0c27146105d657610375565b806355dd574c1161028557806355dd574c1461055857806358a687ec1461056d5780635c975abb1461058257806363d6ac1f1461059757610375565b80633f4ba83a146104fd578063521eb2731461051257806353bf5af41461054357610375565b806316b42ec211610318578063238b6d40116102f2578063238b6d40146104a9578063297aeb83146104be5780632b925b25146104d3578063338dbf59146104e857610375565b806316b42ec21461046a5780631b56ea7e1461047f57806322c5d0b21461049457610375565b80630dfd0e73116103545780630dfd0e73146104165780630ee13ced1461042b57806310ea759f1461044057806312aef8c31461045557610375565b806241edee1461039c578063044f9afe146103c35780630c1d7cb614610401575b6000546001600160a01b0316331461039557610390336109fd565b61039a565b600080fd5b005b3480156103a857600080fd5b506103b1610bbc565b60408051918252519081900360200190f35b3480156103cf57600080fd5b506103ed600480360360208110156103e657600080fd5b5035610bc2565b604080519115158252519081900360200190f35b34801561040d57600080fd5b506103b1610be3565b34801561042257600080fd5b506103b1610be9565b34801561043757600080fd5b5061039a610bef565b34801561044c57600080fd5b506103b1610c3a565b34801561046157600080fd5b506103b1610c40565b34801561047657600080fd5b506103b1610c46565b34801561048b57600080fd5b506103b1610c4c565b3480156104a057600080fd5b506103b1610c52565b3480156104b557600080fd5b506103b1610c58565b3480156104ca57600080fd5b506103b1610c5e565b3480156104df57600080fd5b506103b1610c64565b3480156104f457600080fd5b5061039a610c6a565b34801561050957600080fd5b5061039a610cb3565b34801561051e57600080fd5b50610527610d18565b604080516001600160a01b039092168252519081900360200190f35b34801561054f57600080fd5b5061039a610d27565b34801561056457600080fd5b5061039a610d6f565b34801561057957600080fd5b5061039a610db7565b34801561058e57600080fd5b506103ed610e72565b3480156105a357600080fd5b5061039a610e82565b3480156105b857600080fd5b506103b1610eca565b3480156105cd57600080fd5b506103b1610ed0565b3480156105e257600080fd5b506103b1610ed6565b3480156105f757600080fd5b506103ed610edc565b34801561060c57600080fd5b506103ed6004803603602081101561062357600080fd5b81019060208101813564010000000081111561063e57600080fd5b82018360208201111561065057600080fd5b8035906020019184602083028401116401000000008311171561067257600080fd5b919080806020026020016040519081016040528093929190818152602001838360200280828437600092019190915250929550610ee5945050505050565b3480156106bc57600080fd5b5061039a610f60565b3480156106d157600080fd5b506103b1610fc7565b3480156106e657600080fd5b5061039a610fcd565b3480156106fb57600080fd5b506103ed611048565b34801561071057600080fd5b5061039a611064565b34801561072557600080fd5b506103b16110e4565b34801561073a57600080fd5b506105276110ea565b34801561074f57600080fd5b506103b16110f9565b34801561076457600080fd5b506103ed6110ff565b34801561077957600080fd5b506103b161110e565b34801561078e57600080fd5b5061039a611114565b3480156107a357600080fd5b506103b161115c565b3480156107b857600080fd5b5061039a611162565b3480156107cd57600080fd5b506103b16111aa565b3480156107e257600080fd5b5061039a6111b0565b3480156107f757600080fd5b506103ed6004803603602081101561080e57600080fd5b50356001600160a01b03166111f8565b34801561082a57600080fd5b5061039a61120c565b34801561083f57600080fd5b506103b1611254565b34801561085457600080fd5b5061052761125a565b34801561086957600080fd5b506103b1611269565b34801561087e57600080fd5b5061039a61126f565b34801561089357600080fd5b506103b16112b7565b3480156108a857600080fd5b5061039a6112bd565b61039a600480360360208110156108c757600080fd5b50356001600160a01b03166109fd565b3480156108e357600080fd5b506103b1611305565b3480156108f857600080fd5b5061039a61130b565b34801561090d57600080fd5b5061039a6004803603602081101561092457600080fd5b50356001600160a01b0316611353565b34801561094057600080fd5b506103b161138c565b34801561095557600080fd5b50610527611392565b34801561096a57600080fd5b506109736113a1565b6040805160208082528351818301528351919283929083019185019080838360005b838110156109ad578181015183820152602001610995565b50505050905090810190601f1680156109da5780820380516001836020036101000a031916815260200191505b509250505060405180910390f35b3480156109f457600080fd5b506103b16117d8565b601d5460ff16610a0c57600080fd5b6001600160a01b038116600090815260208052604090205460ff161515600114610a7d576040805162461bcd60e51b815260206004820152601960248201527f4e6f7420612077686974656c6973746564496e766573746f7200000000000000604482015290519081900360640190fd5b601f5462010000900460ff16151560011415610ad5576040805162461bcd60e51b815260206004820152601260248201527110dbdb9d1c9858dd081a5cc814185d5cd95960721b604482015290519081900360640190fd5b60003490506000610b09670de0b6b3a7640000610afd600254856117de90919063ffffffff16565b9063ffffffff61184016565b9050610b14816118aa565b6000610b1f826118ca565b9050610b2a82611aba565b610b348482611cf6565b6013546040516001600160a01b03909116903480156108fc02916000818181858888f19350505050158015610b6d573d6000803e3d6000fd5b50604080518481526020810183905281516001600160a01b0387169233927f623b3804fa71d67900d064613da8f94b9617215ee90799290593e1745087ad18929081900390910190a350505050565b600e5481565b600080546001600160a01b03163314610bda57600080fd5b50600255600190565b60115481565b601c5481565b6000546001600160a01b03163314610c0657600080fd5b600b601f5460ff16600d811115610c1957fe5b14610c2357600080fd5b601f8054600c919060ff19166001835b0217905550565b60155481565b60065481565b600a5481565b60165481565b600c5481565b60125481565b60175481565b601a5481565b6000546001600160a01b03163314610c8157600080fd5b601d5460ff1615610c9157600080fd5b601d8054600160ff199182168117909255601f80546002939192169083610c33565b6000546001600160a01b03163314610cca57600080fd5b600154600160a01b900460ff16610ce057600080fd5b6001805460ff60a01b191690556040517f7805862f689e2f13df9f062ff482ad3ad112aca9e0847911ed832e158c525b3390600090a1565b6013546001600160a01b031681565b6000546001600160a01b03163314610d3e57600080fd5b6008601f5460ff16600d811115610d5157fe5b14610d5b57600080fd5b601f80546009919060ff1916600183610c33565b6000546001600160a01b03163314610d8657600080fd5b6003601f5460ff16600d811115610d9957fe5b14610da357600080fd5b601f80546004919060ff1916600183610c33565b6000546001600160a01b03163314610dce57600080fd5b600d601f5460ff16600d811115610de157fe5b14610deb57600080fd5b600360009054906101000a90046001600160a01b03166001600160a01b0316634bb278f36040518163ffffffff1660e01b8152600401602060405180830381600087803b158015610e3b57600080fd5b505af1158015610e4f573d6000803e3d6000fd5b505050506040513d6020811015610e6557600080fd5b5051610e7057600080fd5b565b600154600160a01b900460ff1681565b6000546001600160a01b03163314610e9957600080fd5b6007601f5460ff16600d811115610eac57fe5b14610eb657600080fd5b601f80546008919060ff1916600183610c33565b60105481565b60095481565b600f5481565b601d5460ff1681565b600080546001600160a01b03163314610efd57600080fd5b815160005b81811015610f5657600160206000868481518110610f1c57fe5b6020908102919091018101516001600160a01b03168252810191909152604001600020805460ff1916911515919091179055600101610f02565b5060019392505050565b6000546001600160a01b03163314610f7757600080fd5b6001601f5460ff16600d811115610f8a57fe5b14610f9457600080fd5b601f805460ff610100820416919060ff1916600183600d811115610fb457fe5b0217905550601f805462ff000019169055565b60085481565b6001546001600160a01b03163314610fe457600080fd5b600154600080546040516001600160a01b0393841693909116917f8be0079c531659141344cd1fd0a4f28419497f9722a3daafe3b4186f6b6457e091a360018054600080546001600160a01b03199081166001600160a01b03841617909155169055565b6000600554601e541061105d57506001611061565b5060005b90565b6000546001600160a01b0316331461107b57600080fd5b601f5462010000900460ff161561109157600080fd5b601d5460ff1615156001146110a557600080fd5b601f805460ff8116919061ff00191661010083600d8111156110c357fe5b0217905550601f8054600160ff199091161762ff0000191662010000179055565b60185481565b6000546001600160a01b031681565b60055481565b601f5462010000900460ff1681565b600b5481565b6000546001600160a01b0316331461112b57600080fd5b6006601f5460ff16600d81111561113e57fe5b1461114857600080fd5b601f80546007919060ff1916600183610c33565b601b5481565b6000546001600160a01b0316331461117957600080fd5b600a601f5460ff16600d81111561118c57fe5b1461119657600080fd5b601f8054600b919060ff1916600183610c33565b601e5481565b6000546001600160a01b031633146111c757600080fd5b6005601f5460ff16600d8111156111da57fe5b146111e457600080fd5b601f80546006919060ff1916600183610c33565b602080526000908152604090205460ff1681565b6000546001600160a01b0316331461122357600080fd5b600c601f5460ff16600d81111561123657fe5b1461124057600080fd5b601f8054600d919060ff1916600183610c33565b600d5481565b6001546001600160a01b031681565b60075481565b6000546001600160a01b0316331461128657600080fd5b6009601f5460ff16600d81111561129957fe5b146112a357600080fd5b601f8054600a919060ff1916600183610c33565b60145481565b6000546001600160a01b031633146112d457600080fd5b6002601f5460ff16600d8111156112e757fe5b146112f157600080fd5b601f80546003919060ff1916600183610c33565b60195481565b6000546001600160a01b0316331461132257600080fd5b6004601f5460ff16600d81111561133557fe5b1461133f57600080fd5b601f80546005919060ff1916600183610c33565b6000546001600160a01b0316331461136a57600080fd5b600180546001600160a01b0319166001600160a01b0392909216919091179055565b60045481565b6003546001600160a01b031681565b60606002601f5460ff16600d8111156113b657fe5b14156113eb5750604080518082019091526012815271141c9a5d985d194814d85b194814dd185c9d60721b6020820152611061565b6003601f5460ff16600d8111156113fe57fe5b1415611431575060408051808201909152601081526f141c9a5d985d194814d85b1948115b9960821b6020820152611061565b6004601f5460ff16600d81111561144457fe5b1415611476575060408051808201909152600f81526e141c995cd85b194814dd185c9d1959608a1b6020820152611061565b6005601f5460ff16600d81111561148957fe5b14156114b9575060408051808201909152600d81526c141c995cd85b1948115b991959609a1b6020820152611061565b6006601f5460ff16600d8111156114cc57fe5b141561150c575060408051808201909152601b81527f43726f776453616c6520526f756e64204f6e65205374617274656400000000006020820152611061565b6007601f5460ff16600d81111561151f57fe5b141561155f575060408051808201909152601781527f43726f776453616c6520526f756e64204f6e6520456e640000000000000000006020820152611061565b6008601f5460ff16600d81111561157257fe5b14156115b2575060408051808201909152601b81527f43726f776453616c6520526f756e642054776f205374617274656400000000006020820152611061565b6009601f5460ff16600d8111156115c557fe5b1415611605575060408051808201909152601781527f43726f776453616c6520526f756e642054776f20456e640000000000000000006020820152611061565b600a601f5460ff16600d81111561161857fe5b1415611658575060408051808201909152601d81527f43726f776453616c6520526f756e6420546872656520537461727465640000006020820152611061565b600b601f5460ff16600d81111561166b57fe5b14156116ab575060408051808201909152601981527f43726f776453616c6520526f756e6420546872656520456e64000000000000006020820152611061565b600c601f5460ff16600d8111156116be57fe5b14156116fe575060408051808201909152601c81527f43726f776453616c6520526f756e6420466f75722053746172746564000000006020820152611061565b600d601f5460ff16600d81111561171157fe5b1415611751575060408051808201909152601881527f43726f776453616c6520526f756e6420466f757220456e6400000000000000006020820152611061565b6001601f5460ff16600d81111561176457fe5b141561178d57506040805180820190915260068152651c185d5cd95960d21b6020820152611061565b6000601f5460ff16600d8111156117a057fe5b1415611061575060408051808201909152601581527410dc9bddd914d85b1948139bdd0814dd185c9d1959605a1b6020820152611061565b60025481565b6000826117ed5750600061183a565b828202828482816117fa57fe5b04146118375760405162461bcd60e51b8152600401808060200182810382526021815260200180611df36021913960400191505060405180910390fd5b90505b92915050565b6000808211611896576040805162461bcd60e51b815260206004820152601a60248201527f536166654d6174683a206469766973696f6e206279207a65726f000000000000604482015290519081900360640190fd5b60008284816118a157fe5b04949350505050565b601a5481101580156118be5750601b548111155b6118c757600080fd5b50565b601d5460009060ff166118dc57600080fd5b60008080806002601f5460ff16600d8111156118f457fe5b141561196b576119206064610afd60196119148a8463ffffffff61184016565b9063ffffffff6117de16565b9350611937601c54856117de90919063ffffffff16565b601c549093506119529061191488606463ffffffff61184016565b9150611964838363ffffffff611d0416565b9050611ab1565b6004601f5460ff16600d81111561197e57fe5b141561199e576119206064610afd60196119148a8463ffffffff61184016565b6006601f5460ff16600d8111156119b157fe5b14156119d1576119206064610afd60196119148a8463ffffffff61184016565b6008601f5460ff16600d8111156119e457fe5b1415611a04576119206064610afd60196119148a8463ffffffff61184016565b600a601f5460ff16600d811115611a1757fe5b1415611a37576119206064610afd60196119148a8463ffffffff61184016565b600c601f5460ff16600d811115611a4a57fe5b1415611ab157611a6a6064610afd60196119148a8463ffffffff61184016565b9350611a81601c54856117de90919063ffffffff16565b601c54909350611a9c9061191488606463ffffffff61184016565b9150611aae838363ffffffff611d0416565b90505b95945050505050565b6002601f5460ff16600d811115611acd57fe5b1415611b0f57600d54600754611ae9908363ffffffff611d0416565b1115611af457600080fd5b600754611b07908263ffffffff611d0416565b6007556118c7565b6004601f5460ff16600d811115611b2257fe5b1415611b6457600e54600854611b3e908363ffffffff611d0416565b1115611b4957600080fd5b600854611b5c908263ffffffff611d0416565b6008556118c7565b6006601f5460ff16600d811115611b7757fe5b1415611bb957600f54600954611b93908363ffffffff611d0416565b1115611b9e57600080fd5b600954611bb1908263ffffffff611d0416565b6009556118c7565b6008601f5460ff16600d811115611bcc57fe5b1415611c0e57601054600a54611be8908363ffffffff611d0416565b1115611bf357600080fd5b600a54611c06908263ffffffff611d0416565b600a556118c7565b600a601f5460ff16600d811115611c2157fe5b1415611c6357601154600b54611c3d908363ffffffff611d0416565b1115611c4857600080fd5b600b54611c5b908263ffffffff611d0416565b600b556118c7565b600c601f5460ff16600d811115611c7657fe5b1415611cb857601254600c54611c92908363ffffffff611d0416565b1115611c9d57600080fd5b600c54611cb0908263ffffffff611d0416565b600c556118c7565b6040805162461bcd60e51b815260206004820152600e60248201526d4e6f206163746976652053616c6560901b604482015290519081900360640190fd5b611d008282611d5e565b5050565b600082820183811015611837576040805162461bcd60e51b815260206004820152601b60248201527f536166654d6174683a206164646974696f6e206f766572666c6f770000000000604482015290519081900360640190fd5b6003546040805163836cb5b160e01b81526001600160a01b03858116600483015260248201859052600060448301819052925193169263836cb5b192606480840193602093929083900390910190829087803b158015611dbd57600080fd5b505af1158015611dd1573d6000803e3d6000fd5b505050506040513d6020811015611de757600080fd5b5051611d0057600080fdfe536166654d6174683a206d756c7469706c69636174696f6e206f766572666c6f77a265627a7a72315820ee7fe047716202c31b0374197d9ed398a91bb84099d14f8a88188050a564f51864736f6c63430005100032",
  "source": "\npragma solidity 0.5.16;\n\ncontract SwanToken {\n\n    function transfer (address, uint) public;\n    function burnTokensForSale() external returns (bool);\n    function saleTransfer(address,uint256,bool) external returns (bool);\n    function finalize() external returns (bool);\n}\n\n\n/**\n * @dev Wrappers over Solidity's arithmetic operations with added overflow\n * checks.\n *\n * Arithmetic operations in Solidity wrap on overflow. This can easily result\n * in bugs, because programmers usually assume that an overflow raises an\n * error, which is the standard behavior in high level programming languages.\n * `SafeMath` restores this intuition by reverting the transaction when an\n * operation overflows.\n *\n * Using this library instead of the unchecked operations eliminates an entire\n * class of bugs, so it's recommended to use it always.\n */\nlibrary SafeMath {\n    /**\n     * @dev Returns the addition of two unsigned integers, reverting on\n     * overflow.\n     *\n     * Counterpart to Solidity's `+` operator.\n     *\n     * Requirements:\n     * - Addition cannot overflow.\n     */\n    function add(uint256 a, uint256 b) internal pure returns (uint256) {\n        uint256 c = a + b;\n        require(c >= a, \"SafeMath: addition overflow\");\n\n        return c;\n    }\n\n    /**\n     * @dev Returns the subtraction of two unsigned integers, reverting on\n     * overflow (when the result is negative).\n     *\n     * Counterpart to Solidity's `-` operator.\n     *\n     * Requirements:\n     * - Subtraction cannot overflow.\n     */\n    function sub(uint256 a, uint256 b) internal pure returns (uint256) {\n        require(b <= a, \"SafeMath: subtraction overflow\");\n        uint256 c = a - b;\n\n        return c;\n    }\n\n    /**\n     * @dev Returns the multiplication of two unsigned integers, reverting on\n     * overflow.\n     *\n     * Counterpart to Solidity's `*` operator.\n     *\n     * Requirements:\n     * - Multiplication cannot overflow.\n     */\n    function mul(uint256 a, uint256 b) internal pure returns (uint256) {\n        // Gas optimization: this is cheaper than requiring 'a' not being zero, but the\n        // benefit is lost if 'b' is also tested.\n        // See: https://github.com/OpenZeppelin/openzeppelin-solidity/pull/522\n        if (a == 0) {\n            return 0;\n        }\n\n        uint256 c = a * b;\n        require(c / a == b, \"SafeMath: multiplication overflow\");\n\n        return c;\n    }\n\n    /**\n     * @dev Returns the integer division of two unsigned integers. Reverts on\n     * division by zero. The result is rounded towards zero.\n     *\n     * Counterpart to Solidity's `/` operator. Note: this function uses a\n     * `revert` opcode (which leaves remaining gas untouched) while Solidity\n     * uses an invalid opcode to revert (consuming all remaining gas).\n     *\n     * Requirements:\n     * - The divisor cannot be zero.\n     */\n    function div(uint256 a, uint256 b) internal pure returns (uint256) {\n        // Solidity only automatically asserts when dividing by 0\n        require(b > 0, \"SafeMath: division by zero\");\n        uint256 c = a / b;\n        // assert(a == b * c + a % b); // There is no case in which this doesn't hold\n\n        return c;\n    }\n\n}\n\ncontract Owned {\n\n    address public owner;\n    address public newOwner;\n\n    event OwnershipTransferred(address indexed from, address indexed _to);\n\n    constructor(address _owner) public {\n        owner = _owner;\n    }\n\n    modifier onlyOwner {\n        require(msg.sender == owner);\n        _;\n    }\n\n    function transferOwnership(address _newOwner) public onlyOwner {\n        newOwner = _newOwner;\n    }\n    function acceptOwnership() public {\n        require(msg.sender == newOwner);\n        emit OwnershipTransferred(owner, newOwner);\n        owner = newOwner;\n        newOwner = address(0);\n    }\n}\n\ncontract Pausable is Owned {\n    event Pause();\n    event Unpause();\n\n    bool public paused = false;\n\n    modifier whenNotPaused() {\n      require(!paused);\n      _;\n    }\n\n    modifier whenPaused() {\n      require(paused);\n      _;\n    }\n\n    function pause() onlyOwner whenNotPaused public {\n      paused = true;\n      emit Pause();\n    }\n\n    function unpause() onlyOwner whenPaused public {\n      paused = false;\n      emit Unpause();\n    }\n}\n\ncontract Crowdsale is Pausable { \n  \n  using SafeMath for uint256;\n  uint256 public ethPrice; // 1 Ether price in USD cents.\n\n  SwanToken public token;\n\n  uint256 public hardCap = 0; \n  uint256 public softCap = 500000000; // in cents \n\n  //total tokens for sale \n  uint256 public tokensForSale = 140000000000 ether;\n\n  // tokens sold in each round of sale \n  uint256 public privateSaletokenSold = 0;\n  uint256 public preSaleTokensSold = 0;\n  uint256 public crowdSaleRoundOne = 0;\n  uint256 public crowdSaleRoundTwo = 0;\n  uint256 public crowdSaleRoundThree = 0;\n  uint256 public crowdSaleRoundFour = 0;\n\n  // tokenSoldLimit in rounds\n  uint256 public privateSaletokenLimit = 2500000000;\n  uint256 public preSaleTokensLimit = 2400000000;\n  uint256 public crowdSaleRoundOneLimit = 2300000000;\n  uint256 public crowdSaleRoundTwoLimit = 2200000000;\n  uint256 public crowdSaleRoundThreeLimit = 2100000000;\n  uint256 public crowdSaleRoundFourLimit = 2500000000;\n\n  \n  // Address where funds are collected\n  address  payable public  wallet;\n\n  uint256 public bonusPercentPrivateSale  = 25;\n  uint256 public bonusPercentPreSale = 20;\n  uint256 public bonusPercentRoudOne = 15;\n  uint256 public bonusPercentRoudTwo = 10;\n  uint256 public bonusPercentRoudThree = 5;\n  uint256 public bonusPercentRoudFour = 0;  \n\n// user limit\n\n  uint256 public minimumInvestment = 50000;\n  uint256 public maximumInvestment = 20000000;\n  uint256 public tokensInOneDollar = 1000;\n\n  bool public crowdSaleStarted = false;\n\n  // Amount of wei raised\n  uint256 public totalRaisedInCents;\n  \n  enum Stages {CrowdSaleNotStarted, Pause, PrivateSaleStart,PrivateSaleEnd, PreSaleStart, PreSaleEnd, CrowdSaleRoundOneStart,CrowdSaleRoundOneEnd, CrowdSaleRoundTwoStart, CrowdSaleRoundTwoEnd, CrowdSaleRoundThreeStart, CrowdSaleRoundThreeEnd, CrowdSaleRoundFourStart, CrowdSaleRoundFourEnd}\n\n  Stages currentStage;\n  Stages previousStage;\n  bool public Paused;\n\n   // adreess vs state mapping (1 for exists , zero default);\n   mapping (address => bool) public whitelistedContributors;\n\n  \n   modifier CrowdsaleStarted(){\n\n      require(crowdSaleStarted);\n      _;\n   }\n \n    /**\n    * Event for token purchase logging\n    * @param purchaser who paid for the tokens\n    * @param beneficiary who got the tokens\n    * @param value weis paid for purchase\n    * @param amount amount of tokens purchased\n    */\n    event TokenPurchase(address indexed purchaser, address indexed beneficiary, uint256 value, uint256 amount);\n\n    /**\n    *@dev initializes the crowdsale contract \n    * @param _newOwner Address who has special power to change the ether price in cents according to the market price\n    * @param _wallet Address where collected funds will be forwarded to\n    * @param _token Address of the token being sold\n    *  @param _ethPriceInCents ether price in cents\n    */\n    constructor(address _newOwner, address payable _wallet, SwanToken _token,uint256 _ethPriceInCents) Owned(_newOwner) public {\n\n        wallet = _wallet;\n        owner = _newOwner;\n        token = _token;\n        ethPrice = _ethPriceInCents; //ethPrice in cents\n        currentStage = Stages.CrowdSaleNotStarted;\n\n    }\n    \n    /**\n    * @dev fallback function ***DO NOT OVERRIDE***\n    */\n    function () external payable {\n    \n     if(msg.sender != owner){\n\n        buyTokens(msg.sender); \n\n     }\n     else{\n     revert();\n     }\n     \n    }\n\n    /**\n    * @dev whitelist addresses of investors.\n    * @param addrs ,array of addresses of investors to be whitelisted\n    * Note:= Array length must be less than 200.\n    */\n    function authorizeKyc(address[] memory addrs) public onlyOwner returns (bool success) {\n        uint arrayLength = addrs.length;\n        for (uint x = 0; x < arrayLength; x++) \n        {\n            whitelistedContributors[addrs[x]] = true;\n        }\n        return true;\n    }\n    \n    /**\n    * @dev calling this function will pause the sale\n    */\n    \n    function pause() public onlyOwner {\n      require(Paused == false);\n      require(crowdSaleStarted == true);\n      previousStage=currentStage;\n      currentStage=Stages.Pause;\n      Paused = true;\n    }\n  \n    function restartSale() public onlyOwner {\n      require(currentStage == Stages.Pause);\n      currentStage=previousStage;\n      Paused = false;\n    }\n\n    function startPrivateSale() public onlyOwner {\n      require(!crowdSaleStarted);\n      crowdSaleStarted = true;\n      currentStage = Stages.PrivateSaleStart;\n    }\n\n    function endPrivateSale() public onlyOwner {\n\n      require(currentStage == Stages.PrivateSaleStart);\n      currentStage = Stages.PrivateSaleEnd;\n\n    }\n\n    function startPreSale() public onlyOwner {\n\n    require(currentStage == Stages.PrivateSaleEnd);\n    currentStage = Stages.PreSaleStart;\n   \n    }\n\n    function endPreSale() public onlyOwner {\n\n    require(currentStage == Stages.PreSaleStart);\n    currentStage = Stages.PreSaleEnd;\n   \n    }\n\n    function startCrowdSaleRoundOne() public onlyOwner {\n\n    require(currentStage == Stages.PreSaleEnd);\n    currentStage = Stages.CrowdSaleRoundOneStart;\n\n    }\n\n    function endCrowdSaleRoundOne() public onlyOwner {\n\n    require(currentStage == Stages.CrowdSaleRoundOneStart);\n    currentStage = Stages.CrowdSaleRoundOneEnd;\n\n    }\n\n    function startCrowdSaleRoundTwo() public onlyOwner {\n\n    require(currentStage == Stages.CrowdSaleRoundOneEnd);\n    currentStage = Stages.CrowdSaleRoundTwoStart;\n\n    }\n\n    function endCrowdSaleRoundTwo() public onlyOwner {\n\n    require(currentStage == Stages.CrowdSaleRoundTwoStart);\n    currentStage = Stages.CrowdSaleRoundTwoEnd;\n\n    }\n\n    function startCrowdSaleRoundThree() public onlyOwner {\n\n    require(currentStage == Stages.CrowdSaleRoundTwoEnd);\n    currentStage = Stages.CrowdSaleRoundThreeStart;\n\n    }\n\n    function endCrowdSaleRoundThree() public onlyOwner {\n\n    require(currentStage == Stages.CrowdSaleRoundThreeStart);\n    currentStage = Stages.CrowdSaleRoundThreeEnd;\n\n    }\n\n    function startCrowdSaleRoundFour() public onlyOwner {\n\n    require(currentStage == Stages.CrowdSaleRoundThreeEnd);\n    currentStage = Stages.CrowdSaleRoundFourStart;\n\n    }\n\n    function endCrowdSaleRoundFour() public onlyOwner {\n\n    require(currentStage == Stages.CrowdSaleRoundFourStart);\n    currentStage = Stages.CrowdSaleRoundFourEnd;\n\n    }\n\n    function getStage() public view returns (string memory) {\n    if (currentStage == Stages.PrivateSaleStart) return 'Private Sale Start';\n    else if (currentStage == Stages.PrivateSaleEnd) return 'Private Sale End';\n    else if (currentStage == Stages.PreSaleStart) return 'Presale Started';\n    else if (currentStage == Stages.PreSaleEnd) return 'Presale Ended';\n    else if (currentStage == Stages.CrowdSaleRoundOneStart) return 'CrowdSale Round One Started';\n    else if (currentStage == Stages.CrowdSaleRoundOneEnd) return 'CrowdSale Round One End';\n    else if (currentStage == Stages.CrowdSaleRoundTwoStart) return 'CrowdSale Round Two Started';\n    else if (currentStage == Stages.CrowdSaleRoundTwoEnd) return 'CrowdSale Round Two End';\n    else if (currentStage == Stages.CrowdSaleRoundThreeStart) return 'CrowdSale Round Three Started';\n    else if (currentStage == Stages.CrowdSaleRoundThreeEnd) return 'CrowdSale Round Three End';\n    else if (currentStage == Stages.CrowdSaleRoundFourStart) return 'CrowdSale Round Four Started';    \n    else if (currentStage == Stages.CrowdSaleRoundFourEnd) return 'CrowdSale Round Four End';   \n    else if (currentStage == Stages.Pause) return 'paused';\n    else if (currentStage == Stages.CrowdSaleNotStarted) return 'CrowdSale Not Started';    \n    }\n    \n   /**\n   * @dev sets the value of ether price in cents.Can be called only by the owner account.\n   * @param _ethPriceInCents price in cents .\n   */\n   function setEthPriceInCents(uint _ethPriceInCents) onlyOwner public returns(bool) {\n        ethPrice = _ethPriceInCents;\n        return true;\n    }\n\n   /**\n   * @param _beneficiary Address performing the token purchase\n   */\n   function buyTokens(address _beneficiary) CrowdsaleStarted public payable {\n\n    require(whitelistedContributors[_beneficiary] == true, \"Not a whitelistedInvestor\");\n    require(Paused != true, \"Contract is Paused\");\n    uint256 weiAmount = msg.value;\n    uint256 usdCents = weiAmount.mul(ethPrice).div(1 ether); \n\n    _preValidatePurchase(usdCents);\n\n    uint256 tokens = _getTokenAmount(usdCents);\n\n    _validateTokenCapLimits(usdCents);\n\n    _processPurchase(_beneficiary,tokens);\n\n    wallet.transfer(msg.value);\n\n    emit TokenPurchase(msg.sender, _beneficiary, weiAmount, tokens);\n   }\n  \n   /**\n   * @dev Validation of an incoming purchase. Use require statemens to revert state when conditions are not met. Use super to concatenate validations.\n   * @param _usdCents Value in usdincents involved in the purchase\n   */\n   function _preValidatePurchase(uint256 _usdCents) internal view { \n\n       require(_usdCents >= minimumInvestment && _usdCents <= maximumInvestment);\n\n    }\n    \n    /**\n    * @dev Validation of the capped restrictions.\n    * @param _tokenValue amount\n    */\n\n    function _validateTokenCapLimits(uint256 _tokenValue) internal {\n     \n    if (currentStage == Stages.PrivateSaleStart) {\n        \n        require(privateSaletokenSold.add(_tokenValue) <= privateSaletokenLimit);\n        privateSaletokenSold = privateSaletokenSold.add(_tokenValue);\n        \n    }\n\n    else if (currentStage == Stages.PreSaleStart) {\n        \n        require(preSaleTokensSold.add(_tokenValue) <= preSaleTokensLimit);\n        preSaleTokensSold = preSaleTokensSold.add(_tokenValue);\n        \n    }\n\n    else if (currentStage == Stages.CrowdSaleRoundOneStart) {\n        \n        require(crowdSaleRoundOne.add(_tokenValue) <= crowdSaleRoundOneLimit);\n        crowdSaleRoundOne = crowdSaleRoundOne.add(_tokenValue);        \n        \n    }\n\n    else if (currentStage == Stages.CrowdSaleRoundTwoStart) {\n        \n        require(crowdSaleRoundTwo.add(_tokenValue) <= crowdSaleRoundTwoLimit);\n        crowdSaleRoundTwo = crowdSaleRoundTwo.add(_tokenValue);        \n        \n    }\n\n    else if (currentStage == Stages.CrowdSaleRoundThreeStart) {\n        \n        require(crowdSaleRoundThree.add(_tokenValue) <= crowdSaleRoundThreeLimit);\n        crowdSaleRoundThree = crowdSaleRoundThree.add(_tokenValue);        \n        \n    }\n\n    else if (currentStage == Stages.CrowdSaleRoundFourStart) {\n        \n        require(crowdSaleRoundFour.add(_tokenValue) <= crowdSaleRoundFourLimit);\n        crowdSaleRoundFour = crowdSaleRoundFour.add(_tokenValue);        \n\n    }    \n\n    else { revert(\"No active Sale\");}\n\n   }\n   \n   /**\n   * @dev Source of tokens. Override this method to modify the way in which the crowdsale ultimately gets and sends its tokens.\n   * @param _beneficiary Address performing the token purchase\n   * @param _tokenAmount Number of tokens to be emitted\n   */\n   function _deliverTokens(address _beneficiary, uint256 _tokenAmount) internal {\n    \n\n       require(token.saleTransfer(_beneficiary, _tokenAmount, false));    \n\n   }\n\n   /**\n   * @dev Executed when a purchase has been validated and is ready to be executed. Not necessarily emits/sends tokens.\n   * @param _beneficiary Address receiving the tokens\n   * @param _tokenAmount Number of tokens to be purchased\n   */\n   function _processPurchase(address _beneficiary, uint256 _tokenAmount) internal {\n    _deliverTokens(_beneficiary, _tokenAmount);\n   }\n  \n\n    /**\n    * @param _usdCents Value in usd cents to be converted into tokens\n    * @return Number of tokens that can be purchased with the specified _usdCents\n    */\n    function _getTokenAmount(uint256 _usdCents) CrowdsaleStarted internal view returns (uint256) {\n\n         uint256 bonusUSD;\n         uint256 bonusTokens;\n         uint256 actualTokens;\n         uint256 totalTokens;\n\n     \n      if (currentStage == Stages.PrivateSaleStart) {\n         \n\n         bonusUSD = (_usdCents.div(100)).mul(25).div(100);\n         bonusTokens = bonusUSD.mul(tokensInOneDollar);\n         actualTokens = _usdCents.div(100).mul(tokensInOneDollar);\n         totalTokens = bonusTokens.add(actualTokens);\n\n\n      }\n      else if (currentStage == Stages.PreSaleStart) {\n\n         bonusUSD = (_usdCents.div(100)).mul(25).div(100);\n         bonusTokens = bonusUSD.mul(tokensInOneDollar);\n         actualTokens = _usdCents.div(100).mul(tokensInOneDollar);\n         totalTokens = bonusTokens.add(actualTokens); \n         \n      }\n      else if (currentStage == Stages.CrowdSaleRoundOneStart) {\n\n         bonusUSD = (_usdCents.div(100)).mul(25).div(100);\n         bonusTokens = bonusUSD.mul(tokensInOneDollar);\n         actualTokens = _usdCents.div(100).mul(tokensInOneDollar);\n         totalTokens = bonusTokens.add(actualTokens);\n         \n      }\n      else if (currentStage == Stages.CrowdSaleRoundTwoStart) {\n\n         bonusUSD = (_usdCents.div(100)).mul(25).div(100);\n         bonusTokens = bonusUSD.mul(tokensInOneDollar);\n         actualTokens = _usdCents.div(100).mul(tokensInOneDollar);\n         totalTokens = bonusTokens.add(actualTokens);\n      }\n      else if (currentStage == Stages.CrowdSaleRoundThreeStart) {\n\n         bonusUSD = (_usdCents.div(100)).mul(25).div(100);\n         bonusTokens = bonusUSD.mul(tokensInOneDollar);\n         actualTokens = _usdCents.div(100).mul(tokensInOneDollar);\n         totalTokens = bonusTokens.add(actualTokens);         \n\n      }\n      else if (currentStage == Stages.CrowdSaleRoundFourStart) {\n\n         bonusUSD = (_usdCents.div(100)).mul(25).div(100);\n         bonusTokens = bonusUSD.mul(tokensInOneDollar);\n         actualTokens = _usdCents.div(100).mul(tokensInOneDollar);\n         totalTokens = bonusTokens.add(actualTokens);         \n\n      }\n    \n      return totalTokens;\n    }\n    \n    /**\n    * @dev finalize the crowdsale.After finalizing ,tokens transfer can be done.\n    */\n    function finalizeSale() public  onlyOwner {\n        require(currentStage == Stages.CrowdSaleRoundFourEnd);\n        require(token.finalize());\n        \n    }\n\n    function isSoftCapReached() public view returns(bool){\n        if(totalRaisedInCents >= softCap){\n            return true;\n        }\n        else {\n            return false;\n        }\n    }\n    \n}\n",
  "sourcePath": "/home/zaryab/blockchain_begins/all_about_ethereum/quillHash_CODES/swan_smart_contracts/contracts/Crowdsale.sol",
  "compiler": {
    "name": "solc",
    "version": "0.5.16+commit.9c3226ce.Emscripten.clang"
  },
  "schemaVersion": "3.0.23",
  "updatedAt": "2020-10-27T06:36:58.693Z",
  "devdoc": {
    "methods": {
      "authorizeKyc(address[])": {
        "details": "whitelist addresses of investors.",
        "params": {
          "addrs": ",array of addresses of investors to be whitelisted Note:= Array length must be less than 200."
        }
      },
      "buyTokens(address)": {
        "params": {
          "_beneficiary": "Address performing the token purchase"
        }
      },
      "constructor": {
        "params": {
          "_ethPriceInCents": "ether price in cents",
          "_newOwner": "Address who has special power to change the ether price in cents according to the market price",
          "_token": "Address of the token being sold",
          "_wallet": "Address where collected funds will be forwarded to"
        }
      },
      "finalizeSale()": {
        "details": "finalize the crowdsale.After finalizing ,tokens transfer can be done."
      },
      "pause()": {
        "details": "calling this function will pause the sale"
      },
      "setEthPriceInCents(uint256)": {
        "details": "sets the value of ether price in cents.Can be called only by the owner account.",
        "params": {
          "_ethPriceInCents": "price in cents ."
        }
      }
    }
  },
  "userdoc": {
    "methods": {
      "constructor": "dev initializes the crowdsale contract "
    }
  }
}