{
  "contractName": "Crowdsale",
  "abi": [
    {
      "inputs": [
        {
          "internalType": "address payable",
          "name": "_wallet",
          "type": "address"
        },
        {
          "internalType": "contract Swan",
          "name": "_token",
          "type": "address"
        },
        {
          "internalType": "uint256",
          "name": "_ethPriceInCents",
          "type": "uint256"
        }
      ],
      "payable": false,
      "stateMutability": "nonpayable",
      "type": "constructor"
    },
    {
      "anonymous": false,
      "inputs": [
        {
          "indexed": true,
          "internalType": "address",
          "name": "previousOwner",
          "type": "address"
        },
        {
          "indexed": true,
          "internalType": "address",
          "name": "newOwner",
          "type": "address"
        }
      ],
      "name": "OwnershipTransferred",
      "type": "event"
    },
    {
      "anonymous": false,
      "inputs": [
        {
          "indexed": false,
          "internalType": "address",
          "name": "account",
          "type": "address"
        }
      ],
      "name": "Paused",
      "type": "event"
    },
    {
      "anonymous": false,
      "inputs": [
        {
          "indexed": true,
          "internalType": "address",
          "name": "account",
          "type": "address"
        }
      ],
      "name": "PauserAdded",
      "type": "event"
    },
    {
      "anonymous": false,
      "inputs": [
        {
          "indexed": true,
          "internalType": "address",
          "name": "account",
          "type": "address"
        }
      ],
      "name": "PauserRemoved",
      "type": "event"
    },
    {
      "anonymous": false,
      "inputs": [
        {
          "indexed": true,
          "internalType": "address",
          "name": "purchaser",
          "type": "address"
        },
        {
          "indexed": true,
          "internalType": "address",
          "name": "beneficiary",
          "type": "address"
        },
        {
          "indexed": false,
          "internalType": "uint256",
          "name": "value",
          "type": "uint256"
        },
        {
          "indexed": false,
          "internalType": "uint256",
          "name": "amount",
          "type": "uint256"
        }
      ],
      "name": "TokenPurchase",
      "type": "event"
    },
    {
      "anonymous": false,
      "inputs": [
        {
          "indexed": false,
          "internalType": "address",
          "name": "account",
          "type": "address"
        }
      ],
      "name": "Unpaused",
      "type": "event"
    },
    {
      "payable": true,
      "stateMutability": "payable",
      "type": "fallback"
    },
    {
      "constant": true,
      "inputs": [],
      "name": "_Paused",
      "outputs": [
        {
          "internalType": "bool",
          "name": "",
          "type": "bool"
        }
      ],
      "payable": false,
      "stateMutability": "view",
      "type": "function"
    },
    {
      "constant": false,
      "inputs": [
        {
          "internalType": "address",
          "name": "account",
          "type": "address"
        }
      ],
      "name": "addPauser",
      "outputs": [],
      "payable": false,
      "stateMutability": "nonpayable",
      "type": "function"
    },
    {
      "constant": true,
      "inputs": [],
      "name": "bonusPercentPreSale",
      "outputs": [
        {
          "internalType": "uint256",
          "name": "",
          "type": "uint256"
        }
      ],
      "payable": false,
      "stateMutability": "view",
      "type": "function"
    },
    {
      "constant": true,
      "inputs": [],
      "name": "bonusPercentPrivateSale",
      "outputs": [
        {
          "internalType": "uint256",
          "name": "",
          "type": "uint256"
        }
      ],
      "payable": false,
      "stateMutability": "view",
      "type": "function"
    },
    {
      "constant": true,
      "inputs": [],
      "name": "bonusPercentRoudFour",
      "outputs": [
        {
          "internalType": "uint256",
          "name": "",
          "type": "uint256"
        }
      ],
      "payable": false,
      "stateMutability": "view",
      "type": "function"
    },
    {
      "constant": true,
      "inputs": [],
      "name": "bonusPercentRoudOne",
      "outputs": [
        {
          "internalType": "uint256",
          "name": "",
          "type": "uint256"
        }
      ],
      "payable": false,
      "stateMutability": "view",
      "type": "function"
    },
    {
      "constant": true,
      "inputs": [],
      "name": "bonusPercentRoudThree",
      "outputs": [
        {
          "internalType": "uint256",
          "name": "",
          "type": "uint256"
        }
      ],
      "payable": false,
      "stateMutability": "view",
      "type": "function"
    },
    {
      "constant": true,
      "inputs": [],
      "name": "bonusPercentRoudTwo",
      "outputs": [
        {
          "internalType": "uint256",
          "name": "",
          "type": "uint256"
        }
      ],
      "payable": false,
      "stateMutability": "view",
      "type": "function"
    },
    {
      "constant": true,
      "inputs": [],
      "name": "crowdSaleRoundFour",
      "outputs": [
        {
          "internalType": "uint256",
          "name": "",
          "type": "uint256"
        }
      ],
      "payable": false,
      "stateMutability": "view",
      "type": "function"
    },
    {
      "constant": true,
      "inputs": [],
      "name": "crowdSaleRoundFourLimit",
      "outputs": [
        {
          "internalType": "uint256",
          "name": "",
          "type": "uint256"
        }
      ],
      "payable": false,
      "stateMutability": "view",
      "type": "function"
    },
    {
      "constant": true,
      "inputs": [],
      "name": "crowdSaleRoundOne",
      "outputs": [
        {
          "internalType": "uint256",
          "name": "",
          "type": "uint256"
        }
      ],
      "payable": false,
      "stateMutability": "view",
      "type": "function"
    },
    {
      "constant": true,
      "inputs": [],
      "name": "crowdSaleRoundOneLimit",
      "outputs": [
        {
          "internalType": "uint256",
          "name": "",
          "type": "uint256"
        }
      ],
      "payable": false,
      "stateMutability": "view",
      "type": "function"
    },
    {
      "constant": true,
      "inputs": [],
      "name": "crowdSaleRoundThree",
      "outputs": [
        {
          "internalType": "uint256",
          "name": "",
          "type": "uint256"
        }
      ],
      "payable": false,
      "stateMutability": "view",
      "type": "function"
    },
    {
      "constant": true,
      "inputs": [],
      "name": "crowdSaleRoundThreeLimit",
      "outputs": [
        {
          "internalType": "uint256",
          "name": "",
          "type": "uint256"
        }
      ],
      "payable": false,
      "stateMutability": "view",
      "type": "function"
    },
    {
      "constant": true,
      "inputs": [],
      "name": "crowdSaleRoundTwo",
      "outputs": [
        {
          "internalType": "uint256",
          "name": "",
          "type": "uint256"
        }
      ],
      "payable": false,
      "stateMutability": "view",
      "type": "function"
    },
    {
      "constant": true,
      "inputs": [],
      "name": "crowdSaleRoundTwoLimit",
      "outputs": [
        {
          "internalType": "uint256",
          "name": "",
          "type": "uint256"
        }
      ],
      "payable": false,
      "stateMutability": "view",
      "type": "function"
    },
    {
      "constant": true,
      "inputs": [],
      "name": "crowdSaleStarted",
      "outputs": [
        {
          "internalType": "bool",
          "name": "",
          "type": "bool"
        }
      ],
      "payable": false,
      "stateMutability": "view",
      "type": "function"
    },
    {
      "constant": true,
      "inputs": [],
      "name": "ethPrice",
      "outputs": [
        {
          "internalType": "uint256",
          "name": "",
          "type": "uint256"
        }
      ],
      "payable": false,
      "stateMutability": "view",
      "type": "function"
    },
    {
      "constant": true,
      "inputs": [],
      "name": "hardCap",
      "outputs": [
        {
          "internalType": "uint256",
          "name": "",
          "type": "uint256"
        }
      ],
      "payable": false,
      "stateMutability": "view",
      "type": "function"
    },
    {
      "constant": true,
      "inputs": [],
      "name": "isOwner",
      "outputs": [
        {
          "internalType": "bool",
          "name": "",
          "type": "bool"
        }
      ],
      "payable": false,
      "stateMutability": "view",
      "type": "function"
    },
    {
      "constant": true,
      "inputs": [
        {
          "internalType": "address",
          "name": "account",
          "type": "address"
        }
      ],
      "name": "isPauser",
      "outputs": [
        {
          "internalType": "bool",
          "name": "",
          "type": "bool"
        }
      ],
      "payable": false,
      "stateMutability": "view",
      "type": "function"
    },
    {
      "constant": true,
      "inputs": [],
      "name": "maximumInvestment",
      "outputs": [
        {
          "internalType": "uint256",
          "name": "",
          "type": "uint256"
        }
      ],
      "payable": false,
      "stateMutability": "view",
      "type": "function"
    },
    {
      "constant": true,
      "inputs": [],
      "name": "minimumInvestment",
      "outputs": [
        {
          "internalType": "uint256",
          "name": "",
          "type": "uint256"
        }
      ],
      "payable": false,
      "stateMutability": "view",
      "type": "function"
    },
    {
      "constant": true,
      "inputs": [],
      "name": "owner",
      "outputs": [
        {
          "internalType": "address",
          "name": "",
          "type": "address"
        }
      ],
      "payable": false,
      "stateMutability": "view",
      "type": "function"
    },
    {
      "constant": false,
      "inputs": [],
      "name": "pause",
      "outputs": [],
      "payable": false,
      "stateMutability": "nonpayable",
      "type": "function"
    },
    {
      "constant": true,
      "inputs": [],
      "name": "paused",
      "outputs": [
        {
          "internalType": "bool",
          "name": "",
          "type": "bool"
        }
      ],
      "payable": false,
      "stateMutability": "view",
      "type": "function"
    },
    {
      "constant": true,
      "inputs": [],
      "name": "preSaleTokensLimit",
      "outputs": [
        {
          "internalType": "uint256",
          "name": "",
          "type": "uint256"
        }
      ],
      "payable": false,
      "stateMutability": "view",
      "type": "function"
    },
    {
      "constant": true,
      "inputs": [],
      "name": "preSaleTokensSold",
      "outputs": [
        {
          "internalType": "uint256",
          "name": "",
          "type": "uint256"
        }
      ],
      "payable": false,
      "stateMutability": "view",
      "type": "function"
    },
    {
      "constant": true,
      "inputs": [],
      "name": "privateSaletokenLimit",
      "outputs": [
        {
          "internalType": "uint256",
          "name": "",
          "type": "uint256"
        }
      ],
      "payable": false,
      "stateMutability": "view",
      "type": "function"
    },
    {
      "constant": true,
      "inputs": [],
      "name": "privateSaletokenSold",
      "outputs": [
        {
          "internalType": "uint256",
          "name": "",
          "type": "uint256"
        }
      ],
      "payable": false,
      "stateMutability": "view",
      "type": "function"
    },
    {
      "constant": false,
      "inputs": [],
      "name": "renounceOwnership",
      "outputs": [],
      "payable": false,
      "stateMutability": "nonpayable",
      "type": "function"
    },
    {
      "constant": false,
      "inputs": [],
      "name": "renouncePauser",
      "outputs": [],
      "payable": false,
      "stateMutability": "nonpayable",
      "type": "function"
    },
    {
      "constant": true,
      "inputs": [],
      "name": "softCap",
      "outputs": [
        {
          "internalType": "uint256",
          "name": "",
          "type": "uint256"
        }
      ],
      "payable": false,
      "stateMutability": "view",
      "type": "function"
    },
    {
      "constant": true,
      "inputs": [],
      "name": "token",
      "outputs": [
        {
          "internalType": "contract Swan",
          "name": "",
          "type": "address"
        }
      ],
      "payable": false,
      "stateMutability": "view",
      "type": "function"
    },
    {
      "constant": true,
      "inputs": [],
      "name": "tokensForSale",
      "outputs": [
        {
          "internalType": "uint256",
          "name": "",
          "type": "uint256"
        }
      ],
      "payable": false,
      "stateMutability": "view",
      "type": "function"
    },
    {
      "constant": true,
      "inputs": [],
      "name": "tokensInOneDollar",
      "outputs": [
        {
          "internalType": "uint256",
          "name": "",
          "type": "uint256"
        }
      ],
      "payable": false,
      "stateMutability": "view",
      "type": "function"
    },
    {
      "constant": true,
      "inputs": [],
      "name": "totalWeiRaised",
      "outputs": [
        {
          "internalType": "uint256",
          "name": "",
          "type": "uint256"
        }
      ],
      "payable": false,
      "stateMutability": "view",
      "type": "function"
    },
    {
      "constant": false,
      "inputs": [
        {
          "internalType": "address",
          "name": "newOwner",
          "type": "address"
        }
      ],
      "name": "transferOwnership",
      "outputs": [],
      "payable": false,
      "stateMutability": "nonpayable",
      "type": "function"
    },
    {
      "constant": false,
      "inputs": [],
      "name": "unpause",
      "outputs": [],
      "payable": false,
      "stateMutability": "nonpayable",
      "type": "function"
    },
    {
      "constant": true,
      "inputs": [],
      "name": "wallet",
      "outputs": [
        {
          "internalType": "address payable",
          "name": "",
          "type": "address"
        }
      ],
      "payable": false,
      "stateMutability": "view",
      "type": "function"
    },
    {
      "constant": true,
      "inputs": [
        {
          "internalType": "address",
          "name": "",
          "type": "address"
        }
      ],
      "name": "whitelistedContributors",
      "outputs": [
        {
          "internalType": "bool",
          "name": "",
          "type": "bool"
        }
      ],
      "payable": false,
      "stateMutability": "view",
      "type": "function"
    },
    {
      "constant": true,
      "inputs": [],
      "name": "getSwanTokenBalance",
      "outputs": [
        {
          "internalType": "uint256",
          "name": "",
          "type": "uint256"
        }
      ],
      "payable": false,
      "stateMutability": "view",
      "type": "function"
    },
    {
      "constant": true,
      "inputs": [],
      "name": "getTotalWeiRaised",
      "outputs": [
        {
          "internalType": "uint256",
          "name": "",
          "type": "uint256"
        }
      ],
      "payable": false,
      "stateMutability": "view",
      "type": "function"
    },
    {
      "constant": false,
      "inputs": [
        {
          "internalType": "address[]",
          "name": "addrs",
          "type": "address[]"
        }
      ],
      "name": "authorizeKyc",
      "outputs": [
        {
          "internalType": "bool",
          "name": "success",
          "type": "bool"
        }
      ],
      "payable": false,
      "stateMutability": "nonpayable",
      "type": "function"
    },
    {
      "constant": false,
      "inputs": [],
      "name": "_pause",
      "outputs": [],
      "payable": false,
      "stateMutability": "nonpayable",
      "type": "function"
    },
    {
      "constant": false,
      "inputs": [],
      "name": "restartSale",
      "outputs": [],
      "payable": false,
      "stateMutability": "nonpayable",
      "type": "function"
    },
    {
      "constant": false,
      "inputs": [],
      "name": "startPrivateSale",
      "outputs": [],
      "payable": false,
      "stateMutability": "nonpayable",
      "type": "function"
    },
    {
      "constant": false,
      "inputs": [],
      "name": "endPrivateSale",
      "outputs": [],
      "payable": false,
      "stateMutability": "nonpayable",
      "type": "function"
    },
    {
      "constant": false,
      "inputs": [],
      "name": "startPreSale",
      "outputs": [],
      "payable": false,
      "stateMutability": "nonpayable",
      "type": "function"
    },
    {
      "constant": false,
      "inputs": [],
      "name": "endPreSale",
      "outputs": [],
      "payable": false,
      "stateMutability": "nonpayable",
      "type": "function"
    },
    {
      "constant": false,
      "inputs": [],
      "name": "startCrowdSaleRoundOne",
      "outputs": [],
      "payable": false,
      "stateMutability": "nonpayable",
      "type": "function"
    },
    {
      "constant": false,
      "inputs": [],
      "name": "endCrowdSaleRoundOne",
      "outputs": [],
      "payable": false,
      "stateMutability": "nonpayable",
      "type": "function"
    },
    {
      "constant": false,
      "inputs": [],
      "name": "startCrowdSaleRoundTwo",
      "outputs": [],
      "payable": false,
      "stateMutability": "nonpayable",
      "type": "function"
    },
    {
      "constant": false,
      "inputs": [],
      "name": "endCrowdSaleRoundTwo",
      "outputs": [],
      "payable": false,
      "stateMutability": "nonpayable",
      "type": "function"
    },
    {
      "constant": false,
      "inputs": [],
      "name": "startCrowdSaleRoundThree",
      "outputs": [],
      "payable": false,
      "stateMutability": "nonpayable",
      "type": "function"
    },
    {
      "constant": false,
      "inputs": [],
      "name": "endCrowdSaleRoundThree",
      "outputs": [],
      "payable": false,
      "stateMutability": "nonpayable",
      "type": "function"
    },
    {
      "constant": false,
      "inputs": [],
      "name": "startCrowdSaleRoundFour",
      "outputs": [],
      "payable": false,
      "stateMutability": "nonpayable",
      "type": "function"
    },
    {
      "constant": false,
      "inputs": [],
      "name": "endCrowdSaleRoundFour",
      "outputs": [],
      "payable": false,
      "stateMutability": "nonpayable",
      "type": "function"
    },
    {
      "constant": true,
      "inputs": [],
      "name": "getStage",
      "outputs": [
        {
          "internalType": "string",
          "name": "",
          "type": "string"
        }
      ],
      "payable": false,
      "stateMutability": "view",
      "type": "function"
    },
    {
      "constant": false,
      "inputs": [
        {
          "internalType": "uint256",
          "name": "_ethPriceInCents",
          "type": "uint256"
        }
      ],
      "name": "setEthPriceInCents",
      "outputs": [
        {
          "internalType": "bool",
          "name": "",
          "type": "bool"
        }
      ],
      "payable": false,
      "stateMutability": "nonpayable",
      "type": "function"
    },
    {
      "constant": false,
      "inputs": [
        {
          "internalType": "address",
          "name": "_beneficiary",
          "type": "address"
        }
      ],
      "name": "buyTokens",
      "outputs": [],
      "payable": true,
      "stateMutability": "payable",
      "type": "function"
    },
    {
      "constant": false,
      "inputs": [],
      "name": "finalizeSale",
      "outputs": [],
      "payable": false,
      "stateMutability": "nonpayable",
      "type": "function"
    }
  ],
  "bytecode": "0x60806040526c01c45d49276606214ee00000006006553480156200002257600080fd5b506040516200355438038062003554833981810160405260608110156200004857600080fd5b50805160208201516040909201519091906200007f620000706001600160e01b036200013616565b6001600160e01b036200013a16565b6001805460ff1916905560006200009e6001600160e01b036200013616565b60018054610100600160a81b0319166101006001600160a01b03841690810291909117909155604051919250906000907f8be0079c531659141344cd1fd0a4f28419497f9722a3daafe3b4186f6b6457e0908290a350600d8054600380546001600160a01b039586166001600160a01b0319918216179091556002939093559390921692169190911760ff60a81b1916905562000282565b3390565b620001558160006200018c60201b62002f7d1790919060201c565b6040516001600160a01b038216907f6719d08c1888103bea251a4ed56406bd0c3e69723c8a1686e017e7bbe159b6f890600090a250565b620001a182826001600160e01b036200021916565b15620001f4576040805162461bcd60e51b815260206004820152601f60248201527f526f6c65733a206163636f756e7420616c72656164792068617320726f6c6500604482015290519081900360640190fd5b6001600160a01b0316600090815260209190915260409020805460ff19166001179055565b60006001600160a01b038216620002625760405162461bcd60e51b8152600401808060200182810382526022815260200180620035326022913960400191505060405180910390fd5b506001600160a01b03166000908152602091909152604090205460ff1690565b6132a080620002926000396000f3fe6080604052600436106103ac5760003560e01c8063715018a6116101e7578063c03147011161010d578063ec8ac4d8116100a0578063fb86a4041161006f578063fb86a40414610a13578063fc0c546a14610a28578063fcaa766414610a3d578063ff186b2e14610ac7576103ac565b8063ec8ac4d814610990578063edfc8257146109b6578063ee889ed0146109cb578063f2fde38b146109e0576103ac565b8063d80f6d3d116100dc578063d80f6d3d1461093c578063dc8371d614610951578063e2acae2a14610966578063e6a23c3d1461097b576103ac565b8063c0314701146108df578063c7b850dd146108f4578063c806dcc614610927578063d4470aa014610540576103ac565b80638f32d59b11610185578063a7a8511411610154578063a7a851141461088b578063b121acf0146108a0578063b904088e146108b5578063ba6169fe146108ca576103ac565b80638f32d59b14610837578063906a26e01461084c57806392094ef4146108615780639f0c83f914610876576103ac565b806382dc1ec4116101c157806382dc1ec4146107c55780638456cb59146107f85780638635cfd11461080d5780638da5cb5b14610822576103ac565b8063715018a614610786578063747112851461079b57806376be6b2b146107b0576103ac565b8063338dbf59116102d75780635c975abb1161026a5780636adf0c27116102395780636adf0c27146106ca5780636cea50a1146106df5780636ef8d66d146106f457806370d7a0e714610709576103ac565b80635c975abb1461067657806363d6ac1f1461068b57806365fbf8a0146106a0578063691901e0146106b5576103ac565b806353bf5af4116102a657806353bf5af41461062257806353f4db011461063757806355dd574c1461064c57806358a687ec14610661576103ac565b8063338dbf59146105945780633f4ba83a146105a957806346fbf68e146105be578063521eb273146105f1576103ac565b806312aef8c31161034f578063238b6d401161031e578063238b6d4014610540578063297aeb83146105555780632b925b251461056a578063320b2ad91461057f576103ac565b806312aef8c3146104ec57806316b42ec2146105015780631b56ea7e1461051657806322c5d0b21461052b576103ac565b80630c1d7cb61161038b5780630c1d7cb6146104985780630dfd0e73146104ad5780630ee13ced146104c257806310ea759f146104d7576103ac565b806241edee1461041e578063044f9afe146104455780630bdab5c714610483575b6103b4610adc565b6001600160a01b0316336001600160a01b03161415610413576040805162461bcd60e51b815260206004820152601660248201527521b0b63632b91034b99027bbb732b91034ba39b2b63360511b604482015290519081900360640190fd5b61041c33610af1565b005b34801561042a57600080fd5b50610433610db7565b60408051918252519081900360200190f35b34801561045157600080fd5b5061046f6004803603602081101561046857600080fd5b5035610dbf565b604080519115158252519081900360200190f35b34801561048f57600080fd5b5061046f610e11565b3480156104a457600080fd5b50610433610e21565b3480156104b957600080fd5b50610433610e29565b3480156104ce57600080fd5b5061041c610e2f565b3480156104e357600080fd5b50610433610ee9565b3480156104f857600080fd5b50610433610eee565b34801561050d57600080fd5b50610433610ef4565b34801561052257600080fd5b50610433610efa565b34801561053757600080fd5b50610433610eff565b34801561054c57600080fd5b50610433610f05565b34801561056157600080fd5b50610433610f0d565b34801561057657600080fd5b50610433610f12565b34801561058b57600080fd5b5061041c610f18565b3480156105a057600080fd5b5061041c61106a565b3480156105b557600080fd5b5061041c61113a565b3480156105ca57600080fd5b5061046f600480360360208110156105e157600080fd5b50356001600160a01b0316611223565b3480156105fd57600080fd5b5061060661123b565b604080516001600160a01b039092168252519081900360200190f35b34801561062e57600080fd5b5061041c61124a565b34801561064357600080fd5b50610433611301565b34801561065857600080fd5b5061041c611307565b34801561066d57600080fd5b5061041c6113d4565b34801561068257600080fd5b5061046f6115ac565b34801561069757600080fd5b5061041c6115b5565b3480156106ac57600080fd5b50610433611682565b3480156106c157600080fd5b5061043361168a565b3480156106d657600080fd5b50610433611690565b3480156106eb57600080fd5b5061046f611698565b34801561070057600080fd5b5061041c6116a8565b34801561071557600080fd5b5061046f6004803603602081101561072c57600080fd5b81019060208101813564010000000081111561074757600080fd5b82018360208201111561075957600080fd5b8035906020019184602083028401116401000000008311171561077b57600080fd5b5090925090506116ba565b34801561079257600080fd5b5061041c611765565b3480156107a757600080fd5b5061041c6117fc565b3480156107bc57600080fd5b506104336118ea565b3480156107d157600080fd5b5061041c600480360360208110156107e857600080fd5b50356001600160a01b03166118f0565b34801561080457600080fd5b5061041c61193f565b34801561081957600080fd5b50610433611a05565b34801561082e57600080fd5b50610606610adc565b34801561084357600080fd5b5061046f611a0a565b34801561085857600080fd5b50610433611a35565b34801561086d57600080fd5b50610433611a3d565b34801561088257600080fd5b50610433611ab9565b34801561089757600080fd5b50610433611abf565b3480156108ac57600080fd5b5061041c611ac5565b3480156108c157600080fd5b50610433611b7c565b3480156108d657600080fd5b5061041c611b84565b3480156108eb57600080fd5b5061041c611c3b565b34801561090057600080fd5b5061046f6004803603602081101561091757600080fd5b50356001600160a01b0316611d08565b34801561093357600080fd5b5061041c611d1d565b34801561094857600080fd5b50610433611dd2565b34801561095d57600080fd5b5061041c611dd8565b34801561097257600080fd5b50610433611ea5565b34801561098757600080fd5b5061041c611eaa565b61041c600480360360208110156109a657600080fd5b50356001600160a01b0316610af1565b3480156109c257600080fd5b50610433611f77565b3480156109d757600080fd5b5061041c611f7c565b3480156109ec57600080fd5b5061041c60048036036020811015610a0357600080fd5b50356001600160a01b0316612049565b348015610a1f57600080fd5b50610433612099565b348015610a3457600080fd5b5061060661209f565b348015610a4957600080fd5b50610a526120ae565b6040805160208082528351818301528351919283929083019185019080838360005b83811015610a8c578181015183820152602001610a74565b50505050905090810190601f168015610ab95780820380516001836020036101000a031916815260200191505b509250505060405180910390f35b348015610ad357600080fd5b50610433612546565b60015461010090046001600160a01b03165b90565b600d54600160a01b900460ff16610b4b576040805162461bcd60e51b815260206004820152601960248201527818dc9bddd914d85b1948139bdd081cdd185c9d1959081e595d603a1b604482015290519081900360640190fd5b60015460ff1615610b96576040805162461bcd60e51b815260206004820152601060248201526f14185d5cd8589b194e881c185d5cd95960821b604482015290519081900360640190fd5b6001600160a01b0381166000908152600e602052604090205460ff161515600114610c08576040805162461bcd60e51b815260206004820152601960248201527f4e6f7420612077686974656c6973746564496e766573746f7200000000000000604482015290519081900360640190fd5b600d54600160b81b900460ff1615610c5c576040805162461bcd60e51b815260206004820152601260248201527110dbdb9d1c9858dd081a5cc814185d5cd95960721b604482015290519081900360640190fd5b60003490506000610c90670de0b6b3a7640000610c846002548561254c90919063ffffffff16565b9063ffffffff6125ac16565b905061c3508110158015610ca857506301312d008111155b610cf9576040805162461bcd60e51b815260206004820152601b60248201527f5f70726556616c69646174655075726368617365206661696c65640000000000604482015290519081900360640190fd5b6000610d04826125ee565b9050610d0f826127f0565b610d198482612baa565b600554610d2c903463ffffffff612c7316565b600555600d546040516001600160a01b03909116903480156108fc02916000818181858888f19350505050158015610d68573d6000803e3d6000fd5b50604080518481526020810183905281516001600160a01b0387169233927f623b3804fa71d67900d064613da8f94b9617215ee90799290593e1745087ad18929081900390910190a350505050565b638f0d180081565b6000610dc9611a0a565b610e08576040805162461bcd60e51b815260206004820181905260248201526000805160206131a2833981519152604482015290519081900360640190fd5b50600255600190565b600d54600160b81b900460ff1681565b637d2b750081565b6103e881565b610e37611a0a565b610e76576040805162461bcd60e51b815260206004820181905260248201526000805160206131a2833981519152604482015290519081900360640190fd5b600b600d8054600160a81b900460ff1690811115610e9057fe5b14610ecc5760405162461bcd60e51b81526004018080602001828103825260228152602001806132056022913960400191505060405180910390fd5b600d8054600c919060ff60a81b1916600160a81b835b0217905550565b601481565b60065481565b600a5481565b600f81565b600c5481565b639502f90081565b600a81565b61c35081565b610f20611a0a565b610f5f576040805162461bcd60e51b815260206004820181905260248201526000805160206131a2833981519152604482015290519081900360640190fd5b600d54600160b81b900460ff1615610fbe576040805162461bcd60e51b815260206004820152601a60248201527f636f6e747261637420697320616c726561647920506175736564000000000000604482015290519081900360640190fd5b600d54600160a01b900460ff1661101c576040805162461bcd60e51b815260206004820152601b60248201527f43726f776473616c6520646964206e6f74207374617274207965740000000000604482015290519081900360640190fd5b600d805460ff600160a81b820416919060ff60b01b1916600160b01b838381111561104357fe5b0217905550600d805460ff60a81b1916600160a81b1760ff60b81b1916600160b81b179055565b611072611a0a565b6110b1576040805162461bcd60e51b815260206004820181905260248201526000805160206131a2833981519152604482015290519081900360640190fd5b600d54600160a01b900460ff1615611110576040805162461bcd60e51b815260206004820152601960248201527f43726f776473616c6520416c7265616479205374617274656400000000000000604482015290519081900360640190fd5b600d805460ff60a01b1916600160a01b178082556002919060ff60a81b1916600160a81b83610ee2565b61114a611145612ccd565b611223565b6111855760405162461bcd60e51b8152600401808060200182810382526030815260200180612fff6030913960400191505060405180910390fd5b60015460ff166111d3576040805162461bcd60e51b815260206004820152601460248201527314185d5cd8589b194e881b9bdd081c185d5cd95960621b604482015290519081900360640190fd5b6001805460ff191690557f5db9ee0a495bf2e6ff9c91a7834c1ba4fdd244a5e8aa4e537bd38aeae4b073aa611206612ccd565b604080516001600160a01b039092168252519081900360200190a1565b6000611235818363ffffffff612cd116565b92915050565b600d546001600160a01b031681565b611252611a0a565b611291576040805162461bcd60e51b815260206004820181905260248201526000805160206131a2833981519152604482015290519081900360640190fd5b6008600d8054600160a81b900460ff16908111156112ab57fe5b146112e75760405162461bcd60e51b81526004018080602001828103825260228152602001806131166022913960400191505060405180910390fd5b600d80546009919060ff60a81b1916600160a81b83610ee2565b60055481565b61130f611a0a565b61134e576040805162461bcd60e51b815260206004820181905260248201526000805160206131a2833981519152604482015290519081900360640190fd5b6003600d8054600160a81b900460ff169081111561136857fe5b146113ba576040805162461bcd60e51b815260206004820152601b60248201527f507269766174652053616c65204469646e277420656e64207965740000000000604482015290519081900360640190fd5b600d80546004919060ff60a81b1916600160a81b83610ee2565b6113dc611a0a565b61141b576040805162461bcd60e51b815260206004820181905260248201526000805160206131a2833981519152604482015290519081900360640190fd5b600d808054600160a81b900460ff169081111561143457fe5b146114705760405162461bcd60e51b81526004018080602001828103825260218152602001806131e46021913960400191505060405180910390fd5b600061147a611a3d565b9050600081116114d1576040805162461bcd60e51b815260206004820152601a60248201527f4e6f20546f6b656e73204c65667420696e20436f6e7472616374000000000000604482015290519081900360640190fd5b6003546001600160a01b031663a9059cbb6114ea610adc565b836040518363ffffffff1660e01b815260040180836001600160a01b03166001600160a01b0316815260200182815260200192505050602060405180830381600087803b15801561153a57600080fd5b505af115801561154e573d6000803e3d6000fd5b505050506040513d602081101561156457600080fd5b50516115a9576040805162461bcd60e51b815260206004820152600f60248201526e151c985b9cd9995c8811985a5b1959608a1b604482015290519081900360640190fd5b50565b60015460ff1690565b6115bd611a0a565b6115fc576040805162461bcd60e51b815260206004820181905260248201526000805160206131a2833981519152604482015290519081900360640190fd5b6007600d8054600160a81b900460ff169081111561161657fe5b14611668576040805162461bcd60e51b815260206004820181905260248201527f43726f776453616c65526f756e644f6e65204469646e277420656e6420796574604482015290519081900360640190fd5b600d80546008919060ff60a81b1916600160a81b83610ee2565b638321560081565b60095481565b638917370081565b600d54600160a01b900460ff1681565b6116b86116b3612ccd565b612d38565b565b60006116c4611a0a565b611703576040805162461bcd60e51b815260206004820181905260248201526000805160206131a2833981519152604482015290519081900360640190fd5b8160005b8181101561175a576001600e600087878581811061172157fe5b602090810292909201356001600160a01b0316835250810191909152604001600020805460ff1916911515919091179055600101611707565b506001949350505050565b61176d611a0a565b6117ac576040805162461bcd60e51b815260206004820181905260248201526000805160206131a2833981519152604482015290519081900360640190fd5b60015460405160009161010090046001600160a01b0316907f8be0079c531659141344cd1fd0a4f28419497f9722a3daafe3b4186f6b6457e0908390a360018054610100600160a81b0319169055565b611804611a0a565b611843576040805162461bcd60e51b815260206004820181905260248201526000805160206131a2833981519152604482015290519081900360640190fd5b6001600d8054600160a81b900460ff169081111561185d57fe5b146118af576040805162461bcd60e51b815260206004820152601960248201527f63757272656e745374616765206973206e6f7420504155534500000000000000604482015290519081900360640190fd5b600d805460ff600160b01b820416919060ff60a81b1916600160a81b83838111156118d657fe5b0217905550600d805460ff60b81b19169055565b60085481565b6118fb611145612ccd565b6119365760405162461bcd60e51b8152600401808060200182810382526030815260200180612fff6030913960400191505060405180910390fd5b6115a981612d80565b61194a611145612ccd565b6119855760405162461bcd60e51b8152600401808060200182810382526030815260200180612fff6030913960400191505060405180910390fd5b60015460ff16156119d0576040805162461bcd60e51b815260206004820152601060248201526f14185d5cd8589b194e881c185d5cd95960821b604482015290519081900360640190fd5b6001805460ff1916811790557f62e78cea01bee320cd4e420270b5ea74000d11b0c9f74754ebdbfc544b05a258611206612ccd565b600581565b60015460009061010090046001600160a01b0316611a26612ccd565b6001600160a01b031614905090565b631dcd650081565b600354604080516370a0823160e01b815230600482015290516000926001600160a01b0316916370a08231916024808301926020929190829003018186803b158015611a8857600080fd5b505afa158015611a9c573d6000803e3d6000fd5b505050506040513d6020811015611ab257600080fd5b5051905090565b60055490565b600b5481565b611acd611a0a565b611b0c576040805162461bcd60e51b815260206004820181905260248201526000805160206131a2833981519152604482015290519081900360640190fd5b6006600d8054600160a81b900460ff1690811115611b2657fe5b14611b625760405162461bcd60e51b815260040180806020018281038252602281526020018061324a6022913960400191505060405180910390fd5b600d80546007919060ff60a81b1916600160a81b83610ee2565b6301312d0081565b611b8c611a0a565b611bcb576040805162461bcd60e51b815260206004820181905260248201526000805160206131a2833981519152604482015290519081900360640190fd5b600a600d8054600160a81b900460ff1690811115611be557fe5b14611c215760405162461bcd60e51b81526004018080602001828103825260248152602001806130556024913960400191505060405180910390fd5b600d8054600b919060ff60a81b1916600160a81b83610ee2565b611c43611a0a565b611c82576040805162461bcd60e51b815260206004820181905260248201526000805160206131a2833981519152604482015290519081900360640190fd5b6005600d8054600160a81b900460ff1690811115611c9c57fe5b14611cee576040805162461bcd60e51b815260206004820152601760248201527f5072652053616c65204469646e277420656e6420796574000000000000000000604482015290519081900360640190fd5b600d80546006919060ff60a81b1916600160a81b83610ee2565b600e6020526000908152604090205460ff1681565b611d25611a0a565b611d64576040805162461bcd60e51b815260206004820181905260248201526000805160206131a2833981519152604482015290519081900360640190fd5b600c600d8054600160a81b900460ff1690811115611d7e57fe5b14611dba5760405162461bcd60e51b81526004018080602001828103825260238152602001806132276023913960400191505060405180910390fd5b600d8054819060ff60a81b1916600160a81b82610ee2565b60075481565b611de0611a0a565b611e1f576040805162461bcd60e51b815260206004820181905260248201526000805160206131a2833981519152604482015290519081900360640190fd5b6009600d8054600160a81b900460ff1690811115611e3957fe5b14611e8b576040805162461bcd60e51b815260206004820181905260248201527f43726f776453616c65526f756e6454776f204469646e277420656e6420796574604482015290519081900360640190fd5b600d8054600a919060ff60a81b1916600160a81b83610ee2565b601981565b611eb2611a0a565b611ef1576040805162461bcd60e51b815260206004820181905260248201526000805160206131a2833981519152604482015290519081900360640190fd5b6002600d8054600160a81b900460ff1690811115611f0b57fe5b14611f5d576040805162461bcd60e51b815260206004820152601a60248201527f43726f776473616c65206469646e277420537461727420796574000000000000604482015290519081900360640190fd5b600d80546003919060ff60a81b1916600160a81b83610ee2565b600081565b611f84611a0a565b611fc3576040805162461bcd60e51b815260206004820181905260248201526000805160206131a2833981519152604482015290519081900360640190fd5b6004600d8054600160a81b900460ff1690811115611fdd57fe5b1461202f576040805162461bcd60e51b815260206004820152601960248201527f5072652053616c65206469646e27742053746172742079657400000000000000604482015290519081900360640190fd5b600d80546005919060ff60a81b1916600160a81b83610ee2565b612051611a0a565b612090576040805162461bcd60e51b815260206004820181905260248201526000805160206131a2833981519152604482015290519081900360640190fd5b6115a981612dc8565b60045481565b6003546001600160a01b031681565b60606002600d8054600160a81b900460ff16908111156120ca57fe5b14156120ff5750604080518082019091526012815271141c9a5d985d194814d85b194814dd185c9d60721b6020820152610aee565b6003600d8054600160a81b900460ff169081111561211957fe5b141561214c575060408051808201909152601081526f141c9a5d985d194814d85b1948115b9960821b6020820152610aee565b6004600d8054600160a81b900460ff169081111561216657fe5b1415612198575060408051808201909152600f81526e141c995cd85b194814dd185c9d1959608a1b6020820152610aee565b6005600d8054600160a81b900460ff16908111156121b257fe5b14156121e2575060408051808201909152600d81526c141c995cd85b1948115b991959609a1b6020820152610aee565b6006600d8054600160a81b900460ff16908111156121fc57fe5b141561223c575060408051808201909152601b81527f43726f776453616c6520526f756e64204f6e65205374617274656400000000006020820152610aee565b6007600d8054600160a81b900460ff169081111561225657fe5b1415612296575060408051808201909152601781527f43726f776453616c6520526f756e64204f6e6520456e640000000000000000006020820152610aee565b6008600d8054600160a81b900460ff16908111156122b057fe5b14156122f0575060408051808201909152601b81527f43726f776453616c6520526f756e642054776f205374617274656400000000006020820152610aee565b6009600d8054600160a81b900460ff169081111561230a57fe5b141561234a575060408051808201909152601781527f43726f776453616c6520526f756e642054776f20456e640000000000000000006020820152610aee565b600a600d8054600160a81b900460ff169081111561236457fe5b14156123a4575060408051808201909152601d81527f43726f776453616c6520526f756e6420546872656520537461727465640000006020820152610aee565b600b600d8054600160a81b900460ff16908111156123be57fe5b14156123fe575060408051808201909152601981527f43726f776453616c6520526f756e6420546872656520456e64000000000000006020820152610aee565b600c600d8054600160a81b900460ff169081111561241857fe5b1415612458575060408051808201909152601c81527f43726f776453616c6520526f756e6420466f75722053746172746564000000006020820152610aee565b600d808054600160a81b900460ff169081111561247157fe5b14156124b1575060408051808201909152601881527f43726f776453616c6520526f756e6420466f757220456e6400000000000000006020820152610aee565b6001600d8054600160a81b900460ff16908111156124cb57fe5b14156124f457506040805180820190915260068152651c185d5cd95960d21b6020820152610aee565b6000600d8054600160a81b900460ff169081111561250e57fe5b1415610aee575060408051808201909152601581527410dc9bddd914d85b1948139bdd0814dd185c9d1959605a1b6020820152610aee565b60025481565b60008261255b57506000611235565b8282028284828161256857fe5b04146125a55760405162461bcd60e51b81526004018080602001828103825260218152602001806131816021913960400191505060405180910390fd5b9392505050565b60006125a583836040518060400160405280601a81526020017f536166654d6174683a206469766973696f6e206279207a65726f000000000000815250612e74565b600d54600090600160a01b900460ff1661264b576040805162461bcd60e51b815260206004820152601960248201527818dc9bddd914d85b1948139bdd081cdd185c9d1959081e595d603a1b604482015290519081900360640190fd5b60008080806002600d8054600160a81b900460ff169081111561266a57fe5b14156126dc576126966064610c84601961268a8a8463ffffffff6125ac16565b9063ffffffff61254c16565b93506126aa846103e863ffffffff61254c16565b92506126c36103e861268a88606463ffffffff6125ac16565b91506126d5838363ffffffff612c7316565b90506127e7565b6004600d8054600160a81b900460ff16908111156126f657fe5b1415612716576126966064610c84601461268a8a8463ffffffff6125ac16565b6006600d8054600160a81b900460ff169081111561273057fe5b1415612750576126966064610c84600f61268a8a8463ffffffff6125ac16565b6008600d8054600160a81b900460ff169081111561276a57fe5b141561278a576126966064610c84600a61268a8a8463ffffffff6125ac16565b600a600d8054600160a81b900460ff16908111156127a457fe5b14156127c4576126966064610c84600561268a8a8463ffffffff6125ac16565b600c600d8054600160a81b900460ff16908111156127de57fe5b14156127e75750845b95945050505050565b6002600d8054600160a81b900460ff169081111561280a57fe5b141561288157600754639502f90090612829908363ffffffff612c7316565b11156128665760405162461bcd60e51b81526004018080602001828103825260228152602001806130f46022913960400191505060405180910390fd5b600754612879908263ffffffff612c7316565b6007556115a9565b6004600d8054600160a81b900460ff169081111561289b57fe5b141561292857600854638f0d1800906128ba908363ffffffff612c7316565b111561290d576040805162461bcd60e51b815260206004820152601e60248201527f50726553616c65537461727420636f6e646974696f6e73204661696c65640000604482015290519081900360640190fd5b600854612920908263ffffffff612c7316565b6008556115a9565b6006600d8054600160a81b900460ff169081111561294257fe5b14156129b957600954638917370090612961908363ffffffff612c7316565b111561299e5760405162461bcd60e51b81526004018080602001828103825260288152602001806131596028913960400191505060405180910390fd5b6009546129b1908263ffffffff612c7316565b6009556115a9565b6008600d8054600160a81b900460ff16908111156129d357fe5b1415612a4a57600a546383215600906129f2908363ffffffff612c7316565b1115612a2f5760405162461bcd60e51b81526004018080602001828103825260288152602001806130cc6028913960400191505060405180910390fd5b600a54612a42908263ffffffff612c7316565b600a556115a9565b600a600d8054600160a81b900460ff1690811115612a6457fe5b1415612adb57600b54637d2b750090612a83908363ffffffff612c7316565b1115612ac05760405162461bcd60e51b815260040180806020018281038252602a815260200180613079602a913960400191505060405180910390fd5b600b54612ad3908263ffffffff612c7316565b600b556115a9565b600c600d8054600160a81b900460ff1690811115612af557fe5b1415612b6c57600c54639502f90090612b14908363ffffffff612c7316565b1115612b515760405162461bcd60e51b81526004018080602001828103825260298152602001806130a36029913960400191505060405180910390fd5b600c54612b64908263ffffffff612c7316565b600c556115a9565b6040805162461bcd60e51b815260206004820152600e60248201526d4e6f206163746976652053616c6560901b604482015290519081900360640190fd5b6003546040805163a9059cbb60e01b81526001600160a01b038581166004830152602482018590529151919092169163a9059cbb9160448083019260209291908290030181600087803b158015612c0057600080fd5b505af1158015612c14573d6000803e3d6000fd5b505050506040513d6020811015612c2a57600080fd5b5051612c6f576040805162461bcd60e51b815260206004820152600f60248201526e151c985b9cd9995c8811985a5b1959608a1b604482015290519081900360640190fd5b5050565b6000828201838110156125a5576040805162461bcd60e51b815260206004820152601b60248201527f536166654d6174683a206164646974696f6e206f766572666c6f770000000000604482015290519081900360640190fd5b3390565b60006001600160a01b038216612d185760405162461bcd60e51b81526004018080602001828103825260228152602001806131c26022913960400191505060405180910390fd5b506001600160a01b03166000908152602091909152604090205460ff1690565b612d4960008263ffffffff612f1616565b6040516001600160a01b038216907fcd265ebaf09df2871cc7bd4133404a235ba12eff2041bb89d9c714a2621c7c7e90600090a250565b612d9160008263ffffffff612f7d16565b6040516001600160a01b038216907f6719d08c1888103bea251a4ed56406bd0c3e69723c8a1686e017e7bbe159b6f890600090a250565b6001600160a01b038116612e0d5760405162461bcd60e51b815260040180806020018281038252602681526020018061302f6026913960400191505060405180910390fd5b6001546040516001600160a01b0380841692610100900416907f8be0079c531659141344cd1fd0a4f28419497f9722a3daafe3b4186f6b6457e090600090a3600180546001600160a01b0390921661010002610100600160a81b0319909216919091179055565b60008183612f005760405162461bcd60e51b81526004018080602001828103825283818151815260200191508051906020019080838360005b83811015612ec5578181015183820152602001612ead565b50505050905090810190601f168015612ef25780820380516001836020036101000a031916815260200191505b509250505060405180910390fd5b506000838581612f0c57fe5b0495945050505050565b612f208282612cd1565b612f5b5760405162461bcd60e51b81526004018080602001828103825260218152602001806131386021913960400191505060405180910390fd5b6001600160a01b0316600090815260209190915260409020805460ff19169055565b612f878282612cd1565b15612fd9576040805162461bcd60e51b815260206004820152601f60248201527f526f6c65733a206163636f756e7420616c72656164792068617320726f6c6500604482015290519081900360640190fd5b6001600160a01b0316600090815260209190915260409020805460ff1916600117905556fe506175736572526f6c653a2063616c6c657220646f6573206e6f742068617665207468652050617573657220726f6c654f776e61626c653a206e6577206f776e657220697320746865207a65726f206164647265737343726f776453616c65526f756e645468726565204469646e27742073746172742079657443726f776453616c65526f756e645468726565537461727420636f6e646974696f6e73204661696c656443726f776453616c65526f756e64466f7572537461727420636f6e646974696f6e73204661696c656443726f776453616c65526f756e6454776f537461727420636f6e646974696f6e73204661696c65645072697661746553616c65537461727420636f6e646974696f6e73204661696c656443726f776453616c65526f756e6454776f204469646e277420737461727420796574526f6c65733a206163636f756e7420646f6573206e6f74206861766520726f6c6543726f776453616c65526f756e644f6e65537461727420636f6e646974696f6e73204661696c6564536166654d6174683a206d756c7469706c69636174696f6e206f766572666c6f774f776e61626c653a2063616c6c6572206973206e6f7420746865206f776e6572526f6c65733a206163636f756e7420697320746865207a65726f206164647265737343726f776453616c65526f756e64466f7572206469646e277420656e642079657443726f776453616c65526f756e645468726565204469646e277420656e642079657443726f776453616c65526f756e64466f7572204469646e27742073746172742079657443726f776453616c65526f756e644f6e65204469646e277420737461727420796574a265627a7a72315820c77620b0e2d48ddcd7b991b0c66f468759a976644afce56f8e52cd95dbcfcb6a64736f6c63430005100032526f6c65733a206163636f756e7420697320746865207a65726f2061646472657373",
  "source": "pragma solidity 0.5.16;\n\nimport \"@openzeppelin/contracts/ownership/Ownable.sol\";\nimport \"@openzeppelin/contracts/math/SafeMath.sol\";\nimport \"@openzeppelin/contracts/lifecycle/Pausable.sol\";\n\ninterface Swan {\n    function transfer(address, uint256) external returns (bool);\n\n    function balanceOf(address) external view returns (uint256);\n}\n\n\ncontract Crowdsale is Pausable,Ownable{\n    using SafeMath for uint256;\n    uint256 public ethPrice; // 1 Ether price in USD cents.\n\n    Swan public token;\n\n    uint256 public hardCap;\n    uint256 public constant softCap = 500000000; // in cents\n\n    //total tokens for sale\n    uint256 public totalWeiRaised;\n    uint256 public tokensForSale = 140000000000 ether;\n\n    // tokens sold in each round of sale\n    uint256 public privateSaletokenSold;\n    uint256 public preSaleTokensSold;\n    uint256 public crowdSaleRoundOne;\n    uint256 public crowdSaleRoundTwo;\n    uint256 public crowdSaleRoundThree;\n    uint256 public crowdSaleRoundFour;\n\n    // tokenSoldLimit in rounds\n    uint256 public constant privateSaletokenLimit = 2500000000;\n    uint256 public constant preSaleTokensLimit = 2400000000;\n    uint256 public constant crowdSaleRoundOneLimit = 2300000000;\n    uint256 public constant crowdSaleRoundTwoLimit = 2200000000;\n    uint256 public constant crowdSaleRoundThreeLimit = 2100000000;\n    uint256 public constant crowdSaleRoundFourLimit = 2500000000;\n\n    // Address where funds are collected\n    address payable public wallet;\n\n    uint256 public constant bonusPercentPrivateSale = 25;\n    uint256 public constant bonusPercentPreSale = 20;\n    uint256 public constant bonusPercentRoudOne = 15;\n    uint256 public constant bonusPercentRoudTwo = 10;\n    uint256 public constant bonusPercentRoudThree = 5;\n    uint256 public constant bonusPercentRoudFour = 0;\n\n    // user limit\n    uint256 public constant minimumInvestment = 50000;\n    uint256 public constant maximumInvestment = 20000000;\n    uint256 public constant tokensInOneDollar = 1000;\n\n    bool public crowdSaleStarted;\n\n    enum Stages {\n        CrowdSaleNotStarted,\n        Pause,\n        PrivateSaleStart,\n        PrivateSaleEnd,\n        PreSaleStart,\n        PreSaleEnd,\n        CrowdSaleRoundOneStart,\n        CrowdSaleRoundOneEnd,\n        CrowdSaleRoundTwoStart,\n        CrowdSaleRoundTwoEnd,\n        CrowdSaleRoundThreeStart,\n        CrowdSaleRoundThreeEnd,\n        CrowdSaleRoundFourStart,\n        CrowdSaleRoundFourEnd\n    }\n\n    Stages currentStage;\n    Stages previousStage;\n    bool public _Paused;\n\n    // adreess vs state mapping (1 for exists , zero default);\n    mapping(address => bool) public whitelistedContributors;\n\n    modifier CrowdsaleStarted() {\n        require(crowdSaleStarted, \"crowdSale Not started yet\");\n        _;\n    }\n\n    /**\n     * Event for token purchase logging\n     * @param purchaser who paid for the tokens\n     * @param beneficiary who got the tokens\n     * @param value weis paid for purchase\n     * @param amount amount of tokens purchased\n     */\n    event TokenPurchase(\n        address indexed purchaser,\n        address indexed beneficiary,\n        uint256 value,\n        uint256 amount\n    );\n\n    /**\n     *@dev initializes the crowdsale contract\n     * @param _wallet Address where collected funds will be forwarded to\n     * @param _token Address of the token being sold\n     *  @param _ethPriceInCents ether price in cents\n     */\n    constructor(\n        address payable _wallet,\n        Swan _token,\n        uint256 _ethPriceInCents\n    ) public Ownable() {\n        wallet = _wallet;\n        token = _token;\n        ethPrice = _ethPriceInCents; //ethPrice in cents\n        currentStage = Stages.CrowdSaleNotStarted;\n    }\n    /**\n     * @dev fallback function ***DO NOT OVERRIDE***\n     */\n    function() external payable {\n        require(msg.sender != owner(), \"Caller is Owner itself\");\n        buyTokens(msg.sender);\n    }\n\n    //@notice returns the total Swan Tokens balance of Crowdsale Contract\n    function getSwanTokenBalance() public view returns (uint256) {\n        return Swan(token).balanceOf(address(this));\n    }\n\n    //@notice returns the total Wei Amount raised till date\n    function getTotalWeiRaised() external view returns (uint256) {\n        return totalWeiRaised;\n    }\n\n    /**\n     * @dev whitelist addresses of investors.\n     * @param addrs ,array of addresses of investors to be whitelisted\n     * Note:= Array length must be less than 200.\n     */\n    function authorizeKyc(address[] calldata addrs)\n        external\n        onlyOwner\n        returns (bool success)\n    {\n        uint256 arrayLength = addrs.length;\n        for (uint256 x = 0; x < arrayLength; x++) {\n            whitelistedContributors[addrs[x]] = true;\n        }\n        return true;\n    }\n\n    /**\n     * @dev calling this function will pause the sale\n     */\n\n    function _pause() external onlyOwner {\n        require(!_Paused, \"contract is already Paused\");\n        require(crowdSaleStarted, \"Crowdsale did not start yet\");\n        previousStage = currentStage;\n        currentStage = Stages.Pause;\n        _Paused = true;\n    }\n\n    function restartSale() external onlyOwner {\n        require(currentStage == Stages.Pause, \"currentStage is not PAUSE\");\n        currentStage = previousStage;\n        _Paused = false;\n    }\n\n    function startPrivateSale() external onlyOwner {\n        require(!crowdSaleStarted, \"Crowdsale Already Started\");\n        crowdSaleStarted = true;\n        currentStage = Stages.PrivateSaleStart;\n    }\n\n    function endPrivateSale() external onlyOwner {\n        require(\n            currentStage == Stages.PrivateSaleStart,\n            \"Crowdsale didn't Start yet\"\n        );\n        currentStage = Stages.PrivateSaleEnd;\n    }\n\n    function startPreSale() external onlyOwner {\n        require(\n            currentStage == Stages.PrivateSaleEnd,\n            \"Private Sale Didn't end yet\"\n        );\n        currentStage = Stages.PreSaleStart;\n    }\n\n    function endPreSale() external onlyOwner {\n        require(\n            currentStage == Stages.PreSaleStart,\n            \"Pre Sale didn't Start yet\"\n        );\n        currentStage = Stages.PreSaleEnd;\n    }\n\n    function startCrowdSaleRoundOne() external onlyOwner {\n        require(currentStage == Stages.PreSaleEnd, \"Pre Sale Didn't end yet\");\n        currentStage = Stages.CrowdSaleRoundOneStart;\n    }\n\n    function endCrowdSaleRoundOne() external onlyOwner {\n        require(\n            currentStage == Stages.CrowdSaleRoundOneStart,\n            \"CrowdSaleRoundOne Didn't start yet\"\n        );\n        currentStage = Stages.CrowdSaleRoundOneEnd;\n    }\n\n    function startCrowdSaleRoundTwo() external onlyOwner {\n        require(\n            currentStage == Stages.CrowdSaleRoundOneEnd,\n            \"CrowdSaleRoundOne Didn't end yet\"\n        );\n        currentStage = Stages.CrowdSaleRoundTwoStart;\n    }\n\n    function endCrowdSaleRoundTwo() external onlyOwner {\n        require(\n            currentStage == Stages.CrowdSaleRoundTwoStart,\n            \"CrowdSaleRoundTwo Didn't start yet\"\n        );\n        currentStage = Stages.CrowdSaleRoundTwoEnd;\n    }\n\n    function startCrowdSaleRoundThree() external onlyOwner {\n        require(\n            currentStage == Stages.CrowdSaleRoundTwoEnd,\n            \"CrowdSaleRoundTwo Didn't end yet\"\n        );\n        currentStage = Stages.CrowdSaleRoundThreeStart;\n    }\n\n    function endCrowdSaleRoundThree() external onlyOwner {\n        require(\n            currentStage == Stages.CrowdSaleRoundThreeStart,\n            \"CrowdSaleRoundThree Didn't start yet\"\n        );\n        currentStage = Stages.CrowdSaleRoundThreeEnd;\n    }\n\n    function startCrowdSaleRoundFour() external onlyOwner {\n        require(\n            currentStage == Stages.CrowdSaleRoundThreeEnd,\n            \"CrowdSaleRoundThree Didn't end yet\"\n        );\n        currentStage = Stages.CrowdSaleRoundFourStart;\n    }\n\n    function endCrowdSaleRoundFour() external onlyOwner {\n        require(\n            currentStage == Stages.CrowdSaleRoundFourStart,\n            \"CrowdSaleRoundFour Didn't start yet\"\n        );\n        currentStage = Stages.CrowdSaleRoundFourEnd;\n    }\n\n    function getStage() external view returns (string memory) {\n        if (currentStage == Stages.PrivateSaleStart)\n            return \"Private Sale Start\";\n        else if (currentStage == Stages.PrivateSaleEnd)\n            return \"Private Sale End\";\n        else if (currentStage == Stages.PreSaleStart) return \"Presale Started\";\n        else if (currentStage == Stages.PreSaleEnd) return \"Presale Ended\";\n        else if (currentStage == Stages.CrowdSaleRoundOneStart)\n            return \"CrowdSale Round One Started\";\n        else if (currentStage == Stages.CrowdSaleRoundOneEnd)\n            return \"CrowdSale Round One End\";\n        else if (currentStage == Stages.CrowdSaleRoundTwoStart)\n            return \"CrowdSale Round Two Started\";\n        else if (currentStage == Stages.CrowdSaleRoundTwoEnd)\n            return \"CrowdSale Round Two End\";\n        else if (currentStage == Stages.CrowdSaleRoundThreeStart)\n            return \"CrowdSale Round Three Started\";\n        else if (currentStage == Stages.CrowdSaleRoundThreeEnd)\n            return \"CrowdSale Round Three End\";\n        else if (currentStage == Stages.CrowdSaleRoundFourStart)\n            return \"CrowdSale Round Four Started\";\n        else if (currentStage == Stages.CrowdSaleRoundFourEnd)\n            return \"CrowdSale Round Four End\";\n        else if (currentStage == Stages.Pause) return \"paused\";\n        else if (currentStage == Stages.CrowdSaleNotStarted)\n            return \"CrowdSale Not Started\";\n    }\n\n    /**\n     * @dev sets the value of ether price in cents.Can be called only by the owner account.\n     * @param _ethPriceInCents price in cents .\n     */\n    function setEthPriceInCents(uint256 _ethPriceInCents)\n        external\n        onlyOwner\n        returns (bool)\n    {\n        ethPrice = _ethPriceInCents;\n        return true;\n    }\n\n    /**\n     * @param _beneficiary Address performing the token purchase\n     */\n    function buyTokens(address _beneficiary)\n        public\n        payable\n        CrowdsaleStarted\n        whenNotPaused\n    {\n        require(\n            whitelistedContributors[_beneficiary] == true,\n            \"Not a whitelistedInvestor\"\n        );\n        require(!_Paused, \"Contract is Paused\");\n        uint256 weiAmount = msg.value;\n        uint256 usdCents = weiAmount.mul(ethPrice).div(1 ether);\n        require(\n            usdCents >= minimumInvestment && usdCents <= maximumInvestment,\n            \"_preValidatePurchase failed\"\n        );\n        uint256 tokens = _getTokenAmount(usdCents);\n\n        _validateTokenCapLimits(usdCents);\n\n        _processPurchase(_beneficiary, tokens);\n        totalWeiRaised = totalWeiRaised.add(msg.value);\n        wallet.transfer(msg.value);\n\n        emit TokenPurchase(msg.sender, _beneficiary, weiAmount, tokens);\n    }\n\n    /**\n     * @dev Validation of the capped restrictions.\n     * @param _tokenValue amount\n     */\n    function _validateTokenCapLimits(uint256 _tokenValue) internal {\n        if (currentStage == Stages.PrivateSaleStart) {\n            require(\n                privateSaletokenSold.add(_tokenValue) <= privateSaletokenLimit,\n                \"PrivateSaleStart conditions Failed\"\n            );\n            privateSaletokenSold = privateSaletokenSold.add(_tokenValue);\n        } else if (currentStage == Stages.PreSaleStart) {\n            require(\n                preSaleTokensSold.add(_tokenValue) <= preSaleTokensLimit,\n                \"PreSaleStart conditions Failed\"\n            );\n            preSaleTokensSold = preSaleTokensSold.add(_tokenValue);\n        } else if (currentStage == Stages.CrowdSaleRoundOneStart) {\n            require(\n                crowdSaleRoundOne.add(_tokenValue) <= crowdSaleRoundOneLimit,\n                \"CrowdSaleRoundOneStart conditions Failed\"\n            );\n            crowdSaleRoundOne = crowdSaleRoundOne.add(_tokenValue);\n        } else if (currentStage == Stages.CrowdSaleRoundTwoStart) {\n            require(\n                crowdSaleRoundTwo.add(_tokenValue) <= crowdSaleRoundTwoLimit,\n                \"CrowdSaleRoundTwoStart conditions Failed\"\n            );\n            crowdSaleRoundTwo = crowdSaleRoundTwo.add(_tokenValue);\n        } else if (currentStage == Stages.CrowdSaleRoundThreeStart) {\n            require(\n                crowdSaleRoundThree.add(_tokenValue) <=\n                    crowdSaleRoundThreeLimit,\n                \"CrowdSaleRoundThreeStart conditions Failed\"\n            );\n            crowdSaleRoundThree = crowdSaleRoundThree.add(_tokenValue);\n        } else if (currentStage == Stages.CrowdSaleRoundFourStart) {\n            require(\n                crowdSaleRoundFour.add(_tokenValue) <= crowdSaleRoundFourLimit,\n                \"CrowdSaleRoundFourStart conditions Failed\"\n            );\n            crowdSaleRoundFour = crowdSaleRoundFour.add(_tokenValue);\n        } else {\n            revert(\"No active Sale\");\n        }\n    }\n\n    /**\n     * @dev Executed when a purchase has been validated and is ready to be executed.\n     * @param _beneficiary Address receiving the tokens\n     * @param _tokenAmount Number of tokens to be purchased\n     */\n    function _processPurchase(address _beneficiary, uint256 _tokenAmount)\n        internal\n    {\n        require(token.transfer(_beneficiary, _tokenAmount), \"Transfer Failed\");\n    }\n\n    /**\n     * @param _usdCents Value in usd cents to be converted into tokens\n     * @return Number of tokens that can be purchased with the specified _usdCents\n     */\n    function _getTokenAmount(uint256 _usdCents)\n        internal\n        view\n        CrowdsaleStarted\n        returns (uint256)\n    {\n        uint256 bonusUSD;\n        uint256 bonusTokens;\n        uint256 actualTokens;\n        uint256 totalTokens;\n\n        if (currentStage == Stages.PrivateSaleStart) {\n            bonusUSD = (_usdCents.div(100)).mul(25).div(100);\n            bonusTokens = bonusUSD.mul(tokensInOneDollar);\n            actualTokens = _usdCents.div(100).mul(tokensInOneDollar);\n            totalTokens = bonusTokens.add(actualTokens);\n        } else if (currentStage == Stages.PreSaleStart) {\n            bonusUSD = (_usdCents.div(100)).mul(20).div(100);\n            bonusTokens = bonusUSD.mul(tokensInOneDollar);\n            actualTokens = _usdCents.div(100).mul(tokensInOneDollar);\n            totalTokens = bonusTokens.add(actualTokens);\n        } else if (currentStage == Stages.CrowdSaleRoundOneStart) {\n            bonusUSD = (_usdCents.div(100)).mul(15).div(100);\n            bonusTokens = bonusUSD.mul(tokensInOneDollar);\n            actualTokens = _usdCents.div(100).mul(tokensInOneDollar);\n            totalTokens = bonusTokens.add(actualTokens);\n        } else if (currentStage == Stages.CrowdSaleRoundTwoStart) {\n            bonusUSD = (_usdCents.div(100)).mul(10).div(100);\n            bonusTokens = bonusUSD.mul(tokensInOneDollar);\n            actualTokens = _usdCents.div(100).mul(tokensInOneDollar);\n            totalTokens = bonusTokens.add(actualTokens);\n        } else if (currentStage == Stages.CrowdSaleRoundThreeStart) {\n            bonusUSD = (_usdCents.div(100)).mul(5).div(100);\n            bonusTokens = bonusUSD.mul(tokensInOneDollar);\n            actualTokens = _usdCents.div(100).mul(tokensInOneDollar);\n            totalTokens = bonusTokens.add(actualTokens);\n        } else if (currentStage == Stages.CrowdSaleRoundFourStart) {\n            totalTokens = _usdCents;\n        }\n        return totalTokens;\n    }\n\n    /**\n     * @dev finalize the crowdsale.After finalizing ,tokens transfer can be done.\n     */\n    function finalizeSale() external onlyOwner {\n        require(\n            currentStage == Stages.CrowdSaleRoundFourEnd,\n            \"CrowdSaleRoundFour didn't end yet\"\n        );\n        uint256 availableTokens = getSwanTokenBalance();\n        require(availableTokens > 0, \"No Tokens Left in Contract\");\n        require(token.transfer(owner(), availableTokens), \"Transfer Failed\");\n    }\n}\n",
  "sourcePath": "/home/zaryab/blockchain_begins/all_about_ethereum/quillHash_CODES/NewSwan/swan_smart_contracts/contracts/Crowdsale.sol",
  "compiler": {
    "name": "solc",
    "version": "0.5.16+commit.9c3226ce.Emscripten.clang"
  },
  "schemaVersion": "3.2.2",
  "updatedAt": "2020-12-15T09:31:07.105Z",
  "networkType": "ethereum",
  "devdoc": {
    "methods": {
      "_pause()": {
        "details": "calling this function will pause the sale"
      },
      "authorizeKyc(address[])": {
        "details": "whitelist addresses of investors.",
        "params": {
          "addrs": ",array of addresses of investors to be whitelisted Note:= Array length must be less than 200."
        }
      },
      "buyTokens(address)": {
        "params": {
          "_beneficiary": "Address performing the token purchase"
        }
      },
      "constructor": {
        "params": {
          "_ethPriceInCents": "ether price in cents",
          "_token": "Address of the token being sold",
          "_wallet": "Address where collected funds will be forwarded to"
        }
      },
      "finalizeSale()": {
        "details": "finalize the crowdsale.After finalizing ,tokens transfer can be done."
      },
      "isOwner()": {
        "details": "Returns true if the caller is the current owner."
      },
      "owner()": {
        "details": "Returns the address of the current owner."
      },
      "pause()": {
        "details": "Called by a pauser to pause, triggers stopped state."
      },
      "paused()": {
        "details": "Returns true if the contract is paused, and false otherwise."
      },
      "renounceOwnership()": {
        "details": "Leaves the contract without owner. It will not be possible to call `onlyOwner` functions anymore. Can only be called by the current owner.     * NOTE: Renouncing ownership will leave the contract without an owner, thereby removing any functionality that is only available to the owner."
      },
      "setEthPriceInCents(uint256)": {
        "details": "sets the value of ether price in cents.Can be called only by the owner account.",
        "params": {
          "_ethPriceInCents": "price in cents ."
        }
      },
      "transferOwnership(address)": {
        "details": "Transfers ownership of the contract to a new account (`newOwner`). Can only be called by the current owner."
      },
      "unpause()": {
        "details": "Called by a pauser to unpause, returns to normal state."
      }
    }
  },
  "userdoc": {
    "methods": {
      "constructor": "dev initializes the crowdsale contract"
    }
  }
}