{
  "contractName": "Crowdsale",
  "abi": [
    {
      "inputs": [
        {
          "internalType": "address payable",
          "name": "_wallet",
          "type": "address"
        },
        {
          "internalType": "contract Swan",
          "name": "_token",
          "type": "address"
        },
        {
          "internalType": "uint256",
          "name": "_ethPriceInCents",
          "type": "uint256"
        }
      ],
      "payable": false,
      "stateMutability": "nonpayable",
      "type": "constructor"
    },
    {
      "anonymous": false,
      "inputs": [
        {
          "indexed": true,
          "internalType": "address",
          "name": "previousOwner",
          "type": "address"
        },
        {
          "indexed": true,
          "internalType": "address",
          "name": "newOwner",
          "type": "address"
        }
      ],
      "name": "OwnershipTransferred",
      "type": "event"
    },
    {
      "anonymous": false,
      "inputs": [
        {
          "indexed": false,
          "internalType": "address",
          "name": "account",
          "type": "address"
        }
      ],
      "name": "Paused",
      "type": "event"
    },
    {
      "anonymous": false,
      "inputs": [
        {
          "indexed": true,
          "internalType": "address",
          "name": "account",
          "type": "address"
        }
      ],
      "name": "PauserAdded",
      "type": "event"
    },
    {
      "anonymous": false,
      "inputs": [
        {
          "indexed": true,
          "internalType": "address",
          "name": "account",
          "type": "address"
        }
      ],
      "name": "PauserRemoved",
      "type": "event"
    },
    {
      "anonymous": false,
      "inputs": [
        {
          "indexed": true,
          "internalType": "address",
          "name": "purchaser",
          "type": "address"
        },
        {
          "indexed": true,
          "internalType": "address",
          "name": "beneficiary",
          "type": "address"
        },
        {
          "indexed": false,
          "internalType": "uint256",
          "name": "value",
          "type": "uint256"
        },
        {
          "indexed": false,
          "internalType": "uint256",
          "name": "amount",
          "type": "uint256"
        }
      ],
      "name": "TokenPurchase",
      "type": "event"
    },
    {
      "anonymous": false,
      "inputs": [
        {
          "indexed": false,
          "internalType": "address",
          "name": "account",
          "type": "address"
        }
      ],
      "name": "Unpaused",
      "type": "event"
    },
    {
      "payable": true,
      "stateMutability": "payable",
      "type": "fallback"
    },
    {
      "constant": true,
      "inputs": [],
      "name": "_Paused",
      "outputs": [
        {
          "internalType": "bool",
          "name": "",
          "type": "bool"
        }
      ],
      "payable": false,
      "stateMutability": "view",
      "type": "function"
    },
    {
      "constant": false,
      "inputs": [
        {
          "internalType": "address",
          "name": "account",
          "type": "address"
        }
      ],
      "name": "addPauser",
      "outputs": [],
      "payable": false,
      "stateMutability": "nonpayable",
      "type": "function"
    },
    {
      "constant": true,
      "inputs": [],
      "name": "bonusPercentPreSale",
      "outputs": [
        {
          "internalType": "uint256",
          "name": "",
          "type": "uint256"
        }
      ],
      "payable": false,
      "stateMutability": "view",
      "type": "function"
    },
    {
      "constant": true,
      "inputs": [],
      "name": "bonusPercentPrivateSale",
      "outputs": [
        {
          "internalType": "uint256",
          "name": "",
          "type": "uint256"
        }
      ],
      "payable": false,
      "stateMutability": "view",
      "type": "function"
    },
    {
      "constant": true,
      "inputs": [],
      "name": "bonusPercentRoudFour",
      "outputs": [
        {
          "internalType": "uint256",
          "name": "",
          "type": "uint256"
        }
      ],
      "payable": false,
      "stateMutability": "view",
      "type": "function"
    },
    {
      "constant": true,
      "inputs": [],
      "name": "bonusPercentRoudOne",
      "outputs": [
        {
          "internalType": "uint256",
          "name": "",
          "type": "uint256"
        }
      ],
      "payable": false,
      "stateMutability": "view",
      "type": "function"
    },
    {
      "constant": true,
      "inputs": [],
      "name": "bonusPercentRoudThree",
      "outputs": [
        {
          "internalType": "uint256",
          "name": "",
          "type": "uint256"
        }
      ],
      "payable": false,
      "stateMutability": "view",
      "type": "function"
    },
    {
      "constant": true,
      "inputs": [],
      "name": "bonusPercentRoudTwo",
      "outputs": [
        {
          "internalType": "uint256",
          "name": "",
          "type": "uint256"
        }
      ],
      "payable": false,
      "stateMutability": "view",
      "type": "function"
    },
    {
      "constant": true,
      "inputs": [],
      "name": "crowdSaleRoundFour",
      "outputs": [
        {
          "internalType": "uint256",
          "name": "",
          "type": "uint256"
        }
      ],
      "payable": false,
      "stateMutability": "view",
      "type": "function"
    },
    {
      "constant": true,
      "inputs": [],
      "name": "crowdSaleRoundFourLimit",
      "outputs": [
        {
          "internalType": "uint256",
          "name": "",
          "type": "uint256"
        }
      ],
      "payable": false,
      "stateMutability": "view",
      "type": "function"
    },
    {
      "constant": true,
      "inputs": [],
      "name": "crowdSaleRoundOne",
      "outputs": [
        {
          "internalType": "uint256",
          "name": "",
          "type": "uint256"
        }
      ],
      "payable": false,
      "stateMutability": "view",
      "type": "function"
    },
    {
      "constant": true,
      "inputs": [],
      "name": "crowdSaleRoundOneLimit",
      "outputs": [
        {
          "internalType": "uint256",
          "name": "",
          "type": "uint256"
        }
      ],
      "payable": false,
      "stateMutability": "view",
      "type": "function"
    },
    {
      "constant": true,
      "inputs": [],
      "name": "crowdSaleRoundThree",
      "outputs": [
        {
          "internalType": "uint256",
          "name": "",
          "type": "uint256"
        }
      ],
      "payable": false,
      "stateMutability": "view",
      "type": "function"
    },
    {
      "constant": true,
      "inputs": [],
      "name": "crowdSaleRoundThreeLimit",
      "outputs": [
        {
          "internalType": "uint256",
          "name": "",
          "type": "uint256"
        }
      ],
      "payable": false,
      "stateMutability": "view",
      "type": "function"
    },
    {
      "constant": true,
      "inputs": [],
      "name": "crowdSaleRoundTwo",
      "outputs": [
        {
          "internalType": "uint256",
          "name": "",
          "type": "uint256"
        }
      ],
      "payable": false,
      "stateMutability": "view",
      "type": "function"
    },
    {
      "constant": true,
      "inputs": [],
      "name": "crowdSaleRoundTwoLimit",
      "outputs": [
        {
          "internalType": "uint256",
          "name": "",
          "type": "uint256"
        }
      ],
      "payable": false,
      "stateMutability": "view",
      "type": "function"
    },
    {
      "constant": true,
      "inputs": [],
      "name": "crowdSaleStarted",
      "outputs": [
        {
          "internalType": "bool",
          "name": "",
          "type": "bool"
        }
      ],
      "payable": false,
      "stateMutability": "view",
      "type": "function"
    },
    {
      "constant": true,
      "inputs": [],
      "name": "ethPrice",
      "outputs": [
        {
          "internalType": "uint256",
          "name": "",
          "type": "uint256"
        }
      ],
      "payable": false,
      "stateMutability": "view",
      "type": "function"
    },
    {
      "constant": true,
      "inputs": [],
      "name": "hardCap",
      "outputs": [
        {
          "internalType": "uint256",
          "name": "",
          "type": "uint256"
        }
      ],
      "payable": false,
      "stateMutability": "view",
      "type": "function"
    },
    {
      "constant": true,
      "inputs": [],
      "name": "isOwner",
      "outputs": [
        {
          "internalType": "bool",
          "name": "",
          "type": "bool"
        }
      ],
      "payable": false,
      "stateMutability": "view",
      "type": "function"
    },
    {
      "constant": true,
      "inputs": [
        {
          "internalType": "address",
          "name": "account",
          "type": "address"
        }
      ],
      "name": "isPauser",
      "outputs": [
        {
          "internalType": "bool",
          "name": "",
          "type": "bool"
        }
      ],
      "payable": false,
      "stateMutability": "view",
      "type": "function"
    },
    {
      "constant": true,
      "inputs": [],
      "name": "maximumInvestment",
      "outputs": [
        {
          "internalType": "uint256",
          "name": "",
          "type": "uint256"
        }
      ],
      "payable": false,
      "stateMutability": "view",
      "type": "function"
    },
    {
      "constant": true,
      "inputs": [],
      "name": "minimumInvestment",
      "outputs": [
        {
          "internalType": "uint256",
          "name": "",
          "type": "uint256"
        }
      ],
      "payable": false,
      "stateMutability": "view",
      "type": "function"
    },
    {
      "constant": true,
      "inputs": [],
      "name": "owner",
      "outputs": [
        {
          "internalType": "address",
          "name": "",
          "type": "address"
        }
      ],
      "payable": false,
      "stateMutability": "view",
      "type": "function"
    },
    {
      "constant": false,
      "inputs": [],
      "name": "pause",
      "outputs": [],
      "payable": false,
      "stateMutability": "nonpayable",
      "type": "function"
    },
    {
      "constant": true,
      "inputs": [],
      "name": "paused",
      "outputs": [
        {
          "internalType": "bool",
          "name": "",
          "type": "bool"
        }
      ],
      "payable": false,
      "stateMutability": "view",
      "type": "function"
    },
    {
      "constant": true,
      "inputs": [],
      "name": "preSaleTokensLimit",
      "outputs": [
        {
          "internalType": "uint256",
          "name": "",
          "type": "uint256"
        }
      ],
      "payable": false,
      "stateMutability": "view",
      "type": "function"
    },
    {
      "constant": true,
      "inputs": [],
      "name": "preSaleTokensSold",
      "outputs": [
        {
          "internalType": "uint256",
          "name": "",
          "type": "uint256"
        }
      ],
      "payable": false,
      "stateMutability": "view",
      "type": "function"
    },
    {
      "constant": true,
      "inputs": [],
      "name": "privateSaletokenLimit",
      "outputs": [
        {
          "internalType": "uint256",
          "name": "",
          "type": "uint256"
        }
      ],
      "payable": false,
      "stateMutability": "view",
      "type": "function"
    },
    {
      "constant": true,
      "inputs": [],
      "name": "privateSaletokenSold",
      "outputs": [
        {
          "internalType": "uint256",
          "name": "",
          "type": "uint256"
        }
      ],
      "payable": false,
      "stateMutability": "view",
      "type": "function"
    },
    {
      "constant": false,
      "inputs": [],
      "name": "renounceOwnership",
      "outputs": [],
      "payable": false,
      "stateMutability": "nonpayable",
      "type": "function"
    },
    {
      "constant": false,
      "inputs": [],
      "name": "renouncePauser",
      "outputs": [],
      "payable": false,
      "stateMutability": "nonpayable",
      "type": "function"
    },
    {
      "constant": true,
      "inputs": [],
      "name": "softCap",
      "outputs": [
        {
          "internalType": "uint256",
          "name": "",
          "type": "uint256"
        }
      ],
      "payable": false,
      "stateMutability": "view",
      "type": "function"
    },
    {
      "constant": true,
      "inputs": [],
      "name": "token",
      "outputs": [
        {
          "internalType": "contract Swan",
          "name": "",
          "type": "address"
        }
      ],
      "payable": false,
      "stateMutability": "view",
      "type": "function"
    },
    {
      "constant": true,
      "inputs": [],
      "name": "tokensForSale",
      "outputs": [
        {
          "internalType": "uint256",
          "name": "",
          "type": "uint256"
        }
      ],
      "payable": false,
      "stateMutability": "view",
      "type": "function"
    },
    {
      "constant": true,
      "inputs": [],
      "name": "tokensInOneDollar",
      "outputs": [
        {
          "internalType": "uint256",
          "name": "",
          "type": "uint256"
        }
      ],
      "payable": false,
      "stateMutability": "view",
      "type": "function"
    },
    {
      "constant": true,
      "inputs": [],
      "name": "totalWeiRaised",
      "outputs": [
        {
          "internalType": "uint256",
          "name": "",
          "type": "uint256"
        }
      ],
      "payable": false,
      "stateMutability": "view",
      "type": "function"
    },
    {
      "constant": false,
      "inputs": [
        {
          "internalType": "address",
          "name": "newOwner",
          "type": "address"
        }
      ],
      "name": "transferOwnership",
      "outputs": [],
      "payable": false,
      "stateMutability": "nonpayable",
      "type": "function"
    },
    {
      "constant": false,
      "inputs": [],
      "name": "unpause",
      "outputs": [],
      "payable": false,
      "stateMutability": "nonpayable",
      "type": "function"
    },
    {
      "constant": true,
      "inputs": [],
      "name": "wallet",
      "outputs": [
        {
          "internalType": "address payable",
          "name": "",
          "type": "address"
        }
      ],
      "payable": false,
      "stateMutability": "view",
      "type": "function"
    },
    {
      "constant": true,
      "inputs": [
        {
          "internalType": "address",
          "name": "",
          "type": "address"
        }
      ],
      "name": "whitelistedContributors",
      "outputs": [
        {
          "internalType": "bool",
          "name": "",
          "type": "bool"
        }
      ],
      "payable": false,
      "stateMutability": "view",
      "type": "function"
    },
    {
      "constant": true,
      "inputs": [],
      "name": "getSwanTokenBalance",
      "outputs": [
        {
          "internalType": "uint256",
          "name": "",
          "type": "uint256"
        }
      ],
      "payable": false,
      "stateMutability": "view",
      "type": "function"
    },
    {
      "constant": true,
      "inputs": [],
      "name": "getTotalWeiRaised",
      "outputs": [
        {
          "internalType": "uint256",
          "name": "",
          "type": "uint256"
        }
      ],
      "payable": false,
      "stateMutability": "view",
      "type": "function"
    },
    {
      "constant": false,
      "inputs": [
        {
          "internalType": "address[]",
          "name": "addrs",
          "type": "address[]"
        }
      ],
      "name": "authorizeKyc",
      "outputs": [
        {
          "internalType": "bool",
          "name": "success",
          "type": "bool"
        }
      ],
      "payable": false,
      "stateMutability": "nonpayable",
      "type": "function"
    },
    {
      "constant": false,
      "inputs": [],
      "name": "_pause",
      "outputs": [],
      "payable": false,
      "stateMutability": "nonpayable",
      "type": "function"
    },
    {
      "constant": false,
      "inputs": [],
      "name": "restartSale",
      "outputs": [],
      "payable": false,
      "stateMutability": "nonpayable",
      "type": "function"
    },
    {
      "constant": false,
      "inputs": [],
      "name": "startPrivateSale",
      "outputs": [],
      "payable": false,
      "stateMutability": "nonpayable",
      "type": "function"
    },
    {
      "constant": false,
      "inputs": [],
      "name": "endPrivateSale",
      "outputs": [],
      "payable": false,
      "stateMutability": "nonpayable",
      "type": "function"
    },
    {
      "constant": false,
      "inputs": [],
      "name": "startPreSale",
      "outputs": [],
      "payable": false,
      "stateMutability": "nonpayable",
      "type": "function"
    },
    {
      "constant": false,
      "inputs": [],
      "name": "endPreSale",
      "outputs": [],
      "payable": false,
      "stateMutability": "nonpayable",
      "type": "function"
    },
    {
      "constant": false,
      "inputs": [],
      "name": "startCrowdSaleRoundOne",
      "outputs": [],
      "payable": false,
      "stateMutability": "nonpayable",
      "type": "function"
    },
    {
      "constant": false,
      "inputs": [],
      "name": "endCrowdSaleRoundOne",
      "outputs": [],
      "payable": false,
      "stateMutability": "nonpayable",
      "type": "function"
    },
    {
      "constant": false,
      "inputs": [],
      "name": "startCrowdSaleRoundTwo",
      "outputs": [],
      "payable": false,
      "stateMutability": "nonpayable",
      "type": "function"
    },
    {
      "constant": false,
      "inputs": [],
      "name": "endCrowdSaleRoundTwo",
      "outputs": [],
      "payable": false,
      "stateMutability": "nonpayable",
      "type": "function"
    },
    {
      "constant": false,
      "inputs": [],
      "name": "startCrowdSaleRoundThree",
      "outputs": [],
      "payable": false,
      "stateMutability": "nonpayable",
      "type": "function"
    },
    {
      "constant": false,
      "inputs": [],
      "name": "endCrowdSaleRoundThree",
      "outputs": [],
      "payable": false,
      "stateMutability": "nonpayable",
      "type": "function"
    },
    {
      "constant": false,
      "inputs": [],
      "name": "startCrowdSaleRoundFour",
      "outputs": [],
      "payable": false,
      "stateMutability": "nonpayable",
      "type": "function"
    },
    {
      "constant": false,
      "inputs": [],
      "name": "endCrowdSaleRoundFour",
      "outputs": [],
      "payable": false,
      "stateMutability": "nonpayable",
      "type": "function"
    },
    {
      "constant": true,
      "inputs": [],
      "name": "getStage",
      "outputs": [
        {
          "internalType": "string",
          "name": "",
          "type": "string"
        }
      ],
      "payable": false,
      "stateMutability": "view",
      "type": "function"
    },
    {
      "constant": false,
      "inputs": [
        {
          "internalType": "uint256",
          "name": "_ethPriceInCents",
          "type": "uint256"
        }
      ],
      "name": "setEthPriceInCents",
      "outputs": [
        {
          "internalType": "bool",
          "name": "",
          "type": "bool"
        }
      ],
      "payable": false,
      "stateMutability": "nonpayable",
      "type": "function"
    },
    {
      "constant": false,
      "inputs": [
        {
          "internalType": "address",
          "name": "_beneficiary",
          "type": "address"
        }
      ],
      "name": "buyTokens",
      "outputs": [],
      "payable": true,
      "stateMutability": "payable",
      "type": "function"
    },
    {
      "constant": false,
      "inputs": [],
      "name": "finalizeSale",
      "outputs": [],
      "payable": false,
      "stateMutability": "nonpayable",
      "type": "function"
    }
  ],
  "bytecode": "0x60806040526c01c45d49276606214ee00000006006553480156200002257600080fd5b506040516200354f3803806200354f833981810160405260608110156200004857600080fd5b50805160208201516040909201519091906200007f620000706001600160e01b036200013616565b6001600160e01b036200013a16565b6001805460ff1916905560006200009e6001600160e01b036200013616565b60018054610100600160a81b0319166101006001600160a01b03841690810291909117909155604051919250906000907f8be0079c531659141344cd1fd0a4f28419497f9722a3daafe3b4186f6b6457e0908290a350600d8054600380546001600160a01b039586166001600160a01b0319918216179091556002939093559390921692169190911760ff60a81b1916905562000282565b3390565b620001558160006200018c60201b62002f781790919060201c565b6040516001600160a01b038216907f6719d08c1888103bea251a4ed56406bd0c3e69723c8a1686e017e7bbe159b6f890600090a250565b620001a182826001600160e01b036200021916565b15620001f4576040805162461bcd60e51b815260206004820152601f60248201527f526f6c65733a206163636f756e7420616c72656164792068617320726f6c6500604482015290519081900360640190fd5b6001600160a01b0316600090815260209190915260409020805460ff19166001179055565b60006001600160a01b038216620002625760405162461bcd60e51b81526004018080602001828103825260228152602001806200352d6022913960400191505060405180910390fd5b506001600160a01b03166000908152602091909152604090205460ff1690565b61329b80620002926000396000f3fe6080604052600436106103ac5760003560e01c8063715018a6116101e7578063c03147011161010d578063ec8ac4d8116100a0578063fb86a4041161006f578063fb86a40414610a13578063fc0c546a14610a28578063fcaa766414610a3d578063ff186b2e14610ac7576103ac565b8063ec8ac4d814610990578063edfc8257146109b6578063ee889ed0146109cb578063f2fde38b146109e0576103ac565b8063d80f6d3d116100dc578063d80f6d3d1461093c578063dc8371d614610951578063e2acae2a14610966578063e6a23c3d1461097b576103ac565b8063c0314701146108df578063c7b850dd146108f4578063c806dcc614610927578063d4470aa014610540576103ac565b80638f32d59b11610185578063a7a8511411610154578063a7a851141461088b578063b121acf0146108a0578063b904088e146108b5578063ba6169fe146108ca576103ac565b80638f32d59b14610837578063906a26e01461084c57806392094ef4146108615780639f0c83f914610876576103ac565b806382dc1ec4116101c157806382dc1ec4146107c55780638456cb59146107f85780638635cfd11461080d5780638da5cb5b14610822576103ac565b8063715018a614610786578063747112851461079b57806376be6b2b146107b0576103ac565b8063338dbf59116102d75780635c975abb1161026a5780636adf0c27116102395780636adf0c27146106ca5780636cea50a1146106df5780636ef8d66d146106f457806370d7a0e714610709576103ac565b80635c975abb1461067657806363d6ac1f1461068b57806365fbf8a0146106a0578063691901e0146106b5576103ac565b806353bf5af4116102a657806353bf5af41461062257806353f4db011461063757806355dd574c1461064c57806358a687ec14610661576103ac565b8063338dbf59146105945780633f4ba83a146105a957806346fbf68e146105be578063521eb273146105f1576103ac565b806312aef8c31161034f578063238b6d401161031e578063238b6d4014610540578063297aeb83146105555780632b925b251461056a578063320b2ad91461057f576103ac565b806312aef8c3146104ec57806316b42ec2146105015780631b56ea7e1461051657806322c5d0b21461052b576103ac565b80630c1d7cb61161038b5780630c1d7cb6146104985780630dfd0e73146104ad5780630ee13ced146104c257806310ea759f146104d7576103ac565b806241edee1461041e578063044f9afe146104455780630bdab5c714610483575b6103b4610adc565b6001600160a01b0316336001600160a01b03161415610413576040805162461bcd60e51b815260206004820152601660248201527521b0b63632b91034b99027bbb732b91034ba39b2b63360511b604482015290519081900360640190fd5b61041c33610af1565b005b34801561042a57600080fd5b50610433610db2565b60408051918252519081900360200190f35b34801561045157600080fd5b5061046f6004803603602081101561046857600080fd5b5035610dba565b604080519115158252519081900360200190f35b34801561048f57600080fd5b5061046f610e0c565b3480156104a457600080fd5b50610433610e1c565b3480156104b957600080fd5b50610433610e24565b3480156104ce57600080fd5b5061041c610e2a565b3480156104e357600080fd5b50610433610ee4565b3480156104f857600080fd5b50610433610ee9565b34801561050d57600080fd5b50610433610eef565b34801561052257600080fd5b50610433610ef5565b34801561053757600080fd5b50610433610efa565b34801561054c57600080fd5b50610433610f00565b34801561056157600080fd5b50610433610f08565b34801561057657600080fd5b50610433610f0d565b34801561058b57600080fd5b5061041c610f13565b3480156105a057600080fd5b5061041c611065565b3480156105b557600080fd5b5061041c611135565b3480156105ca57600080fd5b5061046f600480360360208110156105e157600080fd5b50356001600160a01b031661121e565b3480156105fd57600080fd5b50610606611236565b604080516001600160a01b039092168252519081900360200190f35b34801561062e57600080fd5b5061041c611245565b34801561064357600080fd5b506104336112fc565b34801561065857600080fd5b5061041c611302565b34801561066d57600080fd5b5061041c6113cf565b34801561068257600080fd5b5061046f6115a7565b34801561069757600080fd5b5061041c6115b0565b3480156106ac57600080fd5b5061043361167d565b3480156106c157600080fd5b50610433611685565b3480156106d657600080fd5b5061043361168b565b3480156106eb57600080fd5b5061046f611693565b34801561070057600080fd5b5061041c6116a3565b34801561071557600080fd5b5061046f6004803603602081101561072c57600080fd5b81019060208101813564010000000081111561074757600080fd5b82018360208201111561075957600080fd5b8035906020019184602083028401116401000000008311171561077b57600080fd5b5090925090506116b5565b34801561079257600080fd5b5061041c611760565b3480156107a757600080fd5b5061041c6117f7565b3480156107bc57600080fd5b506104336118e5565b3480156107d157600080fd5b5061041c600480360360208110156107e857600080fd5b50356001600160a01b03166118eb565b34801561080457600080fd5b5061041c61193a565b34801561081957600080fd5b50610433611a00565b34801561082e57600080fd5b50610606610adc565b34801561084357600080fd5b5061046f611a05565b34801561085857600080fd5b50610433611a30565b34801561086d57600080fd5b50610433611a38565b34801561088257600080fd5b50610433611ab4565b34801561089757600080fd5b50610433611aba565b3480156108ac57600080fd5b5061041c611ac0565b3480156108c157600080fd5b50610433611b77565b3480156108d657600080fd5b5061041c611b7f565b3480156108eb57600080fd5b5061041c611c36565b34801561090057600080fd5b5061046f6004803603602081101561091757600080fd5b50356001600160a01b0316611d03565b34801561093357600080fd5b5061041c611d18565b34801561094857600080fd5b50610433611dcd565b34801561095d57600080fd5b5061041c611dd3565b34801561097257600080fd5b50610433611ea0565b34801561098757600080fd5b5061041c611ea5565b61041c600480360360208110156109a657600080fd5b50356001600160a01b0316610af1565b3480156109c257600080fd5b50610433611f72565b3480156109d757600080fd5b5061041c611f77565b3480156109ec57600080fd5b5061041c60048036036020811015610a0357600080fd5b50356001600160a01b0316612044565b348015610a1f57600080fd5b50610433612094565b348015610a3457600080fd5b5061060661209a565b348015610a4957600080fd5b50610a526120a9565b6040805160208082528351818301528351919283929083019185019080838360005b83811015610a8c578181015183820152602001610a74565b50505050905090810190601f168015610ab95780820380516001836020036101000a031916815260200191505b509250505060405180910390f35b348015610ad357600080fd5b50610433612541565b60015461010090046001600160a01b03165b90565b600d54600160a01b900460ff16610b4b576040805162461bcd60e51b815260206004820152601960248201527818dc9bddd914d85b1948139bdd081cdd185c9d1959081e595d603a1b604482015290519081900360640190fd5b60015460ff1615610b96576040805162461bcd60e51b815260206004820152601060248201526f14185d5cd8589b194e881c185d5cd95960821b604482015290519081900360640190fd5b6001600160a01b0381166000908152600e602052604090205460ff16610c03576040805162461bcd60e51b815260206004820152601960248201527f4e6f7420612077686974656c6973746564496e766573746f7200000000000000604482015290519081900360640190fd5b600d54600160b81b900460ff1615610c57576040805162461bcd60e51b815260206004820152601260248201527110dbdb9d1c9858dd081a5cc814185d5cd95960721b604482015290519081900360640190fd5b60003490506000610c8b670de0b6b3a7640000610c7f6002548561254790919063ffffffff16565b9063ffffffff6125a716565b905061c3508110158015610ca357506301312d008111155b610cf4576040805162461bcd60e51b815260206004820152601b60248201527f5f70726556616c69646174655075726368617365206661696c65640000000000604482015290519081900360640190fd5b6000610cff826125e9565b9050610d0a826127eb565b610d148482612ba5565b600554610d27903463ffffffff612c6e16565b600555600d546040516001600160a01b03909116903480156108fc02916000818181858888f19350505050158015610d63573d6000803e3d6000fd5b50604080518481526020810183905281516001600160a01b0387169233927f623b3804fa71d67900d064613da8f94b9617215ee90799290593e1745087ad18929081900390910190a350505050565b638f0d180081565b6000610dc4611a05565b610e03576040805162461bcd60e51b8152602060048201819052602482015260008051602061319d833981519152604482015290519081900360640190fd5b50600255600190565b600d54600160b81b900460ff1681565b637d2b750081565b6103e881565b610e32611a05565b610e71576040805162461bcd60e51b8152602060048201819052602482015260008051602061319d833981519152604482015290519081900360640190fd5b600b600d8054600160a81b900460ff1690811115610e8b57fe5b14610ec75760405162461bcd60e51b81526004018080602001828103825260228152602001806132006022913960400191505060405180910390fd5b600d8054600c919060ff60a81b1916600160a81b835b0217905550565b601481565b60065481565b600a5481565b600f81565b600c5481565b639502f90081565b600a81565b61c35081565b610f1b611a05565b610f5a576040805162461bcd60e51b8152602060048201819052602482015260008051602061319d833981519152604482015290519081900360640190fd5b600d54600160b81b900460ff1615610fb9576040805162461bcd60e51b815260206004820152601a60248201527f636f6e747261637420697320616c726561647920506175736564000000000000604482015290519081900360640190fd5b600d54600160a01b900460ff16611017576040805162461bcd60e51b815260206004820152601b60248201527f43726f776473616c6520646964206e6f74207374617274207965740000000000604482015290519081900360640190fd5b600d805460ff600160a81b820416919060ff60b01b1916600160b01b838381111561103e57fe5b0217905550600d805460ff60a81b1916600160a81b1760ff60b81b1916600160b81b179055565b61106d611a05565b6110ac576040805162461bcd60e51b8152602060048201819052602482015260008051602061319d833981519152604482015290519081900360640190fd5b600d54600160a01b900460ff161561110b576040805162461bcd60e51b815260206004820152601960248201527f43726f776473616c6520416c7265616479205374617274656400000000000000604482015290519081900360640190fd5b600d805460ff60a01b1916600160a01b178082556002919060ff60a81b1916600160a81b83610edd565b611145611140612cc8565b61121e565b6111805760405162461bcd60e51b8152600401808060200182810382526030815260200180612ffa6030913960400191505060405180910390fd5b60015460ff166111ce576040805162461bcd60e51b815260206004820152601460248201527314185d5cd8589b194e881b9bdd081c185d5cd95960621b604482015290519081900360640190fd5b6001805460ff191690557f5db9ee0a495bf2e6ff9c91a7834c1ba4fdd244a5e8aa4e537bd38aeae4b073aa611201612cc8565b604080516001600160a01b039092168252519081900360200190a1565b6000611230818363ffffffff612ccc16565b92915050565b600d546001600160a01b031681565b61124d611a05565b61128c576040805162461bcd60e51b8152602060048201819052602482015260008051602061319d833981519152604482015290519081900360640190fd5b6008600d8054600160a81b900460ff16908111156112a657fe5b146112e25760405162461bcd60e51b81526004018080602001828103825260228152602001806131116022913960400191505060405180910390fd5b600d80546009919060ff60a81b1916600160a81b83610edd565b60055481565b61130a611a05565b611349576040805162461bcd60e51b8152602060048201819052602482015260008051602061319d833981519152604482015290519081900360640190fd5b6003600d8054600160a81b900460ff169081111561136357fe5b146113b5576040805162461bcd60e51b815260206004820152601b60248201527f507269766174652053616c65204469646e277420656e64207965740000000000604482015290519081900360640190fd5b600d80546004919060ff60a81b1916600160a81b83610edd565b6113d7611a05565b611416576040805162461bcd60e51b8152602060048201819052602482015260008051602061319d833981519152604482015290519081900360640190fd5b600d808054600160a81b900460ff169081111561142f57fe5b1461146b5760405162461bcd60e51b81526004018080602001828103825260218152602001806131df6021913960400191505060405180910390fd5b6000611475611a38565b9050600081116114cc576040805162461bcd60e51b815260206004820152601a60248201527f4e6f20546f6b656e73204c65667420696e20436f6e7472616374000000000000604482015290519081900360640190fd5b6003546001600160a01b031663a9059cbb6114e5610adc565b836040518363ffffffff1660e01b815260040180836001600160a01b03166001600160a01b0316815260200182815260200192505050602060405180830381600087803b15801561153557600080fd5b505af1158015611549573d6000803e3d6000fd5b505050506040513d602081101561155f57600080fd5b50516115a4576040805162461bcd60e51b815260206004820152600f60248201526e151c985b9cd9995c8811985a5b1959608a1b604482015290519081900360640190fd5b50565b60015460ff1690565b6115b8611a05565b6115f7576040805162461bcd60e51b8152602060048201819052602482015260008051602061319d833981519152604482015290519081900360640190fd5b6007600d8054600160a81b900460ff169081111561161157fe5b14611663576040805162461bcd60e51b815260206004820181905260248201527f43726f776453616c65526f756e644f6e65204469646e277420656e6420796574604482015290519081900360640190fd5b600d80546008919060ff60a81b1916600160a81b83610edd565b638321560081565b60095481565b638917370081565b600d54600160a01b900460ff1681565b6116b36116ae612cc8565b612d33565b565b60006116bf611a05565b6116fe576040805162461bcd60e51b8152602060048201819052602482015260008051602061319d833981519152604482015290519081900360640190fd5b8160005b81811015611755576001600e600087878581811061171c57fe5b602090810292909201356001600160a01b0316835250810191909152604001600020805460ff1916911515919091179055600101611702565b506001949350505050565b611768611a05565b6117a7576040805162461bcd60e51b8152602060048201819052602482015260008051602061319d833981519152604482015290519081900360640190fd5b60015460405160009161010090046001600160a01b0316907f8be0079c531659141344cd1fd0a4f28419497f9722a3daafe3b4186f6b6457e0908390a360018054610100600160a81b0319169055565b6117ff611a05565b61183e576040805162461bcd60e51b8152602060048201819052602482015260008051602061319d833981519152604482015290519081900360640190fd5b6001600d8054600160a81b900460ff169081111561185857fe5b146118aa576040805162461bcd60e51b815260206004820152601960248201527f63757272656e745374616765206973206e6f7420504155534500000000000000604482015290519081900360640190fd5b600d805460ff600160b01b820416919060ff60a81b1916600160a81b83838111156118d157fe5b0217905550600d805460ff60b81b19169055565b60085481565b6118f6611140612cc8565b6119315760405162461bcd60e51b8152600401808060200182810382526030815260200180612ffa6030913960400191505060405180910390fd5b6115a481612d7b565b611945611140612cc8565b6119805760405162461bcd60e51b8152600401808060200182810382526030815260200180612ffa6030913960400191505060405180910390fd5b60015460ff16156119cb576040805162461bcd60e51b815260206004820152601060248201526f14185d5cd8589b194e881c185d5cd95960821b604482015290519081900360640190fd5b6001805460ff1916811790557f62e78cea01bee320cd4e420270b5ea74000d11b0c9f74754ebdbfc544b05a258611201612cc8565b600581565b60015460009061010090046001600160a01b0316611a21612cc8565b6001600160a01b031614905090565b631dcd650081565b600354604080516370a0823160e01b815230600482015290516000926001600160a01b0316916370a08231916024808301926020929190829003018186803b158015611a8357600080fd5b505afa158015611a97573d6000803e3d6000fd5b505050506040513d6020811015611aad57600080fd5b5051905090565b60055490565b600b5481565b611ac8611a05565b611b07576040805162461bcd60e51b8152602060048201819052602482015260008051602061319d833981519152604482015290519081900360640190fd5b6006600d8054600160a81b900460ff1690811115611b2157fe5b14611b5d5760405162461bcd60e51b81526004018080602001828103825260228152602001806132456022913960400191505060405180910390fd5b600d80546007919060ff60a81b1916600160a81b83610edd565b6301312d0081565b611b87611a05565b611bc6576040805162461bcd60e51b8152602060048201819052602482015260008051602061319d833981519152604482015290519081900360640190fd5b600a600d8054600160a81b900460ff1690811115611be057fe5b14611c1c5760405162461bcd60e51b81526004018080602001828103825260248152602001806130506024913960400191505060405180910390fd5b600d8054600b919060ff60a81b1916600160a81b83610edd565b611c3e611a05565b611c7d576040805162461bcd60e51b8152602060048201819052602482015260008051602061319d833981519152604482015290519081900360640190fd5b6005600d8054600160a81b900460ff1690811115611c9757fe5b14611ce9576040805162461bcd60e51b815260206004820152601760248201527f5072652053616c65204469646e277420656e6420796574000000000000000000604482015290519081900360640190fd5b600d80546006919060ff60a81b1916600160a81b83610edd565b600e6020526000908152604090205460ff1681565b611d20611a05565b611d5f576040805162461bcd60e51b8152602060048201819052602482015260008051602061319d833981519152604482015290519081900360640190fd5b600c600d8054600160a81b900460ff1690811115611d7957fe5b14611db55760405162461bcd60e51b81526004018080602001828103825260238152602001806132226023913960400191505060405180910390fd5b600d8054819060ff60a81b1916600160a81b82610edd565b60075481565b611ddb611a05565b611e1a576040805162461bcd60e51b8152602060048201819052602482015260008051602061319d833981519152604482015290519081900360640190fd5b6009600d8054600160a81b900460ff1690811115611e3457fe5b14611e86576040805162461bcd60e51b815260206004820181905260248201527f43726f776453616c65526f756e6454776f204469646e277420656e6420796574604482015290519081900360640190fd5b600d8054600a919060ff60a81b1916600160a81b83610edd565b601981565b611ead611a05565b611eec576040805162461bcd60e51b8152602060048201819052602482015260008051602061319d833981519152604482015290519081900360640190fd5b6002600d8054600160a81b900460ff1690811115611f0657fe5b14611f58576040805162461bcd60e51b815260206004820152601a60248201527f43726f776473616c65206469646e277420537461727420796574000000000000604482015290519081900360640190fd5b600d80546003919060ff60a81b1916600160a81b83610edd565b600081565b611f7f611a05565b611fbe576040805162461bcd60e51b8152602060048201819052602482015260008051602061319d833981519152604482015290519081900360640190fd5b6004600d8054600160a81b900460ff1690811115611fd857fe5b1461202a576040805162461bcd60e51b815260206004820152601960248201527f5072652053616c65206469646e27742053746172742079657400000000000000604482015290519081900360640190fd5b600d80546005919060ff60a81b1916600160a81b83610edd565b61204c611a05565b61208b576040805162461bcd60e51b8152602060048201819052602482015260008051602061319d833981519152604482015290519081900360640190fd5b6115a481612dc3565b60045481565b6003546001600160a01b031681565b60606002600d8054600160a81b900460ff16908111156120c557fe5b14156120fa5750604080518082019091526012815271141c9a5d985d194814d85b194814dd185c9d60721b6020820152610aee565b6003600d8054600160a81b900460ff169081111561211457fe5b1415612147575060408051808201909152601081526f141c9a5d985d194814d85b1948115b9960821b6020820152610aee565b6004600d8054600160a81b900460ff169081111561216157fe5b1415612193575060408051808201909152600f81526e141c995cd85b194814dd185c9d1959608a1b6020820152610aee565b6005600d8054600160a81b900460ff16908111156121ad57fe5b14156121dd575060408051808201909152600d81526c141c995cd85b1948115b991959609a1b6020820152610aee565b6006600d8054600160a81b900460ff16908111156121f757fe5b1415612237575060408051808201909152601b81527f43726f776453616c6520526f756e64204f6e65205374617274656400000000006020820152610aee565b6007600d8054600160a81b900460ff169081111561225157fe5b1415612291575060408051808201909152601781527f43726f776453616c6520526f756e64204f6e6520456e640000000000000000006020820152610aee565b6008600d8054600160a81b900460ff16908111156122ab57fe5b14156122eb575060408051808201909152601b81527f43726f776453616c6520526f756e642054776f205374617274656400000000006020820152610aee565b6009600d8054600160a81b900460ff169081111561230557fe5b1415612345575060408051808201909152601781527f43726f776453616c6520526f756e642054776f20456e640000000000000000006020820152610aee565b600a600d8054600160a81b900460ff169081111561235f57fe5b141561239f575060408051808201909152601d81527f43726f776453616c6520526f756e6420546872656520537461727465640000006020820152610aee565b600b600d8054600160a81b900460ff16908111156123b957fe5b14156123f9575060408051808201909152601981527f43726f776453616c6520526f756e6420546872656520456e64000000000000006020820152610aee565b600c600d8054600160a81b900460ff169081111561241357fe5b1415612453575060408051808201909152601c81527f43726f776453616c6520526f756e6420466f75722053746172746564000000006020820152610aee565b600d808054600160a81b900460ff169081111561246c57fe5b14156124ac575060408051808201909152601881527f43726f776453616c6520526f756e6420466f757220456e6400000000000000006020820152610aee565b6001600d8054600160a81b900460ff16908111156124c657fe5b14156124ef57506040805180820190915260068152651c185d5cd95960d21b6020820152610aee565b6000600d8054600160a81b900460ff169081111561250957fe5b1415610aee575060408051808201909152601581527410dc9bddd914d85b1948139bdd0814dd185c9d1959605a1b6020820152610aee565b60025481565b60008261255657506000611230565b8282028284828161256357fe5b04146125a05760405162461bcd60e51b815260040180806020018281038252602181526020018061317c6021913960400191505060405180910390fd5b9392505050565b60006125a083836040518060400160405280601a81526020017f536166654d6174683a206469766973696f6e206279207a65726f000000000000815250612e6f565b600d54600090600160a01b900460ff16612646576040805162461bcd60e51b815260206004820152601960248201527818dc9bddd914d85b1948139bdd081cdd185c9d1959081e595d603a1b604482015290519081900360640190fd5b60008080806002600d8054600160a81b900460ff169081111561266557fe5b14156126d7576126916064610c7f60196126858a8463ffffffff6125a716565b9063ffffffff61254716565b93506126a5846103e863ffffffff61254716565b92506126be6103e861268588606463ffffffff6125a716565b91506126d0838363ffffffff612c6e16565b90506127e2565b6004600d8054600160a81b900460ff16908111156126f157fe5b1415612711576126916064610c7f60146126858a8463ffffffff6125a716565b6006600d8054600160a81b900460ff169081111561272b57fe5b141561274b576126916064610c7f600f6126858a8463ffffffff6125a716565b6008600d8054600160a81b900460ff169081111561276557fe5b1415612785576126916064610c7f600a6126858a8463ffffffff6125a716565b600a600d8054600160a81b900460ff169081111561279f57fe5b14156127bf576126916064610c7f60056126858a8463ffffffff6125a716565b600c600d8054600160a81b900460ff16908111156127d957fe5b14156127e25750845b95945050505050565b6002600d8054600160a81b900460ff169081111561280557fe5b141561287c57600754639502f90090612824908363ffffffff612c6e16565b11156128615760405162461bcd60e51b81526004018080602001828103825260228152602001806130ef6022913960400191505060405180910390fd5b600754612874908263ffffffff612c6e16565b6007556115a4565b6004600d8054600160a81b900460ff169081111561289657fe5b141561292357600854638f0d1800906128b5908363ffffffff612c6e16565b1115612908576040805162461bcd60e51b815260206004820152601e60248201527f50726553616c65537461727420636f6e646974696f6e73204661696c65640000604482015290519081900360640190fd5b60085461291b908263ffffffff612c6e16565b6008556115a4565b6006600d8054600160a81b900460ff169081111561293d57fe5b14156129b45760095463891737009061295c908363ffffffff612c6e16565b11156129995760405162461bcd60e51b81526004018080602001828103825260288152602001806131546028913960400191505060405180910390fd5b6009546129ac908263ffffffff612c6e16565b6009556115a4565b6008600d8054600160a81b900460ff16908111156129ce57fe5b1415612a4557600a546383215600906129ed908363ffffffff612c6e16565b1115612a2a5760405162461bcd60e51b81526004018080602001828103825260288152602001806130c76028913960400191505060405180910390fd5b600a54612a3d908263ffffffff612c6e16565b600a556115a4565b600a600d8054600160a81b900460ff1690811115612a5f57fe5b1415612ad657600b54637d2b750090612a7e908363ffffffff612c6e16565b1115612abb5760405162461bcd60e51b815260040180806020018281038252602a815260200180613074602a913960400191505060405180910390fd5b600b54612ace908263ffffffff612c6e16565b600b556115a4565b600c600d8054600160a81b900460ff1690811115612af057fe5b1415612b6757600c54639502f90090612b0f908363ffffffff612c6e16565b1115612b4c5760405162461bcd60e51b815260040180806020018281038252602981526020018061309e6029913960400191505060405180910390fd5b600c54612b5f908263ffffffff612c6e16565b600c556115a4565b6040805162461bcd60e51b815260206004820152600e60248201526d4e6f206163746976652053616c6560901b604482015290519081900360640190fd5b6003546040805163a9059cbb60e01b81526001600160a01b038581166004830152602482018590529151919092169163a9059cbb9160448083019260209291908290030181600087803b158015612bfb57600080fd5b505af1158015612c0f573d6000803e3d6000fd5b505050506040513d6020811015612c2557600080fd5b5051612c6a576040805162461bcd60e51b815260206004820152600f60248201526e151c985b9cd9995c8811985a5b1959608a1b604482015290519081900360640190fd5b5050565b6000828201838110156125a0576040805162461bcd60e51b815260206004820152601b60248201527f536166654d6174683a206164646974696f6e206f766572666c6f770000000000604482015290519081900360640190fd5b3390565b60006001600160a01b038216612d135760405162461bcd60e51b81526004018080602001828103825260228152602001806131bd6022913960400191505060405180910390fd5b506001600160a01b03166000908152602091909152604090205460ff1690565b612d4460008263ffffffff612f1116565b6040516001600160a01b038216907fcd265ebaf09df2871cc7bd4133404a235ba12eff2041bb89d9c714a2621c7c7e90600090a250565b612d8c60008263ffffffff612f7816565b6040516001600160a01b038216907f6719d08c1888103bea251a4ed56406bd0c3e69723c8a1686e017e7bbe159b6f890600090a250565b6001600160a01b038116612e085760405162461bcd60e51b815260040180806020018281038252602681526020018061302a6026913960400191505060405180910390fd5b6001546040516001600160a01b0380841692610100900416907f8be0079c531659141344cd1fd0a4f28419497f9722a3daafe3b4186f6b6457e090600090a3600180546001600160a01b0390921661010002610100600160a81b0319909216919091179055565b60008183612efb5760405162461bcd60e51b81526004018080602001828103825283818151815260200191508051906020019080838360005b83811015612ec0578181015183820152602001612ea8565b50505050905090810190601f168015612eed5780820380516001836020036101000a031916815260200191505b509250505060405180910390fd5b506000838581612f0757fe5b0495945050505050565b612f1b8282612ccc565b612f565760405162461bcd60e51b81526004018080602001828103825260218152602001806131336021913960400191505060405180910390fd5b6001600160a01b0316600090815260209190915260409020805460ff19169055565b612f828282612ccc565b15612fd4576040805162461bcd60e51b815260206004820152601f60248201527f526f6c65733a206163636f756e7420616c72656164792068617320726f6c6500604482015290519081900360640190fd5b6001600160a01b0316600090815260209190915260409020805460ff1916600117905556fe506175736572526f6c653a2063616c6c657220646f6573206e6f742068617665207468652050617573657220726f6c654f776e61626c653a206e6577206f776e657220697320746865207a65726f206164647265737343726f776453616c65526f756e645468726565204469646e27742073746172742079657443726f776453616c65526f756e645468726565537461727420636f6e646974696f6e73204661696c656443726f776453616c65526f756e64466f7572537461727420636f6e646974696f6e73204661696c656443726f776453616c65526f756e6454776f537461727420636f6e646974696f6e73204661696c65645072697661746553616c65537461727420636f6e646974696f6e73204661696c656443726f776453616c65526f756e6454776f204469646e277420737461727420796574526f6c65733a206163636f756e7420646f6573206e6f74206861766520726f6c6543726f776453616c65526f756e644f6e65537461727420636f6e646974696f6e73204661696c6564536166654d6174683a206d756c7469706c69636174696f6e206f766572666c6f774f776e61626c653a2063616c6c6572206973206e6f7420746865206f776e6572526f6c65733a206163636f756e7420697320746865207a65726f206164647265737343726f776453616c65526f756e64466f7572206469646e277420656e642079657443726f776453616c65526f756e645468726565204469646e277420656e642079657443726f776453616c65526f756e64466f7572204469646e27742073746172742079657443726f776453616c65526f756e644f6e65204469646e277420737461727420796574a265627a7a72315820be11725f07671031f47151a3bdcbbbcfa430b7627d73d0eecfb60d189262e9c064736f6c63430005100032526f6c65733a206163636f756e7420697320746865207a65726f2061646472657373",
  "source": "pragma solidity 0.5.16;\n\nimport \"@openzeppelin/contracts/ownership/Ownable.sol\";\nimport \"@openzeppelin/contracts/math/SafeMath.sol\";\nimport \"@openzeppelin/contracts/lifecycle/Pausable.sol\";\n\ninterface Swan {\n    function transfer(address, uint256) external returns (bool);\n\n    function balanceOf(address) external view returns (uint256);\n}\n\n\ncontract Crowdsale is Pausable,Ownable{\n    using SafeMath for uint256;\n    uint256 public ethPrice; // 1 Ether price in USD cents.\n\n    Swan public token;\n\n    uint256 public hardCap;\n    uint256 public constant softCap = 500000000; // in cents\n\n    //total tokens for sale\n    uint256 public totalWeiRaised;\n    uint256 public tokensForSale = 140000000000 ether;\n\n    // tokens sold in each round of sale\n    uint256 public privateSaletokenSold;\n    uint256 public preSaleTokensSold;\n    uint256 public crowdSaleRoundOne;\n    uint256 public crowdSaleRoundTwo;\n    uint256 public crowdSaleRoundThree;\n    uint256 public crowdSaleRoundFour;\n\n    // tokenSoldLimit in rounds\n    uint256 public constant privateSaletokenLimit = 2500000000;\n    uint256 public constant preSaleTokensLimit = 2400000000;\n    uint256 public constant crowdSaleRoundOneLimit = 2300000000;\n    uint256 public constant crowdSaleRoundTwoLimit = 2200000000;\n    uint256 public constant crowdSaleRoundThreeLimit = 2100000000;\n    uint256 public constant crowdSaleRoundFourLimit = 2500000000;\n\n    // Address where funds are collected\n    address payable public wallet;\n\n    uint256 public constant bonusPercentPrivateSale = 25;\n    uint256 public constant bonusPercentPreSale = 20;\n    uint256 public constant bonusPercentRoudOne = 15;\n    uint256 public constant bonusPercentRoudTwo = 10;\n    uint256 public constant bonusPercentRoudThree = 5;\n    uint256 public constant bonusPercentRoudFour = 0;\n\n    // user limit\n    uint256 public constant minimumInvestment = 50000;\n    uint256 public constant maximumInvestment = 20000000;\n    uint256 public constant tokensInOneDollar = 1000;\n\n    bool public crowdSaleStarted;\n\n    enum Stages {\n        CrowdSaleNotStarted,\n        Pause,\n        PrivateSaleStart,\n        PrivateSaleEnd,\n        PreSaleStart,\n        PreSaleEnd,\n        CrowdSaleRoundOneStart,\n        CrowdSaleRoundOneEnd,\n        CrowdSaleRoundTwoStart,\n        CrowdSaleRoundTwoEnd,\n        CrowdSaleRoundThreeStart,\n        CrowdSaleRoundThreeEnd,\n        CrowdSaleRoundFourStart,\n        CrowdSaleRoundFourEnd\n    }\n\n    Stages currentStage;\n    Stages previousStage;\n    bool public _Paused;\n\n    // adreess vs state mapping (1 for exists , zero default);\n    mapping(address => bool) public whitelistedContributors;\n\n    modifier CrowdsaleStarted() {\n        require(crowdSaleStarted, \"crowdSale Not started yet\");\n        _;\n    }\n\n    /**\n     * Event for token purchase logging\n     * @param purchaser who paid for the tokens\n     * @param beneficiary who got the tokens\n     * @param value weis paid for purchase\n     * @param amount amount of tokens purchased\n     */\n    event TokenPurchase(\n        address indexed purchaser,\n        address indexed beneficiary,\n        uint256 value,\n        uint256 amount\n    );\n\n    /**\n     *@dev initializes the crowdsale contract\n     * @param _wallet Address where collected funds will be forwarded to\n     * @param _token Address of the token being sold\n     *  @param _ethPriceInCents ether price in cents\n     */\n    constructor(\n        address payable _wallet,\n        Swan _token,\n        uint256 _ethPriceInCents\n    ) public Ownable() {\n        wallet = _wallet;\n        token = _token;\n        ethPrice = _ethPriceInCents; //ethPrice in cents\n        currentStage = Stages.CrowdSaleNotStarted;\n    }\n    /**\n     * @dev fallback function ***DO NOT OVERRIDE***\n     */\n    function() external payable {\n        require(msg.sender != owner(), \"Caller is Owner itself\");\n        buyTokens(msg.sender);\n    }\n\n    //@notice returns the total Swan Tokens balance of Crowdsale Contract\n    function getSwanTokenBalance() public view returns (uint256) {\n        return Swan(token).balanceOf(address(this));\n    }\n\n    //@notice returns the total Wei Amount raised till date\n    function getTotalWeiRaised() external view returns (uint256) {\n        return totalWeiRaised;\n    }\n\n    /**\n     * @dev whitelist addresses of investors.\n     * @param addrs ,array of addresses of investors to be whitelisted\n     * Note:= Array length must be less than 200.\n     */\n    function authorizeKyc(address[] calldata addrs)\n        external\n        onlyOwner\n        returns (bool success)\n    {\n        uint256 arrayLength = addrs.length;\n        for (uint256 x = 0; x < arrayLength; x++) {\n            whitelistedContributors[addrs[x]] = true;\n        }\n        return true;\n    }\n\n    /**\n     * @dev calling this function will pause the sale\n     */\n\n    function _pause() external onlyOwner {\n        require(!_Paused, \"contract is already Paused\");\n        require(crowdSaleStarted, \"Crowdsale did not start yet\");\n        previousStage = currentStage;\n        currentStage = Stages.Pause;\n        _Paused = true;\n    }\n\n    function restartSale() external onlyOwner {\n        require(currentStage == Stages.Pause, \"currentStage is not PAUSE\");\n        currentStage = previousStage;\n        _Paused = false;\n    }\n\n    function startPrivateSale() external onlyOwner {\n        require(!crowdSaleStarted, \"Crowdsale Already Started\");\n        crowdSaleStarted = true;\n        currentStage = Stages.PrivateSaleStart;\n    }\n\n    function endPrivateSale() external onlyOwner {\n        require(\n            currentStage == Stages.PrivateSaleStart,\n            \"Crowdsale didn't Start yet\"\n        );\n        currentStage = Stages.PrivateSaleEnd;\n    }\n\n    function startPreSale() external onlyOwner {\n        require(\n            currentStage == Stages.PrivateSaleEnd,\n            \"Private Sale Didn't end yet\"\n        );\n        currentStage = Stages.PreSaleStart;\n    }\n\n    function endPreSale() external onlyOwner {\n        require(\n            currentStage == Stages.PreSaleStart,\n            \"Pre Sale didn't Start yet\"\n        );\n        currentStage = Stages.PreSaleEnd;\n    }\n\n    function startCrowdSaleRoundOne() external onlyOwner {\n        require(currentStage == Stages.PreSaleEnd, \"Pre Sale Didn't end yet\");\n        currentStage = Stages.CrowdSaleRoundOneStart;\n    }\n\n    function endCrowdSaleRoundOne() external onlyOwner {\n        require(\n            currentStage == Stages.CrowdSaleRoundOneStart,\n            \"CrowdSaleRoundOne Didn't start yet\"\n        );\n        currentStage = Stages.CrowdSaleRoundOneEnd;\n    }\n\n    function startCrowdSaleRoundTwo() external onlyOwner {\n        require(\n            currentStage == Stages.CrowdSaleRoundOneEnd,\n            \"CrowdSaleRoundOne Didn't end yet\"\n        );\n        currentStage = Stages.CrowdSaleRoundTwoStart;\n    }\n\n    function endCrowdSaleRoundTwo() external onlyOwner {\n        require(\n            currentStage == Stages.CrowdSaleRoundTwoStart,\n            \"CrowdSaleRoundTwo Didn't start yet\"\n        );\n        currentStage = Stages.CrowdSaleRoundTwoEnd;\n    }\n\n    function startCrowdSaleRoundThree() external onlyOwner {\n        require(\n            currentStage == Stages.CrowdSaleRoundTwoEnd,\n            \"CrowdSaleRoundTwo Didn't end yet\"\n        );\n        currentStage = Stages.CrowdSaleRoundThreeStart;\n    }\n\n    function endCrowdSaleRoundThree() external onlyOwner {\n        require(\n            currentStage == Stages.CrowdSaleRoundThreeStart,\n            \"CrowdSaleRoundThree Didn't start yet\"\n        );\n        currentStage = Stages.CrowdSaleRoundThreeEnd;\n    }\n\n    function startCrowdSaleRoundFour() external onlyOwner {\n        require(\n            currentStage == Stages.CrowdSaleRoundThreeEnd,\n            \"CrowdSaleRoundThree Didn't end yet\"\n        );\n        currentStage = Stages.CrowdSaleRoundFourStart;\n    }\n\n    function endCrowdSaleRoundFour() external onlyOwner {\n        require(\n            currentStage == Stages.CrowdSaleRoundFourStart,\n            \"CrowdSaleRoundFour Didn't start yet\"\n        );\n        currentStage = Stages.CrowdSaleRoundFourEnd;\n    }\n\n    function getStage() external view returns (string memory) {\n        if (currentStage == Stages.PrivateSaleStart)\n            return \"Private Sale Start\";\n        else if (currentStage == Stages.PrivateSaleEnd)\n            return \"Private Sale End\";\n        else if (currentStage == Stages.PreSaleStart) return \"Presale Started\";\n        else if (currentStage == Stages.PreSaleEnd) return \"Presale Ended\";\n        else if (currentStage == Stages.CrowdSaleRoundOneStart)\n            return \"CrowdSale Round One Started\";\n        else if (currentStage == Stages.CrowdSaleRoundOneEnd)\n            return \"CrowdSale Round One End\";\n        else if (currentStage == Stages.CrowdSaleRoundTwoStart)\n            return \"CrowdSale Round Two Started\";\n        else if (currentStage == Stages.CrowdSaleRoundTwoEnd)\n            return \"CrowdSale Round Two End\";\n        else if (currentStage == Stages.CrowdSaleRoundThreeStart)\n            return \"CrowdSale Round Three Started\";\n        else if (currentStage == Stages.CrowdSaleRoundThreeEnd)\n            return \"CrowdSale Round Three End\";\n        else if (currentStage == Stages.CrowdSaleRoundFourStart)\n            return \"CrowdSale Round Four Started\";\n        else if (currentStage == Stages.CrowdSaleRoundFourEnd)\n            return \"CrowdSale Round Four End\";\n        else if (currentStage == Stages.Pause) return \"paused\";\n        else if (currentStage == Stages.CrowdSaleNotStarted)\n            return \"CrowdSale Not Started\";\n    }\n\n    /**\n     * @dev sets the value of ether price in cents.Can be called only by the owner account.\n     * @param _ethPriceInCents price in cents .\n     */\n    function setEthPriceInCents(uint256 _ethPriceInCents)\n        external\n        onlyOwner\n        returns (bool)\n    {\n        ethPrice = _ethPriceInCents;\n        return true;\n    }\n\n    /**\n     * @param _beneficiary Address performing the token purchase\n     */\n    function buyTokens(address _beneficiary)\n        public\n        payable\n        CrowdsaleStarted\n        whenNotPaused\n    {\n        require(\n            whitelistedContributors[_beneficiary],\n            \"Not a whitelistedInvestor\"\n        );\n        require(!_Paused, \"Contract is Paused\");\n        uint256 weiAmount = msg.value;\n        uint256 usdCents = weiAmount.mul(ethPrice).div(1 ether);\n        require(\n            usdCents >= minimumInvestment && usdCents <= maximumInvestment,\n            \"_preValidatePurchase failed\"\n        );\n        uint256 tokens = _getTokenAmount(usdCents);\n\n        _validateTokenCapLimits(usdCents);\n\n        _processPurchase(_beneficiary, tokens);\n        totalWeiRaised = totalWeiRaised.add(msg.value);\n        wallet.transfer(msg.value);\n\n        emit TokenPurchase(msg.sender, _beneficiary, weiAmount, tokens);\n    }\n\n    /**\n     * @dev Validation of the capped restrictions.\n     * @param _tokenValue amount\n     */\n    function _validateTokenCapLimits(uint256 _tokenValue) internal {\n        if (currentStage == Stages.PrivateSaleStart) {\n            require(\n                privateSaletokenSold.add(_tokenValue) <= privateSaletokenLimit,\n                \"PrivateSaleStart conditions Failed\"\n            );\n            privateSaletokenSold = privateSaletokenSold.add(_tokenValue);\n        } else if (currentStage == Stages.PreSaleStart) {\n            require(\n                preSaleTokensSold.add(_tokenValue) <= preSaleTokensLimit,\n                \"PreSaleStart conditions Failed\"\n            );\n            preSaleTokensSold = preSaleTokensSold.add(_tokenValue);\n        } else if (currentStage == Stages.CrowdSaleRoundOneStart) {\n            require(\n                crowdSaleRoundOne.add(_tokenValue) <= crowdSaleRoundOneLimit,\n                \"CrowdSaleRoundOneStart conditions Failed\"\n            );\n            crowdSaleRoundOne = crowdSaleRoundOne.add(_tokenValue);\n        } else if (currentStage == Stages.CrowdSaleRoundTwoStart) {\n            require(\n                crowdSaleRoundTwo.add(_tokenValue) <= crowdSaleRoundTwoLimit,\n                \"CrowdSaleRoundTwoStart conditions Failed\"\n            );\n            crowdSaleRoundTwo = crowdSaleRoundTwo.add(_tokenValue);\n        } else if (currentStage == Stages.CrowdSaleRoundThreeStart) {\n            require(\n                crowdSaleRoundThree.add(_tokenValue) <=\n                    crowdSaleRoundThreeLimit,\n                \"CrowdSaleRoundThreeStart conditions Failed\"\n            );\n            crowdSaleRoundThree = crowdSaleRoundThree.add(_tokenValue);\n        } else if (currentStage == Stages.CrowdSaleRoundFourStart) {\n            require(\n                crowdSaleRoundFour.add(_tokenValue) <= crowdSaleRoundFourLimit,\n                \"CrowdSaleRoundFourStart conditions Failed\"\n            );\n            crowdSaleRoundFour = crowdSaleRoundFour.add(_tokenValue);\n        } else {\n            revert(\"No active Sale\");\n        }\n    }\n\n    /**\n     * @dev Executed when a purchase has been validated and is ready to be executed.\n     * @param _beneficiary Address receiving the tokens\n     * @param _tokenAmount Number of tokens to be purchased\n     */\n    function _processPurchase(address _beneficiary, uint256 _tokenAmount)\n        internal\n    {\n        require(token.transfer(_beneficiary, _tokenAmount), \"Transfer Failed\");\n    }\n\n    /**\n     * @param _usdCents Value in usd cents to be converted into tokens\n     * @return Number of tokens that can be purchased with the specified _usdCents\n     */\n    function _getTokenAmount(uint256 _usdCents)\n        internal\n        view\n        CrowdsaleStarted\n        returns (uint256)\n    {\n        uint256 bonusUSD;\n        uint256 bonusTokens;\n        uint256 actualTokens;\n        uint256 totalTokens;\n\n        if (currentStage == Stages.PrivateSaleStart) {\n            bonusUSD = (_usdCents.div(100)).mul(25).div(100);\n            bonusTokens = bonusUSD.mul(tokensInOneDollar);\n            actualTokens = _usdCents.div(100).mul(tokensInOneDollar);\n            totalTokens = bonusTokens.add(actualTokens);\n        } else if (currentStage == Stages.PreSaleStart) {\n            bonusUSD = (_usdCents.div(100)).mul(20).div(100);\n            bonusTokens = bonusUSD.mul(tokensInOneDollar);\n            actualTokens = _usdCents.div(100).mul(tokensInOneDollar);\n            totalTokens = bonusTokens.add(actualTokens);\n        } else if (currentStage == Stages.CrowdSaleRoundOneStart) {\n            bonusUSD = (_usdCents.div(100)).mul(15).div(100);\n            bonusTokens = bonusUSD.mul(tokensInOneDollar);\n            actualTokens = _usdCents.div(100).mul(tokensInOneDollar);\n            totalTokens = bonusTokens.add(actualTokens);\n        } else if (currentStage == Stages.CrowdSaleRoundTwoStart) {\n            bonusUSD = (_usdCents.div(100)).mul(10).div(100);\n            bonusTokens = bonusUSD.mul(tokensInOneDollar);\n            actualTokens = _usdCents.div(100).mul(tokensInOneDollar);\n            totalTokens = bonusTokens.add(actualTokens);\n        } else if (currentStage == Stages.CrowdSaleRoundThreeStart) {\n            bonusUSD = (_usdCents.div(100)).mul(5).div(100);\n            bonusTokens = bonusUSD.mul(tokensInOneDollar);\n            actualTokens = _usdCents.div(100).mul(tokensInOneDollar);\n            totalTokens = bonusTokens.add(actualTokens);\n        } else if (currentStage == Stages.CrowdSaleRoundFourStart) {\n            totalTokens = _usdCents;\n        }\n        return totalTokens;\n    }\n\n    /**\n     * @dev finalize the crowdsale.After finalizing ,tokens transfer can be done.\n     */\n    function finalizeSale() external onlyOwner {\n        require(\n            currentStage == Stages.CrowdSaleRoundFourEnd,\n            \"CrowdSaleRoundFour didn't end yet\"\n        );\n        uint256 availableTokens = getSwanTokenBalance();\n        require(availableTokens > 0, \"No Tokens Left in Contract\");\n        require(token.transfer(owner(), availableTokens), \"Transfer Failed\");\n    }\n}\n",
  "sourcePath": "/home/zaryab/blockchain_begins/all_about_ethereum/quillHash_CODES/NewSwan/swan_smart_contracts/contracts/Crowdsale.sol",
  "compiler": {
    "name": "solc",
    "version": "0.5.16+commit.9c3226ce.Emscripten.clang"
  },
  "schemaVersion": "3.2.2",
  "updatedAt": "2020-12-17T10:30:01.082Z",
  "networkType": "ethereum",
  "devdoc": {
    "methods": {
      "_pause()": {
        "details": "calling this function will pause the sale"
      },
      "authorizeKyc(address[])": {
        "details": "whitelist addresses of investors.",
        "params": {
          "addrs": ",array of addresses of investors to be whitelisted Note:= Array length must be less than 200."
        }
      },
      "buyTokens(address)": {
        "params": {
          "_beneficiary": "Address performing the token purchase"
        }
      },
      "constructor": {
        "params": {
          "_ethPriceInCents": "ether price in cents",
          "_token": "Address of the token being sold",
          "_wallet": "Address where collected funds will be forwarded to"
        }
      },
      "finalizeSale()": {
        "details": "finalize the crowdsale.After finalizing ,tokens transfer can be done."
      },
      "isOwner()": {
        "details": "Returns true if the caller is the current owner."
      },
      "owner()": {
        "details": "Returns the address of the current owner."
      },
      "pause()": {
        "details": "Called by a pauser to pause, triggers stopped state."
      },
      "paused()": {
        "details": "Returns true if the contract is paused, and false otherwise."
      },
      "renounceOwnership()": {
        "details": "Leaves the contract without owner. It will not be possible to call `onlyOwner` functions anymore. Can only be called by the current owner.     * NOTE: Renouncing ownership will leave the contract without an owner, thereby removing any functionality that is only available to the owner."
      },
      "setEthPriceInCents(uint256)": {
        "details": "sets the value of ether price in cents.Can be called only by the owner account.",
        "params": {
          "_ethPriceInCents": "price in cents ."
        }
      },
      "transferOwnership(address)": {
        "details": "Transfers ownership of the contract to a new account (`newOwner`). Can only be called by the current owner."
      },
      "unpause()": {
        "details": "Called by a pauser to unpause, returns to normal state."
      }
    }
  },
  "userdoc": {
    "methods": {
      "constructor": "dev initializes the crowdsale contract"
    }
  }
}