{
  "contractName": "Crowdsale",
  "abi": [
    {
      "inputs": [
        {
          "internalType": "address",
          "name": "_newOwner",
          "type": "address"
        },
        {
          "internalType": "address payable",
          "name": "_wallet",
          "type": "address"
        },
        {
          "internalType": "contract Swan",
          "name": "_token",
          "type": "address"
        },
        {
          "internalType": "uint256",
          "name": "_ethPriceInCents",
          "type": "uint256"
        }
      ],
      "payable": false,
      "stateMutability": "nonpayable",
      "type": "constructor"
    },
    {
      "anonymous": false,
      "inputs": [
        {
          "indexed": true,
          "internalType": "address",
          "name": "from",
          "type": "address"
        },
        {
          "indexed": true,
          "internalType": "address",
          "name": "_to",
          "type": "address"
        }
      ],
      "name": "OwnershipTransferred",
      "type": "event"
    },
    {
      "anonymous": false,
      "inputs": [],
      "name": "Pause",
      "type": "event"
    },
    {
      "anonymous": false,
      "inputs": [
        {
          "indexed": true,
          "internalType": "address",
          "name": "purchaser",
          "type": "address"
        },
        {
          "indexed": true,
          "internalType": "address",
          "name": "beneficiary",
          "type": "address"
        },
        {
          "indexed": false,
          "internalType": "uint256",
          "name": "value",
          "type": "uint256"
        },
        {
          "indexed": false,
          "internalType": "uint256",
          "name": "amount",
          "type": "uint256"
        }
      ],
      "name": "TokenPurchase",
      "type": "event"
    },
    {
      "anonymous": false,
      "inputs": [],
      "name": "Unpause",
      "type": "event"
    },
    {
      "payable": true,
      "stateMutability": "payable",
      "type": "fallback"
    },
    {
      "constant": true,
      "inputs": [],
      "name": "Paused",
      "outputs": [
        {
          "internalType": "bool",
          "name": "",
          "type": "bool"
        }
      ],
      "payable": false,
      "stateMutability": "view",
      "type": "function"
    },
    {
      "constant": false,
      "inputs": [],
      "name": "acceptOwnership",
      "outputs": [],
      "payable": false,
      "stateMutability": "nonpayable",
      "type": "function"
    },
    {
      "constant": true,
      "inputs": [],
      "name": "bonusPercentPreSale",
      "outputs": [
        {
          "internalType": "uint256",
          "name": "",
          "type": "uint256"
        }
      ],
      "payable": false,
      "stateMutability": "view",
      "type": "function"
    },
    {
      "constant": true,
      "inputs": [],
      "name": "bonusPercentPrivateSale",
      "outputs": [
        {
          "internalType": "uint256",
          "name": "",
          "type": "uint256"
        }
      ],
      "payable": false,
      "stateMutability": "view",
      "type": "function"
    },
    {
      "constant": true,
      "inputs": [],
      "name": "bonusPercentRoudFour",
      "outputs": [
        {
          "internalType": "uint256",
          "name": "",
          "type": "uint256"
        }
      ],
      "payable": false,
      "stateMutability": "view",
      "type": "function"
    },
    {
      "constant": true,
      "inputs": [],
      "name": "bonusPercentRoudOne",
      "outputs": [
        {
          "internalType": "uint256",
          "name": "",
          "type": "uint256"
        }
      ],
      "payable": false,
      "stateMutability": "view",
      "type": "function"
    },
    {
      "constant": true,
      "inputs": [],
      "name": "bonusPercentRoudThree",
      "outputs": [
        {
          "internalType": "uint256",
          "name": "",
          "type": "uint256"
        }
      ],
      "payable": false,
      "stateMutability": "view",
      "type": "function"
    },
    {
      "constant": true,
      "inputs": [],
      "name": "bonusPercentRoudTwo",
      "outputs": [
        {
          "internalType": "uint256",
          "name": "",
          "type": "uint256"
        }
      ],
      "payable": false,
      "stateMutability": "view",
      "type": "function"
    },
    {
      "constant": true,
      "inputs": [],
      "name": "crowdSaleRoundFour",
      "outputs": [
        {
          "internalType": "uint256",
          "name": "",
          "type": "uint256"
        }
      ],
      "payable": false,
      "stateMutability": "view",
      "type": "function"
    },
    {
      "constant": true,
      "inputs": [],
      "name": "crowdSaleRoundFourLimit",
      "outputs": [
        {
          "internalType": "uint256",
          "name": "",
          "type": "uint256"
        }
      ],
      "payable": false,
      "stateMutability": "view",
      "type": "function"
    },
    {
      "constant": true,
      "inputs": [],
      "name": "crowdSaleRoundOne",
      "outputs": [
        {
          "internalType": "uint256",
          "name": "",
          "type": "uint256"
        }
      ],
      "payable": false,
      "stateMutability": "view",
      "type": "function"
    },
    {
      "constant": true,
      "inputs": [],
      "name": "crowdSaleRoundOneLimit",
      "outputs": [
        {
          "internalType": "uint256",
          "name": "",
          "type": "uint256"
        }
      ],
      "payable": false,
      "stateMutability": "view",
      "type": "function"
    },
    {
      "constant": true,
      "inputs": [],
      "name": "crowdSaleRoundThree",
      "outputs": [
        {
          "internalType": "uint256",
          "name": "",
          "type": "uint256"
        }
      ],
      "payable": false,
      "stateMutability": "view",
      "type": "function"
    },
    {
      "constant": true,
      "inputs": [],
      "name": "crowdSaleRoundThreeLimit",
      "outputs": [
        {
          "internalType": "uint256",
          "name": "",
          "type": "uint256"
        }
      ],
      "payable": false,
      "stateMutability": "view",
      "type": "function"
    },
    {
      "constant": true,
      "inputs": [],
      "name": "crowdSaleRoundTwo",
      "outputs": [
        {
          "internalType": "uint256",
          "name": "",
          "type": "uint256"
        }
      ],
      "payable": false,
      "stateMutability": "view",
      "type": "function"
    },
    {
      "constant": true,
      "inputs": [],
      "name": "crowdSaleRoundTwoLimit",
      "outputs": [
        {
          "internalType": "uint256",
          "name": "",
          "type": "uint256"
        }
      ],
      "payable": false,
      "stateMutability": "view",
      "type": "function"
    },
    {
      "constant": true,
      "inputs": [],
      "name": "crowdSaleStarted",
      "outputs": [
        {
          "internalType": "bool",
          "name": "",
          "type": "bool"
        }
      ],
      "payable": false,
      "stateMutability": "view",
      "type": "function"
    },
    {
      "constant": true,
      "inputs": [],
      "name": "ethPrice",
      "outputs": [
        {
          "internalType": "uint256",
          "name": "",
          "type": "uint256"
        }
      ],
      "payable": false,
      "stateMutability": "view",
      "type": "function"
    },
    {
      "constant": true,
      "inputs": [],
      "name": "hardCap",
      "outputs": [
        {
          "internalType": "uint256",
          "name": "",
          "type": "uint256"
        }
      ],
      "payable": false,
      "stateMutability": "view",
      "type": "function"
    },
    {
      "constant": true,
      "inputs": [],
      "name": "maximumInvestment",
      "outputs": [
        {
          "internalType": "uint256",
          "name": "",
          "type": "uint256"
        }
      ],
      "payable": false,
      "stateMutability": "view",
      "type": "function"
    },
    {
      "constant": true,
      "inputs": [],
      "name": "minimumInvestment",
      "outputs": [
        {
          "internalType": "uint256",
          "name": "",
          "type": "uint256"
        }
      ],
      "payable": false,
      "stateMutability": "view",
      "type": "function"
    },
    {
      "constant": true,
      "inputs": [],
      "name": "newOwner",
      "outputs": [
        {
          "internalType": "address",
          "name": "",
          "type": "address"
        }
      ],
      "payable": false,
      "stateMutability": "view",
      "type": "function"
    },
    {
      "constant": true,
      "inputs": [],
      "name": "owner",
      "outputs": [
        {
          "internalType": "address",
          "name": "",
          "type": "address"
        }
      ],
      "payable": false,
      "stateMutability": "view",
      "type": "function"
    },
    {
      "constant": true,
      "inputs": [],
      "name": "paused",
      "outputs": [
        {
          "internalType": "bool",
          "name": "",
          "type": "bool"
        }
      ],
      "payable": false,
      "stateMutability": "view",
      "type": "function"
    },
    {
      "constant": true,
      "inputs": [],
      "name": "preSaleTokensLimit",
      "outputs": [
        {
          "internalType": "uint256",
          "name": "",
          "type": "uint256"
        }
      ],
      "payable": false,
      "stateMutability": "view",
      "type": "function"
    },
    {
      "constant": true,
      "inputs": [],
      "name": "preSaleTokensSold",
      "outputs": [
        {
          "internalType": "uint256",
          "name": "",
          "type": "uint256"
        }
      ],
      "payable": false,
      "stateMutability": "view",
      "type": "function"
    },
    {
      "constant": true,
      "inputs": [],
      "name": "privateSaletokenLimit",
      "outputs": [
        {
          "internalType": "uint256",
          "name": "",
          "type": "uint256"
        }
      ],
      "payable": false,
      "stateMutability": "view",
      "type": "function"
    },
    {
      "constant": true,
      "inputs": [],
      "name": "privateSaletokenSold",
      "outputs": [
        {
          "internalType": "uint256",
          "name": "",
          "type": "uint256"
        }
      ],
      "payable": false,
      "stateMutability": "view",
      "type": "function"
    },
    {
      "constant": true,
      "inputs": [],
      "name": "softCap",
      "outputs": [
        {
          "internalType": "uint256",
          "name": "",
          "type": "uint256"
        }
      ],
      "payable": false,
      "stateMutability": "view",
      "type": "function"
    },
    {
      "constant": true,
      "inputs": [],
      "name": "token",
      "outputs": [
        {
          "internalType": "contract Swan",
          "name": "",
          "type": "address"
        }
      ],
      "payable": false,
      "stateMutability": "view",
      "type": "function"
    },
    {
      "constant": true,
      "inputs": [],
      "name": "tokensForSale",
      "outputs": [
        {
          "internalType": "uint256",
          "name": "",
          "type": "uint256"
        }
      ],
      "payable": false,
      "stateMutability": "view",
      "type": "function"
    },
    {
      "constant": true,
      "inputs": [],
      "name": "tokensInOneDollar",
      "outputs": [
        {
          "internalType": "uint256",
          "name": "",
          "type": "uint256"
        }
      ],
      "payable": false,
      "stateMutability": "view",
      "type": "function"
    },
    {
      "constant": true,
      "inputs": [],
      "name": "totalWeiRaised",
      "outputs": [
        {
          "internalType": "uint256",
          "name": "",
          "type": "uint256"
        }
      ],
      "payable": false,
      "stateMutability": "view",
      "type": "function"
    },
    {
      "constant": false,
      "inputs": [
        {
          "internalType": "address",
          "name": "newOwnerAddress",
          "type": "address"
        }
      ],
      "name": "transferOwnership",
      "outputs": [],
      "payable": false,
      "stateMutability": "nonpayable",
      "type": "function"
    },
    {
      "constant": false,
      "inputs": [],
      "name": "unpause",
      "outputs": [],
      "payable": false,
      "stateMutability": "nonpayable",
      "type": "function"
    },
    {
      "constant": true,
      "inputs": [],
      "name": "wallet",
      "outputs": [
        {
          "internalType": "address payable",
          "name": "",
          "type": "address"
        }
      ],
      "payable": false,
      "stateMutability": "view",
      "type": "function"
    },
    {
      "constant": true,
      "inputs": [
        {
          "internalType": "address",
          "name": "",
          "type": "address"
        }
      ],
      "name": "whitelistedContributors",
      "outputs": [
        {
          "internalType": "bool",
          "name": "",
          "type": "bool"
        }
      ],
      "payable": false,
      "stateMutability": "view",
      "type": "function"
    },
    {
      "constant": true,
      "inputs": [],
      "name": "getSwanTokenBalance",
      "outputs": [
        {
          "internalType": "uint256",
          "name": "",
          "type": "uint256"
        }
      ],
      "payable": false,
      "stateMutability": "view",
      "type": "function"
    },
    {
      "constant": true,
      "inputs": [],
      "name": "getTotalWeiRaised",
      "outputs": [
        {
          "internalType": "uint256",
          "name": "",
          "type": "uint256"
        }
      ],
      "payable": false,
      "stateMutability": "view",
      "type": "function"
    },
    {
      "constant": false,
      "inputs": [
        {
          "internalType": "address[]",
          "name": "addrs",
          "type": "address[]"
        }
      ],
      "name": "authorizeKyc",
      "outputs": [
        {
          "internalType": "bool",
          "name": "success",
          "type": "bool"
        }
      ],
      "payable": false,
      "stateMutability": "nonpayable",
      "type": "function"
    },
    {
      "constant": false,
      "inputs": [],
      "name": "pause",
      "outputs": [],
      "payable": false,
      "stateMutability": "nonpayable",
      "type": "function"
    },
    {
      "constant": false,
      "inputs": [],
      "name": "restartSale",
      "outputs": [],
      "payable": false,
      "stateMutability": "nonpayable",
      "type": "function"
    },
    {
      "constant": false,
      "inputs": [],
      "name": "startPrivateSale",
      "outputs": [],
      "payable": false,
      "stateMutability": "nonpayable",
      "type": "function"
    },
    {
      "constant": false,
      "inputs": [],
      "name": "endPrivateSale",
      "outputs": [],
      "payable": false,
      "stateMutability": "nonpayable",
      "type": "function"
    },
    {
      "constant": false,
      "inputs": [],
      "name": "startPreSale",
      "outputs": [],
      "payable": false,
      "stateMutability": "nonpayable",
      "type": "function"
    },
    {
      "constant": false,
      "inputs": [],
      "name": "endPreSale",
      "outputs": [],
      "payable": false,
      "stateMutability": "nonpayable",
      "type": "function"
    },
    {
      "constant": false,
      "inputs": [],
      "name": "startCrowdSaleRoundOne",
      "outputs": [],
      "payable": false,
      "stateMutability": "nonpayable",
      "type": "function"
    },
    {
      "constant": false,
      "inputs": [],
      "name": "endCrowdSaleRoundOne",
      "outputs": [],
      "payable": false,
      "stateMutability": "nonpayable",
      "type": "function"
    },
    {
      "constant": false,
      "inputs": [],
      "name": "startCrowdSaleRoundTwo",
      "outputs": [],
      "payable": false,
      "stateMutability": "nonpayable",
      "type": "function"
    },
    {
      "constant": false,
      "inputs": [],
      "name": "endCrowdSaleRoundTwo",
      "outputs": [],
      "payable": false,
      "stateMutability": "nonpayable",
      "type": "function"
    },
    {
      "constant": false,
      "inputs": [],
      "name": "startCrowdSaleRoundThree",
      "outputs": [],
      "payable": false,
      "stateMutability": "nonpayable",
      "type": "function"
    },
    {
      "constant": false,
      "inputs": [],
      "name": "endCrowdSaleRoundThree",
      "outputs": [],
      "payable": false,
      "stateMutability": "nonpayable",
      "type": "function"
    },
    {
      "constant": false,
      "inputs": [],
      "name": "startCrowdSaleRoundFour",
      "outputs": [],
      "payable": false,
      "stateMutability": "nonpayable",
      "type": "function"
    },
    {
      "constant": false,
      "inputs": [],
      "name": "endCrowdSaleRoundFour",
      "outputs": [],
      "payable": false,
      "stateMutability": "nonpayable",
      "type": "function"
    },
    {
      "constant": true,
      "inputs": [],
      "name": "getStage",
      "outputs": [
        {
          "internalType": "string",
          "name": "",
          "type": "string"
        }
      ],
      "payable": false,
      "stateMutability": "view",
      "type": "function"
    },
    {
      "constant": false,
      "inputs": [
        {
          "internalType": "uint256",
          "name": "_ethPriceInCents",
          "type": "uint256"
        }
      ],
      "name": "setEthPriceInCents",
      "outputs": [
        {
          "internalType": "bool",
          "name": "",
          "type": "bool"
        }
      ],
      "payable": false,
      "stateMutability": "nonpayable",
      "type": "function"
    },
    {
      "constant": false,
      "inputs": [
        {
          "internalType": "address",
          "name": "_beneficiary",
          "type": "address"
        }
      ],
      "name": "buyTokens",
      "outputs": [],
      "payable": true,
      "stateMutability": "payable",
      "type": "function"
    },
    {
      "constant": false,
      "inputs": [],
      "name": "finalizeSale",
      "outputs": [],
      "payable": false,
      "stateMutability": "nonpayable",
      "type": "function"
    }
  ],
  "bytecode": "0x60806040526001805460ff60a01b19908116909155600060048190556c01c45d49276606214ee0000000600655600781905560088190556009819055600a819055600b819055600c55600d8054909116905534801561005d57600080fd5b50604051612f49380380612f498339818101604052608081101561008057600080fd5b5080516020820151604083015160609093015160008054600d80546001600160a01b03199283166001600160a01b0397881690811784161784556003805484169888169890981790975560029390935560ff60a81b1995169390921692909217929092169055612e539081906100f690396000f3fe6080604052600436106103805760003560e01c806379ba5097116101d1578063c806dcc611610102578063ec8ac4d8116100a0578063fb86a4041161006f578063fb86a40414610948578063fc0c546a1461095d578063fcaa766414610972578063ff186b2e146109fc57610380565b8063ec8ac4d8146108c5578063edfc8257146108eb578063ee889ed014610900578063f2fde38b1461091557610380565b8063d80f6d3d116100dc578063d80f6d3d14610871578063dc8371d614610886578063e2acae2a1461089b578063e6a23c3d146108b057610380565b8063c806dcc614610847578063d4470aa0146104f0578063d4ee1d901461085c57610380565b80639f0c83f91161016f578063b904088e11610149578063b904088e146107d5578063ba6169fe146107ea578063c0314701146107ff578063c7b850dd1461081457610380565b80639f0c83f914610796578063a7a85114146107ab578063b121acf0146107c057610380565b80638da5cb5b116101ab5780638da5cb5b14610742578063906a26e01461075757806392094ef41461076c5780639e87fac81461078157610380565b806379ba5097146107035780638456cb59146107185780638635cfd11461072d57610380565b80633f4ba83a116102b657806363d6ac1f116102545780636cea50a1116102235780636cea50a11461064757806370d7a0e71461065c57806374711285146106d957806376be6b2b146106ee57610380565b806363d6ac1f146105f357806365fbf8a014610608578063691901e01461061d5780636adf0c271461063257610380565b806353f4db011161029057806353f4db011461059f57806355dd574c146105b457806358a687ec146105c95780635c975abb146105de57610380565b80633f4ba83a14610544578063521eb2731461055957806353bf5af41461058a57610380565b806316b42ec211610323578063238b6d40116102fd578063238b6d40146104f0578063297aeb83146105055780632b925b251461051a578063338dbf591461052f57610380565b806316b42ec2146104b15780631b56ea7e146104c657806322c5d0b2146104db57610380565b80630dfd0e731161035f5780630dfd0e731461045d5780630ee13ced1461047257806310ea759f1461048757806312aef8c31461049c57610380565b806241edee146103e3578063044f9afe1461040a5780630c1d7cb614610448575b6000546001600160a01b031633146103a05761039b33610a11565b6103e1565b6040805162461bcd60e51b81526020600482015260116024820152702a3434b99034b9903a34329032b93937b960791b604482015290519081900360640190fd5b005b3480156103ef57600080fd5b506103f8610c82565b60408051918252519081900360200190f35b34801561041657600080fd5b506104346004803603602081101561042d57600080fd5b5035610c8a565b604080519115158252519081900360200190f35b34801561045457600080fd5b506103f8610ce1565b34801561046957600080fd5b506103f8610ce9565b34801561047e57600080fd5b506103e1610cef565b34801561049357600080fd5b506103f8610daf565b3480156104a857600080fd5b506103f8610db4565b3480156104bd57600080fd5b506103f8610dba565b3480156104d257600080fd5b506103f8610dc0565b3480156104e757600080fd5b506103f8610dc5565b3480156104fc57600080fd5b506103f8610dcb565b34801561051157600080fd5b506103f8610dd3565b34801561052657600080fd5b506103f8610dd8565b34801561053b57600080fd5b506103e1610dde565b34801561055057600080fd5b506103e1610eb4565b34801561056557600080fd5b5061056e610f90565b604080516001600160a01b039092168252519081900360200190f35b34801561059657600080fd5b506103e1610f9f565b3480156105ab57600080fd5b506103f861105c565b3480156105c057600080fd5b506103e1611062565b3480156105d557600080fd5b506103e1611135565b3480156105ea57600080fd5b5061043461130a565b3480156105ff57600080fd5b506103e161131a565b34801561061457600080fd5b506103f86113ed565b34801561062957600080fd5b506103f86113f5565b34801561063e57600080fd5b506103f86113fb565b34801561065357600080fd5b50610434611403565b34801561066857600080fd5b506104346004803603602081101561067f57600080fd5b81019060208101813564010000000081111561069a57600080fd5b8201836020820111156106ac57600080fd5b803590602001918460208302840111640100000000831117156106ce57600080fd5b509092509050611413565b3480156106e557600080fd5b506103e16114c5565b3480156106fa57600080fd5b506103f86115b9565b34801561070f57600080fd5b506103e16115bf565b34801561072457600080fd5b506103e1611682565b34801561073957600080fd5b506103f86117da565b34801561074e57600080fd5b5061056e6117df565b34801561076357600080fd5b506103f86117ee565b34801561077857600080fd5b506103f86117f6565b34801561078d57600080fd5b50610434611873565b3480156107a257600080fd5b506103f8611883565b3480156107b757600080fd5b506103f8611889565b3480156107cc57600080fd5b506103e161188f565b3480156107e157600080fd5b506103f861194c565b3480156107f657600080fd5b506103e1611954565b34801561080b57600080fd5b506103e1611a11565b34801561082057600080fd5b506104346004803603602081101561083757600080fd5b50356001600160a01b0316611ae4565b34801561085357600080fd5b506103e1611af9565b34801561086857600080fd5b5061056e611bb4565b34801561087d57600080fd5b506103f8611bc3565b34801561089257600080fd5b506103e1611bc9565b3480156108a757600080fd5b506103f8611c9c565b3480156108bc57600080fd5b506103e1611ca1565b6103e1600480360360208110156108db57600080fd5b50356001600160a01b0316610a11565b3480156108f757600080fd5b506103f8611d74565b34801561090c57600080fd5b506103e1611d79565b34801561092157600080fd5b506103e16004803603602081101561093857600080fd5b50356001600160a01b0316611e4c565b34801561095457600080fd5b506103f8611f00565b34801561096957600080fd5b5061056e611f06565b34801561097e57600080fd5b50610987611f15565b6040805160208082528351818301528351919283929083019185019080838360005b838110156109c15781810151838201526020016109a9565b50505050905090810190601f1680156109ee5780820380516001836020036101000a031916815260200191505b509250505060405180910390f35b348015610a0857600080fd5b506103f86123ad565b600d54600160a01b900460ff16610a6b576040805162461bcd60e51b815260206004820152601960248201527818dc9bddd914d85b1948139bdd081cdd185c9d1959081e595d603a1b604482015290519081900360640190fd5b600154600160a01b900460ff1615610abf576040805162461bcd60e51b815260206004820152601260248201527110dbdb9d1c9858dd081a5cc814185d5cd95960721b604482015290519081900360640190fd5b6001600160a01b0381166000908152600e602052604090205460ff161515600114610b31576040805162461bcd60e51b815260206004820152601960248201527f4e6f7420612077686974656c6973746564496e766573746f7200000000000000604482015290519081900360640190fd5b600d54600160b81b900460ff1615610b85576040805162461bcd60e51b815260206004820152601260248201527110dbdb9d1c9858dd081a5cc814185d5cd95960721b604482015290519081900360640190fd5b60003490506000610bb9670de0b6b3a7640000610bad600254856123b390919063ffffffff16565b9063ffffffff61241316565b9050610bc48161247d565b6000610bcf826124e4565b9050610bda8261273f565b610be48482612af9565b600554610bf7903463ffffffff612bc216565b600555600d546040516001600160a01b03909116903480156108fc02916000818181858888f19350505050158015610c33573d6000803e3d6000fd5b50604080518481526020810183905281516001600160a01b0387169233927f623b3804fa71d67900d064613da8f94b9617215ee90799290593e1745087ad18929081900390910190a350505050565b638f0d180081565b600080546001600160a01b03163314610cd8576040805162461bcd60e51b81526020600482015260176024820152600080516020612ddd833981519152604482015290519081900360640190fd5b50600255600190565b637d2b750081565b6103e881565b6000546001600160a01b03163314610d3c576040805162461bcd60e51b81526020600482015260176024820152600080516020612ddd833981519152604482015290519081900360640190fd5b600b600d8054600160a81b900460ff1690811115610d5657fe5b14610d925760405162461bcd60e51b8152600401808060200182810382526022815260200180612d986022913960400191505060405180910390fd5b600d8054600c919060ff60a81b1916600160a81b835b0217905550565b601481565b60065481565b600a5481565b600f81565b600c5481565b639502f90081565b600a81565b61c35081565b6000546001600160a01b03163314610e2b576040805162461bcd60e51b81526020600482015260176024820152600080516020612ddd833981519152604482015290519081900360640190fd5b600d54600160a01b900460ff1615610e8a576040805162461bcd60e51b815260206004820152601960248201527f43726f776473616c6520416c7265616479205374617274656400000000000000604482015290519081900360640190fd5b600d805460ff60a01b1916600160a01b178082556002919060ff60a81b1916600160a81b83610da8565b6000546001600160a01b03163314610f01576040805162461bcd60e51b81526020600482015260176024820152600080516020612ddd833981519152604482015290519081900360640190fd5b600154600160a01b900460ff16610f58576040805162461bcd60e51b815260206004820152601660248201527510dbdb9d1c9858dd081a5cc8139bdd0814185d5cd95960521b604482015290519081900360640190fd5b6001805460ff60a01b191690556040517f7805862f689e2f13df9f062ff482ad3ad112aca9e0847911ed832e158c525b3390600090a1565b600d546001600160a01b031681565b6000546001600160a01b03163314610fec576040805162461bcd60e51b81526020600482015260176024820152600080516020612ddd833981519152604482015290519081900360640190fd5b6008600d8054600160a81b900460ff169081111561100657fe5b146110425760405162461bcd60e51b8152600401808060200182810382526022815260200180612cde6022913960400191505060405180910390fd5b600d80546009919060ff60a81b1916600160a81b83610da8565b60055481565b6000546001600160a01b031633146110af576040805162461bcd60e51b81526020600482015260176024820152600080516020612ddd833981519152604482015290519081900360640190fd5b6003600d8054600160a81b900460ff16908111156110c957fe5b1461111b576040805162461bcd60e51b815260206004820152601b60248201527f507269766174652053616c65204469646e277420656e64207965740000000000604482015290519081900360640190fd5b600d80546004919060ff60a81b1916600160a81b83610da8565b6000546001600160a01b03163314611182576040805162461bcd60e51b81526020600482015260176024820152600080516020612ddd833981519152604482015290519081900360640190fd5b600d808054600160a81b900460ff169081111561119b57fe5b146111d75760405162461bcd60e51b8152600401808060200182810382526021815260200180612d776021913960400191505060405180910390fd5b60006111e16117f6565b905080156112ba57600354600080546040805163a9059cbb60e01b81526001600160a01b039283166004820152602481018690529051919093169263a9059cbb9260448083019360209390929083900390910190829087803b15801561124657600080fd5b505af115801561125a573d6000803e3d6000fd5b505050506040513d602081101561127057600080fd5b50516112b5576040805162461bcd60e51b815260206004820152600f60248201526e151c985b9cd9995c8811985a5b1959608a1b604482015290519081900360640190fd5b611307565b6040805162461bcd60e51b815260206004820152601c60248201527f5a65726f20546f6b656e73204c65667420696e20436f6e747261637400000000604482015290519081900360640190fd5b50565b600154600160a01b900460ff1681565b6000546001600160a01b03163314611367576040805162461bcd60e51b81526020600482015260176024820152600080516020612ddd833981519152604482015290519081900360640190fd5b6007600d8054600160a81b900460ff169081111561138157fe5b146113d3576040805162461bcd60e51b815260206004820181905260248201527f43726f776453616c65526f756e644f6e65204469646e277420656e6420796574604482015290519081900360640190fd5b600d80546008919060ff60a81b1916600160a81b83610da8565b638321560081565b60095481565b638917370081565b600d54600160a01b900460ff1681565b600080546001600160a01b03163314611461576040805162461bcd60e51b81526020600482015260176024820152600080516020612ddd833981519152604482015290519081900360640190fd5b8160005b818110156114b8576001600e600087878581811061147f57fe5b602090810292909201356001600160a01b0316835250810191909152604001600020805460ff1916911515919091179055600101611465565b5060019150505b92915050565b6000546001600160a01b03163314611512576040805162461bcd60e51b81526020600482015260176024820152600080516020612ddd833981519152604482015290519081900360640190fd5b6001600d8054600160a81b900460ff169081111561152c57fe5b1461157e576040805162461bcd60e51b815260206004820152601960248201527f63757272656e745374616765206973206e6f7420504155534500000000000000604482015290519081900360640190fd5b600d805460ff600160b01b820416919060ff60a81b1916600160a81b83838111156115a557fe5b0217905550600d805460ff60b81b19169055565b60085481565b6001546001600160a01b0316331461161e576040805162461bcd60e51b815260206004820181905260248201527f43616c6c6572206973206e6f74207468652073656c6563746564204f776e6572604482015290519081900360640190fd5b600154600080546040516001600160a01b0393841693909116917f8be0079c531659141344cd1fd0a4f28419497f9722a3daafe3b4186f6b6457e091a360018054600080546001600160a01b03199081166001600160a01b03841617909155169055565b6000546001600160a01b031633146116cf576040805162461bcd60e51b81526020600482015260176024820152600080516020612ddd833981519152604482015290519081900360640190fd5b600d54600160b81b900460ff161561172e576040805162461bcd60e51b815260206004820152601a60248201527f636f6e747261637420697320616c726561647920506175736564000000000000604482015290519081900360640190fd5b600d54600160a01b900460ff1661178c576040805162461bcd60e51b815260206004820152601960248201527f43726f776473616c6520616c7265616479207374617274656400000000000000604482015290519081900360640190fd5b600d805460ff600160a81b820416919060ff60b01b1916600160b01b83838111156117b357fe5b0217905550600d805460ff60a81b1916600160a81b1760ff60b81b1916600160b81b179055565b600581565b6000546001600160a01b031681565b631dcd650081565b600354604080516370a0823160e01b815230600482015290516000926001600160a01b0316916370a08231916024808301926020929190829003018186803b15801561184157600080fd5b505afa158015611855573d6000803e3d6000fd5b505050506040513d602081101561186b57600080fd5b505190505b90565b600d54600160b81b900460ff1681565b60055490565b600b5481565b6000546001600160a01b031633146118dc576040805162461bcd60e51b81526020600482015260176024820152600080516020612ddd833981519152604482015290519081900360640190fd5b6006600d8054600160a81b900460ff16908111156118f657fe5b146119325760405162461bcd60e51b8152600401808060200182810382526022815260200180612dfd6022913960400191505060405180910390fd5b600d80546007919060ff60a81b1916600160a81b83610da8565b6301312d0081565b6000546001600160a01b031633146119a1576040805162461bcd60e51b81526020600482015260176024820152600080516020612ddd833981519152604482015290519081900360640190fd5b600a600d8054600160a81b900460ff16908111156119bb57fe5b146119f75760405162461bcd60e51b8152600401808060200182810382526024815260200180612c1d6024913960400191505060405180910390fd5b600d8054600b919060ff60a81b1916600160a81b83610da8565b6000546001600160a01b03163314611a5e576040805162461bcd60e51b81526020600482015260176024820152600080516020612ddd833981519152604482015290519081900360640190fd5b6005600d8054600160a81b900460ff1690811115611a7857fe5b14611aca576040805162461bcd60e51b815260206004820152601760248201527f5072652053616c65204469646e277420656e6420796574000000000000000000604482015290519081900360640190fd5b600d80546006919060ff60a81b1916600160a81b83610da8565b600e6020526000908152604090205460ff1681565b6000546001600160a01b03163314611b46576040805162461bcd60e51b81526020600482015260176024820152600080516020612ddd833981519152604482015290519081900360640190fd5b600c600d8054600160a81b900460ff1690811115611b6057fe5b14611b9c5760405162461bcd60e51b8152600401808060200182810382526023815260200180612dba6023913960400191505060405180910390fd5b600d8054819060ff60a81b1916600160a81b82610da8565b6001546001600160a01b031681565b60075481565b6000546001600160a01b03163314611c16576040805162461bcd60e51b81526020600482015260176024820152600080516020612ddd833981519152604482015290519081900360640190fd5b6009600d8054600160a81b900460ff1690811115611c3057fe5b14611c82576040805162461bcd60e51b815260206004820181905260248201527f43726f776453616c65526f756e6454776f204469646e277420656e6420796574604482015290519081900360640190fd5b600d8054600a919060ff60a81b1916600160a81b83610da8565b601981565b6000546001600160a01b03163314611cee576040805162461bcd60e51b81526020600482015260176024820152600080516020612ddd833981519152604482015290519081900360640190fd5b6002600d8054600160a81b900460ff1690811115611d0857fe5b14611d5a576040805162461bcd60e51b815260206004820152601a60248201527f43726f776473616c65206469646e277420537461727420796574000000000000604482015290519081900360640190fd5b600d80546003919060ff60a81b1916600160a81b83610da8565b600081565b6000546001600160a01b03163314611dc6576040805162461bcd60e51b81526020600482015260176024820152600080516020612ddd833981519152604482015290519081900360640190fd5b6004600d8054600160a81b900460ff1690811115611de057fe5b14611e32576040805162461bcd60e51b815260206004820152601960248201527f5072652053616c65206469646e27742053746172742079657400000000000000604482015290519081900360640190fd5b600d80546005919060ff60a81b1916600160a81b83610da8565b6000546001600160a01b03163314611e99576040805162461bcd60e51b81526020600482015260176024820152600080516020612ddd833981519152604482015290519081900360640190fd5b6001600160a01b038116611ede5760405162461bcd60e51b815260040180806020018281038252602e815260200180612d49602e913960400191505060405180910390fd5b600180546001600160a01b0319166001600160a01b0392909216919091179055565b60045481565b6003546001600160a01b031681565b60606002600d8054600160a81b900460ff1690811115611f3157fe5b1415611f665750604080518082019091526012815271141c9a5d985d194814d85b194814dd185c9d60721b6020820152611870565b6003600d8054600160a81b900460ff1690811115611f8057fe5b1415611fb3575060408051808201909152601081526f141c9a5d985d194814d85b1948115b9960821b6020820152611870565b6004600d8054600160a81b900460ff1690811115611fcd57fe5b1415611fff575060408051808201909152600f81526e141c995cd85b194814dd185c9d1959608a1b6020820152611870565b6005600d8054600160a81b900460ff169081111561201957fe5b1415612049575060408051808201909152600d81526c141c995cd85b1948115b991959609a1b6020820152611870565b6006600d8054600160a81b900460ff169081111561206357fe5b14156120a3575060408051808201909152601b81527f43726f776453616c6520526f756e64204f6e65205374617274656400000000006020820152611870565b6007600d8054600160a81b900460ff16908111156120bd57fe5b14156120fd575060408051808201909152601781527f43726f776453616c6520526f756e64204f6e6520456e640000000000000000006020820152611870565b6008600d8054600160a81b900460ff169081111561211757fe5b1415612157575060408051808201909152601b81527f43726f776453616c6520526f756e642054776f205374617274656400000000006020820152611870565b6009600d8054600160a81b900460ff169081111561217157fe5b14156121b1575060408051808201909152601781527f43726f776453616c6520526f756e642054776f20456e640000000000000000006020820152611870565b600a600d8054600160a81b900460ff16908111156121cb57fe5b141561220b575060408051808201909152601d81527f43726f776453616c6520526f756e6420546872656520537461727465640000006020820152611870565b600b600d8054600160a81b900460ff169081111561222557fe5b1415612265575060408051808201909152601981527f43726f776453616c6520526f756e6420546872656520456e64000000000000006020820152611870565b600c600d8054600160a81b900460ff169081111561227f57fe5b14156122bf575060408051808201909152601c81527f43726f776453616c6520526f756e6420466f75722053746172746564000000006020820152611870565b600d808054600160a81b900460ff16908111156122d857fe5b1415612318575060408051808201909152601881527f43726f776453616c6520526f756e6420466f757220456e6400000000000000006020820152611870565b6001600d8054600160a81b900460ff169081111561233257fe5b141561235b57506040805180820190915260068152651c185d5cd95960d21b6020820152611870565b6000600d8054600160a81b900460ff169081111561237557fe5b1415611870575060408051808201909152601581527410dc9bddd914d85b1948139bdd0814dd185c9d1959605a1b6020820152611870565b60025481565b6000826123c2575060006114bf565b828202828482816123cf57fe5b041461240c5760405162461bcd60e51b8152600401808060200182810382526021815260200180612d286021913960400191505060405180910390fd5b9392505050565b6000808211612469576040805162461bcd60e51b815260206004820152601a60248201527f536166654d6174683a206469766973696f6e206279207a65726f000000000000604482015290519081900360640190fd5b600082848161247457fe5b04949350505050565b61c350811015801561249357506301312d008111155b611307576040805162461bcd60e51b815260206004820152601b60248201527f5f70726556616c69646174655075726368617365206661696c65640000000000604482015290519081900360640190fd5b600d54600090600160a01b900460ff16612541576040805162461bcd60e51b815260206004820152601960248201527818dc9bddd914d85b1948139bdd081cdd185c9d1959081e595d603a1b604482015290519081900360640190fd5b60008080806002600d8054600160a81b900460ff169081111561256057fe5b14156125d25761258c6064610bad60196125808a8463ffffffff61241316565b9063ffffffff6123b316565b93506125a0846103e863ffffffff6123b316565b92506125b96103e861258088606463ffffffff61241316565b91506125cb838363ffffffff612bc216565b9050612736565b6004600d8054600160a81b900460ff16908111156125ec57fe5b141561260c5761258c6064610bad60196125808a8463ffffffff61241316565b6006600d8054600160a81b900460ff169081111561262657fe5b14156126465761258c6064610bad60196125808a8463ffffffff61241316565b6008600d8054600160a81b900460ff169081111561266057fe5b14156126805761258c6064610bad60196125808a8463ffffffff61241316565b600a600d8054600160a81b900460ff169081111561269a57fe5b14156126ba5761258c6064610bad60196125808a8463ffffffff61241316565b600c600d8054600160a81b900460ff16908111156126d457fe5b1415612736576126f46064610bad60196125808a8463ffffffff61241316565b9350612708846103e863ffffffff6123b316565b92506127216103e861258088606463ffffffff61241316565b9150612733838363ffffffff612bc216565b90505b95945050505050565b6002600d8054600160a81b900460ff169081111561275957fe5b14156127d057600754639502f90090612778908363ffffffff612bc216565b11156127b55760405162461bcd60e51b8152600401808060200182810382526022815260200180612cbc6022913960400191505060405180910390fd5b6007546127c8908263ffffffff612bc216565b600755611307565b6004600d8054600160a81b900460ff16908111156127ea57fe5b141561287757600854638f0d180090612809908363ffffffff612bc216565b111561285c576040805162461bcd60e51b815260206004820152601e60248201527f50726553616c65537461727420636f6e646974696f6e73204661696c65640000604482015290519081900360640190fd5b60085461286f908263ffffffff612bc216565b600855611307565b6006600d8054600160a81b900460ff169081111561289157fe5b1415612908576009546389173700906128b0908363ffffffff612bc216565b11156128ed5760405162461bcd60e51b8152600401808060200182810382526028815260200180612d006028913960400191505060405180910390fd5b600954612900908263ffffffff612bc216565b600955611307565b6008600d8054600160a81b900460ff169081111561292257fe5b141561299957600a54638321560090612941908363ffffffff612bc216565b111561297e5760405162461bcd60e51b8152600401808060200182810382526028815260200180612c946028913960400191505060405180910390fd5b600a54612991908263ffffffff612bc216565b600a55611307565b600a600d8054600160a81b900460ff16908111156129b357fe5b1415612a2a57600b54637d2b7500906129d2908363ffffffff612bc216565b1115612a0f5760405162461bcd60e51b815260040180806020018281038252602a815260200180612c41602a913960400191505060405180910390fd5b600b54612a22908263ffffffff612bc216565b600b55611307565b600c600d8054600160a81b900460ff1690811115612a4457fe5b1415612abb57600c54639502f90090612a63908363ffffffff612bc216565b1115612aa05760405162461bcd60e51b8152600401808060200182810382526029815260200180612c6b6029913960400191505060405180910390fd5b600c54612ab3908263ffffffff612bc216565b600c55611307565b6040805162461bcd60e51b815260206004820152600e60248201526d4e6f206163746976652053616c6560901b604482015290519081900360640190fd5b6003546040805163a9059cbb60e01b81526001600160a01b038581166004830152602482018590529151919092169163a9059cbb9160448083019260209291908290030181600087803b158015612b4f57600080fd5b505af1158015612b63573d6000803e3d6000fd5b505050506040513d6020811015612b7957600080fd5b5051612bbe576040805162461bcd60e51b815260206004820152600f60248201526e151c985b9cd9995c8811985a5b1959608a1b604482015290519081900360640190fd5b5050565b60008282018381101561240c576040805162461bcd60e51b815260206004820152601b60248201527f536166654d6174683a206164646974696f6e206f766572666c6f770000000000604482015290519081900360640190fdfe43726f776453616c65526f756e645468726565204469646e27742073746172742079657443726f776453616c65526f756e645468726565537461727420636f6e646974696f6e73204661696c656443726f776453616c65526f756e64466f7572537461727420636f6e646974696f6e73204661696c656443726f776453616c65526f756e6454776f537461727420636f6e646974696f6e73204661696c65645072697661746553616c65537461727420636f6e646974696f6e73204661696c656443726f776453616c65526f756e6454776f204469646e27742073746172742079657443726f776453616c65526f756e644f6e65537461727420636f6e646974696f6e73204661696c6564536166654d6174683a206d756c7469706c69636174696f6e206f766572666c6f77496e76616c696420416464726573733a204e6577206f776e657220697320746865207a65726f206164647265737343726f776453616c65526f756e64466f7572206469646e277420656e642079657443726f776453616c65526f756e645468726565204469646e277420656e642079657443726f776453616c65526f756e64466f7572204469646e27742073746172742079657443616c6c6572206973204e6f7420746865204f574e455200000000000000000043726f776453616c65526f756e644f6e65204469646e277420737461727420796574a265627a7a72315820d3ccf373a7083bcde82141543eafbc67db184e8f2063f31fc3fcdfc067cd71f964736f6c63430005100032",
  "source": "pragma solidity 0.5.16;\n\n\n//import \"@openzeppelin/contracts/ownership/Ownable.sol\";\n// import \"@openzeppelin/contracts/math/SafeMath.sol\";\n// import \"@openzeppelin/contracts/lifecycle/Pausable.sol\";\n\ninterface Swan{\n    function transfer (address, uint256) external returns (bool);\n    function balanceOf(address) external view returns (uint256);\n}\n\ncontract Owned {\n\n    address public owner;\n    address public newOwner;\n\n    event OwnershipTransferred(address indexed from, address indexed _to);\n\n    constructor(address _owner) public {\n        owner = _owner;\n    }\n\n    modifier onlyOwner {\n        require(msg.sender == owner,\"Caller is Not the OWNER\");\n        _;\n    }\n\n    function transferOwnership(address newOwnerAddress) external onlyOwner {\n        require(newOwnerAddress != address(0), \"Invalid Address: New owner is the zero address\");\n        newOwner = newOwnerAddress;\n    }\n    function acceptOwnership() external {\n        require(msg.sender == newOwner,\"Caller is not the selected Owner\");\n        emit OwnershipTransferred(owner, newOwner);\n        owner = newOwner;\n        newOwner = address(0);\n    }\n}\n\ncontract Pausable is Owned {\n    event Pause();\n    event Unpause();\n\n    bool public paused = false;\n\n    modifier whenNotPaused() {\n      require(!paused,\"Contract is Paused\");\n      _;\n    }\n\n    modifier whenPaused() {\n      require(paused,\"Contract is Not Paused\");\n      _;\n    }\n\n    function pause() onlyOwner whenNotPaused external {\n      paused = true;\n      emit Pause();\n    }\n\n    function unpause() onlyOwner whenPaused external {\n      paused = false;\n      emit Unpause();\n    }\n}\n\n\n/**\n * @dev Wrappers over Solidity's arithmetic operations with added overflow\n * checks.\n *\n * Arithmetic operations in Solidity wrap on overflow. This can easily result\n * in bugs, because programmers usually assume that an overflow raises an\n * error, which is the standard behavior in high level programming languages.\n * `SafeMath` restores this intuition by reverting the transaction when an\n * operation overflows.\n *\n * Using this library instead of the unchecked operations eliminates an entire\n * class of bugs, so it's recommended to use it always.\n */\nlibrary SafeMath {\n    /**\n     * @dev Returns the addition of two unsigned integers, reverting on\n     * overflow.\n     *\n     * Counterpart to Solidity's `+` operator.\n     *\n     * Requirements:\n     * - Addition cannot overflow.\n     */\n    function add(uint256 a, uint256 b) internal pure returns (uint256) {\n        uint256 c = a + b;\n        require(c >= a, \"SafeMath: addition overflow\");\n\n        return c;\n    }\n\n    /**\n     * @dev Returns the subtraction of two unsigned integers, reverting on\n     * overflow (when the result is negative).\n     *\n     * Counterpart to Solidity's `-` operator.\n     *\n     * Requirements:\n     * - Subtraction cannot overflow.\n     */\n    function sub(uint256 a, uint256 b) internal pure returns (uint256) {\n        require(b <= a, \"SafeMath: subtraction overflow\");\n        uint256 c = a - b;\n\n        return c;\n    }\n\n    /**\n     * @dev Returns the multiplication of two unsigned integers, reverting on\n     * overflow.\n     *\n     * Counterpart to Solidity's `*` operator.\n     *\n     * Requirements:\n     * - Multiplication cannot overflow.\n     */\n    function mul(uint256 a, uint256 b) internal pure returns (uint256) {\n        // Gas optimization: this is cheaper than requiring 'a' not being zero, but the\n        // benefit is lost if 'b' is also tested.\n        // See: https://github.com/OpenZeppelin/openzeppelin-solidity/pull/522\n        if (a == 0) {\n            return 0;\n        }\n\n        uint256 c = a * b;\n        require(c / a == b, \"SafeMath: multiplication overflow\");\n\n        return c;\n    }\n\n    /**\n     * @dev Returns the integer division of two unsigned integers. Reverts on\n     * division by zero. The result is rounded towards zero.\n     *\n     * Counterpart to Solidity's `/` operator. Note: this function uses a\n     * `revert` opcode (which leaves remaining gas untouched) while Solidity\n     * uses an invalid opcode to revert (consuming all remaining gas).\n     *\n     * Requirements:\n     * - The divisor cannot be zero.\n     */\n    function div(uint256 a, uint256 b) internal pure returns (uint256) {\n        // Solidity only automatically asserts when dividing by 0\n        require(b > 0, \"SafeMath: division by zero\");\n        uint256 c = a / b;\n        // assert(a == b * c + a % b); // There is no case in which this doesn't hold\n\n        return c;\n    }\n\n}\n\n\ncontract Crowdsale is Pausable { \n\n  using SafeMath for uint256;\n  uint256 public ethPrice; // 1 Ether price in USD cents.\n\n  Swan public token;\n\n  uint256 public hardCap = 0; \n  uint256 public constant softCap = 500000000; // in cents \n\n  //total tokens for sale \n  uint256 public totalWeiRaised;\n  uint256 public tokensForSale = 140000000000 ether;\n\n  // tokens sold in each round of sale \n  uint256 public privateSaletokenSold = 0;\n  uint256 public preSaleTokensSold = 0;\n  uint256 public crowdSaleRoundOne = 0;\n  uint256 public crowdSaleRoundTwo = 0;\n  uint256 public crowdSaleRoundThree = 0;\n  uint256 public crowdSaleRoundFour = 0;\n\n  // tokenSoldLimit in rounds\n  uint256 public constant privateSaletokenLimit = 2500000000;\n  uint256 public constant preSaleTokensLimit = 2400000000;\n  uint256 public constant crowdSaleRoundOneLimit = 2300000000;\n  uint256 public constant crowdSaleRoundTwoLimit = 2200000000;\n  uint256 public constant crowdSaleRoundThreeLimit = 2100000000;\n  uint256 public constant crowdSaleRoundFourLimit = 2500000000;\n  \n  // Address where funds are collected\n  address  payable public  wallet;\n\n  uint256 public constant bonusPercentPrivateSale  = 25;\n  uint256 public constant bonusPercentPreSale = 20;\n  uint256 public constant bonusPercentRoudOne = 15;\n  uint256 public constant bonusPercentRoudTwo = 10;\n  uint256 public constant bonusPercentRoudThree = 5;\n  uint256 public constant bonusPercentRoudFour = 0;  \n\n  // user limit\n  uint256 public constant minimumInvestment = 50000;\n  uint256 public constant maximumInvestment = 20000000;\n  uint256 public constant tokensInOneDollar = 1000;\n\n  bool public crowdSaleStarted = false;\n\n  enum Stages {CrowdSaleNotStarted, Pause, PrivateSaleStart,PrivateSaleEnd, PreSaleStart, PreSaleEnd, CrowdSaleRoundOneStart,CrowdSaleRoundOneEnd, CrowdSaleRoundTwoStart, CrowdSaleRoundTwoEnd, CrowdSaleRoundThreeStart, CrowdSaleRoundThreeEnd, CrowdSaleRoundFourStart, CrowdSaleRoundFourEnd}\n\n  Stages currentStage;\n  Stages previousStage;\n  bool public Paused;\n\n   // adreess vs state mapping (1 for exists , zero default);\n   mapping (address => bool) public whitelistedContributors;\n\n  \n   modifier CrowdsaleStarted(){\n\n      require(crowdSaleStarted,\"crowdSale Not started yet\");\n      _;\n   }\n \n    /**\n    * Event for token purchase logging\n    * @param purchaser who paid for the tokens\n    * @param beneficiary who got the tokens\n    * @param value weis paid for purchase\n    * @param amount amount of tokens purchased\n    */\n    event TokenPurchase(address indexed purchaser, address indexed beneficiary, uint256 value, uint256 amount);\n\n    /**\n    *@dev initializes the crowdsale contract \n    * @param _newOwner Address who has special power to change the ether price in cents according to the market price\n    * @param _wallet Address where collected funds will be forwarded to\n    * @param _token Address of the token being sold\n    *  @param _ethPriceInCents ether price in cents\n    */\n    constructor(address _newOwner, address payable _wallet, Swan _token,uint256 _ethPriceInCents) Owned(_newOwner) public {\n        wallet = _wallet;\n        owner = _newOwner;\n        token = _token;\n        ethPrice = _ethPriceInCents; //ethPrice in cents\n        currentStage = Stages.CrowdSaleNotStarted;\n    }\n    \n    /**\n    * @dev fallback function ***DO NOT OVERRIDE***\n    */\n    function () external payable {\n     if(msg.sender != owner){\n        buyTokens(msg.sender); \n     }\n     else{\n     revert(\"This is the error\");\n     }\n     \n    }\n    function getSwanTokenBalance() public view returns(uint256){\n      return Swan(token).balanceOf(address(this));\n    }\n\n    function getTotalWeiRaised() external view returns(uint256){\n      return totalWeiRaised;\n    }\n    \n    /**\n    * @dev whitelist addresses of investors.\n    * @param addrs ,array of addresses of investors to be whitelisted\n    * Note:= Array length must be less than 200.\n    */\n    function authorizeKyc(address[] calldata addrs) external onlyOwner returns (bool success) {\n        uint arrayLength = addrs.length;\n        for (uint x = 0; x < arrayLength; x++) \n        {\n            whitelistedContributors[addrs[x]] = true;\n        }\n        return true;\n    }\n    \n    /**\n    * @dev calling this function will pause the sale\n    */\n    \n    function pause() external onlyOwner {\n      require(!Paused,\"contract is already Paused\");\n      require(crowdSaleStarted,\"Crowdsale already started\");\n      previousStage=currentStage;\n      currentStage=Stages.Pause;\n      Paused = true;\n    }\n  \n    function restartSale() external onlyOwner {\n      require(currentStage == Stages.Pause,\"currentStage is not PAUSE\");\n      currentStage=previousStage;\n      Paused = false;\n    }\n\n    function startPrivateSale() external onlyOwner {\n      require(!crowdSaleStarted,\"Crowdsale Already Started\");\n      crowdSaleStarted = true;\n      currentStage = Stages.PrivateSaleStart;\n    }\n\n    function endPrivateSale() external onlyOwner {\n\n      require(currentStage == Stages.PrivateSaleStart,\"Crowdsale didn't Start yet\");\n      currentStage = Stages.PrivateSaleEnd;\n\n    }\n\n    function startPreSale() external onlyOwner {\n\n    require(currentStage == Stages.PrivateSaleEnd,\"Private Sale Didn't end yet\");\n    currentStage = Stages.PreSaleStart;\n   \n    }\n\n    function endPreSale() external onlyOwner {\n\n    require(currentStage == Stages.PreSaleStart,\"Pre Sale didn't Start yet\");\n    currentStage = Stages.PreSaleEnd;\n   \n    }\n\n    function startCrowdSaleRoundOne() external onlyOwner {\n\n    require(currentStage == Stages.PreSaleEnd,\"Pre Sale Didn't end yet\");\n    currentStage = Stages.CrowdSaleRoundOneStart;\n\n    }\n\n    function endCrowdSaleRoundOne() external onlyOwner {\n\n    require(currentStage == Stages.CrowdSaleRoundOneStart,\"CrowdSaleRoundOne Didn't start yet\");\n    currentStage = Stages.CrowdSaleRoundOneEnd;\n\n    }\n\n    function startCrowdSaleRoundTwo() external onlyOwner {\n\n    require(currentStage == Stages.CrowdSaleRoundOneEnd,\"CrowdSaleRoundOne Didn't end yet\");\n    currentStage = Stages.CrowdSaleRoundTwoStart;\n\n    }\n\n    function endCrowdSaleRoundTwo() external onlyOwner {\n\n    require(currentStage == Stages.CrowdSaleRoundTwoStart,\"CrowdSaleRoundTwo Didn't start yet\");\n    currentStage = Stages.CrowdSaleRoundTwoEnd;\n\n    }\n\n    function startCrowdSaleRoundThree() external onlyOwner {\n\n    require(currentStage == Stages.CrowdSaleRoundTwoEnd,\"CrowdSaleRoundTwo Didn't end yet\");\n    currentStage = Stages.CrowdSaleRoundThreeStart;\n\n    }\n\n    function endCrowdSaleRoundThree() external onlyOwner {\n\n    require(currentStage == Stages.CrowdSaleRoundThreeStart,\"CrowdSaleRoundThree Didn't start yet\");\n    currentStage = Stages.CrowdSaleRoundThreeEnd;\n\n    }\n\n    function startCrowdSaleRoundFour() external onlyOwner {\n\n    require(currentStage == Stages.CrowdSaleRoundThreeEnd,\"CrowdSaleRoundThree Didn't end yet\");\n    currentStage = Stages.CrowdSaleRoundFourStart;\n\n    }\n\n    function endCrowdSaleRoundFour() external onlyOwner {\n\n    require(currentStage == Stages.CrowdSaleRoundFourStart,\"CrowdSaleRoundFour Didn't start yet\");\n    currentStage = Stages.CrowdSaleRoundFourEnd;\n\n    }\n\n    function getStage() external view returns (string memory) {\n    if (currentStage == Stages.PrivateSaleStart) return 'Private Sale Start';\n    else if (currentStage == Stages.PrivateSaleEnd) return 'Private Sale End';\n    else if (currentStage == Stages.PreSaleStart) return 'Presale Started';\n    else if (currentStage == Stages.PreSaleEnd) return 'Presale Ended';\n    else if (currentStage == Stages.CrowdSaleRoundOneStart) return 'CrowdSale Round One Started';\n    else if (currentStage == Stages.CrowdSaleRoundOneEnd) return 'CrowdSale Round One End';\n    else if (currentStage == Stages.CrowdSaleRoundTwoStart) return 'CrowdSale Round Two Started';\n    else if (currentStage == Stages.CrowdSaleRoundTwoEnd) return 'CrowdSale Round Two End';\n    else if (currentStage == Stages.CrowdSaleRoundThreeStart) return 'CrowdSale Round Three Started';\n    else if (currentStage == Stages.CrowdSaleRoundThreeEnd) return 'CrowdSale Round Three End';\n    else if (currentStage == Stages.CrowdSaleRoundFourStart) return 'CrowdSale Round Four Started';    \n    else if (currentStage == Stages.CrowdSaleRoundFourEnd) return 'CrowdSale Round Four End';   \n    else if (currentStage == Stages.Pause) return 'paused';\n    else if (currentStage == Stages.CrowdSaleNotStarted) return 'CrowdSale Not Started';    \n    }\n    \n   /**\n   * @dev sets the value of ether price in cents.Can be called only by the owner account.\n   * @param _ethPriceInCents price in cents .\n   */\n   function setEthPriceInCents(uint _ethPriceInCents) onlyOwner external returns(bool) {\n        ethPrice = _ethPriceInCents;\n        return true;\n    }\n\n   /**\n   * @param _beneficiary Address performing the token purchase\n   */\n   function buyTokens(address _beneficiary) CrowdsaleStarted whenNotPaused public payable {\n\n    require(whitelistedContributors[_beneficiary] == true, \"Not a whitelistedInvestor\");\n    require(!Paused, \"Contract is Paused\");\n    uint256 weiAmount = msg.value;\n    uint256 usdCents = weiAmount.mul(ethPrice).div(1 ether); \n\n    _preValidatePurchase(usdCents);\n\n    uint256 tokens = _getTokenAmount(usdCents);\n\n    _validateTokenCapLimits(usdCents);\n\n    _processPurchase(_beneficiary,tokens);\n    totalWeiRaised = totalWeiRaised.add(msg.value);\n    wallet.transfer(msg.value);\n\n    emit TokenPurchase(msg.sender, _beneficiary, weiAmount, tokens);\n   }\n  \n   /**\n   * @dev Validation of an incoming purchase. Use require statemens to revert state when conditions are not met. Use super to concatenate validations.\n   * @param _usdCents Value in usdincents involved in the purchase\n   */\n   function _preValidatePurchase(uint256 _usdCents) internal pure { \n      require(_usdCents >= minimumInvestment && _usdCents <= maximumInvestment,\"_preValidatePurchase failed\");\n    }\n    \n    /**\n    * @dev Validation of the capped restrictions.\n    * @param _tokenValue amount\n    */\n    function _validateTokenCapLimits(uint256 _tokenValue) internal {\n     \n    if (currentStage == Stages.PrivateSaleStart) {\n        \n        require(privateSaletokenSold.add(_tokenValue) <= privateSaletokenLimit,\"PrivateSaleStart conditions Failed\");\n        privateSaletokenSold = privateSaletokenSold.add(_tokenValue);\n        \n    }\n\n    else if (currentStage == Stages.PreSaleStart) {\n        \n        require(preSaleTokensSold.add(_tokenValue) <= preSaleTokensLimit,\"PreSaleStart conditions Failed\");\n        preSaleTokensSold = preSaleTokensSold.add(_tokenValue);\n        \n    }\n\n    else if (currentStage == Stages.CrowdSaleRoundOneStart) {\n        \n        require(crowdSaleRoundOne.add(_tokenValue) <= crowdSaleRoundOneLimit,\"CrowdSaleRoundOneStart conditions Failed\");\n        crowdSaleRoundOne = crowdSaleRoundOne.add(_tokenValue);        \n        \n    }\n\n    else if (currentStage == Stages.CrowdSaleRoundTwoStart) {\n        \n        require(crowdSaleRoundTwo.add(_tokenValue) <= crowdSaleRoundTwoLimit,\"CrowdSaleRoundTwoStart conditions Failed\");\n        crowdSaleRoundTwo = crowdSaleRoundTwo.add(_tokenValue);        \n        \n    }\n\n    else if (currentStage == Stages.CrowdSaleRoundThreeStart) {\n        \n        require(crowdSaleRoundThree.add(_tokenValue) <= crowdSaleRoundThreeLimit,\"CrowdSaleRoundThreeStart conditions Failed\");\n        crowdSaleRoundThree = crowdSaleRoundThree.add(_tokenValue);        \n        \n    }\n\n    else if (currentStage == Stages.CrowdSaleRoundFourStart) {\n        \n        require(crowdSaleRoundFour.add(_tokenValue) <= crowdSaleRoundFourLimit,\"CrowdSaleRoundFourStart conditions Failed\");\n        crowdSaleRoundFour = crowdSaleRoundFour.add(_tokenValue);        \n\n    }    \n\n    else { revert(\"No active Sale\");}\n\n   }\n   /**\n   * @dev Executed when a purchase has been validated and is ready to be executed. Not necessarily emits/sends tokens.\n   * @param _beneficiary Address receiving the tokens\n   * @param _tokenAmount Number of tokens to be purchased\n   */\n   function _processPurchase(address _beneficiary, uint256 _tokenAmount) internal {\n    require(token.transfer(_beneficiary, _tokenAmount),\"Transfer Failed\");\n   }\n    /**\n    * @param _usdCents Value in usd cents to be converted into tokens\n    * @return Number of tokens that can be purchased with the specified _usdCents\n    */\n    function _getTokenAmount(uint256 _usdCents) CrowdsaleStarted internal view returns (uint256) {\n\n         uint256 bonusUSD;\n         uint256 bonusTokens;\n         uint256 actualTokens;\n         uint256 totalTokens;\n\n     \n      if (currentStage == Stages.PrivateSaleStart) {\n         \n\n         bonusUSD = (_usdCents.div(100)).mul(25).div(100);\n         bonusTokens = bonusUSD.mul(tokensInOneDollar);\n         actualTokens = _usdCents.div(100).mul(tokensInOneDollar);\n         totalTokens = bonusTokens.add(actualTokens);\n\n\n      }\n      else if (currentStage == Stages.PreSaleStart) {\n\n         bonusUSD = (_usdCents.div(100)).mul(25).div(100);\n         bonusTokens = bonusUSD.mul(tokensInOneDollar);\n         actualTokens = _usdCents.div(100).mul(tokensInOneDollar);\n         totalTokens = bonusTokens.add(actualTokens); \n         \n      }\n      else if (currentStage == Stages.CrowdSaleRoundOneStart) {\n\n         bonusUSD = (_usdCents.div(100)).mul(25).div(100);\n         bonusTokens = bonusUSD.mul(tokensInOneDollar);\n         actualTokens = _usdCents.div(100).mul(tokensInOneDollar);\n         totalTokens = bonusTokens.add(actualTokens);\n         \n      }\n      else if (currentStage == Stages.CrowdSaleRoundTwoStart) {\n\n         bonusUSD = (_usdCents.div(100)).mul(25).div(100);\n         bonusTokens = bonusUSD.mul(tokensInOneDollar);\n         actualTokens = _usdCents.div(100).mul(tokensInOneDollar);\n         totalTokens = bonusTokens.add(actualTokens);\n      }\n      else if (currentStage == Stages.CrowdSaleRoundThreeStart) {\n\n         bonusUSD = (_usdCents.div(100)).mul(25).div(100);\n         bonusTokens = bonusUSD.mul(tokensInOneDollar);\n         actualTokens = _usdCents.div(100).mul(tokensInOneDollar);\n         totalTokens = bonusTokens.add(actualTokens);         \n\n      }\n      else if (currentStage == Stages.CrowdSaleRoundFourStart) {\n\n         bonusUSD = (_usdCents.div(100)).mul(25).div(100);\n         bonusTokens = bonusUSD.mul(tokensInOneDollar);\n         actualTokens = _usdCents.div(100).mul(tokensInOneDollar);\n         totalTokens = bonusTokens.add(actualTokens);         \n\n      }\n      return totalTokens;\n  }\n    \n    /**\n    * @dev finalize the crowdsale.After finalizing ,tokens transfer can be done.\n    */\n    function finalizeSale() public  onlyOwner {\n        require(currentStage == Stages.CrowdSaleRoundFourEnd,\"CrowdSaleRoundFour didn't end yet\");\n        uint256 availableTokens = getSwanTokenBalance();\n        if(availableTokens > 0){\n          require(token.transfer(owner, availableTokens),\"Transfer Failed\");\n        }else{\n          revert(\"Zero Tokens Left in Contract\");\n        }\n    }\n}\n",
  "sourcePath": "/home/zaryab/blockchain_begins/all_about_ethereum/quillHash_CODES/NewSwan/swan_smart_contracts/contracts/Crowdsale.sol",
  "compiler": {
    "name": "solc",
    "version": "0.5.16+commit.9c3226ce.Emscripten.clang"
  },
  "schemaVersion": "3.2.2",
  "updatedAt": "2020-12-09T09:58:17.835Z",
  "networkType": "ethereum",
  "devdoc": {
    "methods": {
      "authorizeKyc(address[])": {
        "details": "whitelist addresses of investors.",
        "params": {
          "addrs": ",array of addresses of investors to be whitelisted Note:= Array length must be less than 200."
        }
      },
      "buyTokens(address)": {
        "params": {
          "_beneficiary": "Address performing the token purchase"
        }
      },
      "constructor": {
        "params": {
          "_ethPriceInCents": "ether price in cents",
          "_newOwner": "Address who has special power to change the ether price in cents according to the market price",
          "_token": "Address of the token being sold",
          "_wallet": "Address where collected funds will be forwarded to"
        }
      },
      "finalizeSale()": {
        "details": "finalize the crowdsale.After finalizing ,tokens transfer can be done."
      },
      "pause()": {
        "details": "calling this function will pause the sale"
      },
      "setEthPriceInCents(uint256)": {
        "details": "sets the value of ether price in cents.Can be called only by the owner account.",
        "params": {
          "_ethPriceInCents": "price in cents ."
        }
      }
    }
  },
  "userdoc": {
    "methods": {
      "constructor": "dev initializes the crowdsale contract "
    }
  }
}