{
  "contractName": "Crowdsale",
  "abi": [
    {
      "inputs": [
        {
          "internalType": "address",
          "name": "_newOwner",
          "type": "address"
        },
        {
          "internalType": "address payable",
          "name": "_wallet",
          "type": "address"
        },
        {
          "internalType": "contract Swan",
          "name": "_token",
          "type": "address"
        },
        {
          "internalType": "uint256",
          "name": "_ethPriceInCents",
          "type": "uint256"
        }
      ],
      "payable": false,
      "stateMutability": "nonpayable",
      "type": "constructor"
    },
    {
      "anonymous": false,
      "inputs": [
        {
          "indexed": true,
          "internalType": "address",
          "name": "from",
          "type": "address"
        },
        {
          "indexed": true,
          "internalType": "address",
          "name": "_to",
          "type": "address"
        }
      ],
      "name": "OwnershipTransferred",
      "type": "event"
    },
    {
      "anonymous": false,
      "inputs": [],
      "name": "Pause",
      "type": "event"
    },
    {
      "anonymous": false,
      "inputs": [
        {
          "indexed": true,
          "internalType": "address",
          "name": "purchaser",
          "type": "address"
        },
        {
          "indexed": true,
          "internalType": "address",
          "name": "beneficiary",
          "type": "address"
        },
        {
          "indexed": false,
          "internalType": "uint256",
          "name": "value",
          "type": "uint256"
        },
        {
          "indexed": false,
          "internalType": "uint256",
          "name": "amount",
          "type": "uint256"
        }
      ],
      "name": "TokenPurchase",
      "type": "event"
    },
    {
      "anonymous": false,
      "inputs": [],
      "name": "Unpause",
      "type": "event"
    },
    {
      "payable": true,
      "stateMutability": "payable",
      "type": "fallback"
    },
    {
      "constant": true,
      "inputs": [],
      "name": "Paused",
      "outputs": [
        {
          "internalType": "bool",
          "name": "",
          "type": "bool"
        }
      ],
      "payable": false,
      "stateMutability": "view",
      "type": "function"
    },
    {
      "constant": false,
      "inputs": [],
      "name": "acceptOwnership",
      "outputs": [],
      "payable": false,
      "stateMutability": "nonpayable",
      "type": "function"
    },
    {
      "constant": true,
      "inputs": [],
      "name": "bonusPercentPreSale",
      "outputs": [
        {
          "internalType": "uint256",
          "name": "",
          "type": "uint256"
        }
      ],
      "payable": false,
      "stateMutability": "view",
      "type": "function"
    },
    {
      "constant": true,
      "inputs": [],
      "name": "bonusPercentPrivateSale",
      "outputs": [
        {
          "internalType": "uint256",
          "name": "",
          "type": "uint256"
        }
      ],
      "payable": false,
      "stateMutability": "view",
      "type": "function"
    },
    {
      "constant": true,
      "inputs": [],
      "name": "bonusPercentRoudFour",
      "outputs": [
        {
          "internalType": "uint256",
          "name": "",
          "type": "uint256"
        }
      ],
      "payable": false,
      "stateMutability": "view",
      "type": "function"
    },
    {
      "constant": true,
      "inputs": [],
      "name": "bonusPercentRoudOne",
      "outputs": [
        {
          "internalType": "uint256",
          "name": "",
          "type": "uint256"
        }
      ],
      "payable": false,
      "stateMutability": "view",
      "type": "function"
    },
    {
      "constant": true,
      "inputs": [],
      "name": "bonusPercentRoudThree",
      "outputs": [
        {
          "internalType": "uint256",
          "name": "",
          "type": "uint256"
        }
      ],
      "payable": false,
      "stateMutability": "view",
      "type": "function"
    },
    {
      "constant": true,
      "inputs": [],
      "name": "bonusPercentRoudTwo",
      "outputs": [
        {
          "internalType": "uint256",
          "name": "",
          "type": "uint256"
        }
      ],
      "payable": false,
      "stateMutability": "view",
      "type": "function"
    },
    {
      "constant": true,
      "inputs": [],
      "name": "crowdSaleRoundFour",
      "outputs": [
        {
          "internalType": "uint256",
          "name": "",
          "type": "uint256"
        }
      ],
      "payable": false,
      "stateMutability": "view",
      "type": "function"
    },
    {
      "constant": true,
      "inputs": [],
      "name": "crowdSaleRoundFourLimit",
      "outputs": [
        {
          "internalType": "uint256",
          "name": "",
          "type": "uint256"
        }
      ],
      "payable": false,
      "stateMutability": "view",
      "type": "function"
    },
    {
      "constant": true,
      "inputs": [],
      "name": "crowdSaleRoundOne",
      "outputs": [
        {
          "internalType": "uint256",
          "name": "",
          "type": "uint256"
        }
      ],
      "payable": false,
      "stateMutability": "view",
      "type": "function"
    },
    {
      "constant": true,
      "inputs": [],
      "name": "crowdSaleRoundOneLimit",
      "outputs": [
        {
          "internalType": "uint256",
          "name": "",
          "type": "uint256"
        }
      ],
      "payable": false,
      "stateMutability": "view",
      "type": "function"
    },
    {
      "constant": true,
      "inputs": [],
      "name": "crowdSaleRoundThree",
      "outputs": [
        {
          "internalType": "uint256",
          "name": "",
          "type": "uint256"
        }
      ],
      "payable": false,
      "stateMutability": "view",
      "type": "function"
    },
    {
      "constant": true,
      "inputs": [],
      "name": "crowdSaleRoundThreeLimit",
      "outputs": [
        {
          "internalType": "uint256",
          "name": "",
          "type": "uint256"
        }
      ],
      "payable": false,
      "stateMutability": "view",
      "type": "function"
    },
    {
      "constant": true,
      "inputs": [],
      "name": "crowdSaleRoundTwo",
      "outputs": [
        {
          "internalType": "uint256",
          "name": "",
          "type": "uint256"
        }
      ],
      "payable": false,
      "stateMutability": "view",
      "type": "function"
    },
    {
      "constant": true,
      "inputs": [],
      "name": "crowdSaleRoundTwoLimit",
      "outputs": [
        {
          "internalType": "uint256",
          "name": "",
          "type": "uint256"
        }
      ],
      "payable": false,
      "stateMutability": "view",
      "type": "function"
    },
    {
      "constant": true,
      "inputs": [],
      "name": "crowdSaleStarted",
      "outputs": [
        {
          "internalType": "bool",
          "name": "",
          "type": "bool"
        }
      ],
      "payable": false,
      "stateMutability": "view",
      "type": "function"
    },
    {
      "constant": true,
      "inputs": [],
      "name": "ethPrice",
      "outputs": [
        {
          "internalType": "uint256",
          "name": "",
          "type": "uint256"
        }
      ],
      "payable": false,
      "stateMutability": "view",
      "type": "function"
    },
    {
      "constant": true,
      "inputs": [],
      "name": "hardCap",
      "outputs": [
        {
          "internalType": "uint256",
          "name": "",
          "type": "uint256"
        }
      ],
      "payable": false,
      "stateMutability": "view",
      "type": "function"
    },
    {
      "constant": true,
      "inputs": [],
      "name": "maximumInvestment",
      "outputs": [
        {
          "internalType": "uint256",
          "name": "",
          "type": "uint256"
        }
      ],
      "payable": false,
      "stateMutability": "view",
      "type": "function"
    },
    {
      "constant": true,
      "inputs": [],
      "name": "minimumInvestment",
      "outputs": [
        {
          "internalType": "uint256",
          "name": "",
          "type": "uint256"
        }
      ],
      "payable": false,
      "stateMutability": "view",
      "type": "function"
    },
    {
      "constant": true,
      "inputs": [],
      "name": "newOwner",
      "outputs": [
        {
          "internalType": "address",
          "name": "",
          "type": "address"
        }
      ],
      "payable": false,
      "stateMutability": "view",
      "type": "function"
    },
    {
      "constant": true,
      "inputs": [],
      "name": "owner",
      "outputs": [
        {
          "internalType": "address",
          "name": "",
          "type": "address"
        }
      ],
      "payable": false,
      "stateMutability": "view",
      "type": "function"
    },
    {
      "constant": true,
      "inputs": [],
      "name": "paused",
      "outputs": [
        {
          "internalType": "bool",
          "name": "",
          "type": "bool"
        }
      ],
      "payable": false,
      "stateMutability": "view",
      "type": "function"
    },
    {
      "constant": true,
      "inputs": [],
      "name": "preSaleTokensLimit",
      "outputs": [
        {
          "internalType": "uint256",
          "name": "",
          "type": "uint256"
        }
      ],
      "payable": false,
      "stateMutability": "view",
      "type": "function"
    },
    {
      "constant": true,
      "inputs": [],
      "name": "preSaleTokensSold",
      "outputs": [
        {
          "internalType": "uint256",
          "name": "",
          "type": "uint256"
        }
      ],
      "payable": false,
      "stateMutability": "view",
      "type": "function"
    },
    {
      "constant": true,
      "inputs": [],
      "name": "privateSaletokenLimit",
      "outputs": [
        {
          "internalType": "uint256",
          "name": "",
          "type": "uint256"
        }
      ],
      "payable": false,
      "stateMutability": "view",
      "type": "function"
    },
    {
      "constant": true,
      "inputs": [],
      "name": "privateSaletokenSold",
      "outputs": [
        {
          "internalType": "uint256",
          "name": "",
          "type": "uint256"
        }
      ],
      "payable": false,
      "stateMutability": "view",
      "type": "function"
    },
    {
      "constant": true,
      "inputs": [],
      "name": "softCap",
      "outputs": [
        {
          "internalType": "uint256",
          "name": "",
          "type": "uint256"
        }
      ],
      "payable": false,
      "stateMutability": "view",
      "type": "function"
    },
    {
      "constant": true,
      "inputs": [],
      "name": "token",
      "outputs": [
        {
          "internalType": "contract Swan",
          "name": "",
          "type": "address"
        }
      ],
      "payable": false,
      "stateMutability": "view",
      "type": "function"
    },
    {
      "constant": true,
      "inputs": [],
      "name": "tokensForSale",
      "outputs": [
        {
          "internalType": "uint256",
          "name": "",
          "type": "uint256"
        }
      ],
      "payable": false,
      "stateMutability": "view",
      "type": "function"
    },
    {
      "constant": true,
      "inputs": [],
      "name": "tokensInOneDollar",
      "outputs": [
        {
          "internalType": "uint256",
          "name": "",
          "type": "uint256"
        }
      ],
      "payable": false,
      "stateMutability": "view",
      "type": "function"
    },
    {
      "constant": true,
      "inputs": [],
      "name": "totalWeiRaised",
      "outputs": [
        {
          "internalType": "uint256",
          "name": "",
          "type": "uint256"
        }
      ],
      "payable": false,
      "stateMutability": "view",
      "type": "function"
    },
    {
      "constant": false,
      "inputs": [
        {
          "internalType": "address",
          "name": "newOwnerAddress",
          "type": "address"
        }
      ],
      "name": "transferOwnership",
      "outputs": [],
      "payable": false,
      "stateMutability": "nonpayable",
      "type": "function"
    },
    {
      "constant": false,
      "inputs": [],
      "name": "unpause",
      "outputs": [],
      "payable": false,
      "stateMutability": "nonpayable",
      "type": "function"
    },
    {
      "constant": true,
      "inputs": [],
      "name": "wallet",
      "outputs": [
        {
          "internalType": "address payable",
          "name": "",
          "type": "address"
        }
      ],
      "payable": false,
      "stateMutability": "view",
      "type": "function"
    },
    {
      "constant": true,
      "inputs": [
        {
          "internalType": "address",
          "name": "",
          "type": "address"
        }
      ],
      "name": "whitelistedContributors",
      "outputs": [
        {
          "internalType": "bool",
          "name": "",
          "type": "bool"
        }
      ],
      "payable": false,
      "stateMutability": "view",
      "type": "function"
    },
    {
      "constant": true,
      "inputs": [],
      "name": "getSwanTokenBalance",
      "outputs": [
        {
          "internalType": "uint256",
          "name": "",
          "type": "uint256"
        }
      ],
      "payable": false,
      "stateMutability": "view",
      "type": "function"
    },
    {
      "constant": false,
      "inputs": [
        {
          "internalType": "address[]",
          "name": "addrs",
          "type": "address[]"
        }
      ],
      "name": "authorizeKyc",
      "outputs": [
        {
          "internalType": "bool",
          "name": "success",
          "type": "bool"
        }
      ],
      "payable": false,
      "stateMutability": "nonpayable",
      "type": "function"
    },
    {
      "constant": false,
      "inputs": [],
      "name": "pause",
      "outputs": [],
      "payable": false,
      "stateMutability": "nonpayable",
      "type": "function"
    },
    {
      "constant": false,
      "inputs": [],
      "name": "restartSale",
      "outputs": [],
      "payable": false,
      "stateMutability": "nonpayable",
      "type": "function"
    },
    {
      "constant": false,
      "inputs": [],
      "name": "startPrivateSale",
      "outputs": [],
      "payable": false,
      "stateMutability": "nonpayable",
      "type": "function"
    },
    {
      "constant": false,
      "inputs": [],
      "name": "endPrivateSale",
      "outputs": [],
      "payable": false,
      "stateMutability": "nonpayable",
      "type": "function"
    },
    {
      "constant": false,
      "inputs": [],
      "name": "startPreSale",
      "outputs": [],
      "payable": false,
      "stateMutability": "nonpayable",
      "type": "function"
    },
    {
      "constant": false,
      "inputs": [],
      "name": "endPreSale",
      "outputs": [],
      "payable": false,
      "stateMutability": "nonpayable",
      "type": "function"
    },
    {
      "constant": false,
      "inputs": [],
      "name": "startCrowdSaleRoundOne",
      "outputs": [],
      "payable": false,
      "stateMutability": "nonpayable",
      "type": "function"
    },
    {
      "constant": false,
      "inputs": [],
      "name": "endCrowdSaleRoundOne",
      "outputs": [],
      "payable": false,
      "stateMutability": "nonpayable",
      "type": "function"
    },
    {
      "constant": false,
      "inputs": [],
      "name": "startCrowdSaleRoundTwo",
      "outputs": [],
      "payable": false,
      "stateMutability": "nonpayable",
      "type": "function"
    },
    {
      "constant": false,
      "inputs": [],
      "name": "endCrowdSaleRoundTwo",
      "outputs": [],
      "payable": false,
      "stateMutability": "nonpayable",
      "type": "function"
    },
    {
      "constant": false,
      "inputs": [],
      "name": "startCrowdSaleRoundThree",
      "outputs": [],
      "payable": false,
      "stateMutability": "nonpayable",
      "type": "function"
    },
    {
      "constant": false,
      "inputs": [],
      "name": "endCrowdSaleRoundThree",
      "outputs": [],
      "payable": false,
      "stateMutability": "nonpayable",
      "type": "function"
    },
    {
      "constant": false,
      "inputs": [],
      "name": "startCrowdSaleRoundFour",
      "outputs": [],
      "payable": false,
      "stateMutability": "nonpayable",
      "type": "function"
    },
    {
      "constant": false,
      "inputs": [],
      "name": "endCrowdSaleRoundFour",
      "outputs": [],
      "payable": false,
      "stateMutability": "nonpayable",
      "type": "function"
    },
    {
      "constant": true,
      "inputs": [],
      "name": "getStage",
      "outputs": [
        {
          "internalType": "string",
          "name": "",
          "type": "string"
        }
      ],
      "payable": false,
      "stateMutability": "view",
      "type": "function"
    },
    {
      "constant": false,
      "inputs": [
        {
          "internalType": "uint256",
          "name": "_ethPriceInCents",
          "type": "uint256"
        }
      ],
      "name": "setEthPriceInCents",
      "outputs": [
        {
          "internalType": "bool",
          "name": "",
          "type": "bool"
        }
      ],
      "payable": false,
      "stateMutability": "nonpayable",
      "type": "function"
    },
    {
      "constant": false,
      "inputs": [
        {
          "internalType": "address",
          "name": "_beneficiary",
          "type": "address"
        }
      ],
      "name": "buyTokens",
      "outputs": [],
      "payable": true,
      "stateMutability": "payable",
      "type": "function"
    },
    {
      "constant": false,
      "inputs": [],
      "name": "finalizeSale",
      "outputs": [],
      "payable": false,
      "stateMutability": "nonpayable",
      "type": "function"
    }
  ],
  "bytecode": "0x60806040526001805460ff60a01b19908116909155600060048190556c01c45d49276606214ee0000000600655600781905560088190556009819055600a819055600b819055600c55600d8054909116905534801561005d57600080fd5b50604051612f21380380612f218339818101604052608081101561008057600080fd5b5080516020820151604083015160609093015160008054600d80546001600160a01b03199283166001600160a01b0397881690811784161784556003805484169888169890981790975560029390935560ff60a81b1995169390921692909217929092169055612e2b9081906100f690396000f3fe6080604052600436106103755760003560e01c806376be6b2b116101d1578063c806dcc611610102578063ec8ac4d8116100a0578063fb86a4041161006f578063fb86a40414610928578063fc0c546a1461093d578063fcaa766414610952578063ff186b2e146109dc57610375565b8063ec8ac4d8146108a5578063edfc8257146108cb578063ee889ed0146108e0578063f2fde38b146108f557610375565b8063d80f6d3d116100dc578063d80f6d3d14610851578063dc8371d614610866578063e2acae2a1461087b578063e6a23c3d1461089057610375565b8063c806dcc614610827578063d4470aa0146104e5578063d4ee1d901461083c57610375565b80639e87fac81161016f578063b904088e11610149578063b904088e146107b5578063ba6169fe146107ca578063c0314701146107df578063c7b850dd146107f457610375565b80639e87fac814610776578063a7a851141461078b578063b121acf0146107a057610375565b80638635cfd1116101ab5780638635cfd1146107225780638da5cb5b14610737578063906a26e01461074c57806392094ef41461076157610375565b806376be6b2b146106e357806379ba5097146106f85780638456cb591461070d57610375565b80633f4ba83a116102ab57806363d6ac1f116102495780636adf0c27116102235780636adf0c27146106275780636cea50a11461063c57806370d7a0e71461065157806374711285146106ce57610375565b806363d6ac1f146105e857806365fbf8a0146105fd578063691901e01461061257610375565b806353f4db011161028557806353f4db011461059457806355dd574c146105a957806358a687ec146105be5780635c975abb146105d357610375565b80633f4ba83a14610539578063521eb2731461054e57806353bf5af41461057f57610375565b806316b42ec211610318578063238b6d40116102f2578063238b6d40146104e5578063297aeb83146104fa5780632b925b251461050f578063338dbf591461052457610375565b806316b42ec2146104a65780631b56ea7e146104bb57806322c5d0b2146104d057610375565b80630dfd0e73116103545780630dfd0e73146104525780630ee13ced1461046757806310ea759f1461047c57806312aef8c31461049157610375565b806241edee146103d8578063044f9afe146103ff5780630c1d7cb61461043d575b6000546001600160a01b0316331461039557610390336109f1565b6103d6565b6040805162461bcd60e51b81526020600482015260116024820152702a3434b99034b9903a34329032b93937b960791b604482015290519081900360640190fd5b005b3480156103e457600080fd5b506103ed610c60565b60408051918252519081900360200190f35b34801561040b57600080fd5b506104296004803603602081101561042257600080fd5b5035610c68565b604080519115158252519081900360200190f35b34801561044957600080fd5b506103ed610cbf565b34801561045e57600080fd5b506103ed610cc7565b34801561047357600080fd5b506103d6610ccd565b34801561048857600080fd5b506103ed610d8d565b34801561049d57600080fd5b506103ed610d92565b3480156104b257600080fd5b506103ed610d98565b3480156104c757600080fd5b506103ed610d9e565b3480156104dc57600080fd5b506103ed610da3565b3480156104f157600080fd5b506103ed610da9565b34801561050657600080fd5b506103ed610db1565b34801561051b57600080fd5b506103ed610db6565b34801561053057600080fd5b506103d6610dbc565b34801561054557600080fd5b506103d6610e92565b34801561055a57600080fd5b50610563610f6e565b604080516001600160a01b039092168252519081900360200190f35b34801561058b57600080fd5b506103d6610f7d565b3480156105a057600080fd5b506103ed61103a565b3480156105b557600080fd5b506103d6611040565b3480156105ca57600080fd5b506103d6611113565b3480156105df57600080fd5b506104296112e8565b3480156105f457600080fd5b506103d66112f8565b34801561060957600080fd5b506103ed6113cb565b34801561061e57600080fd5b506103ed6113d3565b34801561063357600080fd5b506103ed6113d9565b34801561064857600080fd5b506104296113e1565b34801561065d57600080fd5b506104296004803603602081101561067457600080fd5b81019060208101813564010000000081111561068f57600080fd5b8201836020820111156106a157600080fd5b803590602001918460208302840111640100000000831117156106c357600080fd5b5090925090506113f1565b3480156106da57600080fd5b506103d66114a3565b3480156106ef57600080fd5b506103ed611597565b34801561070457600080fd5b506103d661159d565b34801561071957600080fd5b506103d6611660565b34801561072e57600080fd5b506103ed6117b8565b34801561074357600080fd5b506105636117bd565b34801561075857600080fd5b506103ed6117cc565b34801561076d57600080fd5b506103ed6117d4565b34801561078257600080fd5b50610429611851565b34801561079757600080fd5b506103ed611861565b3480156107ac57600080fd5b506103d6611867565b3480156107c157600080fd5b506103ed611924565b3480156107d657600080fd5b506103d661192c565b3480156107eb57600080fd5b506103d66119e9565b34801561080057600080fd5b506104296004803603602081101561081757600080fd5b50356001600160a01b0316611abc565b34801561083357600080fd5b506103d6611ad1565b34801561084857600080fd5b50610563611b8c565b34801561085d57600080fd5b506103ed611b9b565b34801561087257600080fd5b506103d6611ba1565b34801561088757600080fd5b506103ed611c74565b34801561089c57600080fd5b506103d6611c79565b6103d6600480360360208110156108bb57600080fd5b50356001600160a01b03166109f1565b3480156108d757600080fd5b506103ed611d4c565b3480156108ec57600080fd5b506103d6611d51565b34801561090157600080fd5b506103d66004803603602081101561091857600080fd5b50356001600160a01b0316611e24565b34801561093457600080fd5b506103ed611ed8565b34801561094957600080fd5b50610563611ede565b34801561095e57600080fd5b50610967611eed565b6040805160208082528351818301528351919283929083019185019080838360005b838110156109a1578181015183820152602001610989565b50505050905090810190601f1680156109ce5780820380516001836020036101000a031916815260200191505b509250505060405180910390f35b3480156109e857600080fd5b506103ed612385565b600d54600160a01b900460ff16610a4b576040805162461bcd60e51b815260206004820152601960248201527818dc9bddd914d85b1948139bdd081cdd185c9d1959081e595d603a1b604482015290519081900360640190fd5b600154600160a01b900460ff1615610a9f576040805162461bcd60e51b815260206004820152601260248201527110dbdb9d1c9858dd081a5cc814185d5cd95960721b604482015290519081900360640190fd5b6001600160a01b0381166000908152600e602052604090205460ff161515600114610b11576040805162461bcd60e51b815260206004820152601960248201527f4e6f7420612077686974656c6973746564496e766573746f7200000000000000604482015290519081900360640190fd5b600d54600160b81b900460ff1615610b65576040805162461bcd60e51b815260206004820152601260248201527110dbdb9d1c9858dd081a5cc814185d5cd95960721b604482015290519081900360640190fd5b60003490506000610b99670de0b6b3a7640000610b8d6002548561238b90919063ffffffff16565b9063ffffffff6123eb16565b9050610ba481612455565b6000610baf826124bc565b9050610bba82612717565b610bc48482612ad1565b600554610bd7908463ffffffff612b9a16565b50600d546040516001600160a01b03909116903480156108fc02916000818181858888f19350505050158015610c11573d6000803e3d6000fd5b50604080518481526020810183905281516001600160a01b0387169233927f623b3804fa71d67900d064613da8f94b9617215ee90799290593e1745087ad18929081900390910190a350505050565b638f0d180081565b600080546001600160a01b03163314610cb6576040805162461bcd60e51b81526020600482015260176024820152600080516020612db5833981519152604482015290519081900360640190fd5b50600255600190565b637d2b750081565b6103e881565b6000546001600160a01b03163314610d1a576040805162461bcd60e51b81526020600482015260176024820152600080516020612db5833981519152604482015290519081900360640190fd5b600b600d8054600160a81b900460ff1690811115610d3457fe5b14610d705760405162461bcd60e51b8152600401808060200182810382526022815260200180612d706022913960400191505060405180910390fd5b600d8054600c919060ff60a81b1916600160a81b835b0217905550565b601481565b60065481565b600a5481565b600f81565b600c5481565b639502f90081565b600a81565b61c35081565b6000546001600160a01b03163314610e09576040805162461bcd60e51b81526020600482015260176024820152600080516020612db5833981519152604482015290519081900360640190fd5b600d54600160a01b900460ff1615610e68576040805162461bcd60e51b815260206004820152601960248201527f43726f776473616c6520416c7265616479205374617274656400000000000000604482015290519081900360640190fd5b600d805460ff60a01b1916600160a01b178082556002919060ff60a81b1916600160a81b83610d86565b6000546001600160a01b03163314610edf576040805162461bcd60e51b81526020600482015260176024820152600080516020612db5833981519152604482015290519081900360640190fd5b600154600160a01b900460ff16610f36576040805162461bcd60e51b815260206004820152601660248201527510dbdb9d1c9858dd081a5cc8139bdd0814185d5cd95960521b604482015290519081900360640190fd5b6001805460ff60a01b191690556040517f7805862f689e2f13df9f062ff482ad3ad112aca9e0847911ed832e158c525b3390600090a1565b600d546001600160a01b031681565b6000546001600160a01b03163314610fca576040805162461bcd60e51b81526020600482015260176024820152600080516020612db5833981519152604482015290519081900360640190fd5b6008600d8054600160a81b900460ff1690811115610fe457fe5b146110205760405162461bcd60e51b8152600401808060200182810382526022815260200180612cb66022913960400191505060405180910390fd5b600d80546009919060ff60a81b1916600160a81b83610d86565b60055481565b6000546001600160a01b0316331461108d576040805162461bcd60e51b81526020600482015260176024820152600080516020612db5833981519152604482015290519081900360640190fd5b6003600d8054600160a81b900460ff16908111156110a757fe5b146110f9576040805162461bcd60e51b815260206004820152601b60248201527f507269766174652053616c65204469646e277420656e64207965740000000000604482015290519081900360640190fd5b600d80546004919060ff60a81b1916600160a81b83610d86565b6000546001600160a01b03163314611160576040805162461bcd60e51b81526020600482015260176024820152600080516020612db5833981519152604482015290519081900360640190fd5b600d808054600160a81b900460ff169081111561117957fe5b146111b55760405162461bcd60e51b8152600401808060200182810382526021815260200180612d4f6021913960400191505060405180910390fd5b60006111bf6117d4565b9050801561129857600354600080546040805163a9059cbb60e01b81526001600160a01b039283166004820152602481018690529051919093169263a9059cbb9260448083019360209390929083900390910190829087803b15801561122457600080fd5b505af1158015611238573d6000803e3d6000fd5b505050506040513d602081101561124e57600080fd5b5051611293576040805162461bcd60e51b815260206004820152600f60248201526e151c985b9cd9995c8811985a5b1959608a1b604482015290519081900360640190fd5b6112e5565b6040805162461bcd60e51b815260206004820152601c60248201527f5a65726f20546f6b656e73204c65667420696e20436f6e747261637400000000604482015290519081900360640190fd5b50565b600154600160a01b900460ff1681565b6000546001600160a01b03163314611345576040805162461bcd60e51b81526020600482015260176024820152600080516020612db5833981519152604482015290519081900360640190fd5b6007600d8054600160a81b900460ff169081111561135f57fe5b146113b1576040805162461bcd60e51b815260206004820181905260248201527f43726f776453616c65526f756e644f6e65204469646e277420656e6420796574604482015290519081900360640190fd5b600d80546008919060ff60a81b1916600160a81b83610d86565b638321560081565b60095481565b638917370081565b600d54600160a01b900460ff1681565b600080546001600160a01b0316331461143f576040805162461bcd60e51b81526020600482015260176024820152600080516020612db5833981519152604482015290519081900360640190fd5b8160005b81811015611496576001600e600087878581811061145d57fe5b602090810292909201356001600160a01b0316835250810191909152604001600020805460ff1916911515919091179055600101611443565b5060019150505b92915050565b6000546001600160a01b031633146114f0576040805162461bcd60e51b81526020600482015260176024820152600080516020612db5833981519152604482015290519081900360640190fd5b6001600d8054600160a81b900460ff169081111561150a57fe5b1461155c576040805162461bcd60e51b815260206004820152601960248201527f63757272656e745374616765206973206e6f7420504155534500000000000000604482015290519081900360640190fd5b600d805460ff600160b01b820416919060ff60a81b1916600160a81b838381111561158357fe5b0217905550600d805460ff60b81b19169055565b60085481565b6001546001600160a01b031633146115fc576040805162461bcd60e51b815260206004820181905260248201527f43616c6c6572206973206e6f74207468652073656c6563746564204f776e6572604482015290519081900360640190fd5b600154600080546040516001600160a01b0393841693909116917f8be0079c531659141344cd1fd0a4f28419497f9722a3daafe3b4186f6b6457e091a360018054600080546001600160a01b03199081166001600160a01b03841617909155169055565b6000546001600160a01b031633146116ad576040805162461bcd60e51b81526020600482015260176024820152600080516020612db5833981519152604482015290519081900360640190fd5b600d54600160b81b900460ff161561170c576040805162461bcd60e51b815260206004820152601a60248201527f636f6e747261637420697320616c726561647920506175736564000000000000604482015290519081900360640190fd5b600d54600160a01b900460ff1661176a576040805162461bcd60e51b815260206004820152601960248201527f43726f776473616c6520616c7265616479207374617274656400000000000000604482015290519081900360640190fd5b600d805460ff600160a81b820416919060ff60b01b1916600160b01b838381111561179157fe5b0217905550600d805460ff60a81b1916600160a81b1760ff60b81b1916600160b81b179055565b600581565b6000546001600160a01b031681565b631dcd650081565b600354604080516370a0823160e01b815230600482015290516000926001600160a01b0316916370a08231916024808301926020929190829003018186803b15801561181f57600080fd5b505afa158015611833573d6000803e3d6000fd5b505050506040513d602081101561184957600080fd5b505190505b90565b600d54600160b81b900460ff1681565b600b5481565b6000546001600160a01b031633146118b4576040805162461bcd60e51b81526020600482015260176024820152600080516020612db5833981519152604482015290519081900360640190fd5b6006600d8054600160a81b900460ff16908111156118ce57fe5b1461190a5760405162461bcd60e51b8152600401808060200182810382526022815260200180612dd56022913960400191505060405180910390fd5b600d80546007919060ff60a81b1916600160a81b83610d86565b6301312d0081565b6000546001600160a01b03163314611979576040805162461bcd60e51b81526020600482015260176024820152600080516020612db5833981519152604482015290519081900360640190fd5b600a600d8054600160a81b900460ff169081111561199357fe5b146119cf5760405162461bcd60e51b8152600401808060200182810382526024815260200180612bf56024913960400191505060405180910390fd5b600d8054600b919060ff60a81b1916600160a81b83610d86565b6000546001600160a01b03163314611a36576040805162461bcd60e51b81526020600482015260176024820152600080516020612db5833981519152604482015290519081900360640190fd5b6005600d8054600160a81b900460ff1690811115611a5057fe5b14611aa2576040805162461bcd60e51b815260206004820152601760248201527f5072652053616c65204469646e277420656e6420796574000000000000000000604482015290519081900360640190fd5b600d80546006919060ff60a81b1916600160a81b83610d86565b600e6020526000908152604090205460ff1681565b6000546001600160a01b03163314611b1e576040805162461bcd60e51b81526020600482015260176024820152600080516020612db5833981519152604482015290519081900360640190fd5b600c600d8054600160a81b900460ff1690811115611b3857fe5b14611b745760405162461bcd60e51b8152600401808060200182810382526023815260200180612d926023913960400191505060405180910390fd5b600d8054819060ff60a81b1916600160a81b82610d86565b6001546001600160a01b031681565b60075481565b6000546001600160a01b03163314611bee576040805162461bcd60e51b81526020600482015260176024820152600080516020612db5833981519152604482015290519081900360640190fd5b6009600d8054600160a81b900460ff1690811115611c0857fe5b14611c5a576040805162461bcd60e51b815260206004820181905260248201527f43726f776453616c65526f756e6454776f204469646e277420656e6420796574604482015290519081900360640190fd5b600d8054600a919060ff60a81b1916600160a81b83610d86565b601981565b6000546001600160a01b03163314611cc6576040805162461bcd60e51b81526020600482015260176024820152600080516020612db5833981519152604482015290519081900360640190fd5b6002600d8054600160a81b900460ff1690811115611ce057fe5b14611d32576040805162461bcd60e51b815260206004820152601a60248201527f43726f776473616c65206469646e277420537461727420796574000000000000604482015290519081900360640190fd5b600d80546003919060ff60a81b1916600160a81b83610d86565b600081565b6000546001600160a01b03163314611d9e576040805162461bcd60e51b81526020600482015260176024820152600080516020612db5833981519152604482015290519081900360640190fd5b6004600d8054600160a81b900460ff1690811115611db857fe5b14611e0a576040805162461bcd60e51b815260206004820152601960248201527f5072652053616c65206469646e27742053746172742079657400000000000000604482015290519081900360640190fd5b600d80546005919060ff60a81b1916600160a81b83610d86565b6000546001600160a01b03163314611e71576040805162461bcd60e51b81526020600482015260176024820152600080516020612db5833981519152604482015290519081900360640190fd5b6001600160a01b038116611eb65760405162461bcd60e51b815260040180806020018281038252602e815260200180612d21602e913960400191505060405180910390fd5b600180546001600160a01b0319166001600160a01b0392909216919091179055565b60045481565b6003546001600160a01b031681565b60606002600d8054600160a81b900460ff1690811115611f0957fe5b1415611f3e5750604080518082019091526012815271141c9a5d985d194814d85b194814dd185c9d60721b602082015261184e565b6003600d8054600160a81b900460ff1690811115611f5857fe5b1415611f8b575060408051808201909152601081526f141c9a5d985d194814d85b1948115b9960821b602082015261184e565b6004600d8054600160a81b900460ff1690811115611fa557fe5b1415611fd7575060408051808201909152600f81526e141c995cd85b194814dd185c9d1959608a1b602082015261184e565b6005600d8054600160a81b900460ff1690811115611ff157fe5b1415612021575060408051808201909152600d81526c141c995cd85b1948115b991959609a1b602082015261184e565b6006600d8054600160a81b900460ff169081111561203b57fe5b141561207b575060408051808201909152601b81527f43726f776453616c6520526f756e64204f6e6520537461727465640000000000602082015261184e565b6007600d8054600160a81b900460ff169081111561209557fe5b14156120d5575060408051808201909152601781527f43726f776453616c6520526f756e64204f6e6520456e64000000000000000000602082015261184e565b6008600d8054600160a81b900460ff16908111156120ef57fe5b141561212f575060408051808201909152601b81527f43726f776453616c6520526f756e642054776f20537461727465640000000000602082015261184e565b6009600d8054600160a81b900460ff169081111561214957fe5b1415612189575060408051808201909152601781527f43726f776453616c6520526f756e642054776f20456e64000000000000000000602082015261184e565b600a600d8054600160a81b900460ff16908111156121a357fe5b14156121e3575060408051808201909152601d81527f43726f776453616c6520526f756e642054687265652053746172746564000000602082015261184e565b600b600d8054600160a81b900460ff16908111156121fd57fe5b141561223d575060408051808201909152601981527f43726f776453616c6520526f756e6420546872656520456e6400000000000000602082015261184e565b600c600d8054600160a81b900460ff169081111561225757fe5b1415612297575060408051808201909152601c81527f43726f776453616c6520526f756e6420466f7572205374617274656400000000602082015261184e565b600d808054600160a81b900460ff16908111156122b057fe5b14156122f0575060408051808201909152601881527f43726f776453616c6520526f756e6420466f757220456e640000000000000000602082015261184e565b6001600d8054600160a81b900460ff169081111561230a57fe5b141561233357506040805180820190915260068152651c185d5cd95960d21b602082015261184e565b6000600d8054600160a81b900460ff169081111561234d57fe5b141561184e575060408051808201909152601581527410dc9bddd914d85b1948139bdd0814dd185c9d1959605a1b602082015261184e565b60025481565b60008261239a5750600061149d565b828202828482816123a757fe5b04146123e45760405162461bcd60e51b8152600401808060200182810382526021815260200180612d006021913960400191505060405180910390fd5b9392505050565b6000808211612441576040805162461bcd60e51b815260206004820152601a60248201527f536166654d6174683a206469766973696f6e206279207a65726f000000000000604482015290519081900360640190fd5b600082848161244c57fe5b04949350505050565b61c350811015801561246b57506301312d008111155b6112e5576040805162461bcd60e51b815260206004820152601b60248201527f5f70726556616c69646174655075726368617365206661696c65640000000000604482015290519081900360640190fd5b600d54600090600160a01b900460ff16612519576040805162461bcd60e51b815260206004820152601960248201527818dc9bddd914d85b1948139bdd081cdd185c9d1959081e595d603a1b604482015290519081900360640190fd5b60008080806002600d8054600160a81b900460ff169081111561253857fe5b14156125aa576125646064610b8d60196125588a8463ffffffff6123eb16565b9063ffffffff61238b16565b9350612578846103e863ffffffff61238b16565b92506125916103e861255888606463ffffffff6123eb16565b91506125a3838363ffffffff612b9a16565b905061270e565b6004600d8054600160a81b900460ff16908111156125c457fe5b14156125e4576125646064610b8d60196125588a8463ffffffff6123eb16565b6006600d8054600160a81b900460ff16908111156125fe57fe5b141561261e576125646064610b8d60196125588a8463ffffffff6123eb16565b6008600d8054600160a81b900460ff169081111561263857fe5b1415612658576125646064610b8d60196125588a8463ffffffff6123eb16565b600a600d8054600160a81b900460ff169081111561267257fe5b1415612692576125646064610b8d60196125588a8463ffffffff6123eb16565b600c600d8054600160a81b900460ff16908111156126ac57fe5b141561270e576126cc6064610b8d60196125588a8463ffffffff6123eb16565b93506126e0846103e863ffffffff61238b16565b92506126f96103e861255888606463ffffffff6123eb16565b915061270b838363ffffffff612b9a16565b90505b95945050505050565b6002600d8054600160a81b900460ff169081111561273157fe5b14156127a857600754639502f90090612750908363ffffffff612b9a16565b111561278d5760405162461bcd60e51b8152600401808060200182810382526022815260200180612c946022913960400191505060405180910390fd5b6007546127a0908263ffffffff612b9a16565b6007556112e5565b6004600d8054600160a81b900460ff16908111156127c257fe5b141561284f57600854638f0d1800906127e1908363ffffffff612b9a16565b1115612834576040805162461bcd60e51b815260206004820152601e60248201527f50726553616c65537461727420636f6e646974696f6e73204661696c65640000604482015290519081900360640190fd5b600854612847908263ffffffff612b9a16565b6008556112e5565b6006600d8054600160a81b900460ff169081111561286957fe5b14156128e057600954638917370090612888908363ffffffff612b9a16565b11156128c55760405162461bcd60e51b8152600401808060200182810382526028815260200180612cd86028913960400191505060405180910390fd5b6009546128d8908263ffffffff612b9a16565b6009556112e5565b6008600d8054600160a81b900460ff16908111156128fa57fe5b141561297157600a54638321560090612919908363ffffffff612b9a16565b11156129565760405162461bcd60e51b8152600401808060200182810382526028815260200180612c6c6028913960400191505060405180910390fd5b600a54612969908263ffffffff612b9a16565b600a556112e5565b600a600d8054600160a81b900460ff169081111561298b57fe5b1415612a0257600b54637d2b7500906129aa908363ffffffff612b9a16565b11156129e75760405162461bcd60e51b815260040180806020018281038252602a815260200180612c19602a913960400191505060405180910390fd5b600b546129fa908263ffffffff612b9a16565b600b556112e5565b600c600d8054600160a81b900460ff1690811115612a1c57fe5b1415612a9357600c54639502f90090612a3b908363ffffffff612b9a16565b1115612a785760405162461bcd60e51b8152600401808060200182810382526029815260200180612c436029913960400191505060405180910390fd5b600c54612a8b908263ffffffff612b9a16565b600c556112e5565b6040805162461bcd60e51b815260206004820152600e60248201526d4e6f206163746976652053616c6560901b604482015290519081900360640190fd5b6003546040805163a9059cbb60e01b81526001600160a01b038581166004830152602482018590529151919092169163a9059cbb9160448083019260209291908290030181600087803b158015612b2757600080fd5b505af1158015612b3b573d6000803e3d6000fd5b505050506040513d6020811015612b5157600080fd5b5051612b96576040805162461bcd60e51b815260206004820152600f60248201526e151c985b9cd9995c8811985a5b1959608a1b604482015290519081900360640190fd5b5050565b6000828201838110156123e4576040805162461bcd60e51b815260206004820152601b60248201527f536166654d6174683a206164646974696f6e206f766572666c6f770000000000604482015290519081900360640190fdfe43726f776453616c65526f756e645468726565204469646e27742073746172742079657443726f776453616c65526f756e645468726565537461727420636f6e646974696f6e73204661696c656443726f776453616c65526f756e64466f7572537461727420636f6e646974696f6e73204661696c656443726f776453616c65526f756e6454776f537461727420636f6e646974696f6e73204661696c65645072697661746553616c65537461727420636f6e646974696f6e73204661696c656443726f776453616c65526f756e6454776f204469646e27742073746172742079657443726f776453616c65526f756e644f6e65537461727420636f6e646974696f6e73204661696c6564536166654d6174683a206d756c7469706c69636174696f6e206f766572666c6f77496e76616c696420416464726573733a204e6577206f776e657220697320746865207a65726f206164647265737343726f776453616c65526f756e64466f7572206469646e277420656e642079657443726f776453616c65526f756e645468726565204469646e277420656e642079657443726f776453616c65526f756e64466f7572204469646e27742073746172742079657443616c6c6572206973204e6f7420746865204f574e455200000000000000000043726f776453616c65526f756e644f6e65204469646e277420737461727420796574a265627a7a7231582035640d3bc9246b0d93684ec623708b0d239198340213851ad54c145468857fcd64736f6c63430005100032",
  "source": "pragma solidity 0.5.16;\n\n\n//import \"@openzeppelin/contracts/ownership/Ownable.sol\";\n// import \"@openzeppelin/contracts/math/SafeMath.sol\";\n// import \"@openzeppelin/contracts/lifecycle/Pausable.sol\";\n\ninterface Swan{\n    function transfer (address, uint256) external returns (bool);\n    function balanceOf(address) external view returns (uint256);\n}\n\ncontract Owned {\n\n    address public owner;\n    address public newOwner;\n\n    event OwnershipTransferred(address indexed from, address indexed _to);\n\n    constructor(address _owner) public {\n        owner = _owner;\n    }\n\n    modifier onlyOwner {\n        require(msg.sender == owner,\"Caller is Not the OWNER\");\n        _;\n    }\n\n    function transferOwnership(address newOwnerAddress) external onlyOwner {\n        require(newOwnerAddress != address(0), \"Invalid Address: New owner is the zero address\");\n        newOwner = newOwnerAddress;\n    }\n    function acceptOwnership() external {\n        require(msg.sender == newOwner,\"Caller is not the selected Owner\");\n        emit OwnershipTransferred(owner, newOwner);\n        owner = newOwner;\n        newOwner = address(0);\n    }\n}\n\ncontract Pausable is Owned {\n    event Pause();\n    event Unpause();\n\n    bool public paused = false;\n\n    modifier whenNotPaused() {\n      require(!paused,\"Contract is Paused\");\n      _;\n    }\n\n    modifier whenPaused() {\n      require(paused,\"Contract is Not Paused\");\n      _;\n    }\n\n    function pause() onlyOwner whenNotPaused external {\n      paused = true;\n      emit Pause();\n    }\n\n    function unpause() onlyOwner whenPaused external {\n      paused = false;\n      emit Unpause();\n    }\n}\n\n\n/**\n * @dev Wrappers over Solidity's arithmetic operations with added overflow\n * checks.\n *\n * Arithmetic operations in Solidity wrap on overflow. This can easily result\n * in bugs, because programmers usually assume that an overflow raises an\n * error, which is the standard behavior in high level programming languages.\n * `SafeMath` restores this intuition by reverting the transaction when an\n * operation overflows.\n *\n * Using this library instead of the unchecked operations eliminates an entire\n * class of bugs, so it's recommended to use it always.\n */\nlibrary SafeMath {\n    /**\n     * @dev Returns the addition of two unsigned integers, reverting on\n     * overflow.\n     *\n     * Counterpart to Solidity's `+` operator.\n     *\n     * Requirements:\n     * - Addition cannot overflow.\n     */\n    function add(uint256 a, uint256 b) internal pure returns (uint256) {\n        uint256 c = a + b;\n        require(c >= a, \"SafeMath: addition overflow\");\n\n        return c;\n    }\n\n    /**\n     * @dev Returns the subtraction of two unsigned integers, reverting on\n     * overflow (when the result is negative).\n     *\n     * Counterpart to Solidity's `-` operator.\n     *\n     * Requirements:\n     * - Subtraction cannot overflow.\n     */\n    function sub(uint256 a, uint256 b) internal pure returns (uint256) {\n        require(b <= a, \"SafeMath: subtraction overflow\");\n        uint256 c = a - b;\n\n        return c;\n    }\n\n    /**\n     * @dev Returns the multiplication of two unsigned integers, reverting on\n     * overflow.\n     *\n     * Counterpart to Solidity's `*` operator.\n     *\n     * Requirements:\n     * - Multiplication cannot overflow.\n     */\n    function mul(uint256 a, uint256 b) internal pure returns (uint256) {\n        // Gas optimization: this is cheaper than requiring 'a' not being zero, but the\n        // benefit is lost if 'b' is also tested.\n        // See: https://github.com/OpenZeppelin/openzeppelin-solidity/pull/522\n        if (a == 0) {\n            return 0;\n        }\n\n        uint256 c = a * b;\n        require(c / a == b, \"SafeMath: multiplication overflow\");\n\n        return c;\n    }\n\n    /**\n     * @dev Returns the integer division of two unsigned integers. Reverts on\n     * division by zero. The result is rounded towards zero.\n     *\n     * Counterpart to Solidity's `/` operator. Note: this function uses a\n     * `revert` opcode (which leaves remaining gas untouched) while Solidity\n     * uses an invalid opcode to revert (consuming all remaining gas).\n     *\n     * Requirements:\n     * - The divisor cannot be zero.\n     */\n    function div(uint256 a, uint256 b) internal pure returns (uint256) {\n        // Solidity only automatically asserts when dividing by 0\n        require(b > 0, \"SafeMath: division by zero\");\n        uint256 c = a / b;\n        // assert(a == b * c + a % b); // There is no case in which this doesn't hold\n\n        return c;\n    }\n\n}\n\n\ncontract Crowdsale is Pausable { \n\n  using SafeMath for uint256;\n  uint256 public ethPrice; // 1 Ether price in USD cents.\n\n  Swan public token;\n\n  uint256 public hardCap = 0; \n  uint256 public constant softCap = 500000000; // in cents \n\n  //total tokens for sale \n  uint256 public totalWeiRaised;\n  uint256 public tokensForSale = 140000000000 ether;\n\n  // tokens sold in each round of sale \n  uint256 public privateSaletokenSold = 0;\n  uint256 public preSaleTokensSold = 0;\n  uint256 public crowdSaleRoundOne = 0;\n  uint256 public crowdSaleRoundTwo = 0;\n  uint256 public crowdSaleRoundThree = 0;\n  uint256 public crowdSaleRoundFour = 0;\n\n  // tokenSoldLimit in rounds\n  uint256 public constant privateSaletokenLimit = 2500000000;\n  uint256 public constant preSaleTokensLimit = 2400000000;\n  uint256 public constant crowdSaleRoundOneLimit = 2300000000;\n  uint256 public constant crowdSaleRoundTwoLimit = 2200000000;\n  uint256 public constant crowdSaleRoundThreeLimit = 2100000000;\n  uint256 public constant crowdSaleRoundFourLimit = 2500000000;\n  \n  // Address where funds are collected\n  address  payable public  wallet;\n\n  uint256 public constant bonusPercentPrivateSale  = 25;\n  uint256 public constant bonusPercentPreSale = 20;\n  uint256 public constant bonusPercentRoudOne = 15;\n  uint256 public constant bonusPercentRoudTwo = 10;\n  uint256 public constant bonusPercentRoudThree = 5;\n  uint256 public constant bonusPercentRoudFour = 0;  \n\n  // user limit\n  uint256 public constant minimumInvestment = 50000;\n  uint256 public constant maximumInvestment = 20000000;\n  uint256 public constant tokensInOneDollar = 1000;\n\n  bool public crowdSaleStarted = false;\n\n  enum Stages {CrowdSaleNotStarted, Pause, PrivateSaleStart,PrivateSaleEnd, PreSaleStart, PreSaleEnd, CrowdSaleRoundOneStart,CrowdSaleRoundOneEnd, CrowdSaleRoundTwoStart, CrowdSaleRoundTwoEnd, CrowdSaleRoundThreeStart, CrowdSaleRoundThreeEnd, CrowdSaleRoundFourStart, CrowdSaleRoundFourEnd}\n\n  Stages currentStage;\n  Stages previousStage;\n  bool public Paused;\n\n   // adreess vs state mapping (1 for exists , zero default);\n   mapping (address => bool) public whitelistedContributors;\n\n  \n   modifier CrowdsaleStarted(){\n\n      require(crowdSaleStarted,\"crowdSale Not started yet\");\n      _;\n   }\n \n    /**\n    * Event for token purchase logging\n    * @param purchaser who paid for the tokens\n    * @param beneficiary who got the tokens\n    * @param value weis paid for purchase\n    * @param amount amount of tokens purchased\n    */\n    event TokenPurchase(address indexed purchaser, address indexed beneficiary, uint256 value, uint256 amount);\n\n    /**\n    *@dev initializes the crowdsale contract \n    * @param _newOwner Address who has special power to change the ether price in cents according to the market price\n    * @param _wallet Address where collected funds will be forwarded to\n    * @param _token Address of the token being sold\n    *  @param _ethPriceInCents ether price in cents\n    */\n    constructor(address _newOwner, address payable _wallet, Swan _token,uint256 _ethPriceInCents) Owned(_newOwner) public {\n        wallet = _wallet;\n        owner = _newOwner;\n        token = _token;\n        ethPrice = _ethPriceInCents; //ethPrice in cents\n        currentStage = Stages.CrowdSaleNotStarted;\n    }\n    \n    /**\n    * @dev fallback function ***DO NOT OVERRIDE***\n    */\n    function () external payable {\n     if(msg.sender != owner){\n        buyTokens(msg.sender); \n     }\n     else{\n     revert(\"This is the error\");\n     }\n     \n    }\n    function getSwanTokenBalance() public view returns(uint256){\n      return Swan(token).balanceOf(address(this));\n    }\n    /**\n    * @dev whitelist addresses of investors.\n    * @param addrs ,array of addresses of investors to be whitelisted\n    * Note:= Array length must be less than 200.\n    */\n    function authorizeKyc(address[] calldata addrs) external onlyOwner returns (bool success) {\n        uint arrayLength = addrs.length;\n        for (uint x = 0; x < arrayLength; x++) \n        {\n            whitelistedContributors[addrs[x]] = true;\n        }\n        return true;\n    }\n    \n    /**\n    * @dev calling this function will pause the sale\n    */\n    \n    function pause() external onlyOwner {\n      require(!Paused,\"contract is already Paused\");\n      require(crowdSaleStarted,\"Crowdsale already started\");\n      previousStage=currentStage;\n      currentStage=Stages.Pause;\n      Paused = true;\n    }\n  \n    function restartSale() external onlyOwner {\n      require(currentStage == Stages.Pause,\"currentStage is not PAUSE\");\n      currentStage=previousStage;\n      Paused = false;\n    }\n\n    function startPrivateSale() external onlyOwner {\n      require(!crowdSaleStarted,\"Crowdsale Already Started\");\n      crowdSaleStarted = true;\n      currentStage = Stages.PrivateSaleStart;\n    }\n\n    function endPrivateSale() external onlyOwner {\n\n      require(currentStage == Stages.PrivateSaleStart,\"Crowdsale didn't Start yet\");\n      currentStage = Stages.PrivateSaleEnd;\n\n    }\n\n    function startPreSale() external onlyOwner {\n\n    require(currentStage == Stages.PrivateSaleEnd,\"Private Sale Didn't end yet\");\n    currentStage = Stages.PreSaleStart;\n   \n    }\n\n    function endPreSale() external onlyOwner {\n\n    require(currentStage == Stages.PreSaleStart,\"Pre Sale didn't Start yet\");\n    currentStage = Stages.PreSaleEnd;\n   \n    }\n\n    function startCrowdSaleRoundOne() external onlyOwner {\n\n    require(currentStage == Stages.PreSaleEnd,\"Pre Sale Didn't end yet\");\n    currentStage = Stages.CrowdSaleRoundOneStart;\n\n    }\n\n    function endCrowdSaleRoundOne() external onlyOwner {\n\n    require(currentStage == Stages.CrowdSaleRoundOneStart,\"CrowdSaleRoundOne Didn't start yet\");\n    currentStage = Stages.CrowdSaleRoundOneEnd;\n\n    }\n\n    function startCrowdSaleRoundTwo() external onlyOwner {\n\n    require(currentStage == Stages.CrowdSaleRoundOneEnd,\"CrowdSaleRoundOne Didn't end yet\");\n    currentStage = Stages.CrowdSaleRoundTwoStart;\n\n    }\n\n    function endCrowdSaleRoundTwo() external onlyOwner {\n\n    require(currentStage == Stages.CrowdSaleRoundTwoStart,\"CrowdSaleRoundTwo Didn't start yet\");\n    currentStage = Stages.CrowdSaleRoundTwoEnd;\n\n    }\n\n    function startCrowdSaleRoundThree() external onlyOwner {\n\n    require(currentStage == Stages.CrowdSaleRoundTwoEnd,\"CrowdSaleRoundTwo Didn't end yet\");\n    currentStage = Stages.CrowdSaleRoundThreeStart;\n\n    }\n\n    function endCrowdSaleRoundThree() external onlyOwner {\n\n    require(currentStage == Stages.CrowdSaleRoundThreeStart,\"CrowdSaleRoundThree Didn't start yet\");\n    currentStage = Stages.CrowdSaleRoundThreeEnd;\n\n    }\n\n    function startCrowdSaleRoundFour() external onlyOwner {\n\n    require(currentStage == Stages.CrowdSaleRoundThreeEnd,\"CrowdSaleRoundThree Didn't end yet\");\n    currentStage = Stages.CrowdSaleRoundFourStart;\n\n    }\n\n    function endCrowdSaleRoundFour() external onlyOwner {\n\n    require(currentStage == Stages.CrowdSaleRoundFourStart,\"CrowdSaleRoundFour Didn't start yet\");\n    currentStage = Stages.CrowdSaleRoundFourEnd;\n\n    }\n\n    function getStage() external view returns (string memory) {\n    if (currentStage == Stages.PrivateSaleStart) return 'Private Sale Start';\n    else if (currentStage == Stages.PrivateSaleEnd) return 'Private Sale End';\n    else if (currentStage == Stages.PreSaleStart) return 'Presale Started';\n    else if (currentStage == Stages.PreSaleEnd) return 'Presale Ended';\n    else if (currentStage == Stages.CrowdSaleRoundOneStart) return 'CrowdSale Round One Started';\n    else if (currentStage == Stages.CrowdSaleRoundOneEnd) return 'CrowdSale Round One End';\n    else if (currentStage == Stages.CrowdSaleRoundTwoStart) return 'CrowdSale Round Two Started';\n    else if (currentStage == Stages.CrowdSaleRoundTwoEnd) return 'CrowdSale Round Two End';\n    else if (currentStage == Stages.CrowdSaleRoundThreeStart) return 'CrowdSale Round Three Started';\n    else if (currentStage == Stages.CrowdSaleRoundThreeEnd) return 'CrowdSale Round Three End';\n    else if (currentStage == Stages.CrowdSaleRoundFourStart) return 'CrowdSale Round Four Started';    \n    else if (currentStage == Stages.CrowdSaleRoundFourEnd) return 'CrowdSale Round Four End';   \n    else if (currentStage == Stages.Pause) return 'paused';\n    else if (currentStage == Stages.CrowdSaleNotStarted) return 'CrowdSale Not Started';    \n    }\n    \n   /**\n   * @dev sets the value of ether price in cents.Can be called only by the owner account.\n   * @param _ethPriceInCents price in cents .\n   */\n   function setEthPriceInCents(uint _ethPriceInCents) onlyOwner external returns(bool) {\n        ethPrice = _ethPriceInCents;\n        return true;\n    }\n\n   /**\n   * @param _beneficiary Address performing the token purchase\n   */\n   function buyTokens(address _beneficiary) CrowdsaleStarted whenNotPaused public payable {\n\n    require(whitelistedContributors[_beneficiary] == true, \"Not a whitelistedInvestor\");\n    require(!Paused, \"Contract is Paused\");\n    uint256 weiAmount = msg.value;\n    uint256 usdCents = weiAmount.mul(ethPrice).div(1 ether); \n\n    _preValidatePurchase(usdCents);\n\n    uint256 tokens = _getTokenAmount(usdCents);\n\n    _validateTokenCapLimits(usdCents);\n\n    _processPurchase(_beneficiary,tokens);\n\n    totalWeiRaised.add(weiAmount);\n    wallet.transfer(msg.value);\n\n    emit TokenPurchase(msg.sender, _beneficiary, weiAmount, tokens);\n   }\n  \n   /**\n   * @dev Validation of an incoming purchase. Use require statemens to revert state when conditions are not met. Use super to concatenate validations.\n   * @param _usdCents Value in usdincents involved in the purchase\n   */\n   function _preValidatePurchase(uint256 _usdCents) internal pure { \n      require(_usdCents >= minimumInvestment && _usdCents <= maximumInvestment,\"_preValidatePurchase failed\");\n    }\n    \n    /**\n    * @dev Validation of the capped restrictions.\n    * @param _tokenValue amount\n    */\n    function _validateTokenCapLimits(uint256 _tokenValue) internal {\n     \n    if (currentStage == Stages.PrivateSaleStart) {\n        \n        require(privateSaletokenSold.add(_tokenValue) <= privateSaletokenLimit,\"PrivateSaleStart conditions Failed\");\n        privateSaletokenSold = privateSaletokenSold.add(_tokenValue);\n        \n    }\n\n    else if (currentStage == Stages.PreSaleStart) {\n        \n        require(preSaleTokensSold.add(_tokenValue) <= preSaleTokensLimit,\"PreSaleStart conditions Failed\");\n        preSaleTokensSold = preSaleTokensSold.add(_tokenValue);\n        \n    }\n\n    else if (currentStage == Stages.CrowdSaleRoundOneStart) {\n        \n        require(crowdSaleRoundOne.add(_tokenValue) <= crowdSaleRoundOneLimit,\"CrowdSaleRoundOneStart conditions Failed\");\n        crowdSaleRoundOne = crowdSaleRoundOne.add(_tokenValue);        \n        \n    }\n\n    else if (currentStage == Stages.CrowdSaleRoundTwoStart) {\n        \n        require(crowdSaleRoundTwo.add(_tokenValue) <= crowdSaleRoundTwoLimit,\"CrowdSaleRoundTwoStart conditions Failed\");\n        crowdSaleRoundTwo = crowdSaleRoundTwo.add(_tokenValue);        \n        \n    }\n\n    else if (currentStage == Stages.CrowdSaleRoundThreeStart) {\n        \n        require(crowdSaleRoundThree.add(_tokenValue) <= crowdSaleRoundThreeLimit,\"CrowdSaleRoundThreeStart conditions Failed\");\n        crowdSaleRoundThree = crowdSaleRoundThree.add(_tokenValue);        \n        \n    }\n\n    else if (currentStage == Stages.CrowdSaleRoundFourStart) {\n        \n        require(crowdSaleRoundFour.add(_tokenValue) <= crowdSaleRoundFourLimit,\"CrowdSaleRoundFourStart conditions Failed\");\n        crowdSaleRoundFour = crowdSaleRoundFour.add(_tokenValue);        \n\n    }    \n\n    else { revert(\"No active Sale\");}\n\n   }\n   /**\n   * @dev Executed when a purchase has been validated and is ready to be executed. Not necessarily emits/sends tokens.\n   * @param _beneficiary Address receiving the tokens\n   * @param _tokenAmount Number of tokens to be purchased\n   */\n   function _processPurchase(address _beneficiary, uint256 _tokenAmount) internal {\n    require(token.transfer(_beneficiary, _tokenAmount),\"Transfer Failed\");\n   }\n    /**\n    * @param _usdCents Value in usd cents to be converted into tokens\n    * @return Number of tokens that can be purchased with the specified _usdCents\n    */\n    function _getTokenAmount(uint256 _usdCents) CrowdsaleStarted internal view returns (uint256) {\n\n         uint256 bonusUSD;\n         uint256 bonusTokens;\n         uint256 actualTokens;\n         uint256 totalTokens;\n\n     \n      if (currentStage == Stages.PrivateSaleStart) {\n         \n\n         bonusUSD = (_usdCents.div(100)).mul(25).div(100);\n         bonusTokens = bonusUSD.mul(tokensInOneDollar);\n         actualTokens = _usdCents.div(100).mul(tokensInOneDollar);\n         totalTokens = bonusTokens.add(actualTokens);\n\n\n      }\n      else if (currentStage == Stages.PreSaleStart) {\n\n         bonusUSD = (_usdCents.div(100)).mul(25).div(100);\n         bonusTokens = bonusUSD.mul(tokensInOneDollar);\n         actualTokens = _usdCents.div(100).mul(tokensInOneDollar);\n         totalTokens = bonusTokens.add(actualTokens); \n         \n      }\n      else if (currentStage == Stages.CrowdSaleRoundOneStart) {\n\n         bonusUSD = (_usdCents.div(100)).mul(25).div(100);\n         bonusTokens = bonusUSD.mul(tokensInOneDollar);\n         actualTokens = _usdCents.div(100).mul(tokensInOneDollar);\n         totalTokens = bonusTokens.add(actualTokens);\n         \n      }\n      else if (currentStage == Stages.CrowdSaleRoundTwoStart) {\n\n         bonusUSD = (_usdCents.div(100)).mul(25).div(100);\n         bonusTokens = bonusUSD.mul(tokensInOneDollar);\n         actualTokens = _usdCents.div(100).mul(tokensInOneDollar);\n         totalTokens = bonusTokens.add(actualTokens);\n      }\n      else if (currentStage == Stages.CrowdSaleRoundThreeStart) {\n\n         bonusUSD = (_usdCents.div(100)).mul(25).div(100);\n         bonusTokens = bonusUSD.mul(tokensInOneDollar);\n         actualTokens = _usdCents.div(100).mul(tokensInOneDollar);\n         totalTokens = bonusTokens.add(actualTokens);         \n\n      }\n      else if (currentStage == Stages.CrowdSaleRoundFourStart) {\n\n         bonusUSD = (_usdCents.div(100)).mul(25).div(100);\n         bonusTokens = bonusUSD.mul(tokensInOneDollar);\n         actualTokens = _usdCents.div(100).mul(tokensInOneDollar);\n         totalTokens = bonusTokens.add(actualTokens);         \n\n      }\n      return totalTokens;\n  }\n    \n    /**\n    * @dev finalize the crowdsale.After finalizing ,tokens transfer can be done.\n    */\n    function finalizeSale() public  onlyOwner {\n        require(currentStage == Stages.CrowdSaleRoundFourEnd,\"CrowdSaleRoundFour didn't end yet\");\n        uint256 availableTokens = getSwanTokenBalance();\n        if(availableTokens > 0){\n          require(token.transfer(owner, availableTokens),\"Transfer Failed\");\n        }else{\n          revert(\"Zero Tokens Left in Contract\");\n        }\n    }\n}\n",
  "sourcePath": "/home/zaryab/blockchain_begins/all_about_ethereum/quillHash_CODES/NewSwan/swan_smart_contracts/contracts/Crowdsale.sol",
  "compiler": {
    "name": "solc",
    "version": "0.5.16+commit.9c3226ce.Emscripten.clang"
  },
  "schemaVersion": "3.2.2",
  "updatedAt": "2020-12-09T09:19:01.136Z",
  "networkType": "ethereum",
  "devdoc": {
    "methods": {
      "authorizeKyc(address[])": {
        "details": "whitelist addresses of investors.",
        "params": {
          "addrs": ",array of addresses of investors to be whitelisted Note:= Array length must be less than 200."
        }
      },
      "buyTokens(address)": {
        "params": {
          "_beneficiary": "Address performing the token purchase"
        }
      },
      "constructor": {
        "params": {
          "_ethPriceInCents": "ether price in cents",
          "_newOwner": "Address who has special power to change the ether price in cents according to the market price",
          "_token": "Address of the token being sold",
          "_wallet": "Address where collected funds will be forwarded to"
        }
      },
      "finalizeSale()": {
        "details": "finalize the crowdsale.After finalizing ,tokens transfer can be done."
      },
      "pause()": {
        "details": "calling this function will pause the sale"
      },
      "setEthPriceInCents(uint256)": {
        "details": "sets the value of ether price in cents.Can be called only by the owner account.",
        "params": {
          "_ethPriceInCents": "price in cents ."
        }
      }
    }
  },
  "userdoc": {
    "methods": {
      "constructor": "dev initializes the crowdsale contract "
    }
  }
}