{
  "contractName": "Owned",
  "abi": [
    {
      "inputs": [
        {
          "internalType": "address",
          "name": "_owner",
          "type": "address"
        }
      ],
      "payable": false,
      "stateMutability": "nonpayable",
      "type": "constructor"
    },
    {
      "anonymous": false,
      "inputs": [
        {
          "indexed": true,
          "internalType": "address",
          "name": "from",
          "type": "address"
        },
        {
          "indexed": true,
          "internalType": "address",
          "name": "_to",
          "type": "address"
        }
      ],
      "name": "OwnershipTransferred",
      "type": "event"
    },
    {
      "constant": true,
      "inputs": [],
      "name": "newOwner",
      "outputs": [
        {
          "internalType": "address",
          "name": "",
          "type": "address"
        }
      ],
      "payable": false,
      "stateMutability": "view",
      "type": "function"
    },
    {
      "constant": true,
      "inputs": [],
      "name": "owner",
      "outputs": [
        {
          "internalType": "address",
          "name": "",
          "type": "address"
        }
      ],
      "payable": false,
      "stateMutability": "view",
      "type": "function"
    },
    {
      "constant": false,
      "inputs": [
        {
          "internalType": "address",
          "name": "newOwnerAddress",
          "type": "address"
        }
      ],
      "name": "transferOwnership",
      "outputs": [],
      "payable": false,
      "stateMutability": "nonpayable",
      "type": "function"
    },
    {
      "constant": false,
      "inputs": [],
      "name": "acceptOwnership",
      "outputs": [],
      "payable": false,
      "stateMutability": "nonpayable",
      "type": "function"
    }
  ],
  "bytecode": "0x608060405234801561001057600080fd5b5060405161031c38038061031c8339818101604052602081101561003357600080fd5b5051600080546001600160a01b039092166001600160a01b03199092169190911790556102b7806100656000396000f3fe608060405234801561001057600080fd5b506004361061004c5760003560e01c806379ba5097146100515780638da5cb5b1461005b578063d4ee1d901461007f578063f2fde38b14610087575b600080fd5b6100596100ad565b005b610063610170565b604080516001600160a01b039092168252519081900360200190f35b61006361017f565b6100596004803603602081101561009d57600080fd5b50356001600160a01b031661018e565b6001546001600160a01b0316331461010c576040805162461bcd60e51b815260206004820181905260248201527f43616c6c6572206973206e6f74207468652073656c6563746564204f776e6572604482015290519081900360640190fd5b600154600080546040516001600160a01b0393841693909116917f8be0079c531659141344cd1fd0a4f28419497f9722a3daafe3b4186f6b6457e091a360018054600080546001600160a01b03199081166001600160a01b03841617909155169055565b6000546001600160a01b031681565b6001546001600160a01b031681565b6000546001600160a01b031633146101ed576040805162461bcd60e51b815260206004820152601760248201527f43616c6c6572206973204e6f7420746865204f574e4552000000000000000000604482015290519081900360640190fd5b6001600160a01b0381166102325760405162461bcd60e51b815260040180806020018281038252602e815260200180610255602e913960400191505060405180910390fd5b600180546001600160a01b0319166001600160a01b039290921691909117905556fe496e76616c696420416464726573733a204e6577206f776e657220697320746865207a65726f2061646472657373a265627a7a72315820501cf41443a938eeb6c60bbb2f0729ea8c5b80de98cc6e70e61bf1a9ff62704d64736f6c63430005100032",
  "source": "pragma solidity 0.5.16;\n\ninterface ERC20 {\n\n    function transferFrom (address,address, uint256) external returns (bool);\n    function balanceOf(address) external view returns (uint256);\n    function allowance(address, address) external view returns (uint256);\n    function transfer (address, uint256) external returns (bool);\n\n}\n\ncontract Owned {\n\n    address public owner;\n    address public newOwner;\n\n    event OwnershipTransferred(address indexed from, address indexed _to);\n\n    constructor(address _owner) public {\n        owner = _owner;\n    }\n\n    modifier onlyOwner {\n        require(msg.sender == owner,\"Caller is Not the OWNER\");\n        _;\n    }\n\n    function transferOwnership(address newOwnerAddress) external onlyOwner {\n        require(newOwnerAddress != address(0), \"Invalid Address: New owner is the zero address\");\n        newOwner = newOwnerAddress;\n    }\n    function acceptOwnership() external {\n        require(msg.sender == newOwner,\"Caller is not the selected Owner\");\n        emit OwnershipTransferred(owner, newOwner);\n        owner = newOwner;\n        newOwner = address(0);\n    }\n}\n\ncontract Pausable is Owned {\n    event Pause();\n    event Unpause();\n\n    bool public paused = false;\n\n    modifier whenNotPaused() {\n      require(!paused,\"Contract is Paused\");\n      _;\n    }\n\n    modifier whenPaused() {\n      require(paused,\"Contract is Not Paused\");\n      _;\n    }\n\n    function pause() onlyOwner whenNotPaused external {\n      paused = true;\n      emit Pause();\n    }\n\n    function unpause() onlyOwner whenPaused external {\n      paused = false;\n      emit Unpause();\n    }\n}\n\n\n/**\n * @dev Wrappers over Solidity's arithmetic operations with added overflow\n * checks.\n *\n * Arithmetic operations in Solidity wrap on overflow. This can easily result\n * in bugs, because programmers usually assume that an overflow raises an\n * error, which is the standard behavior in high level programming languages.\n * `SafeMath` restores this intuition by reverting the transaction when an\n * operation overflows.\n *\n * Using this library instead of the unchecked operations eliminates an entire\n * class of bugs, so it's recommended to use it always.\n */\nlibrary SafeMath {\n    /**\n     * @dev Returns the addition of two unsigned integers, reverting on\n     * overflow.\n     *\n     * Counterpart to Solidity's `+` operator.\n     *\n     * Requirements:\n     * - Addition cannot overflow.\n     */\n    function add(uint256 a, uint256 b) internal pure returns (uint256) {\n        uint256 c = a + b;\n        require(c >= a, \"SafeMath: addition overflow\");\n\n        return c;\n    }\n\n    /**\n     * @dev Returns the subtraction of two unsigned integers, reverting on\n     * overflow (when the result is negative).\n     *\n     * Counterpart to Solidity's `-` operator.\n     *\n     * Requirements:\n     * - Subtraction cannot overflow.\n     */\n    function sub(uint256 a, uint256 b) internal pure returns (uint256) {\n        require(b <= a, \"SafeMath: subtraction overflow\");\n        uint256 c = a - b;\n\n        return c;\n    }\n\n    /**\n     * @dev Returns the multiplication of two unsigned integers, reverting on\n     * overflow.\n     *\n     * Counterpart to Solidity's `*` operator.\n     *\n     * Requirements:\n     * - Multiplication cannot overflow.\n     */\n    function mul(uint256 a, uint256 b) internal pure returns (uint256) {\n        // Gas optimization: this is cheaper than requiring 'a' not being zero, but the\n        // benefit is lost if 'b' is also tested.\n        // See: https://github.com/OpenZeppelin/openzeppelin-solidity/pull/522\n        if (a == 0) {\n            return 0;\n        }\n\n        uint256 c = a * b;\n        require(c / a == b, \"SafeMath: multiplication overflow\");\n\n        return c;\n    }\n\n    /**\n     * @dev Returns the integer division of two unsigned integers. Reverts on\n     * division by zero. The result is rounded towards zero.\n     *\n     * Counterpart to Solidity's `/` operator. Note: this function uses a\n     * `revert` opcode (which leaves remaining gas untouched) while Solidity\n     * uses an invalid opcode to revert (consuming all remaining gas).\n     *\n     * Requirements:\n     * - The divisor cannot be zero.\n     */\n    function div(uint256 a, uint256 b) internal pure returns (uint256) {\n        // Solidity only automatically asserts when dividing by 0\n        require(b > 0, \"SafeMath: division by zero\");\n        uint256 c = a / b;\n        // assert(a == b * c + a % b); // There is no case in which this doesn't hold\n\n        return c;\n    }\n\n}\n\n///@title Swan Staking Contract\ncontract SwanStake is Pausable{\n\n    using SafeMath for uint256;\n    address public swanTokenAddress;\n    uint256 public currentPrice;\n\n    constructor(address swanToken) public Owned(msg.sender) {\n    require (swanToken != address(0),\"Token Address cannot be a Zero Address\");\n    swanTokenAddress = swanToken;\n    currentPrice = 1 ether;\n  }\n  // @notice Stores STAKE ACCOUNT details of the USER\n    struct StakeAccount{\n      uint256 stakedAmount;\n      uint256 time;\n      uint256 interestRate;\n      bool unstaked;\n    }\n  // @notice Stores INTEREST ACCOUNT details of the USER\n    struct InterestAccount \n    {\n    uint256 amount;\n    uint256 time;\n    uint256 interestRate;\n    uint256 interestPayouts;\n    uint256 timeperiod;\n    bool withdrawn;\n    }\n\n  mapping(address => bool) public isStaker;\n  mapping(address => uint256) public userTotalStakes;\n  mapping (address => uint256) public interestAccountNumber;\n  mapping(address => StakeAccount) public stakeAccountDetails;\n  mapping(address=>mapping(uint256 => uint256)) public lastPayoutCall;\n  mapping(address => mapping(uint256 => uint256)) public totalPoolRewards;\n  mapping(address => mapping(uint256 => bool)) public checkCycle;\n  mapping(address => mapping (uint256 => InterestAccount)) public interestAccountDetails;\n\n\n  //  @dev emitted whenever user stakes tokens in the Stake Account\n  event staked(address indexed _user,uint256 _amount,uint256 _lockupPeriod,uint256 _interest);\n  // @dev emitted whenever user stakes tokens in the Stake Account\n  event ClaimedStakedTokens(address indexed _user,uint256 _amount);\n   // @dev emitted whenever user stakes tokens for One month LockUp period\n  event OneMonthStaked(address indexed _user,uint256 _amount,uint256 _lockupPeriod, uint256 _interest);\n   // @dev emitted whenever user stakes tokens for Three month LockUp period\n  event ThreeMonthStaked(address indexed _user,uint256 _amount,uint256 _lockupPeriod, uint256 _interest);\n   // @dev emitted whenever user's staked tokens are successfully unstaked and trasnferred back to the user\n  event ClaimedInterestTokens(address indexed _user,uint256 _amount);  \n    // @dev emitted whenever weekly token rewards are transferred to the user. \n  event TokenRewardTransferred(address indexed _user,uint256 _amount);\n \n\n  // @dev returns the current tokenBalance of the Stake Contract\n  function totalStakedTokens() external view returns(uint256){\n      return ERC20(swanTokenAddress).balanceOf(address(this));\n  }\n\n  function setPrice(uint256 price) external onlyOwner{\n    require (price > 0,\"Price Cannot be ZERO\");\n    currentPrice = price;\n  }\n  \n   /**\n      * @param _amount - the amount user wants to stake\n      * @dev allows the user to stake the initial $2000 worth of SWAN tokens\n      *      Lists the user as a valid Staker.(by adding True in the isStaker mapping) \n      *      User can earn comparatively more interest on Future stakes by calling this function\n  **/\n  function stake(uint256 _amount) external whenNotPaused returns(bool){\n    require(!isStaker[msg.sender],\"Previous Staked Amount is not Withdrawn yet\");  \n    require (_amount >= currentPrice.mul(2000),\"Staking Amount is Less Than $2000\");\n    \n    require(ERC20(swanTokenAddress).transferFrom(msg.sender,address(this),_amount),\"Token Transfer Failed\");\n  \n      stakeAccountDetails[msg.sender] = StakeAccount(\n    {\n      stakedAmount:_amount,\n      time:now,\n      interestRate:14,\n      unstaked:false\n    });\n      isStaker[msg.sender] = true;\n      userTotalStakes[msg.sender] += _amount;\n      emit staked(msg.sender,_amount,4,14);\n      return true;\n  }  \n  /**\n   *  @notice Assigns the interestRates to users investments based on their time Duration and Stake Criteria\n   *  @param  amount-  The amount user wishes to Stake\n   *  @param  duration-   The lockUp duration\n   *  @return true or false based on the function execution\n  */\n\n    function earnInterest(uint256 amount,uint256 duration) external whenNotPaused returns(bool){\n      require (amount>0,\"Amount can not be equal to ZERO\");\n      require (duration>0,\"Duration can not be Zero\");\n\n      require(ERC20(swanTokenAddress).transferFrom(msg.sender,address(this),amount),'transfer From failed');\n\n       uint256 oneMonthNum = interestAccountNumber[msg.sender].add(1);\n      if(isStaker[msg.sender]){\n\n         if(duration == 3){\n         interestAccountDetails[msg.sender][oneMonthNum] = InterestAccount(\n           {\n                amount: amount,\n                time: now,\n                interestRate : 20,\n                interestPayouts : 0,\n                timeperiod : duration,\n                withdrawn : false\n\n           }); \n         emit ThreeMonthStaked(msg.sender,amount,duration,20);\n        }else if(duration == 1){\n          interestAccountDetails[msg.sender][oneMonthNum] = InterestAccount(\n           {\n                amount: amount,\n                time: now,\n                interestRate : 16,\n                interestPayouts : 0,\n                timeperiod : duration,\n                withdrawn : false\n\n           });\n           emit OneMonthStaked(msg.sender,amount,duration,16); \n        }\n      }else{\n        if(duration == 3){\n         interestAccountDetails[msg.sender][oneMonthNum] = InterestAccount(\n           {\n                amount: amount,\n                time: now,\n                interestRate : 16,\n                interestPayouts : 0,\n                timeperiod : duration,\n                withdrawn : false\n\n           }); \n         emit ThreeMonthStaked(msg.sender,amount,duration,16);\n        }else if(duration == 1){\n          interestAccountDetails[msg.sender][oneMonthNum] = InterestAccount(\n           {\n                amount: amount,\n                time: now,\n                interestRate : 12,\n                interestPayouts : 0,\n                timeperiod : duration,\n                withdrawn : false\n\n           }); \n          emit OneMonthStaked(msg.sender,amount,duration,12);\n      }   \n    }\n    userTotalStakes[msg.sender] += amount;\n    interestAccountNumber[msg.sender] = interestAccountNumber[msg.sender].add(1);\n    return true;\n}\n    /**\n     *  @param id - the interestAccount id \n     *  @dev  allows users to claim their invested tokens for 1 or 3 months from same function\n     *        calculates the remaining interest to be transferred to the user\n     *        transfers the invested amount as well as the remaining interest to the user.\n     *        updates the user's staked balance to ZERO\n     */\n    function claimInterestTokens(uint256 id) external whenNotPaused{\n        InterestAccount memory interestData =  interestAccountDetails[msg.sender][id];\n        require (now >= interestData.time.add(interestData.timeperiod.mul(2629746)),\"Deadline is not over\"); // 2,629,746 seconds = 1 month\n        require (interestData.amount > 0,\"Invested Amount is ZERO\");\n      \n        uint256 interestAmount = interestData.amount.mul(interestData.interestRate).div(100);\n        uint256 remainingInterest = interestAmount.sub(totalPoolRewards[msg.sender][id]);\n        uint256 tokensToSend = interestData.amount.add(remainingInterest);\n        \n        require(ERC20(swanTokenAddress).transfer(msg.sender, tokensToSend),\"Token Transfer Failed\");\n        userTotalStakes[msg.sender] -= interestData.amount;\n        interestData.withdrawn = true;\n        interestData.amount = 0;\n        interestAccountDetails[msg.sender][id] = interestData;\n        emit ClaimedInterestTokens(msg.sender,tokensToSend);\n    } \n   /**\n     *  @dev  allows users to claim their staked tokens for 4 months\n     *        calculates the total interest to be transferred to the user after 4 months\n     *        transfers the staked amount as well as the remaining interest to the user.\n     *        marks the user as NON STAKER.\n     * \n     */\n  function claimStakeTokens() external whenNotPaused{\n      require(isStaker[msg.sender],\"User is not a Staker\");\n\n      StakeAccount memory stakeData = stakeAccountDetails[msg.sender];\n      require (now >= stakeData.time.add(10518984),\"LockUp Period NOT OVER Yet\"); // 10,518,984 seconds = 4 months \n      uint256 interestAmount = stakeData.stakedAmount.mul(14).div(100);\n      uint256 tokensToSend = stakeData.stakedAmount.add(interestAmount);\n      require(ERC20(swanTokenAddress).transfer(msg.sender, tokensToSend),\"Token Transfer Failed\");\n      \n      userTotalStakes[msg.sender] -= stakeData.stakedAmount;\n      isStaker[msg.sender] = false;\n      stakeData.unstaked = true;\n      stakeAccountDetails[msg.sender] = stakeData;\n      emit ClaimedStakedTokens(msg.sender,tokensToSend);\n    } \n  /**\n     *  @param id - the interestAccount id \n     *  @dev  allows users to claim their weekly interests\n     *        updates the totalRewards earned by the user on a particular investment\n     *        Total interest is divided into the number of weeks during the lockUpPeriod\n     *        The remaining weekly interests(if any) will be withdrawn at the time of claiming the particular interestAccount.\n     * \n     */\n     function payOuts (uint256 id) external returns(bool) {  \n        InterestAccount memory interestData =  interestAccountDetails[msg.sender][id];\n        require (now <= interestData.time.add(interestData.timeperiod.mul(2629746)),\"Reward Timeline is Over\");// 2,629,746 seconds = 1 month\n        require(!interestData.withdrawn,\"Amount Has already Been Withdrawn\");\n\n        uint256 preSaleCycle = getCycle(msg.sender, id);\n        require (preSaleCycle > 0,\"Cycle is not complete\");\n\n        uint256 interestAmount = interestData.amount.mul(interestData.interestRate).div(100);\n        uint256 onePercentOfInitialFund = interestAmount.div(interestData.timeperiod.mul(4));\n        \n        if(interestData.interestPayouts <= onePercentOfInitialFund.mul(preSaleCycle)) {   \n          uint256 tokenToSend = onePercentOfInitialFund.mul(preSaleCycle).sub(interestData.interestPayouts);\n          require(tokenToSend.add(totalPoolRewards[msg.sender][id]) <= interestAmount,\"Total Interest has already been given out\");\n          interestData.interestPayouts = onePercentOfInitialFund.mul(preSaleCycle);\n          require(ERC20(swanTokenAddress).transfer(msg.sender, tokenToSend),\"Token Transfer Failed\");\n          totalPoolRewards[msg.sender][id] += tokenToSend;\n          emit TokenRewardTransferred(msg.sender,tokenToSend);\n          return true;\n        }\n    }\n   /**\n     *  @notice returns the cycle for weekly payouts\n     *  @param userAddress,id - takes caller's address and interstAccount \n     *  @dev  calculates the number of week cycles passed \n     */\n    function getCycle(address userAddress, uint256 id) internal returns (uint256){\n     \n      InterestAccount memory interestData =  interestAccountDetails[userAddress][id];\n      require (interestData.amount > 0,\"Amount Withdrawn Already\");\n      uint256 cycle;\n      if(checkCycle[userAddress][id]){\n          cycle = now.sub(lastPayoutCall[userAddress][id]);\n      }else{\n          cycle = now.sub(interestData.time);\n          checkCycle[userAddress][id] = true;\n      }\n       if(cycle <= 21600)//21600 6 hours for testing \n       {\n           return 0;\n       }\n       else if (cycle > 21600)//21600 6 hours \n       {     \n        require(now.sub(lastPayoutCall[userAddress][id]) >= 21600,\"Cannot Call Before 6 hours\");\n        uint256 secondsToHours = cycle.div(21600);//21600 6 hours\n        lastPayoutCall[userAddress][id] = now;\n        return secondsToHours;\n       }\n     }\n\n    function getUserStakedAmount(address userAddress) external view returns (uint256) {\n      return userTotalStakes[userAddress];\n  }\n\n\n}\n\n\n",
  "sourcePath": "/home/zaryab/blockchain_begins/all_about_ethereum/quillHash_CODES/NewSwan/swan_smart_contracts/contracts/SwanStake.sol",
  "compiler": {
    "name": "solc",
    "version": "0.5.16+commit.9c3226ce.Emscripten.clang"
  },
  "schemaVersion": "3.2.2",
  "updatedAt": "2020-12-08T13:30:34.344Z",
  "devdoc": {
    "methods": {}
  },
  "userdoc": {
    "methods": {}
  }
}