{
  "contractName": "Owned",
  "abi": [
    {
      "inputs": [
        {
          "internalType": "address",
          "name": "_owner",
          "type": "address"
        }
      ],
      "payable": false,
      "stateMutability": "nonpayable",
      "type": "constructor"
    },
    {
      "anonymous": false,
      "inputs": [
        {
          "indexed": true,
          "internalType": "address",
          "name": "from",
          "type": "address"
        },
        {
          "indexed": true,
          "internalType": "address",
          "name": "_to",
          "type": "address"
        }
      ],
      "name": "OwnershipTransferred",
      "type": "event"
    },
    {
      "constant": true,
      "inputs": [],
      "name": "newOwner",
      "outputs": [
        {
          "internalType": "address",
          "name": "",
          "type": "address"
        }
      ],
      "payable": false,
      "stateMutability": "view",
      "type": "function"
    },
    {
      "constant": true,
      "inputs": [],
      "name": "owner",
      "outputs": [
        {
          "internalType": "address",
          "name": "",
          "type": "address"
        }
      ],
      "payable": false,
      "stateMutability": "view",
      "type": "function"
    },
    {
      "constant": false,
      "inputs": [
        {
          "internalType": "address",
          "name": "newOwnerAddress",
          "type": "address"
        }
      ],
      "name": "transferOwnership",
      "outputs": [],
      "payable": false,
      "stateMutability": "nonpayable",
      "type": "function"
    },
    {
      "constant": false,
      "inputs": [],
      "name": "acceptOwnership",
      "outputs": [],
      "payable": false,
      "stateMutability": "nonpayable",
      "type": "function"
    }
  ],
  "bytecode": "0x608060405234801561001057600080fd5b5060405161031c38038061031c8339818101604052602081101561003357600080fd5b5051600080546001600160a01b039092166001600160a01b03199092169190911790556102b7806100656000396000f3fe608060405234801561001057600080fd5b506004361061004c5760003560e01c806379ba5097146100515780638da5cb5b1461005b578063d4ee1d901461007f578063f2fde38b14610087575b600080fd5b6100596100ad565b005b610063610170565b604080516001600160a01b039092168252519081900360200190f35b61006361017f565b6100596004803603602081101561009d57600080fd5b50356001600160a01b031661018e565b6001546001600160a01b0316331461010c576040805162461bcd60e51b815260206004820181905260248201527f43616c6c6572206973206e6f74207468652073656c6563746564204f776e6572604482015290519081900360640190fd5b600154600080546040516001600160a01b0393841693909116917f8be0079c531659141344cd1fd0a4f28419497f9722a3daafe3b4186f6b6457e091a360018054600080546001600160a01b03199081166001600160a01b03841617909155169055565b6000546001600160a01b031681565b6001546001600160a01b031681565b6000546001600160a01b031633146101ed576040805162461bcd60e51b815260206004820152601760248201527f43616c6c6572206973204e6f7420746865204f574e4552000000000000000000604482015290519081900360640190fd5b6001600160a01b0381166102325760405162461bcd60e51b815260040180806020018281038252602e815260200180610255602e913960400191505060405180910390fd5b600180546001600160a01b0319166001600160a01b039290921691909117905556fe496e76616c696420416464726573733a204e6577206f776e657220697320746865207a65726f2061646472657373a265627a7a7231582072cff95d0b55a6727b2eec95805f1856ba2d08225a0ce5a20e170984c26fb80964736f6c63430005100032",
  "source": "pragma solidity 0.5.16;\n\ncontract Owned {\n    address public owner;\n    address public newOwner;\n\n    event OwnershipTransferred(address indexed from, address indexed _to);\n\n    constructor(address _owner) public {\n        owner = _owner;\n    }\n\n    modifier onlyOwner {\n        require(msg.sender == owner, \"Caller is Not the OWNER\");\n        _;\n    }\n\n    function transferOwnership(address newOwnerAddress) external onlyOwner {\n        require(\n            newOwnerAddress != address(0),\n            \"Invalid Address: New owner is the zero address\"\n        );\n        newOwner = newOwnerAddress;\n    }\n\n    function acceptOwnership() external {\n        require(msg.sender == newOwner, \"Caller is not the selected Owner\");\n        emit OwnershipTransferred(owner, newOwner);\n        owner = newOwner;\n        newOwner = address(0);\n    }\n}\n",
  "sourcePath": "/home/zaryab/blockchain_begins/all_about_ethereum/quillHash_CODES/NewSwan/swan_smart_contracts/contracts/Owned.sol",
  "compiler": {
    "name": "solc",
    "version": "0.5.16+commit.9c3226ce.Emscripten.clang"
  },
  "schemaVersion": "3.2.2",
  "updatedAt": "2020-12-10T04:38:12.167Z",
  "devdoc": {
    "methods": {}
  },
  "userdoc": {
    "methods": {}
  }
}