{
  "contractName": "Owned",
  "abi": [
    {
      "inputs": [
        {
          "internalType": "address",
          "name": "_owner",
          "type": "address"
        }
      ],
      "payable": false,
      "stateMutability": "nonpayable",
      "type": "constructor"
    },
    {
      "anonymous": false,
      "inputs": [
        {
          "indexed": true,
          "internalType": "address",
          "name": "from",
          "type": "address"
        },
        {
          "indexed": true,
          "internalType": "address",
          "name": "_to",
          "type": "address"
        }
      ],
      "name": "OwnershipTransferred",
      "type": "event"
    },
    {
      "constant": true,
      "inputs": [],
      "name": "newOwner",
      "outputs": [
        {
          "internalType": "address",
          "name": "",
          "type": "address"
        }
      ],
      "payable": false,
      "stateMutability": "view",
      "type": "function"
    },
    {
      "constant": true,
      "inputs": [],
      "name": "owner",
      "outputs": [
        {
          "internalType": "address",
          "name": "",
          "type": "address"
        }
      ],
      "payable": false,
      "stateMutability": "view",
      "type": "function"
    },
    {
      "constant": false,
      "inputs": [
        {
          "internalType": "address",
          "name": "_newOwner",
          "type": "address"
        }
      ],
      "name": "transferOwnership",
      "outputs": [],
      "payable": false,
      "stateMutability": "nonpayable",
      "type": "function"
    },
    {
      "constant": false,
      "inputs": [],
      "name": "acceptOwnership",
      "outputs": [],
      "payable": false,
      "stateMutability": "nonpayable",
      "type": "function"
    }
  ],
  "bytecode": "0x608060405234801561001057600080fd5b506040516102193803806102198339818101604052602081101561003357600080fd5b5051600080546001600160a01b039092166001600160a01b03199092169190911790556101b4806100656000396000f3fe608060405234801561001057600080fd5b506004361061004c5760003560e01c806379ba5097146100515780638da5cb5b1461005b578063d4ee1d901461007f578063f2fde38b14610087575b600080fd5b6100596100ad565b005b610063610128565b604080516001600160a01b039092168252519081900360200190f35b610063610137565b6100596004803603602081101561009d57600080fd5b50356001600160a01b0316610146565b6001546001600160a01b031633146100c457600080fd5b600154600080546040516001600160a01b0393841693909116917f8be0079c531659141344cd1fd0a4f28419497f9722a3daafe3b4186f6b6457e091a360018054600080546001600160a01b03199081166001600160a01b03841617909155169055565b6000546001600160a01b031681565b6001546001600160a01b031681565b6000546001600160a01b0316331461015d57600080fd5b600180546001600160a01b0319166001600160a01b039290921691909117905556fea265627a7a723158202cb2e773c5fa160906d32f27cef3b1e5638731e2e06a2c59824db1b5aa92f83664736f6c63430005100032",
  "source": "pragma solidity 0.5.16;\n\ncontract ERC20 {\n\n    function transferFrom (address,address, uint256) external returns (bool);\n    function balanceOf(address) public view returns (uint256);\n    function allowance(address, address) external view returns (uint256);\n    function transfer (address, uint256) external returns (bool);\n\n}\n\ncontract Owned {\n\n    address public owner;\n    address public newOwner;\n\n    event OwnershipTransferred(address indexed from, address indexed _to);\n\n    constructor(address _owner) public {\n        owner = _owner;\n    }\n\n    modifier onlyOwner {\n        require(msg.sender == owner);\n        _;\n    }\n\n    function transferOwnership(address _newOwner) public onlyOwner {\n        newOwner = _newOwner;\n    }\n    function acceptOwnership() public {\n        require(msg.sender == newOwner);\n        emit OwnershipTransferred(owner, newOwner);\n        owner = newOwner;\n        newOwner = address(0);\n    }\n}\n\ncontract Pausable is Owned {\n    event Pause();\n    event Unpause();\n\n    bool public paused = false;\n\n    modifier whenNotPaused() {\n      require(!paused);\n      _;\n    }\n\n    modifier whenPaused() {\n      require(paused);\n      _;\n    }\n\n    function pause() onlyOwner whenNotPaused public {\n      paused = true;\n      emit Pause();\n    }\n\n    function unpause() onlyOwner whenPaused public {\n      paused = false;\n      emit Unpause();\n    }\n}\n\n\n/**\n * @dev Wrappers over Solidity's arithmetic operations with added overflow\n * checks.\n *\n * Arithmetic operations in Solidity wrap on overflow. This can easily result\n * in bugs, because programmers usually assume that an overflow raises an\n * error, which is the standard behavior in high level programming languages.\n * `SafeMath` restores this intuition by reverting the transaction when an\n * operation overflows.\n *\n * Using this library instead of the unchecked operations eliminates an entire\n * class of bugs, so it's recommended to use it always.\n */\nlibrary SafeMath {\n    /**\n     * @dev Returns the addition of two unsigned integers, reverting on\n     * overflow.\n     *\n     * Counterpart to Solidity's `+` operator.\n     *\n     * Requirements:\n     * - Addition cannot overflow.\n     */\n    function add(uint256 a, uint256 b) internal pure returns (uint256) {\n        uint256 c = a + b;\n        require(c >= a, \"SafeMath: addition overflow\");\n\n        return c;\n    }\n\n    /**\n     * @dev Returns the subtraction of two unsigned integers, reverting on\n     * overflow (when the result is negative).\n     *\n     * Counterpart to Solidity's `-` operator.\n     *\n     * Requirements:\n     * - Subtraction cannot overflow.\n     */\n    function sub(uint256 a, uint256 b) internal pure returns (uint256) {\n        require(b <= a, \"SafeMath: subtraction overflow\");\n        uint256 c = a - b;\n\n        return c;\n    }\n\n    /**\n     * @dev Returns the multiplication of two unsigned integers, reverting on\n     * overflow.\n     *\n     * Counterpart to Solidity's `*` operator.\n     *\n     * Requirements:\n     * - Multiplication cannot overflow.\n     */\n    function mul(uint256 a, uint256 b) internal pure returns (uint256) {\n        // Gas optimization: this is cheaper than requiring 'a' not being zero, but the\n        // benefit is lost if 'b' is also tested.\n        // See: https://github.com/OpenZeppelin/openzeppelin-solidity/pull/522\n        if (a == 0) {\n            return 0;\n        }\n\n        uint256 c = a * b;\n        require(c / a == b, \"SafeMath: multiplication overflow\");\n\n        return c;\n    }\n\n    /**\n     * @dev Returns the integer division of two unsigned integers. Reverts on\n     * division by zero. The result is rounded towards zero.\n     *\n     * Counterpart to Solidity's `/` operator. Note: this function uses a\n     * `revert` opcode (which leaves remaining gas untouched) while Solidity\n     * uses an invalid opcode to revert (consuming all remaining gas).\n     *\n     * Requirements:\n     * - The divisor cannot be zero.\n     */\n    function div(uint256 a, uint256 b) internal pure returns (uint256) {\n        // Solidity only automatically asserts when dividing by 0\n        require(b > 0, \"SafeMath: division by zero\");\n        uint256 c = a / b;\n        // assert(a == b * c + a % b); // There is no case in which this doesn't hold\n\n        return c;\n    }\n\n}\n\n\ncontract SwanStake is Pausable{\n\n    using SafeMath for uint256;\n\n    address public swanTokenAddress;\n\n    /**\n     * @dev address of a token contrac swan \n     */\n    constructor(address swanToken) public Owned(msg.sender) {\n\n    swanTokenAddress = swanToken;\n  }\n\n  // Includes all the necessary details about the User's initial $2000 stake.\n    struct StakeAccount{\n      uint256 stakedAmount;\n      uint256 time;\n      uint256 interestRate;\n      bool unstaked;\n    }\n// Includes details about further major or minor stakes by a user in order to earn interest\n    struct interestAccount \n    {\n\n    uint256 amount;\n    uint256 time;\n    uint256 interestRate;\n    uint256 interestPayouts;\n    uint256 timeperiod;\n    }\n\n  // isStaker is TRUE for those addresses which have staked $2000 worth tokens.\n  mapping(address => bool) public isStaker;\n  mapping(address => uint256) public userTotalStakes;\n  mapping(address => uint256) public totalPoolRewards;\n\n  mapping (address => uint256) public interestAccountNumber;\n  mapping(address => StakeAccount) public stakeAccountDetails;\n  mapping(address => mapping (uint256 => interestAccount)) public interestAccountDetails;\n\n\n  /**\n     * @dev emitted whenever user stakes tokens in the Stake Account\n  */\n   \n  event staked(address indexed _user,uint256 _amount,uint256 _lockupPeriod,uint256 _interest);\n   \n  /**\n     * @dev emitted whenever user stakes tokens in the Stake Account\n  **/\n\n  event claimedStakedTokens(address indexed _user,uint256 _amount);\n  \n    /**\n     * @dev emitted whenever user stakes tokens for One month LockUp period\n     */\n  event oneMonthStaked(address indexed _user,uint256 _amount,uint256 _lockupPeriod, uint256 _interest);\n   /**\n     * @dev emitted whenever user stakes tokens for Three month LockUp period\n    */\n  event threeMonthStaked(address indexed _user,uint256 _amount,uint256 _lockupPeriod, uint256 _interest);\n   /**\n     * @dev emitted whenever user's staked tokens are successfully unstaked and trasnferred back to the user\n    */\n  event claimedInterestTokens(address indexed _user,uint256 _amount);\n   /**\n     * @dev emitted whenever weekly token rewards are transferred to the user.\n    */\n  event tokenRewardTransferred(address indexed _user,uint256 _amount);\n\n\n  /**\n      * @dev returns the total amount of SWAN tokens staked in this contract\n  **/\n\n  function totalStakedTokens() public view returns(uint256){\n      return ERC20(swanTokenAddress).balanceOf(address(this));\n  }\n   \n   /**\n      * @param _amount - the amount user wishes to stake\n      * @dev allows the user to stake the initial $2000 worth of SWAN tokens\n      *      Lists the user as a valid Staker.(by adding True in the isStaker mapping) \n      *      User can earn comparatively more interest on Future stakes.\n  **/\n\n  \n  function stake(uint256 _amount) external returns(bool){\n    require(!isStaker[msg.sender],\"Previous Staked Amount is not Withdrawn yet\");  \n    require (_amount >= 2000 ether,\"Staking Amount is Less Than $2000\");\n    \n    require (ERC20(swanTokenAddress).balanceOf(msg.sender) >= _amount, \"User doesn't have Enough Balance\");\n    uint256 checkAllowance = ERC20(swanTokenAddress).allowance(msg.sender, address(this)); \n    require (checkAllowance >= _amount,\"User has not approved the contract yet.\");\n    require(ERC20(swanTokenAddress).transferFrom(msg.sender,address(this),_amount),\"Token Transfer Failed\");\n  \n      stakeAccountDetails[msg.sender] = StakeAccount(\n    {\n      stakedAmount:_amount,\n      time:now,\n      interestRate:14,\n      unstaked:false\n    });\n      isStaker[msg.sender] = true;\n      userTotalStakes[msg.sender] += _amount;\n      emit staked(msg.sender,_amount,4,14);\n  }    \n      /**\n     * @dev  User can earn interest by staking for 1 month\n\n     */\n\n\n  function stakeTokensOneMonth (uint256 amount)  external returns (bool) {   \n       require(ERC20(swanTokenAddress).balanceOf(msg.sender) >= amount,'balance of a user is less then value');\n       uint256 checkAllowance = ERC20(swanTokenAddress).allowance(msg.sender, address(this)); \n       require (checkAllowance >= amount, 'allowance is wrong');\n       require(ERC20(swanTokenAddress).transferFrom(msg.sender,address(this),amount),'transfer From failed');\n       \n       uint256 oneMonthNum = interestAccountNumber[msg.sender];\n      if (isStaker[msg.sender]){\n       interestAccountDetails[msg.sender][oneMonthNum ++] = interestAccount(\n         {\n              amount: amount,\n              time: now,\n              interestRate : 16,\n              interestPayouts : 0,\n              timeperiod : 1\n\n         });       \n\n        emit oneMonthStaked(msg.sender,amount,1,16);\n      }else {\n         interestAccountDetails[msg.sender][oneMonthNum ++] = interestAccount(\n           {\n                amount: amount,\n                time: now,\n                interestRate : 12,\n                interestPayouts : 0,\n                timeperiod : 1\n           });  \n           emit oneMonthStaked(msg.sender,amount,1,12);     \n          }\n\n      userTotalStakes[msg.sender] += amount;\n      interestAccountNumber[msg.sender]++; \n  }  \n    /**\n     * @dev  User can earn interest by staking for 3 month\n\n     */\n  function stakeTokensThreeMonth (uint256 amount)  external returns (bool) {\n        \n     require(ERC20(swanTokenAddress).balanceOf(msg.sender) >= amount,'balance of a user is less then value');\n     uint256 checkAllowance = ERC20(swanTokenAddress).allowance(msg.sender, address(this)); \n     require (checkAllowance >= amount, 'allowance is wrong');\n     require(ERC20(swanTokenAddress).transferFrom(msg.sender,address(this),amount),'transfer From failed');\n    \n     uint256 oneMonthNum = interestAccountNumber[msg.sender];\n    if (isStaker[msg.sender]){\n       interestAccountDetails[msg.sender][oneMonthNum ++] = interestAccount(\n         {\n              amount: amount,\n              time: now,\n              interestRate : 20,\n              interestPayouts : 0,\n              timeperiod : 3\n         });       \n\n        emit oneMonthStaked(msg.sender,amount,3,20);\n      }else {\n         interestAccountDetails[msg.sender][oneMonthNum ++] = interestAccount(\n           {\n              amount: amount,\n              time: now,\n              interestRate : 16,\n              interestPayouts : 0,\n              timeperiod : 3\n           });  \n           emit oneMonthStaked(msg.sender,amount,3,16);     \n          }\n      userTotalStakes[msg.sender] += amount;\n      interestAccountNumber[msg.sender]++; \n  }  \n\n    /**\n     * @dev  claim tokens for 1 or 3 months from same function\n\n     */\n    function claimInterestTokens(uint256 id) public returns (bool) {\n       \n        interestAccount memory OneMonth =  interestAccountDetails[msg.sender][id];\n        require (OneMonth.amount >= 0 );\n        require (now >= OneMonth.time.add(OneMonth.timeperiod * 1 minutes),\"Deadline is not over\");// will be chnanged to \"months\" time unit for production\n        require(ERC20(swanTokenAddress).transfer(msg.sender, OneMonth.amount));\n        userTotalStakes[msg.sender] -= OneMonth.amount;\n        emit claimedInterestTokens(msg.sender,OneMonth.amount);\n        OneMonth.amount = 0;\n    } \n    \n\n    function claimStakeTokens() public{\n      require(isStaker[msg.sender],\"User is not a Staker\");\n      StakeAccount memory stakeData = stakeAccountDetails[msg.sender];\n      require (now >= stakeData.time.add(100),\"Deadline NOT OVER\"); //will be changed to 4 months for production use\n      require(ERC20(swanTokenAddress).transfer(msg.sender, stakeData.stakedAmount));\n      userTotalStakes[msg.sender] -= stakeData.stakedAmount;\n      isStaker[msg.sender] = false;\n      stakeData.unstaked = true;\n      stakeAccountDetails[msg.sender] = stakeData;\n      emit claimedStakedTokens(msg.sender,stakeData.stakedAmount);\n    } \n    /**\n     * @dev  user can claim payouts in everyt seven days \n\n     */\n\n    function payOuts (uint256 id) public returns (bool) {\n        \n        interestAccount memory OneMonth =  interestAccountDetails[msg.sender][id];\n        require (OneMonth.amount >= 0 );\n        require (now >= OneMonth.time.add(100));//change it to one month for production use \n\n        uint256 preSaleCycle = getCycle(msg.sender, id);\n        require (preSaleCycle > 0);\n\n        uint256 onePercentOfInitialFund = OneMonth.amount.div(86400);\n        if(OneMonth.interestPayouts <= onePercentOfInitialFund.mul(preSaleCycle)) {\n            \n        uint256 tokenToSend = onePercentOfInitialFund.mul(preSaleCycle).sub(OneMonth.interestPayouts);\n        OneMonth.interestPayouts = onePercentOfInitialFund.mul(preSaleCycle);\n        require(ERC20(swanTokenAddress).transfer(msg.sender, tokenToSend));\n        totalPoolRewards[msg.sender] += tokenToSend;\n        emit tokenRewardTransferred(msg.sender,tokenToSend);\n\n        }\n        \n        \n    }\n        /**\n     * @dev  get cycle for payout \n\n     */\n    function getCycle(address userAddress, uint256 id) internal view returns (uint256){\n     \n        interestAccount memory OneMonth =  interestAccountDetails[userAddress][id];\n        require (OneMonth.amount >= 0 );\n\n      uint256 cycle = now.sub(OneMonth.timeperiod);\n    \n     if(cycle <= 21600)//21600 6 hours for testing \n     {\n         return 0;\n     }\n     else if (cycle > 21600)//21600 6 hours \n     {     \n    \n      uint256 secondsToHours = cycle.div(21600);//21600 6 hours\n      return secondsToHours;\n     \n     }\n\n    }    \n\n}\n",
  "sourcePath": "/home/zaryab/blockchain_begins/all_about_ethereum/quillHash_CODES/swan_smart_contracts/contracts/SwanStake.sol",
  "compiler": {
    "name": "solc",
    "version": "0.5.16+commit.9c3226ce.Emscripten.clang"
  },
  "schemaVersion": "3.2.2",
  "updatedAt": "2020-11-06T06:46:32.796Z",
  "devdoc": {
    "methods": {}
  },
  "userdoc": {
    "methods": {}
  }
}