{
  "contractName": "Swan",
  "abi": [
    {
      "inputs": [],
      "payable": false,
      "stateMutability": "nonpayable",
      "type": "constructor"
    },
    {
      "anonymous": false,
      "inputs": [
        {
          "indexed": true,
          "internalType": "address",
          "name": "owner",
          "type": "address"
        },
        {
          "indexed": true,
          "internalType": "address",
          "name": "spender",
          "type": "address"
        },
        {
          "indexed": false,
          "internalType": "uint256",
          "name": "value",
          "type": "uint256"
        }
      ],
      "name": "Approval",
      "type": "event"
    },
    {
      "anonymous": false,
      "inputs": [
        {
          "indexed": true,
          "internalType": "address",
          "name": "previousOwner",
          "type": "address"
        },
        {
          "indexed": true,
          "internalType": "address",
          "name": "newOwner",
          "type": "address"
        }
      ],
      "name": "OwnershipTransferred",
      "type": "event"
    },
    {
      "anonymous": false,
      "inputs": [
        {
          "indexed": false,
          "internalType": "address",
          "name": "account",
          "type": "address"
        }
      ],
      "name": "Paused",
      "type": "event"
    },
    {
      "anonymous": false,
      "inputs": [
        {
          "indexed": true,
          "internalType": "address",
          "name": "account",
          "type": "address"
        }
      ],
      "name": "PauserAdded",
      "type": "event"
    },
    {
      "anonymous": false,
      "inputs": [
        {
          "indexed": true,
          "internalType": "address",
          "name": "account",
          "type": "address"
        }
      ],
      "name": "PauserRemoved",
      "type": "event"
    },
    {
      "anonymous": false,
      "inputs": [
        {
          "indexed": true,
          "internalType": "address",
          "name": "from",
          "type": "address"
        },
        {
          "indexed": true,
          "internalType": "address",
          "name": "to",
          "type": "address"
        },
        {
          "indexed": false,
          "internalType": "uint256",
          "name": "value",
          "type": "uint256"
        }
      ],
      "name": "Transfer",
      "type": "event"
    },
    {
      "anonymous": false,
      "inputs": [
        {
          "indexed": false,
          "internalType": "address",
          "name": "account",
          "type": "address"
        }
      ],
      "name": "Unpaused",
      "type": "event"
    },
    {
      "constant": false,
      "inputs": [
        {
          "internalType": "address",
          "name": "account",
          "type": "address"
        }
      ],
      "name": "addPauser",
      "outputs": [],
      "payable": false,
      "stateMutability": "nonpayable",
      "type": "function"
    },
    {
      "constant": true,
      "inputs": [
        {
          "internalType": "address",
          "name": "owner",
          "type": "address"
        },
        {
          "internalType": "address",
          "name": "spender",
          "type": "address"
        }
      ],
      "name": "allowance",
      "outputs": [
        {
          "internalType": "uint256",
          "name": "",
          "type": "uint256"
        }
      ],
      "payable": false,
      "stateMutability": "view",
      "type": "function"
    },
    {
      "constant": false,
      "inputs": [
        {
          "internalType": "address",
          "name": "spender",
          "type": "address"
        },
        {
          "internalType": "uint256",
          "name": "value",
          "type": "uint256"
        }
      ],
      "name": "approve",
      "outputs": [
        {
          "internalType": "bool",
          "name": "",
          "type": "bool"
        }
      ],
      "payable": false,
      "stateMutability": "nonpayable",
      "type": "function"
    },
    {
      "constant": true,
      "inputs": [
        {
          "internalType": "address",
          "name": "account",
          "type": "address"
        }
      ],
      "name": "balanceOf",
      "outputs": [
        {
          "internalType": "uint256",
          "name": "",
          "type": "uint256"
        }
      ],
      "payable": false,
      "stateMutability": "view",
      "type": "function"
    },
    {
      "constant": true,
      "inputs": [],
      "name": "contractSaleOver",
      "outputs": [
        {
          "internalType": "bool",
          "name": "",
          "type": "bool"
        }
      ],
      "payable": false,
      "stateMutability": "view",
      "type": "function"
    },
    {
      "constant": true,
      "inputs": [],
      "name": "contractSaleOverTime",
      "outputs": [
        {
          "internalType": "uint256",
          "name": "",
          "type": "uint256"
        }
      ],
      "payable": false,
      "stateMutability": "view",
      "type": "function"
    },
    {
      "constant": true,
      "inputs": [],
      "name": "decimals",
      "outputs": [
        {
          "internalType": "uint8",
          "name": "",
          "type": "uint8"
        }
      ],
      "payable": false,
      "stateMutability": "view",
      "type": "function"
    },
    {
      "constant": false,
      "inputs": [
        {
          "internalType": "address",
          "name": "spender",
          "type": "address"
        },
        {
          "internalType": "uint256",
          "name": "subtractedValue",
          "type": "uint256"
        }
      ],
      "name": "decreaseAllowance",
      "outputs": [
        {
          "internalType": "bool",
          "name": "",
          "type": "bool"
        }
      ],
      "payable": false,
      "stateMutability": "nonpayable",
      "type": "function"
    },
    {
      "constant": false,
      "inputs": [
        {
          "internalType": "address",
          "name": "spender",
          "type": "address"
        },
        {
          "internalType": "uint256",
          "name": "addedValue",
          "type": "uint256"
        }
      ],
      "name": "increaseAllowance",
      "outputs": [
        {
          "internalType": "bool",
          "name": "",
          "type": "bool"
        }
      ],
      "payable": false,
      "stateMutability": "nonpayable",
      "type": "function"
    },
    {
      "constant": true,
      "inputs": [],
      "name": "isOwner",
      "outputs": [
        {
          "internalType": "bool",
          "name": "",
          "type": "bool"
        }
      ],
      "payable": false,
      "stateMutability": "view",
      "type": "function"
    },
    {
      "constant": true,
      "inputs": [
        {
          "internalType": "address",
          "name": "account",
          "type": "address"
        }
      ],
      "name": "isPauser",
      "outputs": [
        {
          "internalType": "bool",
          "name": "",
          "type": "bool"
        }
      ],
      "payable": false,
      "stateMutability": "view",
      "type": "function"
    },
    {
      "constant": true,
      "inputs": [],
      "name": "name",
      "outputs": [
        {
          "internalType": "string",
          "name": "",
          "type": "string"
        }
      ],
      "payable": false,
      "stateMutability": "view",
      "type": "function"
    },
    {
      "constant": true,
      "inputs": [],
      "name": "owner",
      "outputs": [
        {
          "internalType": "address",
          "name": "",
          "type": "address"
        }
      ],
      "payable": false,
      "stateMutability": "view",
      "type": "function"
    },
    {
      "constant": false,
      "inputs": [],
      "name": "pause",
      "outputs": [],
      "payable": false,
      "stateMutability": "nonpayable",
      "type": "function"
    },
    {
      "constant": true,
      "inputs": [],
      "name": "paused",
      "outputs": [
        {
          "internalType": "bool",
          "name": "",
          "type": "bool"
        }
      ],
      "payable": false,
      "stateMutability": "view",
      "type": "function"
    },
    {
      "constant": false,
      "inputs": [],
      "name": "renounceOwnership",
      "outputs": [],
      "payable": false,
      "stateMutability": "nonpayable",
      "type": "function"
    },
    {
      "constant": false,
      "inputs": [],
      "name": "renouncePauser",
      "outputs": [],
      "payable": false,
      "stateMutability": "nonpayable",
      "type": "function"
    },
    {
      "constant": true,
      "inputs": [],
      "name": "symbol",
      "outputs": [
        {
          "internalType": "string",
          "name": "",
          "type": "string"
        }
      ],
      "payable": false,
      "stateMutability": "view",
      "type": "function"
    },
    {
      "constant": true,
      "inputs": [],
      "name": "teamMemberHrWallet",
      "outputs": [
        {
          "internalType": "uint256",
          "name": "",
          "type": "uint256"
        }
      ],
      "payable": false,
      "stateMutability": "view",
      "type": "function"
    },
    {
      "constant": true,
      "inputs": [
        {
          "internalType": "address",
          "name": "",
          "type": "address"
        }
      ],
      "name": "teamTokensLeft",
      "outputs": [
        {
          "internalType": "uint256",
          "name": "",
          "type": "uint256"
        }
      ],
      "payable": false,
      "stateMutability": "view",
      "type": "function"
    },
    {
      "constant": true,
      "inputs": [],
      "name": "totalSupply",
      "outputs": [
        {
          "internalType": "uint256",
          "name": "",
          "type": "uint256"
        }
      ],
      "payable": false,
      "stateMutability": "view",
      "type": "function"
    },
    {
      "constant": false,
      "inputs": [
        {
          "internalType": "address",
          "name": "newOwner",
          "type": "address"
        }
      ],
      "name": "transferOwnership",
      "outputs": [],
      "payable": false,
      "stateMutability": "nonpayable",
      "type": "function"
    },
    {
      "constant": false,
      "inputs": [],
      "name": "unpause",
      "outputs": [],
      "payable": false,
      "stateMutability": "nonpayable",
      "type": "function"
    },
    {
      "constant": false,
      "inputs": [
        {
          "internalType": "address",
          "name": "recipient",
          "type": "address"
        },
        {
          "internalType": "uint256",
          "name": "amount",
          "type": "uint256"
        }
      ],
      "name": "transfer",
      "outputs": [
        {
          "internalType": "bool",
          "name": "",
          "type": "bool"
        }
      ],
      "payable": false,
      "stateMutability": "nonpayable",
      "type": "function"
    },
    {
      "constant": false,
      "inputs": [
        {
          "internalType": "address",
          "name": "sender",
          "type": "address"
        },
        {
          "internalType": "address",
          "name": "recipient",
          "type": "address"
        },
        {
          "internalType": "uint256",
          "name": "amount",
          "type": "uint256"
        }
      ],
      "name": "transferFrom",
      "outputs": [
        {
          "internalType": "bool",
          "name": "",
          "type": "bool"
        }
      ],
      "payable": false,
      "stateMutability": "nonpayable",
      "type": "function"
    },
    {
      "constant": false,
      "inputs": [
        {
          "internalType": "address",
          "name": "userAddress",
          "type": "address"
        },
        {
          "internalType": "uint256",
          "name": "value",
          "type": "uint256"
        }
      ],
      "name": "sendTeamMemberHrWallet",
      "outputs": [
        {
          "internalType": "bool",
          "name": "",
          "type": "bool"
        }
      ],
      "payable": false,
      "stateMutability": "nonpayable",
      "type": "function"
    },
    {
      "constant": false,
      "inputs": [],
      "name": "redeemTeamTokensLeft",
      "outputs": [
        {
          "internalType": "bool",
          "name": "",
          "type": "bool"
        }
      ],
      "payable": false,
      "stateMutability": "nonpayable",
      "type": "function"
    },
    {
      "constant": false,
      "inputs": [],
      "name": "saleOverSet",
      "outputs": [
        {
          "internalType": "bool",
          "name": "",
          "type": "bool"
        }
      ],
      "payable": false,
      "stateMutability": "nonpayable",
      "type": "function"
    }
  ],
  "bytecode": "0x60806040526b1027e72f1f128130880000006007556009805460ff191690553480156200002b57600080fd5b5062000052620000436001600160e01b036200016416565b6001600160e01b036200016916565b6001805460ff191690556000620000716001600160e01b036200016416565b60018054610100600160a81b0319166101006001600160a01b03841690810291909117909155604051919250906000907f8be0079c531659141344cd1fd0a4f28419497f9722a3daafe3b4186f6b6457e0908290a35060408051808201909152600c8082526b5377616e2046696e616e636560a01b6020909201918252620000fc916005916200042c565b506040805180820190915260048082526329aba0a760e11b60209092019182526200012a916006916200042c565b506200015e620001426001600160e01b03620001bb16565b6ba18f07d736b90be5500000006001600160e01b03620001cf16565b620004ce565b335b90565b62000184816000620002d460201b620014311790919060201c565b6040516001600160a01b038216907f6719d08c1888103bea251a4ed56406bd0c3e69723c8a1686e017e7bbe159b6f890600090a250565b60015461010090046001600160a01b031690565b6001600160a01b0382166200022b576040805162461bcd60e51b815260206004820152601f60248201527f45524332303a206d696e7420746f20746865207a65726f206164647265737300604482015290519081900360640190fd5b62000247816004546200036160201b62000ffa1790919060201c565b6004556001600160a01b0382166000908152600260209081526040909120546200027c91839062000ffa62000361821b17901c565b6001600160a01b03831660008181526002602090815260408083209490945583518581529351929391927fddf252ad1be2c89b69c2b068fc378daa952ba7f163c4a11628f55a4df523b3ef9281900390910190a35050565b620002e982826001600160e01b03620003c316565b156200033c576040805162461bcd60e51b815260206004820152601f60248201527f526f6c65733a206163636f756e7420616c72656164792068617320726f6c6500604482015290519081900360640190fd5b6001600160a01b0316600090815260209190915260409020805460ff19166001179055565b600082820183811015620003bc576040805162461bcd60e51b815260206004820152601b60248201527f536166654d6174683a206164646974696f6e206f766572666c6f770000000000604482015290519081900360640190fd5b9392505050565b60006001600160a01b0382166200040c5760405162461bcd60e51b815260040180806020018281038252602281526020018062001c696022913960400191505060405180910390fd5b506001600160a01b03166000908152602091909152604090205460ff1690565b828054600181600116156101000203166002900490600052602060002090601f016020900481019282601f106200046f57805160ff19168380011785556200049f565b828001600101855582156200049f579182015b828111156200049f57825182559160200191906001019062000482565b50620004ad929150620004b1565b5090565b6200016691905b80821115620004ad5760008155600101620004b8565b61178b80620004de6000396000f3fe608060405234801561001057600080fd5b50600436106101c45760003560e01c806382dc1ec4116100f9578063a457c2d711610097578063dd62ed3e11610071578063dd62ed3e1461048e578063e341a987146104bc578063ec6173cb146104c4578063f2fde38b146104f0576101c4565b8063a457c2d71461042e578063a9059cbb1461045a578063c6f62db914610486576101c4565b80638da5cb5b116100d35780638da5cb5b146103d45780638f32d59b146103f857806395d89b411461040057806398d9475214610408576101c4565b806382dc1ec41461039e5780638456cb59146103c45780638a1edb57146103cc576101c4565b80633f4ba83a116101665780636ef8d66d116101405780636ef8d66d1461036057806370a0823114610368578063715018a61461038e5780637b1acab314610396576101c4565b80633f4ba83a1461032857806346fbf68e146103325780635c975abb14610358576101c4565b806323b872dd116101a257806323b872dd146102a05780632eb41b64146102d6578063313ce567146102de57806339509351146102fc576101c4565b806306fdde03146101c9578063095ea7b31461024657806318160ddd14610286575b600080fd5b6101d1610516565b6040805160208082528351818301528351919283929083019185019080838360005b8381101561020b5781810151838201526020016101f3565b50505050905090810190601f1680156102385780820380516001836020036101000a031916815260200191505b509250505060405180910390f35b6102726004803603604081101561025c57600080fd5b506001600160a01b0381351690602001356105a4565b604080519115158252519081900360200190f35b61028e6105ba565b60408051918252519081900360200190f35b610272600480360360608110156102b657600080fd5b506001600160a01b038135811691602081013590911690604001356105c0565b610272610624565b6102e661062d565b6040805160ff9092168252519081900360200190f35b6102726004803603604081101561031257600080fd5b506001600160a01b038135169060200135610632565b610330610673565b005b6102726004803603602081101561034857600080fd5b50356001600160a01b031661075c565b610272610774565b61033061077d565b61028e6004803603602081101561037e57600080fd5b50356001600160a01b031661078f565b6103306107aa565b61028e610841565b610330600480360360208110156103b457600080fd5b50356001600160a01b0316610847565b610330610899565b61028e61095f565b6103dc610965565b604080516001600160a01b039092168252519081900360200190f35b610272610979565b6101d16109a4565b61028e6004803603602081101561041e57600080fd5b50356001600160a01b03166109ff565b6102726004803603604081101561044457600080fd5b506001600160a01b038135169060200135610a11565b6102726004803603604081101561047057600080fd5b506001600160a01b038135169060200135610a4d565b610272610aa6565b61028e600480360360408110156104a457600080fd5b506001600160a01b0381358116916020013516610bdf565b610272610c0a565b610272600480360360408110156104da57600080fd5b506001600160a01b038135169060200135610cc6565b6103306004803603602081101561050657600080fd5b50356001600160a01b0316610e20565b6005805460408051602060026001851615610100026000190190941693909304601f8101849004840282018401909252818152929183018282801561059c5780601f106105715761010080835404028352916020019161059c565b820191906000526020600020905b81548152906001019060200180831161057f57829003601f168201915b505050505081565b60006105b1338484610e70565b50600192915050565b60045490565b60015460009060ff161561060e576040805162461bcd60e51b815260206004820152601060248201526f14185d5cd8589b194e881c185d5cd95960821b604482015290519081900360640190fd5b610619848484610f5c565b506001949350505050565b60095460ff1681565b601281565b3360008181526003602090815260408083206001600160a01b038716845290915281205490916105b191859061066e908663ffffffff610ffa16565b610e70565b61068361067e61105b565b61075c565b6106be5760405162461bcd60e51b81526004018080602001828103825260308152602001806115d26030913960400191505060405180910390fd5b60015460ff1661070c576040805162461bcd60e51b815260206004820152601460248201527314185d5cd8589b194e881b9bdd081c185d5cd95960621b604482015290519081900360640190fd5b6001805460ff191690557f5db9ee0a495bf2e6ff9c91a7834c1ba4fdd244a5e8aa4e537bd38aeae4b073aa61073f61105b565b604080516001600160a01b039092168252519081900360200190a1565b600061076e818363ffffffff61105f16565b92915050565b60015460ff1690565b61078d61078861105b565b6110c6565b565b6001600160a01b031660009081526002602052604090205490565b6107b2610979565b6107f1576040805162461bcd60e51b8152602060048201819052602482015260008051602061169f833981519152604482015290519081900360640190fd5b60015460405160009161010090046001600160a01b0316907f8be0079c531659141344cd1fd0a4f28419497f9722a3daafe3b4186f6b6457e0908390a360018054610100600160a81b0319169055565b600a5481565b61085261067e61105b565b61088d5760405162461bcd60e51b81526004018080602001828103825260308152602001806115d26030913960400191505060405180910390fd5b6108968161110e565b50565b6108a461067e61105b565b6108df5760405162461bcd60e51b81526004018080602001828103825260308152602001806115d26030913960400191505060405180910390fd5b60015460ff161561092a576040805162461bcd60e51b815260206004820152601060248201526f14185d5cd8589b194e881c185d5cd95960821b604482015290519081900360640190fd5b6001805460ff1916811790557f62e78cea01bee320cd4e420270b5ea74000d11b0c9f74754ebdbfc544b05a25861073f61105b565b60075481565b60015461010090046001600160a01b031690565b60015460009061010090046001600160a01b031661099561105b565b6001600160a01b031614905090565b6006805460408051602060026001851615610100026000190190941693909304601f8101849004840282018401909252818152929183018282801561059c5780601f106105715761010080835404028352916020019161059c565b60086020526000908152604090205481565b3360008181526003602090815260408083206001600160a01b038716845290915281205490916105b191859061066e908663ffffffff61115616565b60015460009060ff1615610a9b576040805162461bcd60e51b815260206004820152601060248201526f14185d5cd8589b194e881c185d5cd95960821b604482015290519081900360640190fd5b6105b1338484611198565b60015460009060ff1615610af4576040805162461bcd60e51b815260206004820152601060248201526f14185d5cd8589b194e881c185d5cd95960821b604482015290519081900360640190fd5b33600090815260086020526040902054610b4d576040805162461bcd60e51b815260206004820152601560248201527416995c9bc81d19585b481d1bdad95b9cc81b19599d605a1b604482015290519081900360640190fd5b60095460ff168015610b735750600a54610b709062ed4e0063ffffffff610ffa16565b42115b610bae5760405162461bcd60e51b815260040180806020018281038252603481526020018061164a6034913960400191505060405180910390fd5b33600081815260086020526040902054610bc9913091611198565b5033600090815260086020526040812055600190565b6001600160a01b03918216600090815260036020908152604080832093909416825291909152205490565b6000610c14610979565b610c53576040805162461bcd60e51b8152602060048201819052602482015260008051602061169f833981519152604482015290519081900360640190fd5b60015460ff1615610c9e576040805162461bcd60e51b815260206004820152601060248201526f14185d5cd8589b194e881c185d5cd95960821b604482015290519081900360640190fd5b60095460ff1615610cae57600080fd5b506009805460ff1916600190811790915542600a5590565b60015460009060ff1615610d14576040805162461bcd60e51b815260206004820152601060248201526f14185d5cd8589b194e881c185d5cd95960821b604482015290519081900360640190fd5b610d1c610979565b610d5b576040805162461bcd60e51b8152602060048201819052602482015260008051602061169f833981519152604482015290519081900360640190fd5b816007541015610d9c5760405162461bcd60e51b815260040180806020018281038252602d8152602001806116e1602d913960400191505060405180910390fd5b600754610daf908363ffffffff61115616565b6007556000610dc583600263ffffffff6112dc16565b6001600160a01b038516600090815260086020526040902054909150610df290829063ffffffff610ffa16565b6001600160a01b038516600090815260086020526040902055610e158482610a4d565b506106193082610a4d565b610e28610979565b610e67576040805162461bcd60e51b8152602060048201819052602482015260008051602061169f833981519152604482015290519081900360640190fd5b6108968161131e565b6001600160a01b038316610eb55760405162461bcd60e51b81526004018080602001828103825260248152602001806117336024913960400191505060405180910390fd5b6001600160a01b038216610efa5760405162461bcd60e51b81526004018080602001828103825260228152602001806116286022913960400191505060405180910390fd5b6001600160a01b03808416600081815260036020908152604080832094871680845294825291829020859055815185815291517f8c5be1e5ebec7d5bd14f71427d1e84f3dd0314c0f7b2291e5b200ac8c7c3b9259281900390910190a3505050565b60015460009060ff1615610faa576040805162461bcd60e51b815260206004820152601060248201526f14185d5cd8589b194e881c185d5cd95960821b604482015290519081900360640190fd5b610fb5848484611198565b6001600160a01b038416600090815260036020908152604080832033808552925290912054610ff091869161066e908663ffffffff61115616565b5060019392505050565b600082820183811015611054576040805162461bcd60e51b815260206004820152601b60248201527f536166654d6174683a206164646974696f6e206f766572666c6f770000000000604482015290519081900360640190fd5b9392505050565b3390565b60006001600160a01b0382166110a65760405162461bcd60e51b81526004018080602001828103825260228152602001806116bf6022913960400191505060405180910390fd5b506001600160a01b03166000908152602091909152604090205460ff1690565b6110d760008263ffffffff6113ca16565b6040516001600160a01b038216907fcd265ebaf09df2871cc7bd4133404a235ba12eff2041bb89d9c714a2621c7c7e90600090a250565b61111f60008263ffffffff61143116565b6040516001600160a01b038216907f6719d08c1888103bea251a4ed56406bd0c3e69723c8a1686e017e7bbe159b6f890600090a250565b600061105483836040518060400160405280601e81526020017f536166654d6174683a207375627472616374696f6e206f766572666c6f7700008152506114b2565b6001600160a01b0383166111dd5760405162461bcd60e51b815260040180806020018281038252602581526020018061170e6025913960400191505060405180910390fd5b6001600160a01b0382166112225760405162461bcd60e51b81526004018080602001828103825260238152602001806115af6023913960400191505060405180910390fd5b6001600160a01b03831660009081526002602052604090205461124b908263ffffffff61115616565b6001600160a01b038085166000908152600260205260408082209390935590841681522054611280908263ffffffff610ffa16565b6001600160a01b0380841660008181526002602090815260409182902094909455805185815290519193928716927fddf252ad1be2c89b69c2b068fc378daa952ba7f163c4a11628f55a4df523b3ef92918290030190a3505050565b600061105483836040518060400160405280601a81526020017f536166654d6174683a206469766973696f6e206279207a65726f000000000000815250611549565b6001600160a01b0381166113635760405162461bcd60e51b81526004018080602001828103825260268152602001806116026026913960400191505060405180910390fd5b6001546040516001600160a01b0380841692610100900416907f8be0079c531659141344cd1fd0a4f28419497f9722a3daafe3b4186f6b6457e090600090a3600180546001600160a01b0390921661010002610100600160a81b0319909216919091179055565b6113d4828261105f565b61140f5760405162461bcd60e51b815260040180806020018281038252602181526020018061167e6021913960400191505060405180910390fd5b6001600160a01b0316600090815260209190915260409020805460ff19169055565b61143b828261105f565b1561148d576040805162461bcd60e51b815260206004820152601f60248201527f526f6c65733a206163636f756e7420616c72656164792068617320726f6c6500604482015290519081900360640190fd5b6001600160a01b0316600090815260209190915260409020805460ff19166001179055565b600081848411156115415760405162461bcd60e51b81526004018080602001828103825283818151815260200191508051906020019080838360005b838110156115065781810151838201526020016114ee565b50505050905090810190601f1680156115335780820380516001836020036101000a031916815260200191505b509250505060405180910390fd5b505050900390565b600081836115985760405162461bcd60e51b81526020600482018181528351602484015283519092839260449091019190850190808383600083156115065781810151838201526020016114ee565b5060008385816115a457fe5b049594505050505056fe45524332303a207472616e7366657220746f20746865207a65726f2061646472657373506175736572526f6c653a2063616c6c657220646f6573206e6f742068617665207468652050617573657220726f6c654f776e61626c653a206e6577206f776e657220697320746865207a65726f206164647265737345524332303a20617070726f766520746f20746865207a65726f20616464726573734569746865722073616c65206973206e6f74206f766572206f722036206d6f6e746873206e6f7420636f6d706c65746520796574526f6c65733a206163636f756e7420646f6573206e6f74206861766520726f6c654f776e61626c653a2063616c6c6572206973206e6f7420746865206f776e6572526f6c65733a206163636f756e7420697320746865207a65726f20616464726573735465616d20616e642048522077616c6c657420686173206c65737320746f6b656e73207468656e2076616c756545524332303a207472616e736665722066726f6d20746865207a65726f206164647265737345524332303a20617070726f76652066726f6d20746865207a65726f2061646472657373a265627a7a72315820e1071d8dcd4591e273268fe0a9188e5196073d486451f301bd1f097c717870be64736f6c63430005100032526f6c65733a206163636f756e7420697320746865207a65726f2061646472657373",
  "source": "pragma solidity 0.5.16;\n\nimport \"@openzeppelin/contracts/ownership/Ownable.sol\";\nimport \"@openzeppelin/contracts/math/SafeMath.sol\";\nimport \"@openzeppelin/contracts/lifecycle/Pausable.sol\";\nimport \"@openzeppelin/contracts/token/ERC20/IERC20.sol\";\n\n\ncontract ERC20 is IERC20, Pausable,Ownable{\n    using SafeMath for uint256;\n\n    mapping(address => uint256) private _balances;\n\n    mapping(address => mapping(address => uint256)) private _allowances;\n\n    uint256 private _totalSupply;\n\n    /**\n     * @dev See `IERC20.totalSupply`.\n     */\n    function totalSupply() public view returns (uint256) {\n        return _totalSupply;\n    }\n\n    /**\n     * @dev See `IERC20.balanceOf`.\n     */\n    function balanceOf(address account) public view returns (uint256) {\n        return _balances[account];\n    }\n\n    /**\n     * @dev See `IERC20.allowance`.\n     */\n    function allowance(address owner, address spender)\n        public\n        view\n        returns (uint256)\n    {\n        return _allowances[owner][spender];\n    }\n\n    /**\n     * @dev See `IERC20.approve`.\n     *\n     * Requirements:\n     *\n     * - `spender` cannot be the zero address.\n     */\n    function approve(address spender, uint256 value) external returns (bool) {\n        _approve(msg.sender, spender, value);\n        return true;\n    }\n\n    /**\n     * @dev Atomically increases the allowance granted to `spender` by the caller.\n     *\n     * This is an alternative to `approve` that can be used as a mitigation for\n     * problems described in `IERC20.approve`.\n     *\n     * Emits an `Approval` event indicating the updated allowance.\n     *\n     * Requirements:\n     *\n     * - `spender` cannot be the zero address.\n     */\n    function increaseAllowance(address spender, uint256 addedValue)\n        external\n        returns (bool)\n    {\n        _approve(\n            msg.sender,\n            spender,\n            _allowances[msg.sender][spender].add(addedValue)\n        );\n        return true;\n    }\n\n    /**\n     * @dev Atomically decreases the allowance granted to `spender` by the caller.\n     *\n     * This is an alternative to `approve` that can be used as a mitigation for\n     * problems described in `IERC20.approve`.\n     *\n     * Emits an `Approval` event indicating the updated allowance.\n     *\n     * Requirements:\n     *\n     * - `spender` cannot be the zero address.\n     * - `spender` must have allowance for the caller of at least\n     * `subtractedValue`.\n     */\n    function decreaseAllowance(address spender, uint256 subtractedValue)\n        external\n        returns (bool)\n    {\n        _approve(\n            msg.sender,\n            spender,\n            _allowances[msg.sender][spender].sub(subtractedValue)\n        );\n        return true;\n    }\n\n    /**\n     * @dev Moves tokens `amount` from `sender` to `recipient`.\n     *\n     * This is internal function is equivalent to `transfer`, and can be used to\n     * e.g. implement automatic token fees, slashing mechanisms, etc.\n     *\n     * Emits a `Transfer` event.\n     *\n     * Requirements:\n     *\n     * - `sender` cannot be the zero address.\n     * - `recipient` cannot be the zero address.\n     * - `sender` must have a balance of at least `amount`.\n     */\n    function _transfer(\n        address sender,\n        address recipient,\n        uint256 amount\n    ) internal {\n        require(sender != address(0), \"ERC20: transfer from the zero address\");\n        require(recipient != address(0), \"ERC20: transfer to the zero address\");\n\n        _balances[sender] = _balances[sender].sub(amount);\n        _balances[recipient] = _balances[recipient].add(amount);\n        emit Transfer(sender, recipient, amount);\n    }\n\n    /** @dev Creates `amount` tokens and assigns them to `account`, increasing\n     * the total supply.\n     *\n     * Emits a `Transfer` event with `from` set to the zero address.\n     *\n     * Requirements\n     *\n     * - `to` cannot be the zero address.\n     */\n    function _mint(address account, uint256 amount) internal {\n        require(account != address(0), \"ERC20: mint to the zero address\");\n\n        _totalSupply = _totalSupply.add(amount);\n        _balances[account] = _balances[account].add(amount);\n        emit Transfer(address(0), account, amount);\n    }\n\n    /**\n     * @dev Destoys `amount` tokens from `account`, reducing the\n     * total supply.\n     *\n     * Emits a `Transfer` event with `to` set to the zero address.\n     *\n     * Requirements\n     *\n     * - `account` cannot be the zero address.\n     * - `account` must have at least `amount` tokens.\n     */\n    function _burn(address account, uint256 value) internal {\n        require(account != address(0), \"ERC20: burn from the zero address\");\n\n        _totalSupply = _totalSupply.sub(value);\n        _balances[account] = _balances[account].sub(value);\n        emit Transfer(account, address(0), value);\n    }\n\n    /**\n     * @dev See `IERC20.transferFrom`.\n     *\n     * Emits an `Approval` event indicating the updated allowance. This is not\n     * required by the EIP. See the note at the beginning of `ERC20`;\n     *\n     * Requirements:\n     * - `sender` and `recipient` cannot be the zero address.\n     * - `sender` must have a balance of at least `value`.\n     * - the caller must have allowance for `sender`'s tokens of at least\n     * `amount`.\n     */\n    function _transferFrom(\n        address sender,\n        address recipient,\n        uint256 amount\n    ) internal whenNotPaused returns (bool) {\n        _transfer(sender, recipient, amount);\n        _approve(\n            sender,\n            msg.sender,\n            _allowances[sender][msg.sender].sub(amount)\n        );\n        return true;\n    }\n\n    /**\n     * @dev Sets `amount` as the allowance of `spender` over the `owner`s tokens.\n     *\n     * This is internal function is equivalent to `approve`, and can be used to\n     * e.g. set automatic allowances for certain subsystems, etc.\n     *\n     * Emits an `Approval` event.\n     *\n     * Requirements:\n     *\n     * - `owner` cannot be the zero address.\n     * - `spender` cannot be the zero address.\n     */\n    function _approve(\n        address owner,\n        address spender,\n        uint256 value\n    ) internal {\n        require(owner != address(0), \"ERC20: approve from the zero address\");\n        require(spender != address(0), \"ERC20: approve to the zero address\");\n\n        _allowances[owner][spender] = value;\n        emit Approval(owner, spender, value);\n    }\n}\n\ncontract Swan is ERC20 {\n    using SafeMath for uint256;\n    string public name;\n    string public symbol;\n    uint8 public constant decimals = 18;\n\n    uint256 public teamMemberHrWallet = 5000000000 ether;\n\n    mapping(address => uint256) public teamTokensLeft;\n\n    bool public contractSaleOver = false;\n    uint256 public contractSaleOverTime;\n\n    constructor() public Ownable() {\n        name = \"Swan Finance\";\n        symbol = \"SWAN\";\n        _mint(owner(), 50000000000 ether);\n    }\n\n    /**\n     * @dev See `IERC20.transfer`.\n     *\n     * Requirements:\n     *\n     * - `recipient` cannot be the zero address.\n     * - the caller must have a balance of at least `amount`.\n     */\n    function transfer(address recipient, uint256 amount)\n        public\n        whenNotPaused\n        returns (bool)\n    {\n        super._transfer(msg.sender, recipient, amount);\n\n        return true;\n    }\n\n    /**\n     * @dev See `IERC20.transferFrom`.\n     *\n     * Emits an `Approval` event indicating the updated allowance. This is not\n     * required by the EIP. See the note at the beginning of `ERC20`;\n     *\n     * Requirements:\n     * - `sender` and `recipient` cannot be the zero address.\n     * - `sender` must have a balance of at least `value`.\n     * - the caller must have allowance for `sender`'s tokens of at least\n     * `amount`.\n     */\n    function transferFrom(\n        address sender,\n        address recipient,\n        uint256 amount\n    ) external whenNotPaused returns (bool) {\n        super._transferFrom(sender, recipient, amount);\n\n        return true;\n    }\n\n    function sendTeamMemberHrWallet(address userAddress, uint256 value)\n        external\n        whenNotPaused\n        onlyOwner\n        returns (bool)\n    {\n        require(\n            teamMemberHrWallet >= value,\n            \"Team and HR wallet has less tokens then value\"\n        );\n        teamMemberHrWallet = teamMemberHrWallet.sub(value);\n        uint256 halfTokens = value.div(2);\n        teamTokensLeft[userAddress] = halfTokens.add(\n            teamTokensLeft[userAddress]\n        );\n        transfer(userAddress, halfTokens);\n        transfer(address(this), halfTokens);\n        return true;\n    }\n\n    function redeemTeamTokensLeft() external whenNotPaused returns (bool) {\n        require(teamTokensLeft[msg.sender] > 0, \"Zero team tokens left\");\n        require(\n            contractSaleOver && now > contractSaleOverTime.add(15552000),\n            \"Either sale is not over or 6 months not complete yet\"\n        ); // 86400306\n        super._transfer(address(this), msg.sender, teamTokensLeft[msg.sender]);\n        teamTokensLeft[msg.sender] = 0;\n        return true;\n    }\n\n    function saleOverSet() external onlyOwner whenNotPaused returns (bool) {\n        require(!contractSaleOver);\n        contractSaleOver = true;\n        contractSaleOverTime = now;\n        return true;\n    }\n\n}\n",
  "sourcePath": "/home/zaryab/blockchain_begins/all_about_ethereum/quillHash_CODES/NewSwan/swan_smart_contracts/contracts/Swan.sol",
  "compiler": {
    "name": "solc",
    "version": "0.5.16+commit.9c3226ce.Emscripten.clang"
  },
  "schemaVersion": "3.2.2",
  "updatedAt": "2020-12-15T09:44:40.579Z",
  "networkType": "ethereum",
  "devdoc": {
    "methods": {
      "allowance(address,address)": {
        "details": "See `IERC20.allowance`."
      },
      "approve(address,uint256)": {
        "details": "See `IERC20.approve`.     * Requirements:     * - `spender` cannot be the zero address."
      },
      "balanceOf(address)": {
        "details": "See `IERC20.balanceOf`."
      },
      "decreaseAllowance(address,uint256)": {
        "details": "Atomically decreases the allowance granted to `spender` by the caller.     * This is an alternative to `approve` that can be used as a mitigation for problems described in `IERC20.approve`.     * Emits an `Approval` event indicating the updated allowance.     * Requirements:     * - `spender` cannot be the zero address. - `spender` must have allowance for the caller of at least `subtractedValue`."
      },
      "increaseAllowance(address,uint256)": {
        "details": "Atomically increases the allowance granted to `spender` by the caller.     * This is an alternative to `approve` that can be used as a mitigation for problems described in `IERC20.approve`.     * Emits an `Approval` event indicating the updated allowance.     * Requirements:     * - `spender` cannot be the zero address."
      },
      "isOwner()": {
        "details": "Returns true if the caller is the current owner."
      },
      "owner()": {
        "details": "Returns the address of the current owner."
      },
      "pause()": {
        "details": "Called by a pauser to pause, triggers stopped state."
      },
      "paused()": {
        "details": "Returns true if the contract is paused, and false otherwise."
      },
      "renounceOwnership()": {
        "details": "Leaves the contract without owner. It will not be possible to call `onlyOwner` functions anymore. Can only be called by the current owner.     * NOTE: Renouncing ownership will leave the contract without an owner, thereby removing any functionality that is only available to the owner."
      },
      "totalSupply()": {
        "details": "See `IERC20.totalSupply`."
      },
      "transfer(address,uint256)": {
        "details": "See `IERC20.transfer`.     * Requirements:     * - `recipient` cannot be the zero address. - the caller must have a balance of at least `amount`."
      },
      "transferFrom(address,address,uint256)": {
        "details": "See `IERC20.transferFrom`.     * Emits an `Approval` event indicating the updated allowance. This is not required by the EIP. See the note at the beginning of `ERC20`;     * Requirements: - `sender` and `recipient` cannot be the zero address. - `sender` must have a balance of at least `value`. - the caller must have allowance for `sender`'s tokens of at least `amount`."
      },
      "transferOwnership(address)": {
        "details": "Transfers ownership of the contract to a new account (`newOwner`). Can only be called by the current owner."
      },
      "unpause()": {
        "details": "Called by a pauser to unpause, returns to normal state."
      }
    }
  },
  "userdoc": {
    "methods": {}
  }
}