{
  "contractName": "SwanStake",
  "abi": [
    {
      "inputs": [
        {
          "internalType": "address",
          "name": "swanToken",
          "type": "address"
        }
      ],
      "payable": false,
      "stateMutability": "nonpayable",
      "type": "constructor"
    },
    {
      "anonymous": false,
      "inputs": [
        {
          "indexed": true,
          "internalType": "address",
          "name": "_user",
          "type": "address"
        },
        {
          "indexed": false,
          "internalType": "uint256",
          "name": "_amount",
          "type": "uint256"
        }
      ],
      "name": "ClaimedInterestTokens",
      "type": "event"
    },
    {
      "anonymous": false,
      "inputs": [
        {
          "indexed": true,
          "internalType": "address",
          "name": "_user",
          "type": "address"
        },
        {
          "indexed": false,
          "internalType": "uint256",
          "name": "_amount",
          "type": "uint256"
        }
      ],
      "name": "ClaimedStakedTokens",
      "type": "event"
    },
    {
      "anonymous": false,
      "inputs": [
        {
          "indexed": true,
          "internalType": "address",
          "name": "_user",
          "type": "address"
        },
        {
          "indexed": false,
          "internalType": "uint256",
          "name": "_amount",
          "type": "uint256"
        },
        {
          "indexed": false,
          "internalType": "uint256",
          "name": "_lockupPeriod",
          "type": "uint256"
        },
        {
          "indexed": false,
          "internalType": "uint256",
          "name": "_interest",
          "type": "uint256"
        }
      ],
      "name": "OneMonthStaked",
      "type": "event"
    },
    {
      "anonymous": false,
      "inputs": [
        {
          "indexed": true,
          "internalType": "address",
          "name": "from",
          "type": "address"
        },
        {
          "indexed": true,
          "internalType": "address",
          "name": "_to",
          "type": "address"
        }
      ],
      "name": "OwnershipTransferred",
      "type": "event"
    },
    {
      "anonymous": false,
      "inputs": [],
      "name": "Pause",
      "type": "event"
    },
    {
      "anonymous": false,
      "inputs": [
        {
          "indexed": true,
          "internalType": "address",
          "name": "_user",
          "type": "address"
        },
        {
          "indexed": false,
          "internalType": "uint256",
          "name": "_amount",
          "type": "uint256"
        },
        {
          "indexed": false,
          "internalType": "uint256",
          "name": "_lockupPeriod",
          "type": "uint256"
        },
        {
          "indexed": false,
          "internalType": "uint256",
          "name": "_interest",
          "type": "uint256"
        }
      ],
      "name": "ThreeMonthStaked",
      "type": "event"
    },
    {
      "anonymous": false,
      "inputs": [
        {
          "indexed": true,
          "internalType": "address",
          "name": "_user",
          "type": "address"
        },
        {
          "indexed": false,
          "internalType": "uint256",
          "name": "_amount",
          "type": "uint256"
        }
      ],
      "name": "TokenRewardTransferred",
      "type": "event"
    },
    {
      "anonymous": false,
      "inputs": [],
      "name": "Unpause",
      "type": "event"
    },
    {
      "anonymous": false,
      "inputs": [
        {
          "indexed": true,
          "internalType": "address",
          "name": "_user",
          "type": "address"
        },
        {
          "indexed": false,
          "internalType": "uint256",
          "name": "_amount",
          "type": "uint256"
        },
        {
          "indexed": false,
          "internalType": "uint256",
          "name": "_lockupPeriod",
          "type": "uint256"
        },
        {
          "indexed": false,
          "internalType": "uint256",
          "name": "_interest",
          "type": "uint256"
        }
      ],
      "name": "staked",
      "type": "event"
    },
    {
      "constant": false,
      "inputs": [],
      "name": "acceptOwnership",
      "outputs": [],
      "payable": false,
      "stateMutability": "nonpayable",
      "type": "function"
    },
    {
      "constant": true,
      "inputs": [
        {
          "internalType": "address",
          "name": "",
          "type": "address"
        },
        {
          "internalType": "uint256",
          "name": "",
          "type": "uint256"
        }
      ],
      "name": "checkCycle",
      "outputs": [
        {
          "internalType": "bool",
          "name": "",
          "type": "bool"
        }
      ],
      "payable": false,
      "stateMutability": "view",
      "type": "function"
    },
    {
      "constant": true,
      "inputs": [],
      "name": "currentPrice",
      "outputs": [
        {
          "internalType": "uint256",
          "name": "",
          "type": "uint256"
        }
      ],
      "payable": false,
      "stateMutability": "view",
      "type": "function"
    },
    {
      "constant": true,
      "inputs": [
        {
          "internalType": "address",
          "name": "",
          "type": "address"
        },
        {
          "internalType": "uint256",
          "name": "",
          "type": "uint256"
        }
      ],
      "name": "interestAccountDetails",
      "outputs": [
        {
          "internalType": "uint256",
          "name": "amount",
          "type": "uint256"
        },
        {
          "internalType": "uint256",
          "name": "time",
          "type": "uint256"
        },
        {
          "internalType": "uint256",
          "name": "interestRate",
          "type": "uint256"
        },
        {
          "internalType": "uint256",
          "name": "interestPayouts",
          "type": "uint256"
        },
        {
          "internalType": "uint256",
          "name": "timeperiod",
          "type": "uint256"
        },
        {
          "internalType": "bool",
          "name": "withdrawn",
          "type": "bool"
        }
      ],
      "payable": false,
      "stateMutability": "view",
      "type": "function"
    },
    {
      "constant": true,
      "inputs": [
        {
          "internalType": "address",
          "name": "",
          "type": "address"
        }
      ],
      "name": "interestAccountNumber",
      "outputs": [
        {
          "internalType": "uint256",
          "name": "",
          "type": "uint256"
        }
      ],
      "payable": false,
      "stateMutability": "view",
      "type": "function"
    },
    {
      "constant": true,
      "inputs": [
        {
          "internalType": "address",
          "name": "",
          "type": "address"
        }
      ],
      "name": "isStaker",
      "outputs": [
        {
          "internalType": "bool",
          "name": "",
          "type": "bool"
        }
      ],
      "payable": false,
      "stateMutability": "view",
      "type": "function"
    },
    {
      "constant": true,
      "inputs": [
        {
          "internalType": "address",
          "name": "",
          "type": "address"
        },
        {
          "internalType": "uint256",
          "name": "",
          "type": "uint256"
        }
      ],
      "name": "lastPayoutCall",
      "outputs": [
        {
          "internalType": "uint256",
          "name": "",
          "type": "uint256"
        }
      ],
      "payable": false,
      "stateMutability": "view",
      "type": "function"
    },
    {
      "constant": true,
      "inputs": [],
      "name": "newOwner",
      "outputs": [
        {
          "internalType": "address",
          "name": "",
          "type": "address"
        }
      ],
      "payable": false,
      "stateMutability": "view",
      "type": "function"
    },
    {
      "constant": true,
      "inputs": [],
      "name": "owner",
      "outputs": [
        {
          "internalType": "address",
          "name": "",
          "type": "address"
        }
      ],
      "payable": false,
      "stateMutability": "view",
      "type": "function"
    },
    {
      "constant": false,
      "inputs": [],
      "name": "pause",
      "outputs": [],
      "payable": false,
      "stateMutability": "nonpayable",
      "type": "function"
    },
    {
      "constant": true,
      "inputs": [],
      "name": "paused",
      "outputs": [
        {
          "internalType": "bool",
          "name": "",
          "type": "bool"
        }
      ],
      "payable": false,
      "stateMutability": "view",
      "type": "function"
    },
    {
      "constant": true,
      "inputs": [
        {
          "internalType": "address",
          "name": "",
          "type": "address"
        }
      ],
      "name": "stakeAccountDetails",
      "outputs": [
        {
          "internalType": "uint256",
          "name": "stakedAmount",
          "type": "uint256"
        },
        {
          "internalType": "uint256",
          "name": "time",
          "type": "uint256"
        },
        {
          "internalType": "uint256",
          "name": "interestRate",
          "type": "uint256"
        },
        {
          "internalType": "bool",
          "name": "unstaked",
          "type": "bool"
        }
      ],
      "payable": false,
      "stateMutability": "view",
      "type": "function"
    },
    {
      "constant": true,
      "inputs": [],
      "name": "swanTokenAddress",
      "outputs": [
        {
          "internalType": "address",
          "name": "",
          "type": "address"
        }
      ],
      "payable": false,
      "stateMutability": "view",
      "type": "function"
    },
    {
      "constant": true,
      "inputs": [
        {
          "internalType": "address",
          "name": "",
          "type": "address"
        },
        {
          "internalType": "uint256",
          "name": "",
          "type": "uint256"
        }
      ],
      "name": "totalPoolRewards",
      "outputs": [
        {
          "internalType": "uint256",
          "name": "",
          "type": "uint256"
        }
      ],
      "payable": false,
      "stateMutability": "view",
      "type": "function"
    },
    {
      "constant": false,
      "inputs": [
        {
          "internalType": "address",
          "name": "newOwnerAddress",
          "type": "address"
        }
      ],
      "name": "transferOwnership",
      "outputs": [],
      "payable": false,
      "stateMutability": "nonpayable",
      "type": "function"
    },
    {
      "constant": false,
      "inputs": [],
      "name": "unpause",
      "outputs": [],
      "payable": false,
      "stateMutability": "nonpayable",
      "type": "function"
    },
    {
      "constant": true,
      "inputs": [
        {
          "internalType": "address",
          "name": "",
          "type": "address"
        }
      ],
      "name": "userTotalStakes",
      "outputs": [
        {
          "internalType": "uint256",
          "name": "",
          "type": "uint256"
        }
      ],
      "payable": false,
      "stateMutability": "view",
      "type": "function"
    },
    {
      "constant": true,
      "inputs": [],
      "name": "totalStakedTokens",
      "outputs": [
        {
          "internalType": "uint256",
          "name": "",
          "type": "uint256"
        }
      ],
      "payable": false,
      "stateMutability": "view",
      "type": "function"
    },
    {
      "constant": false,
      "inputs": [
        {
          "internalType": "uint256",
          "name": "_newPrice",
          "type": "uint256"
        }
      ],
      "name": "setPrice",
      "outputs": [
        {
          "internalType": "bool",
          "name": "",
          "type": "bool"
        }
      ],
      "payable": false,
      "stateMutability": "nonpayable",
      "type": "function"
    },
    {
      "constant": false,
      "inputs": [
        {
          "internalType": "uint256",
          "name": "_amount",
          "type": "uint256"
        }
      ],
      "name": "stake",
      "outputs": [
        {
          "internalType": "bool",
          "name": "",
          "type": "bool"
        }
      ],
      "payable": false,
      "stateMutability": "nonpayable",
      "type": "function"
    },
    {
      "constant": false,
      "inputs": [
        {
          "internalType": "uint256",
          "name": "amount",
          "type": "uint256"
        },
        {
          "internalType": "uint256",
          "name": "duration",
          "type": "uint256"
        }
      ],
      "name": "earnInterest",
      "outputs": [
        {
          "internalType": "bool",
          "name": "",
          "type": "bool"
        }
      ],
      "payable": false,
      "stateMutability": "nonpayable",
      "type": "function"
    },
    {
      "constant": false,
      "inputs": [
        {
          "internalType": "uint256",
          "name": "id",
          "type": "uint256"
        }
      ],
      "name": "claimInterestTokens",
      "outputs": [],
      "payable": false,
      "stateMutability": "nonpayable",
      "type": "function"
    },
    {
      "constant": false,
      "inputs": [],
      "name": "claimStakeTokens",
      "outputs": [],
      "payable": false,
      "stateMutability": "nonpayable",
      "type": "function"
    },
    {
      "constant": false,
      "inputs": [
        {
          "internalType": "uint256",
          "name": "id",
          "type": "uint256"
        }
      ],
      "name": "payOuts",
      "outputs": [
        {
          "internalType": "bool",
          "name": "",
          "type": "bool"
        }
      ],
      "payable": false,
      "stateMutability": "nonpayable",
      "type": "function"
    }
  ],
  "bytecode": "0x60806040526001805460ff60a01b1916905534801561001d57600080fd5b5060405161225f38038061225f8339818101604052602081101561004057600080fd5b5051600080546001600160a01b03199081163317909155600280546001600160a01b0390931692909116919091179055670de0b6b3a76400006003556121d48061008b6000396000f3fe608060405234801561001057600080fd5b50600436106101585760003560e01c806391b7f5ed116100c3578063aed547051161007c578063aed547051461035e578063d4ee1d901461037b578063ed43e41c14610383578063f2fde38b146103a0578063f35dba44146103c6578063f3c2399b146103f257610158565b806391b7f5ed146102a75780639219b349146102c457806395c1c55b146102ea5780639d1b464a1461030d578063a694fc3a14610315578063a94351b01461033257610158565b80635c975abb116101155780635c975abb14610213578063646bdd1c1461021b5780636f1e85331461026957806379ba50971461028f5780638456cb59146102975780638da5cb5b1461029f57610158565b806304ffb5801461015d5780630c5467be146101675780633ae732591461019f5780633f4ba83a146101a75780634620b243146101af578063497e3fa1146101d3575b600080fd5b610165610453565b005b61018d6004803603602081101561017d57600080fd5b50356001600160a01b031661076d565b60408051918252519081900360200190f35b61018d61077f565b6101656107fb565b6101b76108e3565b604080516001600160a01b039092168252519081900360200190f35b6101ff600480360360408110156101e957600080fd5b506001600160a01b0381351690602001356108f2565b604080519115158252519081900360200190f35b6101ff610912565b6102416004803603602081101561023157600080fd5b50356001600160a01b0316610922565b6040805194855260208501939093528383019190915215156060830152519081900360800190f35b6101ff6004803603602081101561027f57600080fd5b50356001600160a01b031661094c565b610165610961565b610165610a24565b6101b7610b0f565b6101ff600480360360208110156102bd57600080fd5b5035610b1e565b61018d600480360360208110156102da57600080fd5b50356001600160a01b0316610bcb565b6101ff6004803603604081101561030057600080fd5b5080359060200135610bdd565b61018d61115a565b6101ff6004803603602081101561032b57600080fd5b5035611160565b61018d6004803603604081101561034857600080fd5b506001600160a01b0381351690602001356113e7565b6101656004803603602081101561037457600080fd5b5035611404565b6101b761177c565b6101ff6004803603602081101561039957600080fd5b503561178b565b610165600480360360208110156103b657600080fd5b50356001600160a01b0316611b4a565b61018d600480360360408110156103dc57600080fd5b506001600160a01b038135169060200135611c0a565b61041e6004803603604081101561040857600080fd5b506001600160a01b038135169060200135611c27565b6040805196875260208701959095528585019390935260608501919091526080840152151560a0830152519081900360c00190f35b600154600160a01b900460ff16156104a7576040805162461bcd60e51b815260206004820152601260248201527110dbdb9d1c9858dd081a5cc814185d5cd95960721b604482015290519081900360640190fd5b3360009081526004602052604090205460ff16610502576040805162461bcd60e51b81526020600482015260146024820152732ab9b2b91034b9903737ba10309029ba30b5b2b960611b604482015290519081900360640190fd5b61050a612058565b503360009081526007602090815260409182902082516080810184528154815260018201549281018390526002820154938101939093526003015460ff16151560608301526105629062a081c863ffffffff611c6a16565b4210156105b6576040805162461bcd60e51b815260206004820152601a60248201527f4c6f636b557020506572696f64204e4f54204f56455220596574000000000000604482015290519081900360640190fd5b80516000906105df906064906105d390600e63ffffffff611ccb16565b9063ffffffff611d2416565b82519091506000906105f7908363ffffffff611c6a16565b6002546040805163a9059cbb60e01b81523360048201526024810184905290519293506001600160a01b039091169163a9059cbb916044808201926020929091908290030181600087803b15801561064e57600080fd5b505af1158015610662573d6000803e3d6000fd5b505050506040513d602081101561067857600080fd5b50516106c3576040805162461bcd60e51b8152602060048201526015602482015274151bdad95b88151c985b9cd9995c8811985a5b1959605a1b604482015290519081900360640190fd5b825133600081815260056020908152604080832080549590950390945560048152838220805460ff19908116909155600160608901818152858552600784529386902089518155838a015191810191909155858901516002820155925160039093018054909116921515929092179091558251848152925191927fbd47c9811d6122cf81172cea835b94568889b3ae4a47114dcbb68287e7f18114929081900390910190a2505050565b60056020526000908152604090205481565b600254604080516370a0823160e01b815230600482015290516000926001600160a01b0316916370a08231916024808301926020929190829003018186803b1580156107ca57600080fd5b505afa1580156107de573d6000803e3d6000fd5b505050506040513d60208110156107f457600080fd5b5051905090565b6000546001600160a01b03163314610854576040805162461bcd60e51b815260206004820152601760248201527621b0b63632b91034b9902737ba103a34329027aba722a960491b604482015290519081900360640190fd5b600154600160a01b900460ff166108ab576040805162461bcd60e51b815260206004820152601660248201527510dbdb9d1c9858dd081a5cc8139bdd0814185d5cd95960521b604482015290519081900360640190fd5b6001805460ff60a01b191690556040517f7805862f689e2f13df9f062ff482ad3ad112aca9e0847911ed832e158c525b3390600090a1565b6002546001600160a01b031681565b600a60209081526000928352604080842090915290825290205460ff1681565b600154600160a01b900460ff1681565b60076020526000908152604090208054600182015460028301546003909301549192909160ff1684565b60046020526000908152604090205460ff1681565b6001546001600160a01b031633146109c0576040805162461bcd60e51b815260206004820181905260248201527f43616c6c6572206973206e6f74207468652073656c6563746564204f776e6572604482015290519081900360640190fd5b600154600080546040516001600160a01b0393841693909116917f8be0079c531659141344cd1fd0a4f28419497f9722a3daafe3b4186f6b6457e091a360018054600080546001600160a01b03199081166001600160a01b03841617909155169055565b6000546001600160a01b03163314610a7d576040805162461bcd60e51b815260206004820152601760248201527621b0b63632b91034b9902737ba103a34329027aba722a960491b604482015290519081900360640190fd5b600154600160a01b900460ff1615610ad1576040805162461bcd60e51b815260206004820152601260248201527110dbdb9d1c9858dd081a5cc814185d5cd95960721b604482015290519081900360640190fd5b6001805460ff60a01b1916600160a01b1790556040517f6985a02210a168e66602d3235cb6db0e70f92b3ba4d376a33c0f3d9434bff62590600090a1565b6000546001600160a01b031681565b600080546001600160a01b03163314610b78576040805162461bcd60e51b815260206004820152601760248201527621b0b63632b91034b9902737ba103a34329027aba722a960491b604482015290519081900360640190fd5b60008211610bbd576040805162461bcd60e51b815260206004820152600d60248201526c496e76616c696420507269636560981b604482015290519081900360640190fd5b50600381905560015b919050565b60066020526000908152604090205481565b600154600090600160a01b900460ff1615610c34576040805162461bcd60e51b815260206004820152601260248201527110dbdb9d1c9858dd081a5cc814185d5cd95960721b604482015290519081900360640190fd5b60008311610c89576040805162461bcd60e51b815260206004820152601f60248201527f416d6f756e742063616e206e6f7420626520657175616c20746f205a45524f00604482015290519081900360640190fd5b60008211610cde576040805162461bcd60e51b815260206004820152601860248201527f4475726174696f6e2063616e206e6f74206265205a65726f0000000000000000604482015290519081900360640190fd5b600254604080516323b872dd60e01b81523360048201523060248201526044810186905290516001600160a01b03909216916323b872dd916064808201926020929091908290030181600087803b158015610d3857600080fd5b505af1158015610d4c573d6000803e3d6000fd5b505050506040513d6020811015610d6257600080fd5b5051610dac576040805162461bcd60e51b81526020600482015260146024820152731d1c985b9cd9995c88119c9bdb4819985a5b195960621b604482015290519081900360640190fd5b33600090815260066020526040812054610dcd90600163ffffffff611c6a16565b3360009081526004602052604090205490915060ff1615610f7d578260031415610eb2576040805160c081018252858152426020808301918252601483850181815260006060808701828152608088018c815260a0890184815233808652600b89528b86208d87528952948b902099518a55975160018a0155935160028901555160038801559151600487015593516005909501805460ff191695151595909517909455845189815291820188905281850152925190927f69bb5862632e2ed4e2ba54e9c4e6dc48a2fd0a8fe5ea658dcce7450203325f7e92908290030190a2610f78565b8260011415610f78576040805160c081018252858152426020808301918252601083850181815260006060808701828152608088018c815260a0890184815233808652600b89528b86208d87528952948b902099518a55975160018a0155935160028901555160038801559151600487015593516005909501805460ff191695151595909517909455845189815291820188905281850152925190927f75baf18dd952d61997aa64973d6bf5254c0e4986067d8d7732bf47fade3acf5092908290030190a25b61110d565b8260031415611047576040805160c081018252858152426020808301918252601083850181815260006060808701828152608088018c815260a0890184815233808652600b89528b86208d87528952948b902099518a55975160018a0155935160028901555160038801559151600487015593516005909501805460ff191695151595909517909455845189815291820188905281850152925190927f69bb5862632e2ed4e2ba54e9c4e6dc48a2fd0a8fe5ea658dcce7450203325f7e92908290030190a261110d565b826001141561110d576040805160c081018252858152426020808301918252600c83850181815260006060808701828152608088018c815260a0890184815233808652600b89528b86208d87528952948b902099518a55975160018a0155935160028901555160038801559151600487015593516005909501805460ff191695151595909517909455845189815291820188905281850152925190927f75baf18dd952d61997aa64973d6bf5254c0e4986067d8d7732bf47fade3acf5092908290030190a25b336000908152600560209081526040808320805488019055600690915290205461113e90600163ffffffff611c6a16565b3360009081526006602052604090205550600190505b92915050565b60035481565b600154600090600160a01b900460ff16156111b7576040805162461bcd60e51b815260206004820152601260248201527110dbdb9d1c9858dd081a5cc814185d5cd95960721b604482015290519081900360640190fd5b3360009081526004602052604090205460ff16156112065760405162461bcd60e51b815260040180806020018281038252602b8152602001806120bb602b913960400191505060405180910390fd5b60035461121b906107d063ffffffff611ccb16565b8210156112595760405162461bcd60e51b815260040180806020018281038252602181526020018061217f6021913960400191505060405180910390fd5b600254604080516323b872dd60e01b81523360048201523060248201526044810185905290516001600160a01b03909216916323b872dd916064808201926020929091908290030181600087803b1580156112b357600080fd5b505af11580156112c7573d6000803e3d6000fd5b505050506040513d60208110156112dd57600080fd5b5051611328576040805162461bcd60e51b8152602060048201526015602482015274151bdad95b88151c985b9cd9995c8811985a5b1959605a1b604482015290519081900360640190fd5b60408051608081018252838152426020808301918252600e83850181815260006060808701828152338084526007875289842098518955965160018981019190915593516002890155516003909701805497151560ff19988916179055600480865288832080549098169093179096556005845286902080548901905585518881529283015281850152925190927ffee41ab8d413b04bf85ae4b4d4a2652bae467f4763d02c3568697de3c58f251d92908290030190a2506001919050565b600860209081526000928352604080842090915290825290205481565b600154600160a01b900460ff1615611458576040805162461bcd60e51b815260206004820152601260248201527110dbdb9d1c9858dd081a5cc814185d5cd95960721b604482015290519081900360640190fd5b611460612082565b50336000908152600b60209081526040808320848452825291829020825160c081018452815481526001820154928101929092526002810154928201929092526003820154606082015260048201546080820181905260059092015460ff16151560a0820152906114ef906114de906228207263ffffffff611ccb16565b60208301519063ffffffff611c6a16565b42101561153a576040805162461bcd60e51b81526020600482015260146024820152732232b0b23634b7329034b9903737ba1037bb32b960611b604482015290519081900360640190fd5b805161158d576040805162461bcd60e51b815260206004820152601760248201527f496e76657374656420416d6f756e74206973205a45524f000000000000000000604482015290519081900360640190fd5b60006115af60646105d384604001518560000151611ccb90919063ffffffff16565b336000908152600960209081526040808320878452909152812054919250906115df90839063ffffffff611d8e16565b83519091506000906115f7908363ffffffff611c6a16565b6002546040805163a9059cbb60e01b81523360048201526024810184905290519293506001600160a01b039091169163a9059cbb916044808201926020929091908290030181600087803b15801561164e57600080fd5b505af1158015611662573d6000803e3d6000fd5b505050506040513d602081101561167857600080fd5b50516116c3576040805162461bcd60e51b8152602060048201526015602482015274151bdad95b88151c985b9cd9995c8811985a5b1959605a1b604482015290519081900360640190fd5b8351336000818152600560208181526040808420805496909603909555600160a08a01818152848b52858552600b83528685208c86528352938690208a518155828b015191810191909155858a0151600282015560608a0151600382015560808a01516004820155925192909101805460ff1916921515929092179091558251848152925191927f89b2b6c7333ee2dd53fa794ea552cbb29898205a789cb55f4ee361b5dd773e7d929081900390910190a25050505050565b6001546001600160a01b031681565b6000611795612082565b50336000908152600b60209081526040808320858452825291829020825160c081018452815481526001820154928101929092526002810154928201929092526003820154606082015260048201546080820181905260059092015460ff16151560a082015290611813906114de906228207263ffffffff611ccb16565b421115611867576040805162461bcd60e51b815260206004820152601760248201527f5265776172642054696d656c696e65206973204f766572000000000000000000604482015290519081900360640190fd5b8060a00151156118a85760405162461bcd60e51b815260040180806020018281038252602181526020018061215e6021913960400191505060405180910390fd5b60006118b43385611deb565b905060008111611903576040805162461bcd60e51b81526020600482015260156024820152744379636c65206973206e6f7420636f6d706c65746560581b604482015290519081900360640190fd5b600061192560646105d385604001518660000151611ccb90919063ffffffff16565b9050600061195161194460048660800151611ccb90919063ffffffff16565b839063ffffffff611d2416565b9050611963818463ffffffff611ccb16565b846060015111611b4157606084015160009061199590611989848763ffffffff611ccb16565b9063ffffffff611d8e16565b3360009081526009602090815260408083208b845290915290205490915083906119c690839063ffffffff611c6a16565b1115611a035760405162461bcd60e51b81526004018080602001828103825260298152602001806121356029913960400191505060405180910390fd5b611a13828563ffffffff611ccb16565b60608601526002546040805163a9059cbb60e01b81523360048201526024810184905290516001600160a01b039092169163a9059cbb916044808201926020929091908290030181600087803b158015611a6c57600080fd5b505af1158015611a80573d6000803e3d6000fd5b505050506040513d6020811015611a9657600080fd5b5051611ae1576040805162461bcd60e51b8152602060048201526015602482015274151bdad95b88151c985b9cd9995c8811985a5b1959605a1b604482015290519081900360640190fd5b3360008181526009602090815260408083208b8452825291829020805485019055815184815291517fd5389b45bf6209c2a9ec252ebe58ed40632751b68d518faad53f67a3f3a0a1a09281900390910190a2600195505050505050610bc6565b50505050919050565b6000546001600160a01b03163314611ba3576040805162461bcd60e51b815260206004820152601760248201527621b0b63632b91034b9902737ba103a34329027aba722a960491b604482015290519081900360640190fd5b6001600160a01b038116611be85760405162461bcd60e51b815260040180806020018281038252602e815260200180612107602e913960400191505060405180910390fd5b600180546001600160a01b0319166001600160a01b0392909216919091179055565b600960209081526000928352604080842090915290825290205481565b600b602090815260009283526040808420909152908252902080546001820154600283015460038401546004850154600590950154939492939192909160ff1686565b600082820183811015611cc4576040805162461bcd60e51b815260206004820152601b60248201527f536166654d6174683a206164646974696f6e206f766572666c6f770000000000604482015290519081900360640190fd5b9392505050565b600082611cda57506000611154565b82820282848281611ce757fe5b0414611cc45760405162461bcd60e51b81526004018080602001828103825260218152602001806120e66021913960400191505060405180910390fd5b6000808211611d7a576040805162461bcd60e51b815260206004820152601a60248201527f536166654d6174683a206469766973696f6e206279207a65726f000000000000604482015290519081900360640190fd5b6000828481611d8557fe5b04949350505050565b600082821115611de5576040805162461bcd60e51b815260206004820152601e60248201527f536166654d6174683a207375627472616374696f6e206f766572666c6f770000604482015290519081900360640190fd5b50900390565b6000611df5612082565b506001600160a01b0383166000908152600b60209081526040808320858452825291829020825160c081018452815480825260018301549382019390935260028201549381019390935260038101546060840152600481015460808401526005015460ff16151560a0830152611eb2576040805162461bcd60e51b815260206004820152601860248201527f416d6f756e742057697468647261776e20416c72656164790000000000000000604482015290519081900360640190fd5b6001600160a01b0384166000908152600a6020908152604080832086845290915281205460ff1615611f1a576001600160a01b0385166000908152600860209081526040808320878452909152902054611f1390429063ffffffff611d8e16565b9050611f61565b6020820151611f3090429063ffffffff611d8e16565b6001600160a01b0386166000908152600a602090815260408083208884529091529020805460ff1916600117905590505b6154608111611f7557600092505050611154565b615460811115612050576001600160a01b038516600090815260086020908152604080832087845290915290205461546090611fb890429063ffffffff611d8e16565b101561200b576040805162461bcd60e51b815260206004820152601a60248201527f43616e6e6f742043616c6c204265666f7265203620686f757273000000000000604482015290519081900360640190fd5b600061201f8261546063ffffffff611d2416565b6001600160a01b03871660009081526008602090815260408083208984529091529020429055935061115492505050565b505092915050565b60405180608001604052806000815260200160008152602001600081526020016000151581525090565b6040518060c001604052806000815260200160008152602001600081526020016000815260200160008152602001600015158152509056fe50726576696f7573205374616b656420416d6f756e74206973206e6f742057697468647261776e20796574536166654d6174683a206d756c7469706c69636174696f6e206f766572666c6f77496e76616c696420416464726573733a204e6577206f776e657220697320746865207a65726f2061646472657373546f74616c20496e7465726573742068617320616c7265616479206265656e20676976656e206f7574416d6f756e742048617320616c7265616479204265656e2057697468647261776e5374616b696e6720416d6f756e74206973204c657373205468616e202432303030a265627a7a723158208ad765cfbce78f432f5efa214deab1247b1d71806e1097010a431cac07ec266064736f6c63430005100032",
  "source": "pragma solidity 0.5.16;\n\ninterface ERC20 {\n\n    function transferFrom (address,address, uint256) external returns (bool);\n    function balanceOf(address) external view returns (uint256);\n    function allowance(address, address) external view returns (uint256);\n    function transfer (address, uint256) external returns (bool);\n\n}\n\ncontract Owned {\n\n    address public owner;\n    address public newOwner;\n\n    event OwnershipTransferred(address indexed from, address indexed _to);\n\n    constructor(address _owner) public {\n        owner = _owner;\n    }\n\n    modifier onlyOwner {\n        require(msg.sender == owner,\"Caller is Not the OWNER\");\n        _;\n    }\n\n    function transferOwnership(address newOwnerAddress) external onlyOwner {\n        require(newOwnerAddress != address(0), \"Invalid Address: New owner is the zero address\");\n        newOwner = newOwnerAddress;\n    }\n    function acceptOwnership() external {\n        require(msg.sender == newOwner,\"Caller is not the selected Owner\");\n        emit OwnershipTransferred(owner, newOwner);\n        owner = newOwner;\n        newOwner = address(0);\n    }\n}\n\ncontract Pausable is Owned {\n    event Pause();\n    event Unpause();\n\n    bool public paused = false;\n\n    modifier whenNotPaused() {\n      require(!paused,\"Contract is Paused\");\n      _;\n    }\n\n    modifier whenPaused() {\n      require(paused,\"Contract is Not Paused\");\n      _;\n    }\n\n    function pause() onlyOwner whenNotPaused external {\n      paused = true;\n      emit Pause();\n    }\n\n    function unpause() onlyOwner whenPaused external {\n      paused = false;\n      emit Unpause();\n    }\n}\n\n\n/**\n * @dev Wrappers over Solidity's arithmetic operations with added overflow\n * checks.\n *\n * Arithmetic operations in Solidity wrap on overflow. This can easily result\n * in bugs, because programmers usually assume that an overflow raises an\n * error, which is the standard behavior in high level programming languages.\n * `SafeMath` restores this intuition by reverting the transaction when an\n * operation overflows.\n *\n * Using this library instead of the unchecked operations eliminates an entire\n * class of bugs, so it's recommended to use it always.\n */\nlibrary SafeMath {\n    /**\n     * @dev Returns the addition of two unsigned integers, reverting on\n     * overflow.\n     *\n     * Counterpart to Solidity's `+` operator.\n     *\n     * Requirements:\n     * - Addition cannot overflow.\n     */\n    function add(uint256 a, uint256 b) internal pure returns (uint256) {\n        uint256 c = a + b;\n        require(c >= a, \"SafeMath: addition overflow\");\n\n        return c;\n    }\n\n    /**\n     * @dev Returns the subtraction of two unsigned integers, reverting on\n     * overflow (when the result is negative).\n     *\n     * Counterpart to Solidity's `-` operator.\n     *\n     * Requirements:\n     * - Subtraction cannot overflow.\n     */\n    function sub(uint256 a, uint256 b) internal pure returns (uint256) {\n        require(b <= a, \"SafeMath: subtraction overflow\");\n        uint256 c = a - b;\n\n        return c;\n    }\n\n    /**\n     * @dev Returns the multiplication of two unsigned integers, reverting on\n     * overflow.\n     *\n     * Counterpart to Solidity's `*` operator.\n     *\n     * Requirements:\n     * - Multiplication cannot overflow.\n     */\n    function mul(uint256 a, uint256 b) internal pure returns (uint256) {\n        // Gas optimization: this is cheaper than requiring 'a' not being zero, but the\n        // benefit is lost if 'b' is also tested.\n        // See: https://github.com/OpenZeppelin/openzeppelin-solidity/pull/522\n        if (a == 0) {\n            return 0;\n        }\n\n        uint256 c = a * b;\n        require(c / a == b, \"SafeMath: multiplication overflow\");\n\n        return c;\n    }\n\n    /**\n     * @dev Returns the integer division of two unsigned integers. Reverts on\n     * division by zero. The result is rounded towards zero.\n     *\n     * Counterpart to Solidity's `/` operator. Note: this function uses a\n     * `revert` opcode (which leaves remaining gas untouched) while Solidity\n     * uses an invalid opcode to revert (consuming all remaining gas).\n     *\n     * Requirements:\n     * - The divisor cannot be zero.\n     */\n    function div(uint256 a, uint256 b) internal pure returns (uint256) {\n        // Solidity only automatically asserts when dividing by 0\n        require(b > 0, \"SafeMath: division by zero\");\n        uint256 c = a / b;\n        // assert(a == b * c + a % b); // There is no case in which this doesn't hold\n\n        return c;\n    }\n\n}\n\n///@title Swan Staking Contract\ncontract SwanStake is Pausable{\n\n    using SafeMath for uint256;\n    address public swanTokenAddress;\n    uint256 public currentPrice;\n\n    constructor(address swanToken) public Owned(msg.sender) {\n    swanTokenAddress = swanToken;\n    currentPrice = 1 ether;\n  }\n  // @notice Stores STAKE ACCOUNT details of the USER\n    struct StakeAccount{\n      uint256 stakedAmount;\n      uint256 time;\n      uint256 interestRate;\n      bool unstaked;\n    }\n  // @notice Stores INTEREST ACCOUNT details of the USER\n    struct InterestAccount \n    {\n    uint256 amount;\n    uint256 time;\n    uint256 interestRate;\n    uint256 interestPayouts;\n    uint256 timeperiod;\n    bool withdrawn;\n    }\n\n  mapping(address => bool) public isStaker;\n  mapping(address => uint256) public userTotalStakes;\n  mapping (address => uint256) public interestAccountNumber;\n  mapping(address => StakeAccount) public stakeAccountDetails;\n  mapping(address=>mapping(uint256 => uint256)) public lastPayoutCall;\n  mapping(address => mapping(uint256 => uint256)) public totalPoolRewards;\n  mapping(address => mapping(uint256 => bool)) public checkCycle;\n  mapping(address => mapping (uint256 => InterestAccount)) public interestAccountDetails;\n\n\n  //  @dev emitted whenever user stakes tokens in the Stake Account\n  event staked(address indexed _user,uint256 _amount,uint256 _lockupPeriod,uint256 _interest);\n  // @dev emitted whenever user stakes tokens in the Stake Account\n  event ClaimedStakedTokens(address indexed _user,uint256 _amount);\n   // @dev emitted whenever user stakes tokens for One month LockUp period\n  event OneMonthStaked(address indexed _user,uint256 _amount,uint256 _lockupPeriod, uint256 _interest);\n   // @dev emitted whenever user stakes tokens for Three month LockUp period\n  event ThreeMonthStaked(address indexed _user,uint256 _amount,uint256 _lockupPeriod, uint256 _interest);\n   // @dev emitted whenever user's staked tokens are successfully unstaked and trasnferred back to the user\n  event ClaimedInterestTokens(address indexed _user,uint256 _amount);  \n    // @dev emitted whenever weekly token rewards are transferred to the user. \n  event TokenRewardTransferred(address indexed _user,uint256 _amount);\n \n\n  // @dev returns the current tokenBalance of the Stake Contract\n  function totalStakedTokens() external view returns(uint256){\n      return ERC20(swanTokenAddress).balanceOf(address(this));\n  }\n  \n  // @notice owner can set the current price of Swan Token\n  function setPrice(uint256 _newPrice) external onlyOwner returns(bool){\n      require(_newPrice > 0,\"Invalid Price\");\n      currentPrice = _newPrice;\n      return true;\n  }\n   /**\n      * @param _amount - the amount user wants to stake\n      * @dev allows the user to stake the initial $2000 worth of SWAN tokens\n      *      Lists the user as a valid Staker.(by adding True in the isStaker mapping) \n      *      User can earn comparatively more interest on Future stakes by calling this function\n  **/\n  function stake(uint256 _amount) external whenNotPaused returns(bool){\n    require(!isStaker[msg.sender],\"Previous Staked Amount is not Withdrawn yet\");  \n    require (_amount >= currentPrice.mul(2000),\"Staking Amount is Less Than $2000\");\n    \n    require(ERC20(swanTokenAddress).transferFrom(msg.sender,address(this),_amount),\"Token Transfer Failed\");\n  \n      stakeAccountDetails[msg.sender] = StakeAccount(\n    {\n      stakedAmount:_amount,\n      time:now,\n      interestRate:14,\n      unstaked:false\n    });\n      isStaker[msg.sender] = true;\n      userTotalStakes[msg.sender] += _amount;\n      emit staked(msg.sender,_amount,4,14);\n      return true;\n  }  \n  /**\n   *  @notice Assigns the interestRates to users investments based on their time Duration and Stake Criteria\n   *  @param  amount-  The amount user wishes to Stake\n   *  @param  duration-   The lockUp duration\n   *  @return true or false based on the function execution\n  */\n\n    function earnInterest(uint256 amount,uint256 duration) external whenNotPaused returns(bool){\n      require (amount>0,\"Amount can not be equal to ZERO\");\n      require (duration>0,\"Duration can not be Zero\");\n\n      require(ERC20(swanTokenAddress).transferFrom(msg.sender,address(this),amount),'transfer From failed');\n\n       uint256 oneMonthNum = interestAccountNumber[msg.sender].add(1);\n      if(isStaker[msg.sender]){\n\n         if(duration == 3){\n         interestAccountDetails[msg.sender][oneMonthNum] = InterestAccount(\n           {\n                amount: amount,\n                time: now,\n                interestRate : 20,\n                interestPayouts : 0,\n                timeperiod : duration,\n                withdrawn : false\n\n           }); \n         emit ThreeMonthStaked(msg.sender,amount,duration,20);\n        }else if(duration == 1){\n          interestAccountDetails[msg.sender][oneMonthNum] = InterestAccount(\n           {\n                amount: amount,\n                time: now,\n                interestRate : 16,\n                interestPayouts : 0,\n                timeperiod : duration,\n                withdrawn : false\n\n           });\n           emit OneMonthStaked(msg.sender,amount,duration,16); \n        }\n      }else{\n        if(duration == 3){\n         interestAccountDetails[msg.sender][oneMonthNum] = InterestAccount(\n           {\n                amount: amount,\n                time: now,\n                interestRate : 16,\n                interestPayouts : 0,\n                timeperiod : duration,\n                withdrawn : false\n\n           }); \n         emit ThreeMonthStaked(msg.sender,amount,duration,16);\n        }else if(duration == 1){\n          interestAccountDetails[msg.sender][oneMonthNum] = InterestAccount(\n           {\n                amount: amount,\n                time: now,\n                interestRate : 12,\n                interestPayouts : 0,\n                timeperiod : duration,\n                withdrawn : false\n\n           }); \n          emit OneMonthStaked(msg.sender,amount,duration,12);\n      }\n    }\n    userTotalStakes[msg.sender] += amount;\n    interestAccountNumber[msg.sender] = interestAccountNumber[msg.sender].add(1);\n    return true;\n}\n    /**\n     *  @param id - the interestAccount id \n     *  @dev  allows users to claim their invested tokens for 1 or 3 months from same function\n     *        calculates the remaining interest to be transferred to the user\n     *        transfers the invested amount as well as the remaining interest to the user.\n     *        updates the user's staked balance to ZERO\n     */\n    function claimInterestTokens(uint256 id) external whenNotPaused{\n        InterestAccount memory interestData =  interestAccountDetails[msg.sender][id];\n        require (now >= interestData.time.add(interestData.timeperiod.mul(2629746)),\"Deadline is not over\"); // 2,629,746 seconds = 1 month\n        require (interestData.amount > 0,\"Invested Amount is ZERO\");\n      \n        uint256 interestAmount = interestData.amount.mul(interestData.interestRate).div(100);\n        uint256 remainingInterest = interestAmount.sub(totalPoolRewards[msg.sender][id]);\n        uint256 tokensToSend = interestData.amount.add(remainingInterest);\n        \n        require(ERC20(swanTokenAddress).transfer(msg.sender, tokensToSend),\"Token Transfer Failed\");\n        userTotalStakes[msg.sender] -= interestData.amount;\n        interestData.withdrawn = true;\n        interestData.amount = 0;\n        interestAccountDetails[msg.sender][id] = interestData;\n        emit ClaimedInterestTokens(msg.sender,tokensToSend);\n    } \n   /**\n     *  @dev  allows users to claim their staked tokens for 4 months\n     *        calculates the total interest to be transferred to the user after 4 months\n     *        transfers the staked amount as well as the remaining interest to the user.\n     *        marks the user as NON STAKER.\n     * \n     */\n  function claimStakeTokens() external whenNotPaused{\n      require(isStaker[msg.sender],\"User is not a Staker\");\n\n      StakeAccount memory stakeData = stakeAccountDetails[msg.sender];\n      require (now >= stakeData.time.add(10518984),\"LockUp Period NOT OVER Yet\"); // 10,518,984 seconds = 4 months \n      uint256 interestAmount = stakeData.stakedAmount.mul(14).div(100);\n      uint256 tokensToSend = stakeData.stakedAmount.add(interestAmount);\n      require(ERC20(swanTokenAddress).transfer(msg.sender, tokensToSend),\"Token Transfer Failed\");\n      \n      userTotalStakes[msg.sender] -= stakeData.stakedAmount;\n      isStaker[msg.sender] = false;\n      stakeData.unstaked = true;\n      stakeAccountDetails[msg.sender] = stakeData;\n      emit ClaimedStakedTokens(msg.sender,tokensToSend);\n    } \n  /**\n     *  @param id - the interestAccount id \n     *  @dev  allows users to claim their weekly interests\n     *        updates the totalRewards earned by the user on a particular investment\n     *        Total interest is divided into the number of weeks during the lockUpPeriod\n     *        The remaining weekly interests(if any) will be withdrawn at the time of claiming the particular interestAccount.\n     * \n     */\n     function payOuts (uint256 id) external returns(bool) {  \n        InterestAccount memory interestData =  interestAccountDetails[msg.sender][id];\n        require (now <= interestData.time.add(interestData.timeperiod.mul(2629746)),\"Reward Timeline is Over\");// 2,629,746 seconds = 1 month\n        require(!interestData.withdrawn,\"Amount Has already Been Withdrawn\");\n\n        uint256 preSaleCycle = getCycle(msg.sender, id);\n        require (preSaleCycle > 0,\"Cycle is not complete\");\n\n        uint256 interestAmount = interestData.amount.mul(interestData.interestRate).div(100);\n        uint256 onePercentOfInitialFund = interestAmount.div(interestData.timeperiod.mul(4));\n        \n        if(interestData.interestPayouts <= onePercentOfInitialFund.mul(preSaleCycle)) {   \n          uint256 tokenToSend = onePercentOfInitialFund.mul(preSaleCycle).sub(interestData.interestPayouts);\n          require(tokenToSend.add(totalPoolRewards[msg.sender][id]) <= interestAmount,\"Total Interest has already been given out\");\n          interestData.interestPayouts = onePercentOfInitialFund.mul(preSaleCycle);\n          require(ERC20(swanTokenAddress).transfer(msg.sender, tokenToSend),\"Token Transfer Failed\");\n          totalPoolRewards[msg.sender][id] += tokenToSend;\n          emit TokenRewardTransferred(msg.sender,tokenToSend);\n          return true;\n        }\n    }\n   /**\n     *  @notice returns the cycle for weekly payouts\n     *  @param userAddress,id - takes caller's address and interstAccount \n     *  @dev  calculates the number of week cycles passed \n     */\n    function getCycle(address userAddress, uint256 id) internal returns (uint256){\n     \n    InterestAccount memory interestData =  interestAccountDetails[userAddress][id];\n    require (interestData.amount > 0,\"Amount Withdrawn Already\");\n    uint256 cycle;\n    if(checkCycle[userAddress][id]){\n        cycle = now.sub(lastPayoutCall[userAddress][id]);\n    }else{\n        cycle = now.sub(interestData.time);\n        checkCycle[userAddress][id] = true;\n    }\n     if(cycle <= 21600)//21600 6 hours for testing \n     {\n         return 0;\n     }\n     else if (cycle > 21600)//21600 6 hours \n     {     \n      require(now.sub(lastPayoutCall[userAddress][id]) >= 21600,\"Cannot Call Before 6 hours\");\n      uint256 secondsToHours = cycle.div(21600);//21600 6 hours\n      lastPayoutCall[userAddress][id] = now;\n      return secondsToHours;\n     }\n     }\n}\n\n\n",
  "sourcePath": "/home/zaryab/blockchain_begins/all_about_ethereum/quillHash_CODES/swan_smart_contracts/contracts/SwanStake.sol",
  "compiler": {
    "name": "solc",
    "version": "0.5.16+commit.9c3226ce.Emscripten.clang"
  },
  "schemaVersion": "3.2.2",
  "updatedAt": "2020-12-01T07:09:57.124Z",
  "devdoc": {
    "methods": {
      "claimInterestTokens(uint256)": {
        "details": "allows users to claim their invested tokens for 1 or 3 months from same function       calculates the remaining interest to be transferred to the user       transfers the invested amount as well as the remaining interest to the user.       updates the user's staked balance to ZERO",
        "params": {
          "id": "- the interestAccount id "
        }
      },
      "claimStakeTokens()": {
        "details": "allows users to claim their staked tokens for 4 months       calculates the total interest to be transferred to the user after 4 months       transfers the staked amount as well as the remaining interest to the user.       marks the user as NON STAKER.      "
      },
      "earnInterest(uint256,uint256)": {
        "params": {
          "amount": "-  The amount user wishes to Stake",
          "duration": "-   The lockUp duration"
        },
        "return": "true or false based on the function execution"
      },
      "payOuts(uint256)": {
        "details": "allows users to claim their weekly interests       updates the totalRewards earned by the user on a particular investment       Total interest is divided into the number of weeks during the lockUpPeriod       The remaining weekly interests(if any) will be withdrawn at the time of claiming the particular interestAccount.      ",
        "params": {
          "id": "- the interestAccount id "
        }
      },
      "stake(uint256)": {
        "details": "allows the user to stake the initial $2000 worth of SWAN tokens     Lists the user as a valid Staker.(by adding True in the isStaker mapping)      User can earn comparatively more interest on Future stakes by calling this function*",
        "params": {
          "_amount": "- the amount user wants to stake"
        }
      }
    },
    "title": "Swan Staking Contract"
  },
  "userdoc": {
    "methods": {
      "earnInterest(uint256,uint256)": {
        "notice": "Assigns the interestRates to users investments based on their time Duration and Stake Criteria"
      }
    }
  }
}