{
  "contractName": "Swan",
  "abi": [
    {
      "inputs": [
        {
          "internalType": "address",
          "name": "_owner",
          "type": "address"
        }
      ],
      "payable": false,
      "stateMutability": "nonpayable",
      "type": "constructor"
    },
    {
      "anonymous": false,
      "inputs": [
        {
          "indexed": true,
          "internalType": "address",
          "name": "owner",
          "type": "address"
        },
        {
          "indexed": true,
          "internalType": "address",
          "name": "spender",
          "type": "address"
        },
        {
          "indexed": false,
          "internalType": "uint256",
          "name": "value",
          "type": "uint256"
        }
      ],
      "name": "Approval",
      "type": "event"
    },
    {
      "anonymous": false,
      "inputs": [
        {
          "indexed": true,
          "internalType": "address",
          "name": "from",
          "type": "address"
        },
        {
          "indexed": true,
          "internalType": "address",
          "name": "_to",
          "type": "address"
        }
      ],
      "name": "OwnershipTransferred",
      "type": "event"
    },
    {
      "anonymous": false,
      "inputs": [],
      "name": "Pause",
      "type": "event"
    },
    {
      "anonymous": false,
      "inputs": [
        {
          "indexed": true,
          "internalType": "address",
          "name": "from",
          "type": "address"
        },
        {
          "indexed": true,
          "internalType": "address",
          "name": "to",
          "type": "address"
        },
        {
          "indexed": false,
          "internalType": "uint256",
          "name": "value",
          "type": "uint256"
        }
      ],
      "name": "Transfer",
      "type": "event"
    },
    {
      "anonymous": false,
      "inputs": [],
      "name": "Unpause",
      "type": "event"
    },
    {
      "constant": false,
      "inputs": [],
      "name": "acceptOwnership",
      "outputs": [],
      "payable": false,
      "stateMutability": "nonpayable",
      "type": "function"
    },
    {
      "constant": true,
      "inputs": [
        {
          "internalType": "address",
          "name": "owner",
          "type": "address"
        },
        {
          "internalType": "address",
          "name": "spender",
          "type": "address"
        }
      ],
      "name": "allowance",
      "outputs": [
        {
          "internalType": "uint256",
          "name": "",
          "type": "uint256"
        }
      ],
      "payable": false,
      "stateMutability": "view",
      "type": "function"
    },
    {
      "constant": false,
      "inputs": [
        {
          "internalType": "address",
          "name": "spender",
          "type": "address"
        },
        {
          "internalType": "uint256",
          "name": "value",
          "type": "uint256"
        }
      ],
      "name": "approve",
      "outputs": [
        {
          "internalType": "bool",
          "name": "",
          "type": "bool"
        }
      ],
      "payable": false,
      "stateMutability": "nonpayable",
      "type": "function"
    },
    {
      "constant": true,
      "inputs": [
        {
          "internalType": "address",
          "name": "account",
          "type": "address"
        }
      ],
      "name": "balanceOf",
      "outputs": [
        {
          "internalType": "uint256",
          "name": "",
          "type": "uint256"
        }
      ],
      "payable": false,
      "stateMutability": "view",
      "type": "function"
    },
    {
      "constant": true,
      "inputs": [],
      "name": "contractSaleOver",
      "outputs": [
        {
          "internalType": "bool",
          "name": "",
          "type": "bool"
        }
      ],
      "payable": false,
      "stateMutability": "view",
      "type": "function"
    },
    {
      "constant": true,
      "inputs": [],
      "name": "contractSaleOverTime",
      "outputs": [
        {
          "internalType": "uint256",
          "name": "",
          "type": "uint256"
        }
      ],
      "payable": false,
      "stateMutability": "view",
      "type": "function"
    },
    {
      "constant": true,
      "inputs": [],
      "name": "decimals",
      "outputs": [
        {
          "internalType": "uint8",
          "name": "",
          "type": "uint8"
        }
      ],
      "payable": false,
      "stateMutability": "view",
      "type": "function"
    },
    {
      "constant": false,
      "inputs": [
        {
          "internalType": "address",
          "name": "spender",
          "type": "address"
        },
        {
          "internalType": "uint256",
          "name": "subtractedValue",
          "type": "uint256"
        }
      ],
      "name": "decreaseAllowance",
      "outputs": [
        {
          "internalType": "bool",
          "name": "",
          "type": "bool"
        }
      ],
      "payable": false,
      "stateMutability": "nonpayable",
      "type": "function"
    },
    {
      "constant": false,
      "inputs": [
        {
          "internalType": "address",
          "name": "spender",
          "type": "address"
        },
        {
          "internalType": "uint256",
          "name": "addedValue",
          "type": "uint256"
        }
      ],
      "name": "increaseAllowance",
      "outputs": [
        {
          "internalType": "bool",
          "name": "",
          "type": "bool"
        }
      ],
      "payable": false,
      "stateMutability": "nonpayable",
      "type": "function"
    },
    {
      "constant": true,
      "inputs": [],
      "name": "name",
      "outputs": [
        {
          "internalType": "string",
          "name": "",
          "type": "string"
        }
      ],
      "payable": false,
      "stateMutability": "view",
      "type": "function"
    },
    {
      "constant": true,
      "inputs": [],
      "name": "newOwner",
      "outputs": [
        {
          "internalType": "address",
          "name": "",
          "type": "address"
        }
      ],
      "payable": false,
      "stateMutability": "view",
      "type": "function"
    },
    {
      "constant": true,
      "inputs": [],
      "name": "owner",
      "outputs": [
        {
          "internalType": "address",
          "name": "",
          "type": "address"
        }
      ],
      "payable": false,
      "stateMutability": "view",
      "type": "function"
    },
    {
      "constant": false,
      "inputs": [],
      "name": "pause",
      "outputs": [],
      "payable": false,
      "stateMutability": "nonpayable",
      "type": "function"
    },
    {
      "constant": true,
      "inputs": [],
      "name": "paused",
      "outputs": [
        {
          "internalType": "bool",
          "name": "",
          "type": "bool"
        }
      ],
      "payable": false,
      "stateMutability": "view",
      "type": "function"
    },
    {
      "constant": true,
      "inputs": [],
      "name": "symbol",
      "outputs": [
        {
          "internalType": "string",
          "name": "",
          "type": "string"
        }
      ],
      "payable": false,
      "stateMutability": "view",
      "type": "function"
    },
    {
      "constant": true,
      "inputs": [],
      "name": "teamMemberHrWallet",
      "outputs": [
        {
          "internalType": "uint256",
          "name": "",
          "type": "uint256"
        }
      ],
      "payable": false,
      "stateMutability": "view",
      "type": "function"
    },
    {
      "constant": true,
      "inputs": [
        {
          "internalType": "address",
          "name": "",
          "type": "address"
        }
      ],
      "name": "teamTokensLeft",
      "outputs": [
        {
          "internalType": "uint256",
          "name": "",
          "type": "uint256"
        }
      ],
      "payable": false,
      "stateMutability": "view",
      "type": "function"
    },
    {
      "constant": true,
      "inputs": [],
      "name": "totalSupply",
      "outputs": [
        {
          "internalType": "uint256",
          "name": "",
          "type": "uint256"
        }
      ],
      "payable": false,
      "stateMutability": "view",
      "type": "function"
    },
    {
      "constant": false,
      "inputs": [
        {
          "internalType": "address",
          "name": "_newOwner",
          "type": "address"
        }
      ],
      "name": "transferOwnership",
      "outputs": [],
      "payable": false,
      "stateMutability": "nonpayable",
      "type": "function"
    },
    {
      "constant": false,
      "inputs": [],
      "name": "unpause",
      "outputs": [],
      "payable": false,
      "stateMutability": "nonpayable",
      "type": "function"
    },
    {
      "constant": false,
      "inputs": [
        {
          "internalType": "address",
          "name": "recipient",
          "type": "address"
        },
        {
          "internalType": "uint256",
          "name": "amount",
          "type": "uint256"
        }
      ],
      "name": "transfer",
      "outputs": [
        {
          "internalType": "bool",
          "name": "",
          "type": "bool"
        }
      ],
      "payable": false,
      "stateMutability": "nonpayable",
      "type": "function"
    },
    {
      "constant": false,
      "inputs": [
        {
          "internalType": "address",
          "name": "sender",
          "type": "address"
        },
        {
          "internalType": "address",
          "name": "recipient",
          "type": "address"
        },
        {
          "internalType": "uint256",
          "name": "amount",
          "type": "uint256"
        }
      ],
      "name": "transferFrom",
      "outputs": [
        {
          "internalType": "bool",
          "name": "",
          "type": "bool"
        }
      ],
      "payable": false,
      "stateMutability": "nonpayable",
      "type": "function"
    },
    {
      "constant": false,
      "inputs": [
        {
          "internalType": "address",
          "name": "userAddress",
          "type": "address"
        },
        {
          "internalType": "uint256",
          "name": "value",
          "type": "uint256"
        }
      ],
      "name": "sendTeamMemberHrWallet",
      "outputs": [
        {
          "internalType": "bool",
          "name": "",
          "type": "bool"
        }
      ],
      "payable": false,
      "stateMutability": "nonpayable",
      "type": "function"
    },
    {
      "constant": false,
      "inputs": [],
      "name": "redeemTeamTokensLeft",
      "outputs": [
        {
          "internalType": "bool",
          "name": "",
          "type": "bool"
        }
      ],
      "payable": false,
      "stateMutability": "nonpayable",
      "type": "function"
    },
    {
      "constant": false,
      "inputs": [],
      "name": "saleOverSet",
      "outputs": [
        {
          "internalType": "bool",
          "name": "",
          "type": "bool"
        }
      ],
      "payable": false,
      "stateMutability": "nonpayable",
      "type": "function"
    },
    {
      "constant": false,
      "inputs": [
        {
          "internalType": "uint256",
          "name": "amount",
          "type": "uint256"
        }
      ],
      "name": "burn",
      "outputs": [
        {
          "internalType": "bool",
          "name": "",
          "type": "bool"
        }
      ],
      "payable": false,
      "stateMutability": "nonpayable",
      "type": "function"
    },
    {
      "constant": false,
      "inputs": [
        {
          "internalType": "address",
          "name": "tokenAddress",
          "type": "address"
        },
        {
          "internalType": "uint256",
          "name": "tokens",
          "type": "uint256"
        }
      ],
      "name": "transferAnyERC20Token",
      "outputs": [
        {
          "internalType": "bool",
          "name": "success",
          "type": "bool"
        }
      ],
      "payable": false,
      "stateMutability": "nonpayable",
      "type": "function"
    }
  ],
  "bytecode": "0x60806040526001805460ff60a01b191690556b1027e72f1f128130880000006007556009805460ff191690553480156200003857600080fd5b506040516200153938038062001539833981810160405260208110156200005e57600080fd5b5051600080546001600160a01b0319166001600160a01b03831617905560408051808201909152600c8082526b5377616e2046696e616e636560a01b6020909201918252620000b0916005916200026e565b506040805180820190915260048082526329aba0a760e11b6020909201918252620000de916006916200026e565b5062000100816ba18f07d736b90be5500000006001600160e01b036200010716565b5062000313565b6001600160a01b03821662000163576040805162461bcd60e51b815260206004820152601f60248201527f45524332303a206d696e7420746f20746865207a65726f206164647265737300604482015290519081900360640190fd5b6200017f816004546200020c60201b62000d8a1790919060201c565b6004556001600160a01b038216600090815260026020908152604090912054620001b491839062000d8a6200020c821b17901c565b6001600160a01b03831660008181526002602090815260408083209490945583518581529351929391927fddf252ad1be2c89b69c2b068fc378daa952ba7f163c4a11628f55a4df523b3ef9281900390910190a35050565b60008282018381101562000267576040805162461bcd60e51b815260206004820152601b60248201527f536166654d6174683a206164646974696f6e206f766572666c6f770000000000604482015290519081900360640190fd5b9392505050565b828054600181600116156101000203166002900490600052602060002090601f016020900481019282601f10620002b157805160ff1916838001178555620002e1565b82800160010185558215620002e1579182015b82811115620002e1578251825591602001919060010190620002c4565b50620002ef929150620002f3565b5090565b6200031091905b80821115620002ef5760008155600101620002fa565b90565b61121680620003236000396000f3fe608060405234801561001057600080fd5b50600436106101a95760003560e01c80638456cb59116100f9578063c6f62db911610097578063dd62ed3e11610071578063dd62ed3e14610468578063e341a98714610496578063ec6173cb1461049e578063f2fde38b146104ca576101a9565b8063c6f62db91461042c578063d4ee1d9014610434578063dc39d06d1461043c576101a9565b806395d89b41116100d357806395d89b41146103a657806398d94752146103ae578063a457c2d7146103d4578063a9059cbb14610400576101a9565b80638456cb59146103725780638a1edb571461037a5780638da5cb5b14610382576101a9565b806339509351116101665780635c975abb116101405780635c975abb1461033457806370a082311461033c57806379ba5097146103625780637b1acab31461036a576101a9565b806339509351146102e15780633f4ba83a1461030d57806342966c6814610317576101a9565b806306fdde03146101ae578063095ea7b31461022b57806318160ddd1461026b57806323b872dd146102855780632eb41b64146102bb578063313ce567146102c3575b600080fd5b6101b66104f0565b6040805160208082528351818301528351919283929083019185019080838360005b838110156101f05781810151838201526020016101d8565b50505050905090810190601f16801561021d5780820380516001836020036101000a031916815260200191505b509250505060405180910390f35b6102576004803603604081101561024157600080fd5b506001600160a01b03813516906020013561057e565b604080519115158252519081900360200190f35b610273610594565b60408051918252519081900360200190f35b6102576004803603606081101561029b57600080fd5b506001600160a01b0381358116916020810135909116906040013561059a565b6102576105ca565b6102cb6105d3565b6040805160ff9092168252519081900360200190f35b610257600480360360408110156102f757600080fd5b506001600160a01b0381351690602001356105d8565b610315610619565b005b6102576004803603602081101561032d57600080fd5b503561067e565b6102576106a7565b6102736004803603602081101561035257600080fd5b50356001600160a01b03166106b7565b6103156106d2565b61027361074d565b610315610753565b6102736107bf565b61038a6107c5565b604080516001600160a01b039092168252519081900360200190f35b6101b66107d4565b610273600480360360208110156103c457600080fd5b50356001600160a01b031661082f565b610257600480360360408110156103ea57600080fd5b506001600160a01b038135169060200135610841565b6102576004803603604081101561041657600080fd5b506001600160a01b03813516906020013561087d565b6102576108a2565b61038a6109a2565b6102576004803603604081101561045257600080fd5b506001600160a01b0381351690602001356109b1565b6102736004803603604081101561047e57600080fd5b506001600160a01b0381358116916020013516610a7f565b610257610aaa565b610257600480360360408110156104b457600080fd5b506001600160a01b038135169060200135610afd565b610315600480360360208110156104e057600080fd5b50356001600160a01b0316610bfb565b6005805460408051602060026001851615610100026000190190941693909304601f810184900484028201840190925281815292918301828280156105765780601f1061054b57610100808354040283529160200191610576565b820191906000526020600020905b81548152906001019060200180831161055957829003601f168201915b505050505081565b600061058b338484610c34565b50600192915050565b60045490565b600154600090600160a01b900460ff16156105b457600080fd5b6105bf848484610d20565b506001949350505050565b60095460ff1681565b601281565b3360008181526003602090815260408083206001600160a01b0387168452909152812054909161058b918590610614908663ffffffff610d8a16565b610c34565b6000546001600160a01b0316331461063057600080fd5b600154600160a01b900460ff1661064657600080fd5b6001805460ff60a01b191690556040517f7805862f689e2f13df9f062ff482ad3ad112aca9e0847911ed832e158c525b3390600090a1565b600154600090600160a01b900460ff161561069857600080fd5b6106a23383610deb565b919050565b600154600160a01b900460ff1681565b6001600160a01b031660009081526002602052604090205490565b6001546001600160a01b031633146106e957600080fd5b600154600080546040516001600160a01b0393841693909116917f8be0079c531659141344cd1fd0a4f28419497f9722a3daafe3b4186f6b6457e091a360018054600080546001600160a01b03199081166001600160a01b03841617909155169055565b600a5481565b6000546001600160a01b0316331461076a57600080fd5b600154600160a01b900460ff161561078157600080fd5b6001805460ff60a01b1916600160a01b1790556040517f6985a02210a168e66602d3235cb6db0e70f92b3ba4d376a33c0f3d9434bff62590600090a1565b60075481565b6000546001600160a01b031681565b6006805460408051602060026001851615610100026000190190941693909304601f810184900484028201840190925281815292918301828280156105765780601f1061054b57610100808354040283529160200191610576565b60086020526000908152604090205481565b3360008181526003602090815260408083206001600160a01b0387168452909152812054909161058b918590610614908663ffffffff610ec616565b600154600090600160a01b900460ff161561089757600080fd5b61058b338484610f23565b600154600090600160a01b900460ff16156108bc57600080fd5b33600090815260086020526040902054610915576040805162461bcd60e51b815260206004820152601560248201527416995c9bc81d19585b481d1bdad95b9cc81b19599d605a1b604482015290519081900360640190fd5b60095460ff1680156109395750600a5461093690607863ffffffff610d8a16565b42115b6109745760405162461bcd60e51b81526004018080602001828103825260348152602001806111176034913960400191505060405180910390fd5b3360008181526008602052604090205461098f913091610f23565b3360009081526008602052604081205590565b6001546001600160a01b031681565b600154600090600160a01b900460ff16156109cb57600080fd5b6000546001600160a01b031633146109e257600080fd5b6001600160a01b0383166109f557600080fd5b600080546040805163a9059cbb60e01b81526001600160a01b0392831660048201526024810186905290519186169263a9059cbb926044808401936020939083900390910190829087803b158015610a4c57600080fd5b505af1158015610a60573d6000803e3d6000fd5b505050506040513d6020811015610a7657600080fd5b50519392505050565b6001600160a01b03918216600090815260036020908152604080832093909416825291909152205490565b600080546001600160a01b03163314610ac257600080fd5b600154600160a01b900460ff1615610ad957600080fd5b60095460ff1615610ae957600080fd5b6009805460ff1916600117905542600a5590565b600154600090600160a01b900460ff1615610b1757600080fd5b6000546001600160a01b03163314610b2e57600080fd5b816007541015610b6f5760405162461bcd60e51b815260040180806020018281038252602d81526020018061116c602d913960400191505060405180910390fd5b600754610b82908363ffffffff610ec616565b6007556000610b9883600263ffffffff61106716565b6001600160a01b038516600090815260086020526040902054909150610bc590829063ffffffff610d8a16565b6001600160a01b038516600090815260086020526040902055610be8848261087d565b50610bf3308261087d565b505092915050565b6000546001600160a01b03163314610c1257600080fd5b600180546001600160a01b0319166001600160a01b0392909216919091179055565b6001600160a01b038316610c795760405162461bcd60e51b81526004018080602001828103825260248152602001806111be6024913960400191505060405180910390fd5b6001600160a01b038216610cbe5760405162461bcd60e51b81526004018080602001828103825260228152602001806110f56022913960400191505060405180910390fd5b6001600160a01b03808416600081815260036020908152604080832094871680845294825291829020859055815185815291517f8c5be1e5ebec7d5bd14f71427d1e84f3dd0314c0f7b2291e5b200ac8c7c3b9259281900390910190a3505050565b600154600090600160a01b900460ff1615610d3a57600080fd5b610d45848484610f23565b6001600160a01b038416600090815260036020908152604080832033808552925290912054610d80918691610614908663ffffffff610ec616565b5060019392505050565b600082820183811015610de4576040805162461bcd60e51b815260206004820152601b60248201527f536166654d6174683a206164646974696f6e206f766572666c6f770000000000604482015290519081900360640190fd5b9392505050565b6001600160a01b038216610e305760405162461bcd60e51b815260040180806020018281038252602181526020018061114b6021913960400191505060405180910390fd5b600454610e43908263ffffffff610ec616565b6004556001600160a01b038216600090815260026020526040902054610e6f908263ffffffff610ec616565b6001600160a01b0383166000818152600260209081526040808320949094558351858152935191937fddf252ad1be2c89b69c2b068fc378daa952ba7f163c4a11628f55a4df523b3ef929081900390910190a35050565b600082821115610f1d576040805162461bcd60e51b815260206004820152601e60248201527f536166654d6174683a207375627472616374696f6e206f766572666c6f770000604482015290519081900360640190fd5b50900390565b6001600160a01b038316610f685760405162461bcd60e51b81526004018080602001828103825260258152602001806111996025913960400191505060405180910390fd5b6001600160a01b038216610fad5760405162461bcd60e51b81526004018080602001828103825260238152602001806110d26023913960400191505060405180910390fd5b6001600160a01b038316600090815260026020526040902054610fd6908263ffffffff610ec616565b6001600160a01b03808516600090815260026020526040808220939093559084168152205461100b908263ffffffff610d8a16565b6001600160a01b0380841660008181526002602090815260409182902094909455805185815290519193928716927fddf252ad1be2c89b69c2b068fc378daa952ba7f163c4a11628f55a4df523b3ef92918290030190a3505050565b60008082116110bd576040805162461bcd60e51b815260206004820152601a60248201527f536166654d6174683a206469766973696f6e206279207a65726f000000000000604482015290519081900360640190fd5b60008284816110c857fe5b0494935050505056fe45524332303a207472616e7366657220746f20746865207a65726f206164647265737345524332303a20617070726f766520746f20746865207a65726f20616464726573734569746865722073616c65206973206e6f74206f766572206f722036206d6f6e746873206e6f7420636f6d706c6574652079657445524332303a206275726e2066726f6d20746865207a65726f20616464726573735465616d20616e642048522077616c6c657420686173206c65737320746f6b656e73207468656e2076616c756545524332303a207472616e736665722066726f6d20746865207a65726f206164647265737345524332303a20617070726f76652066726f6d20746865207a65726f2061646472657373a265627a7a72315820294ddbfea20cdcc70000250153d530b4f8333ec01ad4bb615adec64f455a0d5a64736f6c63430005100032",
  "source": "pragma solidity 0.5.16;\n\n\ncontract Owned {\n\n    address public owner;\n    address public newOwner;\n\n    event OwnershipTransferred(address indexed from, address indexed _to);\n\n    constructor(address _owner) public {\n        owner = _owner;\n    }\n\n    modifier onlyOwner {\n        require(msg.sender == owner);\n        _;\n    }\n\n    function transferOwnership(address _newOwner) public onlyOwner {\n        newOwner = _newOwner;\n    }\n    function acceptOwnership() public {\n        require(msg.sender == newOwner);\n        emit OwnershipTransferred(owner, newOwner);\n        owner = newOwner;\n        newOwner = address(0);\n    }\n}\n\ncontract Pausable is Owned {\n    event Pause();\n    event Unpause();\n\n    bool public paused = false;\n\n    modifier whenNotPaused() {\n      require(!paused);\n      _;\n    }\n\n    modifier whenPaused() {\n      require(paused);\n      _;\n    }\n\n    function pause() onlyOwner whenNotPaused public {\n      paused = true;\n      emit Pause();\n    }\n\n    function unpause() onlyOwner whenPaused public {\n      paused = false;\n      emit Unpause();\n    }\n}\n\n/**\n * @dev Interface of the ERC20 standard as defined in the EIP. Does not include\n * the optional functions; to access them see `ERC20Detailed`.\n */\ninterface IERC20 {\n    /**\n     * @dev Returns the amount of tokens in existence.\n     */\n    function totalSupply() external view returns (uint256);\n\n    /**\n     * @dev Returns the amount of tokens owned by `account`.\n     */\n    function balanceOf(address account) external view returns (uint256);\n\n    /**\n     * @dev Moves `amount` tokens from the caller's account to `recipient`.\n     *\n     * Returns a boolean value indicating whether the operation succeeded.\n     *\n     * Emits a `Transfer` event.\n     */\n    function transfer(address recipient, uint256 amount) external returns (bool);\n\n    /**\n     * @dev Returns the remaining number of tokens that `spender` will be\n     * allowed to spend on behalf of `owner` through `transferFrom`. This is\n     * zero by default.\n     *\n     * This value changes when `approve` or `transferFrom` are called.\n     */\n    function allowance(address owner, address spender) external view returns (uint256);\n\n    /**\n     * @dev Sets `amount` as the allowance of `spender` over the caller's tokens.\n     *\n     * Returns a boolean value indicating whether the operation succeeded.\n     *\n     * > Beware that changing an allowance with this method brings the risk\n     * that someone may use both the old and the new allowance by unfortunate\n     * transaction ordering. One possible solution to mitigate this race\n     * condition is to first reduce the spender's allowance to 0 and set the\n     * desired value afterwards:\n     * https://github.com/ethereum/EIPs/issues/20#issuecomment-263524729\n     *\n     * Emits an `Approval` event.\n     */\n    function approve(address spender, uint256 amount) external returns (bool);\n\n    /**\n     * @dev Moves `amount` tokens from `sender` to `recipient` using the\n     * allowance mechanism. `amount` is then deducted from the caller's\n     * allowance.\n     *\n     * Returns a boolean value indicating whether the operation succeeded.\n     *\n     * Emits a `Transfer` event.\n     */\n    function transferFrom(address sender, address recipient, uint256 amount) external returns (bool);\n\n    /**\n     * @dev Emitted when `value` tokens are moved from one account (`from`) to\n     * another (`to`).\n     *\n     * Note that `value` may be zero.\n     */\n    event Transfer(address indexed from, address indexed to, uint256 value);\n\n    /**\n     * @dev Emitted when the allowance of a `spender` for an `owner` is set by\n     * a call to `approve`. `value` is the new allowance.\n     */\n    event Approval(address indexed owner, address indexed spender, uint256 value);\n}\n\n// File: openzeppelin-solidity/contracts/math/SafeMath.sol\n\n/**\n * @dev Wrappers over Solidity's arithmetic operations with added overflow\n * checks.\n *\n * Arithmetic operations in Solidity wrap on overflow. This can easily result\n * in bugs, because programmers usually assume that an overflow raises an\n * error, which is the standard behavior in high level programming languages.\n * `SafeMath` restores this intuition by reverting the transaction when an\n * operation overflows.\n *\n * Using this library instead of the unchecked operations eliminates an entire\n * class of bugs, so it's recommended to use it always.\n */\nlibrary SafeMath {\n    /**\n     * @dev Returns the addition of two unsigned integers, reverting on\n     * overflow.\n     *\n     * Counterpart to Solidity's `+` operator.\n     *\n     * Requirements:\n     * - Addition cannot overflow.\n     */\n    function add(uint256 a, uint256 b) internal pure returns (uint256) {\n        uint256 c = a + b;\n        require(c >= a, \"SafeMath: addition overflow\");\n\n        return c;\n    }\n\n    /**\n     * @dev Returns the subtraction of two unsigned integers, reverting on\n     * overflow (when the result is negative).\n     *\n     * Counterpart to Solidity's `-` operator.\n     *\n     * Requirements:\n     * - Subtraction cannot overflow.\n     */\n    function sub(uint256 a, uint256 b) internal pure returns (uint256) {\n        require(b <= a, \"SafeMath: subtraction overflow\");\n        uint256 c = a - b;\n\n        return c;\n    }\n\n    /**\n     * @dev Returns the multiplication of two unsigned integers, reverting on\n     * overflow.\n     *\n     * Counterpart to Solidity's `*` operator.\n     *\n     * Requirements:\n     * - Multiplication cannot overflow.\n     */\n    function mul(uint256 a, uint256 b) internal pure returns (uint256) {\n        // Gas optimization: this is cheaper than requiring 'a' not being zero, but the\n        // benefit is lost if 'b' is also tested.\n        // See: https://github.com/OpenZeppelin/openzeppelin-solidity/pull/522\n        if (a == 0) {\n            return 0;\n        }\n\n        uint256 c = a * b;\n        require(c / a == b, \"SafeMath: multiplication overflow\");\n\n        return c;\n    }\n\n    /**\n     * @dev Returns the integer division of two unsigned integers. Reverts on\n     * division by zero. The result is rounded towards zero.\n     *\n     * Counterpart to Solidity's `/` operator. Note: this function uses a\n     * `revert` opcode (which leaves remaining gas untouched) while Solidity\n     * uses an invalid opcode to revert (consuming all remaining gas).\n     *\n     * Requirements:\n     * - The divisor cannot be zero.\n     */\n    function div(uint256 a, uint256 b) internal pure returns (uint256) {\n        // Solidity only automatically asserts when dividing by 0\n        require(b > 0, \"SafeMath: division by zero\");\n        uint256 c = a / b;\n        // assert(a == b * c + a % b); // There is no case in which this doesn't hold\n\n        return c;\n    }\n\n}\n\n// File: openzeppelin-solidity/contracts/token/ERC20/ERC20.sol\n\n/**\n * @dev Implementation of the `IERC20` interface.\n *\n * This implementation is agnostic to the way tokens are created. This means\n * that a supply mechanism has to be added in a derived contract using `_mint`.\n * For a generic mechanism see `ERC20Mintable`.\n *\n * *For a detailed writeup see our guide [How to implement supply\n * mechanisms](https://forum.zeppelin.solutions/t/how-to-implement-erc20-supply-mechanisms/226).*\n *\n * We have followed general OpenZeppelin guidelines: functions revert instead\n * of returning `false` on failure. This behavior is nonetheless conventional\n * and does not conflict with the expectations of ERC20 applications.\n *\n * Additionally, an `Approval` event is emitted on calls to `transferFrom`.\n * This allows applications to reconstruct the allowance for all accounts just\n * by listening to said events. Other implementations of the EIP may not emit\n * these events, as it isn't required by the specification.\n *\n * Finally, the non-standard `decreaseAllowance` and `increaseAllowance`\n * functions have been added to mitigate the well-known issues around setting\n * allowances. See `IERC20.approve`.\n */\ncontract ERC20 is IERC20, Pausable {\n    using SafeMath for uint256;\n\n    mapping (address => uint256) private _balances;\n\n    mapping (address => mapping (address => uint256)) private _allowances;\n\n    uint256 private _totalSupply;\n\n    /**\n     * @dev See `IERC20.totalSupply`.\n     */\n    function totalSupply() public view returns (uint256) {\n        return _totalSupply;\n    }\n\n    /**\n     * @dev See `IERC20.balanceOf`.\n     */\n    function balanceOf(address account) public view returns (uint256) {\n        return _balances[account];\n    }\n\n\n    /**\n     * @dev See `IERC20.allowance`.\n     */\n    function allowance(address owner, address spender) public view returns (uint256) {\n        return _allowances[owner][spender];\n    }\n\n    /**\n     * @dev See `IERC20.approve`.\n     *\n     * Requirements:\n     *\n     * - `spender` cannot be the zero address.\n     */\n    function approve(address spender, uint256 value) public returns (bool) {\n        _approve(msg.sender, spender, value);\n        return true;\n    }\n\n\n    /**\n     * @dev Atomically increases the allowance granted to `spender` by the caller.\n     *\n     * This is an alternative to `approve` that can be used as a mitigation for\n     * problems described in `IERC20.approve`.\n     *\n     * Emits an `Approval` event indicating the updated allowance.\n     *\n     * Requirements:\n     *\n     * - `spender` cannot be the zero address.\n     */\n    function increaseAllowance(address spender, uint256 addedValue) public returns (bool) {\n        _approve(msg.sender, spender, _allowances[msg.sender][spender].add(addedValue));\n        return true;\n    }\n\n    /**\n     * @dev Atomically decreases the allowance granted to `spender` by the caller.\n     *\n     * This is an alternative to `approve` that can be used as a mitigation for\n     * problems described in `IERC20.approve`.\n     *\n     * Emits an `Approval` event indicating the updated allowance.\n     *\n     * Requirements:\n     *\n     * - `spender` cannot be the zero address.\n     * - `spender` must have allowance for the caller of at least\n     * `subtractedValue`.\n     */\n    function decreaseAllowance(address spender, uint256 subtractedValue) public returns (bool) {\n        _approve(msg.sender, spender, _allowances[msg.sender][spender].sub(subtractedValue));\n        return true;\n    }\n\n    /**\n     * @dev Moves tokens `amount` from `sender` to `recipient`.\n     *\n     * This is internal function is equivalent to `transfer`, and can be used to\n     * e.g. implement automatic token fees, slashing mechanisms, etc.\n     *\n     * Emits a `Transfer` event.\n     *\n     * Requirements:\n     *\n     * - `sender` cannot be the zero address.\n     * - `recipient` cannot be the zero address.\n     * - `sender` must have a balance of at least `amount`.\n     */\n    function _transfer(address sender, address recipient, uint256 amount) internal {\n        require(sender != address(0), \"ERC20: transfer from the zero address\");\n        require(recipient != address(0), \"ERC20: transfer to the zero address\");\n\n        _balances[sender] = _balances[sender].sub(amount);\n        _balances[recipient] = _balances[recipient].add(amount);\n        emit Transfer(sender, recipient, amount);\n    }\n\n    /** @dev Creates `amount` tokens and assigns them to `account`, increasing\n     * the total supply.\n     *\n     * Emits a `Transfer` event with `from` set to the zero address.\n     *\n     * Requirements\n     *\n     * - `to` cannot be the zero address.\n     */\n    function _mint(address account, uint256 amount) internal {\n        require(account != address(0), \"ERC20: mint to the zero address\");\n\n        _totalSupply = _totalSupply.add(amount);\n        _balances[account] = _balances[account].add(amount);\n        emit Transfer(address(0), account, amount);\n    }\n\n     /**\n     * @dev Destoys `amount` tokens from `account`, reducing the\n     * total supply.\n     *\n     * Emits a `Transfer` event with `to` set to the zero address.\n     *\n     * Requirements\n     *\n     * - `account` cannot be the zero address.\n     * - `account` must have at least `amount` tokens.\n     */\n    function _burn(address account, uint256 value) internal {\n        require(account != address(0), \"ERC20: burn from the zero address\");\n\n        _totalSupply = _totalSupply.sub(value);\n        _balances[account] = _balances[account].sub(value);\n        emit Transfer(account, address(0), value);\n    }\n\n    /**\n     * @dev See `IERC20.transferFrom`.\n     *\n     * Emits an `Approval` event indicating the updated allowance. This is not\n     * required by the EIP. See the note at the beginning of `ERC20`;\n     *\n     * Requirements:\n     * - `sender` and `recipient` cannot be the zero address.\n     * - `sender` must have a balance of at least `value`.\n     * - the caller must have allowance for `sender`'s tokens of at least\n     * `amount`.\n     */\n    function _transferFrom(address sender, address recipient, uint256 amount) internal whenNotPaused returns (bool) {\n        _transfer(sender, recipient, amount);\n        _approve(sender, msg.sender, _allowances[sender][msg.sender].sub(amount));\n        return true;\n    }\n\n\n    /**\n     * @dev Sets `amount` as the allowance of `spender` over the `owner`s tokens.\n     *\n     * This is internal function is equivalent to `approve`, and can be used to\n     * e.g. set automatic allowances for certain subsystems, etc.\n     *\n     * Emits an `Approval` event.\n     *\n     * Requirements:\n     *\n     * - `owner` cannot be the zero address.\n     * - `spender` cannot be the zero address.\n     */\n    function _approve(address owner, address spender, uint256 value) internal {\n        require(owner != address(0), \"ERC20: approve from the zero address\");\n        require(spender != address(0), \"ERC20: approve to the zero address\");\n\n        _allowances[owner][spender] = value;\n        emit Approval(owner, spender, value);\n    }\n\n}\n\ncontract Swan is ERC20 {\n\n    using SafeMath for uint256;\n    string  public  name;\n    string  public  symbol;\n    uint8   public constant decimals = 18;\n    \n    \n    uint256 public teamMemberHrWallet = 5000000000 ether;\n\n    mapping (address => uint256) public teamTokensLeft;\n    \n    bool public contractSaleOver = false;\n    uint256 public contractSaleOverTime;\n\n    constructor(address _owner) public Owned(_owner) {\n\n               name = \"Swan Finance\";\n               symbol = \"SWAN\";\n               _mint(_owner,50000000000 ether);\n\n    }\n\n    /**\n     * @dev See `IERC20.transfer`.\n     *\n     * Requirements:\n     *\n     * - `recipient` cannot be the zero address.\n     * - the caller must have a balance of at least `amount`.\n     */\n    function transfer(address recipient, uint256 amount) public whenNotPaused returns (bool) {\n\n        super._transfer(msg.sender, recipient, amount);\n\n        return true;\n    }\n\n    /**\n     * @dev See `IERC20.transferFrom`.\n     *\n     * Emits an `Approval` event indicating the updated allowance. This is not\n     * required by the EIP. See the note at the beginning of `ERC20`;\n     *\n     * Requirements:\n     * - `sender` and `recipient` cannot be the zero address.\n     * - `sender` must have a balance of at least `value`.\n     * - the caller must have allowance for `sender`'s tokens of at least\n     * `amount`.\n     */\n    function transferFrom(address sender, address recipient, uint256 amount) public whenNotPaused returns (bool) {\n\n        super._transferFrom(sender, recipient, amount);\n\n        return true;\n    }\n\n\n   function sendTeamMemberHrWallet(address userAddress, uint256 value) external whenNotPaused onlyOwner returns (bool) {\n       \n       require(teamMemberHrWallet >= value , \"Team and HR wallet has less tokens then value\");\n       teamMemberHrWallet = teamMemberHrWallet.sub(value);\n       uint256 halfTokens = value.div(2);\n       teamTokensLeft[userAddress] = halfTokens.add(teamTokensLeft[userAddress]);\n       transfer(userAddress, halfTokens);\n       transfer(address(this), halfTokens);       \n   } \n\n\n\n   function redeemTeamTokensLeft () external whenNotPaused returns (bool) {\n       \n       require(teamTokensLeft[msg.sender] > 0 , \"Zero team tokens left\");\n       require(contractSaleOver && now > contractSaleOverTime.add(2 minutes), \"Either sale is not over or 6 months not complete yet\"); // 86400306\n       super._transfer(address(this), msg.sender, teamTokensLeft[msg.sender]);\n       teamTokensLeft[msg.sender] = 0;\n       \n   } \n\n\n   function saleOverSet () external onlyOwner whenNotPaused returns( bool) {\n       \n       require (!contractSaleOver);\n       contractSaleOver = true;\n       contractSaleOverTime = now;\n       \n   }\n\n   function burn (uint256 amount) external whenNotPaused returns (bool) {\n       \n       _burn(msg.sender, amount);\n\n   } \n\n   function transferAnyERC20Token(address tokenAddress, uint tokens) external whenNotPaused onlyOwner returns (bool success) {\n        require(tokenAddress != address(0));\n        return ERC20(tokenAddress).transfer(owner, tokens);\n    }}\n",
  "sourcePath": "/home/zaryab/blockchain_begins/all_about_ethereum/quillHash_CODES/swan_smart_contracts/contracts/Swan.sol",
  "compiler": {
    "name": "solc",
    "version": "0.5.16+commit.9c3226ce.Emscripten.clang"
  },
  "schemaVersion": "3.2.2",
  "updatedAt": "2020-11-04T05:22:19.686Z",
  "devdoc": {
    "methods": {
      "allowance(address,address)": {
        "details": "See `IERC20.allowance`."
      },
      "approve(address,uint256)": {
        "details": "See `IERC20.approve`.     * Requirements:     * - `spender` cannot be the zero address."
      },
      "balanceOf(address)": {
        "details": "See `IERC20.balanceOf`."
      },
      "decreaseAllowance(address,uint256)": {
        "details": "Atomically decreases the allowance granted to `spender` by the caller.     * This is an alternative to `approve` that can be used as a mitigation for problems described in `IERC20.approve`.     * Emits an `Approval` event indicating the updated allowance.     * Requirements:     * - `spender` cannot be the zero address. - `spender` must have allowance for the caller of at least `subtractedValue`."
      },
      "increaseAllowance(address,uint256)": {
        "details": "Atomically increases the allowance granted to `spender` by the caller.     * This is an alternative to `approve` that can be used as a mitigation for problems described in `IERC20.approve`.     * Emits an `Approval` event indicating the updated allowance.     * Requirements:     * - `spender` cannot be the zero address."
      },
      "totalSupply()": {
        "details": "See `IERC20.totalSupply`."
      },
      "transfer(address,uint256)": {
        "details": "See `IERC20.transfer`.     * Requirements:     * - `recipient` cannot be the zero address. - the caller must have a balance of at least `amount`."
      },
      "transferFrom(address,address,uint256)": {
        "details": "See `IERC20.transferFrom`.     * Emits an `Approval` event indicating the updated allowance. This is not required by the EIP. See the note at the beginning of `ERC20`;     * Requirements: - `sender` and `recipient` cannot be the zero address. - `sender` must have a balance of at least `value`. - the caller must have allowance for `sender`'s tokens of at least `amount`."
      }
    }
  },
  "userdoc": {
    "methods": {}
  }
}