{
  "contractName": "SwanStake",
  "abi": [
    {
      "inputs": [
        {
          "internalType": "address",
          "name": "swanToken",
          "type": "address"
        }
      ],
      "payable": false,
      "stateMutability": "nonpayable",
      "type": "constructor"
    },
    {
      "anonymous": false,
      "inputs": [
        {
          "indexed": true,
          "internalType": "address",
          "name": "_user",
          "type": "address"
        },
        {
          "indexed": false,
          "internalType": "uint256",
          "name": "_amount",
          "type": "uint256"
        }
      ],
      "name": "ClaimedInterestTokens",
      "type": "event"
    },
    {
      "anonymous": false,
      "inputs": [
        {
          "indexed": true,
          "internalType": "address",
          "name": "_user",
          "type": "address"
        },
        {
          "indexed": false,
          "internalType": "uint256",
          "name": "_amount",
          "type": "uint256"
        }
      ],
      "name": "ClaimedStakedTokens",
      "type": "event"
    },
    {
      "anonymous": false,
      "inputs": [
        {
          "indexed": false,
          "internalType": "uint256",
          "name": "_proposalId",
          "type": "uint256"
        },
        {
          "indexed": true,
          "internalType": "address",
          "name": "_user",
          "type": "address"
        },
        {
          "indexed": false,
          "internalType": "uint256",
          "name": "_amount",
          "type": "uint256"
        },
        {
          "indexed": false,
          "internalType": "uint256",
          "name": "_lockupPeriod",
          "type": "uint256"
        },
        {
          "indexed": false,
          "internalType": "uint256",
          "name": "_interest",
          "type": "uint256"
        }
      ],
      "name": "OneMonthStaked",
      "type": "event"
    },
    {
      "anonymous": false,
      "inputs": [
        {
          "indexed": true,
          "internalType": "address",
          "name": "previousOwner",
          "type": "address"
        },
        {
          "indexed": true,
          "internalType": "address",
          "name": "newOwner",
          "type": "address"
        }
      ],
      "name": "OwnershipTransferred",
      "type": "event"
    },
    {
      "anonymous": false,
      "inputs": [
        {
          "indexed": false,
          "internalType": "address",
          "name": "account",
          "type": "address"
        }
      ],
      "name": "Paused",
      "type": "event"
    },
    {
      "anonymous": false,
      "inputs": [
        {
          "indexed": true,
          "internalType": "address",
          "name": "account",
          "type": "address"
        }
      ],
      "name": "PauserAdded",
      "type": "event"
    },
    {
      "anonymous": false,
      "inputs": [
        {
          "indexed": true,
          "internalType": "address",
          "name": "account",
          "type": "address"
        }
      ],
      "name": "PauserRemoved",
      "type": "event"
    },
    {
      "anonymous": false,
      "inputs": [
        {
          "indexed": false,
          "internalType": "uint256",
          "name": "_proposalId",
          "type": "uint256"
        },
        {
          "indexed": true,
          "internalType": "address",
          "name": "_user",
          "type": "address"
        },
        {
          "indexed": false,
          "internalType": "uint256",
          "name": "_amount",
          "type": "uint256"
        },
        {
          "indexed": false,
          "internalType": "uint256",
          "name": "_lockupPeriod",
          "type": "uint256"
        },
        {
          "indexed": false,
          "internalType": "uint256",
          "name": "_interest",
          "type": "uint256"
        }
      ],
      "name": "ThreeMonthStaked",
      "type": "event"
    },
    {
      "anonymous": false,
      "inputs": [
        {
          "indexed": true,
          "internalType": "address",
          "name": "_user",
          "type": "address"
        },
        {
          "indexed": false,
          "internalType": "uint256",
          "name": "_amount",
          "type": "uint256"
        }
      ],
      "name": "TokenRewardTransferred",
      "type": "event"
    },
    {
      "anonymous": false,
      "inputs": [
        {
          "indexed": false,
          "internalType": "address",
          "name": "account",
          "type": "address"
        }
      ],
      "name": "Unpaused",
      "type": "event"
    },
    {
      "anonymous": false,
      "inputs": [
        {
          "indexed": true,
          "internalType": "address",
          "name": "_user",
          "type": "address"
        },
        {
          "indexed": false,
          "internalType": "uint256",
          "name": "_amount",
          "type": "uint256"
        },
        {
          "indexed": false,
          "internalType": "uint256",
          "name": "_lockupPeriod",
          "type": "uint256"
        },
        {
          "indexed": false,
          "internalType": "uint256",
          "name": "_interest",
          "type": "uint256"
        }
      ],
      "name": "staked",
      "type": "event"
    },
    {
      "constant": false,
      "inputs": [
        {
          "internalType": "address",
          "name": "account",
          "type": "address"
        }
      ],
      "name": "addPauser",
      "outputs": [],
      "payable": false,
      "stateMutability": "nonpayable",
      "type": "function"
    },
    {
      "constant": true,
      "inputs": [
        {
          "internalType": "address",
          "name": "",
          "type": "address"
        },
        {
          "internalType": "uint256",
          "name": "",
          "type": "uint256"
        }
      ],
      "name": "checkCycle",
      "outputs": [
        {
          "internalType": "bool",
          "name": "",
          "type": "bool"
        }
      ],
      "payable": false,
      "stateMutability": "view",
      "type": "function"
    },
    {
      "constant": true,
      "inputs": [],
      "name": "currentPrice",
      "outputs": [
        {
          "internalType": "uint256",
          "name": "",
          "type": "uint256"
        }
      ],
      "payable": false,
      "stateMutability": "view",
      "type": "function"
    },
    {
      "constant": true,
      "inputs": [
        {
          "internalType": "address",
          "name": "",
          "type": "address"
        },
        {
          "internalType": "uint256",
          "name": "",
          "type": "uint256"
        }
      ],
      "name": "interestAccountDetails",
      "outputs": [
        {
          "internalType": "uint256",
          "name": "amount",
          "type": "uint256"
        },
        {
          "internalType": "uint256",
          "name": "time",
          "type": "uint256"
        },
        {
          "internalType": "uint256",
          "name": "interestRate",
          "type": "uint256"
        },
        {
          "internalType": "uint256",
          "name": "interestPayouts",
          "type": "uint256"
        },
        {
          "internalType": "uint256",
          "name": "timeperiod",
          "type": "uint256"
        },
        {
          "internalType": "uint256",
          "name": "proposalId",
          "type": "uint256"
        },
        {
          "internalType": "bool",
          "name": "withdrawn",
          "type": "bool"
        }
      ],
      "payable": false,
      "stateMutability": "view",
      "type": "function"
    },
    {
      "constant": true,
      "inputs": [
        {
          "internalType": "address",
          "name": "",
          "type": "address"
        }
      ],
      "name": "interestAccountNumber",
      "outputs": [
        {
          "internalType": "uint256",
          "name": "",
          "type": "uint256"
        }
      ],
      "payable": false,
      "stateMutability": "view",
      "type": "function"
    },
    {
      "constant": true,
      "inputs": [],
      "name": "isOwner",
      "outputs": [
        {
          "internalType": "bool",
          "name": "",
          "type": "bool"
        }
      ],
      "payable": false,
      "stateMutability": "view",
      "type": "function"
    },
    {
      "constant": true,
      "inputs": [
        {
          "internalType": "address",
          "name": "account",
          "type": "address"
        }
      ],
      "name": "isPauser",
      "outputs": [
        {
          "internalType": "bool",
          "name": "",
          "type": "bool"
        }
      ],
      "payable": false,
      "stateMutability": "view",
      "type": "function"
    },
    {
      "constant": true,
      "inputs": [
        {
          "internalType": "address",
          "name": "",
          "type": "address"
        }
      ],
      "name": "isStaker",
      "outputs": [
        {
          "internalType": "bool",
          "name": "",
          "type": "bool"
        }
      ],
      "payable": false,
      "stateMutability": "view",
      "type": "function"
    },
    {
      "constant": true,
      "inputs": [
        {
          "internalType": "address",
          "name": "",
          "type": "address"
        },
        {
          "internalType": "uint256",
          "name": "",
          "type": "uint256"
        }
      ],
      "name": "lastPayoutCall",
      "outputs": [
        {
          "internalType": "uint256",
          "name": "",
          "type": "uint256"
        }
      ],
      "payable": false,
      "stateMutability": "view",
      "type": "function"
    },
    {
      "constant": true,
      "inputs": [],
      "name": "owner",
      "outputs": [
        {
          "internalType": "address",
          "name": "",
          "type": "address"
        }
      ],
      "payable": false,
      "stateMutability": "view",
      "type": "function"
    },
    {
      "constant": false,
      "inputs": [],
      "name": "pause",
      "outputs": [],
      "payable": false,
      "stateMutability": "nonpayable",
      "type": "function"
    },
    {
      "constant": true,
      "inputs": [],
      "name": "paused",
      "outputs": [
        {
          "internalType": "bool",
          "name": "",
          "type": "bool"
        }
      ],
      "payable": false,
      "stateMutability": "view",
      "type": "function"
    },
    {
      "constant": false,
      "inputs": [],
      "name": "renounceOwnership",
      "outputs": [],
      "payable": false,
      "stateMutability": "nonpayable",
      "type": "function"
    },
    {
      "constant": false,
      "inputs": [],
      "name": "renouncePauser",
      "outputs": [],
      "payable": false,
      "stateMutability": "nonpayable",
      "type": "function"
    },
    {
      "constant": true,
      "inputs": [
        {
          "internalType": "address",
          "name": "",
          "type": "address"
        }
      ],
      "name": "stakeAccountDetails",
      "outputs": [
        {
          "internalType": "uint256",
          "name": "stakedAmount",
          "type": "uint256"
        },
        {
          "internalType": "uint256",
          "name": "time",
          "type": "uint256"
        },
        {
          "internalType": "uint256",
          "name": "interestRate",
          "type": "uint256"
        },
        {
          "internalType": "bool",
          "name": "unstaked",
          "type": "bool"
        }
      ],
      "payable": false,
      "stateMutability": "view",
      "type": "function"
    },
    {
      "constant": true,
      "inputs": [],
      "name": "swanTokenAddress",
      "outputs": [
        {
          "internalType": "address",
          "name": "",
          "type": "address"
        }
      ],
      "payable": false,
      "stateMutability": "view",
      "type": "function"
    },
    {
      "constant": true,
      "inputs": [
        {
          "internalType": "address",
          "name": "",
          "type": "address"
        },
        {
          "internalType": "uint256",
          "name": "",
          "type": "uint256"
        }
      ],
      "name": "totalPoolRewards",
      "outputs": [
        {
          "internalType": "uint256",
          "name": "",
          "type": "uint256"
        }
      ],
      "payable": false,
      "stateMutability": "view",
      "type": "function"
    },
    {
      "constant": false,
      "inputs": [
        {
          "internalType": "address",
          "name": "newOwner",
          "type": "address"
        }
      ],
      "name": "transferOwnership",
      "outputs": [],
      "payable": false,
      "stateMutability": "nonpayable",
      "type": "function"
    },
    {
      "constant": false,
      "inputs": [],
      "name": "unpause",
      "outputs": [],
      "payable": false,
      "stateMutability": "nonpayable",
      "type": "function"
    },
    {
      "constant": true,
      "inputs": [
        {
          "internalType": "address",
          "name": "",
          "type": "address"
        }
      ],
      "name": "userTotalStakes",
      "outputs": [
        {
          "internalType": "uint256",
          "name": "",
          "type": "uint256"
        }
      ],
      "payable": false,
      "stateMutability": "view",
      "type": "function"
    },
    {
      "constant": true,
      "inputs": [],
      "name": "totalStakedTokens",
      "outputs": [
        {
          "internalType": "uint256",
          "name": "",
          "type": "uint256"
        }
      ],
      "payable": false,
      "stateMutability": "view",
      "type": "function"
    },
    {
      "constant": false,
      "inputs": [
        {
          "internalType": "uint256",
          "name": "price",
          "type": "uint256"
        }
      ],
      "name": "setPrice",
      "outputs": [],
      "payable": false,
      "stateMutability": "nonpayable",
      "type": "function"
    },
    {
      "constant": false,
      "inputs": [
        {
          "internalType": "uint256",
          "name": "_amount",
          "type": "uint256"
        }
      ],
      "name": "stake",
      "outputs": [
        {
          "internalType": "bool",
          "name": "",
          "type": "bool"
        }
      ],
      "payable": false,
      "stateMutability": "nonpayable",
      "type": "function"
    },
    {
      "constant": false,
      "inputs": [
        {
          "internalType": "uint256",
          "name": "amount",
          "type": "uint256"
        },
        {
          "internalType": "uint256",
          "name": "duration",
          "type": "uint256"
        }
      ],
      "name": "earnInterest",
      "outputs": [
        {
          "internalType": "bool",
          "name": "",
          "type": "bool"
        }
      ],
      "payable": false,
      "stateMutability": "nonpayable",
      "type": "function"
    },
    {
      "constant": false,
      "inputs": [
        {
          "internalType": "uint256",
          "name": "id",
          "type": "uint256"
        }
      ],
      "name": "claimInterestTokens",
      "outputs": [],
      "payable": false,
      "stateMutability": "nonpayable",
      "type": "function"
    },
    {
      "constant": false,
      "inputs": [],
      "name": "claimStakeTokens",
      "outputs": [],
      "payable": false,
      "stateMutability": "nonpayable",
      "type": "function"
    },
    {
      "constant": false,
      "inputs": [
        {
          "internalType": "uint256",
          "name": "id",
          "type": "uint256"
        }
      ],
      "name": "payOuts",
      "outputs": [
        {
          "internalType": "bool",
          "name": "",
          "type": "bool"
        }
      ],
      "payable": false,
      "stateMutability": "nonpayable",
      "type": "function"
    },
    {
      "constant": true,
      "inputs": [
        {
          "internalType": "address",
          "name": "userAddress",
          "type": "address"
        }
      ],
      "name": "getUserStakedAmount",
      "outputs": [
        {
          "internalType": "uint256",
          "name": "",
          "type": "uint256"
        }
      ],
      "payable": false,
      "stateMutability": "view",
      "type": "function"
    }
  ],
  "bytecode": "0x60806040523480156200001157600080fd5b5060405162002a8c38038062002a8c833981810160405260208110156200003757600080fd5b50516200005f620000506001600160e01b036200014d16565b6001600160e01b036200015116565b6001805460ff1916905560006200007e6001600160e01b036200014d16565b60018054610100600160a81b0319166101006001600160a01b03841690810291909117909155604051919250906000907f8be0079c531659141344cd1fd0a4f28419497f9722a3daafe3b4186f6b6457e0908290a3506001600160a01b0381166200011b5760405162461bcd60e51b815260040180806020018281038252602681526020018062002a446026913960400191505060405180910390fd5b600280546001600160a01b0319166001600160a01b0392909216919091179055670de0b6b3a764000060035562000299565b3390565b6200016c816000620001a360201b6200252c1790919060201c565b6040516001600160a01b038216907f6719d08c1888103bea251a4ed56406bd0c3e69723c8a1686e017e7bbe159b6f890600090a250565b620001b882826001600160e01b036200023016565b156200020b576040805162461bcd60e51b815260206004820152601f60248201527f526f6c65733a206163636f756e7420616c72656164792068617320726f6c6500604482015290519081900360640190fd5b6001600160a01b0316600090815260209190915260409020805460ff19166001179055565b60006001600160a01b038216620002795760405162461bcd60e51b815260040180806020018281038252602281526020018062002a6a6022913960400191505060405180910390fd5b506001600160a01b03166000908152602091909152604090205460ff1690565b61279b80620002a96000396000f3fe608060405234801561001057600080fd5b50600436106101c45760003560e01c80638da5cb5b116100f9578063a694fc3a11610097578063ed43e41c11610071578063ed43e41c14610469578063f2fde38b14610486578063f35dba44146104ac578063f3c2399b146104d8576101c4565b8063a694fc3a14610403578063a94351b014610420578063aed547051461044c576101c4565b80639219b349116100d35780639219b3491461038c57806394465b21146103b257806395c1c55b146103d85780639d1b464a146103fb576101c4565b80638da5cb5b1461035f5780638f32d59b1461036757806391b7f5ed1461036f576101c4565b80635c975abb116101665780636f1e8533116101405780636f1e853314610303578063715018a61461032957806382dc1ec4146103315780638456cb5914610357576101c4565b80635c975abb146102a5578063646bdd1c146102ad5780636ef8d66d146102fb576101c4565b80633f4ba83a116101a25780633f4ba83a146102135780634620b2431461021b57806346fbf68e1461023f578063497e3fa114610279576101c4565b806304ffb580146101c95780630c5467be146101d35780633ae732591461020b575b600080fd5b6101d161053e565b005b6101f9600480360360208110156101e957600080fd5b50356001600160a01b0316610869565b60408051918252519081900360200190f35b6101f961087b565b6101d16108f7565b6102236109e0565b604080516001600160a01b039092168252519081900360200190f35b6102656004803603602081101561025557600080fd5b50356001600160a01b03166109ef565b604080519115158252519081900360200190f35b6102656004803603604081101561028f57600080fd5b506001600160a01b038135169060200135610a09565b610265610a29565b6102d3600480360360208110156102c357600080fd5b50356001600160a01b0316610a32565b6040805194855260208501939093528383019190915215156060830152519081900360800190f35b6101d1610a5c565b6102656004803603602081101561031957600080fd5b50356001600160a01b0316610a6e565b6101d1610a83565b6101d16004803603602081101561034757600080fd5b50356001600160a01b0316610b2c565b6101d1610b7e565b610223610c44565b610265610c58565b6101d16004803603602081101561038557600080fd5b5035610c83565b6101f9600480360360208110156103a257600080fd5b50356001600160a01b0316610d2d565b6101f9600480360360208110156103c857600080fd5b50356001600160a01b0316610d3f565b610265600480360360408110156103ee57600080fd5b5080359060200135610d5a565b6101f961134b565b6102656004803603602081101561041957600080fd5b5035611351565b6101f96004803603604081101561043657600080fd5b506001600160a01b0381351690602001356115ef565b6101d16004803603602081101561046257600080fd5b503561160c565b6102656004803603602081101561047f57600080fd5b50356119b2565b6101d16004803603602081101561049c57600080fd5b50356001600160a01b0316611da3565b6101f9600480360360408110156104c257600080fd5b506001600160a01b038135169060200135611e05565b610504600480360360408110156104ee57600080fd5b506001600160a01b038135169060200135611e22565b604080519788526020880196909652868601949094526060860192909252608085015260a0840152151560c0830152519081900360e00190f35b60015460ff1615610589576040805162461bcd60e51b815260206004820152601060248201526f14185d5cd8589b194e881c185d5cd95960821b604482015290519081900360640190fd5b3360009081526004602052604090205460ff166105e4576040805162461bcd60e51b81526020600482015260146024820152732ab9b2b91034b9903737ba10309029ba30b5b2b960611b604482015290519081900360640190fd5b6105ec6125ad565b503360009081526007602090815260409182902082516080810184528154815260018201549281018390526002820154938101939093526003015460ff16151560608301526106449062a081c863ffffffff611e6d16565b421015610698576040805162461bcd60e51b815260206004820152601a60248201527f4c6f636b557020506572696f64204e4f54204f56455220596574000000000000604482015290519081900360640190fd5b80516000906106c1906064906106b590600e63ffffffff611ece16565b9063ffffffff611f2716565b82519091506000906106d9908363ffffffff611e6d16565b8351336000908152600560205260409020549192506106fe919063ffffffff611f6916565b336000818152600560209081526040808320949094556004808252848320805460ff19908116909155600160608a01818152868652600785528786208b5181558b860151928101929092558a8801516002808401919091559051600390920180549093169115159190911790915554855163a9059cbb60e01b8152918201949094526024810186905293516001600160a01b039093169363a9059cbb9360448083019491928390030190829087803b1580156107b957600080fd5b505af11580156107cd573d6000803e3d6000fd5b505050506040513d60208110156107e357600080fd5b505161082e576040805162461bcd60e51b8152602060048201526015602482015274151bdad95b88151c985b9cd9995c8811985a5b1959605a1b604482015290519081900360640190fd5b60408051828152905133917fbd47c9811d6122cf81172cea835b94568889b3ae4a47114dcbb68287e7f18114919081900360200190a2505050565b60056020526000908152604090205481565b600254604080516370a0823160e01b815230600482015290516000926001600160a01b0316916370a08231916024808301926020929190829003018186803b1580156108c657600080fd5b505afa1580156108da573d6000803e3d6000fd5b505050506040513d60208110156108f057600080fd5b5051905090565b610907610902611fab565b6109ef565b6109425760405162461bcd60e51b81526004018080602001828103825260308152602001806126176030913960400191505060405180910390fd5b60015460ff16610990576040805162461bcd60e51b815260206004820152601460248201527314185d5cd8589b194e881b9bdd081c185d5cd95960621b604482015290519081900360640190fd5b6001805460ff191690557f5db9ee0a495bf2e6ff9c91a7834c1ba4fdd244a5e8aa4e537bd38aeae4b073aa6109c3611fab565b604080516001600160a01b039092168252519081900360200190a1565b6002546001600160a01b031681565b6000610a01818363ffffffff611faf16565b90505b919050565b600a60209081526000928352604080842090915290825290205460ff1681565b60015460ff1690565b60076020526000908152604090208054600182015460028301546003909301549192909160ff1684565b610a6c610a67611fab565b612016565b565b60046020526000908152604090205460ff1681565b610a8b610c58565b610adc576040805162461bcd60e51b815260206004820181905260248201527f4f776e61626c653a2063616c6c6572206973206e6f7420746865206f776e6572604482015290519081900360640190fd5b60015460405160009161010090046001600160a01b0316907f8be0079c531659141344cd1fd0a4f28419497f9722a3daafe3b4186f6b6457e0908390a360018054610100600160a81b0319169055565b610b37610902611fab565b610b725760405162461bcd60e51b81526004018080602001828103825260308152602001806126176030913960400191505060405180910390fd5b610b7b8161205e565b50565b610b89610902611fab565b610bc45760405162461bcd60e51b81526004018080602001828103825260308152602001806126176030913960400191505060405180910390fd5b60015460ff1615610c0f576040805162461bcd60e51b815260206004820152601060248201526f14185d5cd8589b194e881c185d5cd95960821b604482015290519081900360640190fd5b6001805460ff1916811790557f62e78cea01bee320cd4e420270b5ea74000d11b0c9f74754ebdbfc544b05a2586109c3611fab565b60015461010090046001600160a01b031690565b60015460009061010090046001600160a01b0316610c74611fab565b6001600160a01b031614905090565b610c8b610c58565b610cdc576040805162461bcd60e51b815260206004820181905260248201527f4f776e61626c653a2063616c6c6572206973206e6f7420746865206f776e6572604482015290519081900360640190fd5b60008111610d28576040805162461bcd60e51b815260206004820152601460248201527350726963652043616e6e6f74206265205a45524f60601b604482015290519081900360640190fd5b600355565b60066020526000908152604090205481565b6001600160a01b031660009081526005602052604090205490565b60015460009060ff1615610da8576040805162461bcd60e51b815260206004820152601060248201526f14185d5cd8589b194e881c185d5cd95960821b604482015290519081900360640190fd5b60008311610dfd576040805162461bcd60e51b815260206004820152601f60248201527f416d6f756e742063616e206e6f7420626520657175616c20746f205a45524f00604482015290519081900360640190fd5b60008211610e52576040805162461bcd60e51b815260206004820152601860248201527f4475726174696f6e2063616e206e6f74206265205a65726f0000000000000000604482015290519081900360640190fd5b33600090815260066020526040812054610e7390600163ffffffff611e6d16565b3360009081526004602052604090205490915060ff1615611053578260031415610f70576040805160e08101825285815242602080830191825260148385018181526000606080870182815260808089018d815260a08a018c815260c08b0186815233808852600b8b528d88208f89528b52968d90209b518c55995160018c0155955160028b0155915160038a0155905160048901559251600588015594516006909601805460ff19169615159690961790955585518781529283018a905282860189905292820152925191927f07f7da7185e75c8564d1399394cf84e1e8d6cedd9d95c276912aba8d9d2a46b5929081900390910190a261104e565b826001141561104e576040805160e08101825285815242602080830191825260108385018181526000606080870182815260808089018d815260a08a018c815260c08b0186815233808852600b8b528d88208f89528b52968d90209b518c55995160018c0155955160028b0155915160038a0155905160048901559251600588015594516006909601805460ff19169615159690961790955585518781529283018a905282860189905292820152925191927f2db489c53384dc3e8538b9799cc915c882bf1bc0d0206ea30e67b65eb8413006929081900390910190a25b611213565b8260031415611135576040805160e08101825285815242602080830191825260108385018181526000606080870182815260808089018d815260a08a018c815260c08b0186815233808852600b8b528d88208f89528b52968d90209b518c55995160018c0155955160028b0155915160038a0155905160048901559251600588015594516006909601805460ff19169615159690961790955585518781529283018a905282860189905292820152925191927f07f7da7185e75c8564d1399394cf84e1e8d6cedd9d95c276912aba8d9d2a46b5929081900390910190a2611213565b8260011415611213576040805160e081018252858152426020808301918252600c8385018181526000606080870182815260808089018d815260a08a018c815260c08b0186815233808852600b8b528d88208f89528b52968d90209b518c55995160018c0155955160028b0155915160038a0155905160048901559251600588015594516006909601805460ff19169615159690961790955585518781529283018a905282860189905292820152925191927f2db489c53384dc3e8538b9799cc915c882bf1bc0d0206ea30e67b65eb8413006929081900390910190a25b33600090815260056020526040902054611233908563ffffffff611e6d16565b3360009081526005602090815260408083209390935560069052205461126090600163ffffffff611e6d16565b3360008181526006602090815260408083209490945560025484516323b872dd60e01b815260048101949094523060248501526044840189905293516001600160a01b03909416936323b872dd93606480820194918390030190829087803b1580156112cb57600080fd5b505af11580156112df573d6000803e3d6000fd5b505050506040513d60208110156112f557600080fd5b505161133f576040805162461bcd60e51b81526020600482015260146024820152731d1c985b9cd9995c88119c9bdb4819985a5b195960621b604482015290519081900360640190fd5b60019150505b92915050565b60035481565b60015460009060ff161561139f576040805162461bcd60e51b815260206004820152601060248201526f14185d5cd8589b194e881c185d5cd95960821b604482015290519081900360640190fd5b3360009081526004602052604090205460ff16156113ee5760405162461bcd60e51b815260040180806020018281038252602b81526020018061266d602b913960400191505060405180910390fd5b600354611403906107d063ffffffff611ece16565b8210156114415760405162461bcd60e51b81526004018080602001828103825260218152602001806127466021913960400191505060405180910390fd5b60408051608081018252838152426020808301918252600e838501908152600060608501818152338252600784528682209551865593516001868101919091559151600286015592516003909401805494151560ff1995861617905560048252848320805490941617909255600590915220546114c4908363ffffffff611e6d16565b3360008181526005602090815260408083209490945560025484516323b872dd60e01b815260048101949094523060248501526044840187905293516001600160a01b03909416936323b872dd93606480820194918390030190829087803b15801561152f57600080fd5b505af1158015611543573d6000803e3d6000fd5b505050506040513d602081101561155957600080fd5b50516115a4576040805162461bcd60e51b8152602060048201526015602482015274151bdad95b88151c985b9cd9995c8811985a5b1959605a1b604482015290519081900360640190fd5b6040805183815260046020820152600e81830152905133917ffee41ab8d413b04bf85ae4b4d4a2652bae467f4763d02c3568697de3c58f251d919081900360600190a2506001919050565b600860209081526000928352604080842090915290825290205481565b60015460ff1615611657576040805162461bcd60e51b815260206004820152601060248201526f14185d5cd8589b194e881c185d5cd95960821b604482015290519081900360640190fd5b61165f6125d7565b50336000908152600b60209081526040808320848452825291829020825160e0810184528154815260018201549281019290925260028101549282019290925260038201546060820152600482015460808201819052600583015460a083015260069092015460ff16151560c0820152906116f8906116e7906228207263ffffffff611ece16565b60208301519063ffffffff611e6d16565b421015611743576040805162461bcd60e51b81526020600482015260146024820152732232b0b23634b7329034b9903737ba1037bb32b960611b604482015290519081900360640190fd5b8051611796576040805162461bcd60e51b815260206004820152601760248201527f496e76657374656420416d6f756e74206973205a45524f000000000000000000604482015290519081900360640190fd5b60006117b860646106b584604001518560000151611ece90919063ffffffff16565b336000908152600960209081526040808320878452909152812054919250906117e890839063ffffffff611f6916565b8351909150600090611800908363ffffffff611e6d16565b845133600090815260056020526040902054919250611825919063ffffffff611f6916565b33600081815260056020818152604080842095909555600160c08a01818152848b52858552600b83528685208c865283528685208b5181558b840151928101929092558a87015160028084019190915560608c0151600384015560808c015160048085019190915560a08d01519584019590955590516006909201805460ff19169215159290921790915554855163a9059cbb60e01b8152928301949094526024820186905293516001600160a01b039093169363a9059cbb9360448084019492939192918390030190829087803b15801561190057600080fd5b505af1158015611914573d6000803e3d6000fd5b505050506040513d602081101561192a57600080fd5b5051611975576040805162461bcd60e51b8152602060048201526015602482015274151bdad95b88151c985b9cd9995c8811985a5b1959605a1b604482015290519081900360640190fd5b60408051828152905133917f89b2b6c7333ee2dd53fa794ea552cbb29898205a789cb55f4ee361b5dd773e7d919081900360200190a25050505050565b60006119bc6125d7565b50336000908152600b60209081526040808320858452825291829020825160e0810184528154815260018201549281019290925260028101549282019290925260038201546060820152600482015460808201819052600583015460a083015260069092015460ff16151560c082015290611a44906116e7906228207263ffffffff611ece16565b421115611a98576040805162461bcd60e51b815260206004820152601760248201527f5265776172642054696d656c696e65206973204f766572000000000000000000604482015290519081900360640190fd5b8060c0015115611ad95760405162461bcd60e51b81526004018080602001828103825260218152602001806127256021913960400191505060405180910390fd5b6000611ae533856120a6565b905060008111611b34576040805162461bcd60e51b81526020600482015260156024820152744379636c65206973206e6f7420636f6d706c65746560581b604482015290519081900360640190fd5b6000611b5660646106b585604001518660000151611ece90919063ffffffff16565b90506000611b82611b7560048660800151611ece90919063ffffffff16565b839063ffffffff611f2716565b9050611b94818463ffffffff611ece16565b846060015111611d9a576060840151600090611bc690611bba848763ffffffff611ece16565b9063ffffffff611f6916565b3360009081526009602090815260408083208b84529091529020549091508390611bf790839063ffffffff611e6d16565b1115611c345760405162461bcd60e51b81526004018080602001828103825260298152602001806126fc6029913960400191505060405180910390fd5b611c44828563ffffffff611ece16565b60608601523360009081526009602090815260408083208a8452909152902054611c74908263ffffffff611e6d16565b3360008181526009602090815260408083208c8452825280832094909455600254845163a9059cbb60e01b815260048101949094526024840186905293516001600160a01b039094169363a9059cbb93604480820194918390030190829087803b158015611ce157600080fd5b505af1158015611cf5573d6000803e3d6000fd5b505050506040513d6020811015611d0b57600080fd5b5051611d56576040805162461bcd60e51b8152602060048201526015602482015274151bdad95b88151c985b9cd9995c8811985a5b1959605a1b604482015290519081900360640190fd5b60408051828152905133917fd5389b45bf6209c2a9ec252ebe58ed40632751b68d518faad53f67a3f3a0a1a0919081900360200190a2600195505050505050610a04565b50505050919050565b611dab610c58565b611dfc576040805162461bcd60e51b815260206004820181905260248201527f4f776e61626c653a2063616c6c6572206973206e6f7420746865206f776e6572604482015290519081900360640190fd5b610b7b8161231d565b600960209081526000928352604080842090915290825290205481565b600b6020908152600092835260408084209091529082529020805460018201546002830154600384015460048501546005860154600690960154949593949293919290919060ff1687565b600082820183811015611ec7576040805162461bcd60e51b815260206004820152601b60248201527f536166654d6174683a206164646974696f6e206f766572666c6f770000000000604482015290519081900360640190fd5b9392505050565b600082611edd57506000611345565b82820282848281611eea57fe5b0414611ec75760405162461bcd60e51b81526004018080602001828103825260218152602001806126b96021913960400191505060405180910390fd5b6000611ec783836040518060400160405280601a81526020017f536166654d6174683a206469766973696f6e206279207a65726f0000000000008152506123c9565b6000611ec783836040518060400160405280601e81526020017f536166654d6174683a207375627472616374696f6e206f766572666c6f77000081525061246b565b3390565b60006001600160a01b038216611ff65760405162461bcd60e51b81526004018080602001828103825260228152602001806126da6022913960400191505060405180910390fd5b506001600160a01b03166000908152602091909152604090205460ff1690565b61202760008263ffffffff6124c516565b6040516001600160a01b038216907fcd265ebaf09df2871cc7bd4133404a235ba12eff2041bb89d9c714a2621c7c7e90600090a250565b61206f60008263ffffffff61252c16565b6040516001600160a01b038216907f6719d08c1888103bea251a4ed56406bd0c3e69723c8a1686e017e7bbe159b6f890600090a250565b60006120b06125d7565b506001600160a01b0383166000908152600b60209081526040808320858452825291829020825160e08101845281548082526001830154938201939093526002820154938101939093526003810154606084015260048101546080840152600581015460a08401526006015460ff16151560c0830152612177576040805162461bcd60e51b815260206004820152601860248201527f416d6f756e742057697468647261776e20416c72656164790000000000000000604482015290519081900360640190fd5b6001600160a01b0384166000908152600a6020908152604080832086845290915281205460ff16156121df576001600160a01b03851660009081526008602090815260408083208784529091529020546121d890429063ffffffff611f6916565b9050612226565b60208201516121f590429063ffffffff611f6916565b6001600160a01b0386166000908152600a602090815260408083208884529091529020805460ff1916600117905590505b615460811161223a57600092505050611345565b615460811115612315576001600160a01b03851660009081526008602090815260408083208784529091529020546154609061227d90429063ffffffff611f6916565b10156122d0576040805162461bcd60e51b815260206004820152601a60248201527f43616e6e6f742043616c6c204265666f7265203620686f757273000000000000604482015290519081900360640190fd5b60006122e48261546063ffffffff611f2716565b6001600160a01b03871660009081526008602090815260408083208984529091529020429055935061134592505050565b505092915050565b6001600160a01b0381166123625760405162461bcd60e51b81526004018080602001828103825260268152602001806126476026913960400191505060405180910390fd5b6001546040516001600160a01b0380841692610100900416907f8be0079c531659141344cd1fd0a4f28419497f9722a3daafe3b4186f6b6457e090600090a3600180546001600160a01b0390921661010002610100600160a81b0319909216919091179055565b600081836124555760405162461bcd60e51b81526004018080602001828103825283818151815260200191508051906020019080838360005b8381101561241a578181015183820152602001612402565b50505050905090810190601f1680156124475780820380516001836020036101000a031916815260200191505b509250505060405180910390fd5b50600083858161246157fe5b0495945050505050565b600081848411156124bd5760405162461bcd60e51b815260206004820181815283516024840152835190928392604490910191908501908083836000831561241a578181015183820152602001612402565b505050900390565b6124cf8282611faf565b61250a5760405162461bcd60e51b81526004018080602001828103825260218152602001806126986021913960400191505060405180910390fd5b6001600160a01b0316600090815260209190915260409020805460ff19169055565b6125368282611faf565b15612588576040805162461bcd60e51b815260206004820152601f60248201527f526f6c65733a206163636f756e7420616c72656164792068617320726f6c6500604482015290519081900360640190fd5b6001600160a01b0316600090815260209190915260409020805460ff19166001179055565b60405180608001604052806000815260200160008152602001600081526020016000151581525090565b6040518060e00160405280600081526020016000815260200160008152602001600081526020016000815260200160008152602001600015158152509056fe506175736572526f6c653a2063616c6c657220646f6573206e6f742068617665207468652050617573657220726f6c654f776e61626c653a206e6577206f776e657220697320746865207a65726f206164647265737350726576696f7573205374616b656420416d6f756e74206973206e6f742057697468647261776e20796574526f6c65733a206163636f756e7420646f6573206e6f74206861766520726f6c65536166654d6174683a206d756c7469706c69636174696f6e206f766572666c6f77526f6c65733a206163636f756e7420697320746865207a65726f2061646472657373546f74616c20496e7465726573742068617320616c7265616479206265656e20676976656e206f7574416d6f756e742048617320616c7265616479204265656e2057697468647261776e5374616b696e6720416d6f756e74206973204c657373205468616e202432303030a265627a7a72315820b1885289cb2bde20516c7b20e7d8401bfb6c5ed8ff598445421f93777036f44364736f6c63430005100032546f6b656e20416464726573732063616e6e6f742062652061205a65726f2041646472657373526f6c65733a206163636f756e7420697320746865207a65726f2061646472657373",
  "source": "pragma solidity 0.5.16;\n\nimport \"@openzeppelin/contracts/ownership/Ownable.sol\";\nimport \"@openzeppelin/contracts/math/SafeMath.sol\";\nimport \"@openzeppelin/contracts/lifecycle/Pausable.sol\";\n\ninterface ERC20 {\n    function transferFrom(\n        address,\n        address,\n        uint256\n    ) external returns (bool);\n\n    function balanceOf(address) external view returns (uint256);\n\n    function allowance(address, address) external view returns (uint256);\n\n    function transfer(address, uint256) external returns (bool);\n}\n\n///@title Swan Staking Contract\ncontract SwanStake is Pausable, Ownable {\n    using SafeMath for uint256;\n    address public swanTokenAddress;\n    uint256 public currentPrice;\n\n    constructor(address swanToken) public Ownable() {\n        require(\n            swanToken != address(0),\n            \"Token Address cannot be a Zero Address\"\n        );\n        swanTokenAddress = swanToken;\n        currentPrice = 1 ether;\n    }\n\n    // @notice Stores STAKE ACCOUNT details of the USER\n    struct StakeAccount {\n        uint256 stakedAmount;\n        uint256 time;\n        uint256 interestRate;\n        bool unstaked;\n    }\n    // @notice Stores INTEREST ACCOUNT details of the USER\n    struct InterestAccount {\n        uint256 amount;\n        uint256 time;\n        uint256 interestRate;\n        uint256 interestPayouts;\n        uint256 timeperiod;\n        uint256 proposalId;\n        bool withdrawn;\n    }\n\n    mapping(address => bool) public isStaker;\n    mapping(address => uint256) public userTotalStakes;\n    mapping(address => uint256) public interestAccountNumber;\n    mapping(address => StakeAccount) public stakeAccountDetails;\n    mapping(address => mapping(uint256 => uint256)) public lastPayoutCall;\n    mapping(address => mapping(uint256 => uint256)) public totalPoolRewards;\n    mapping(address => mapping(uint256 => bool)) public checkCycle;\n    mapping(address => mapping(uint256 => InterestAccount))\n        public interestAccountDetails;\n\n    //  @dev emitted whenever user stakes tokens in the Stake Account\n    event staked(\n        address indexed _user,\n        uint256 _amount,\n        uint256 _lockupPeriod,\n        uint256 _interest\n    );\n    // @dev emitted whenever user stakes tokens in the Stake Account\n    event ClaimedStakedTokens(address indexed _user, uint256 _amount);\n    // @dev emitted whenever user stakes tokens for One month LockUp period\n    event OneMonthStaked(\n        uint256 _proposalId,\n        address indexed _user,\n        uint256 _amount,\n        uint256 _lockupPeriod,\n        uint256 _interest\n    );\n    // @dev emitted whenever user stakes tokens for Three month LockUp period\n    event ThreeMonthStaked(\n        uint256 _proposalId,\n        address indexed _user,\n        uint256 _amount,\n        uint256 _lockupPeriod,\n        uint256 _interest\n    );\n    // @dev emitted whenever user's staked tokens are successfully unstaked and trasnferred back to the user\n    event ClaimedInterestTokens(address indexed _user, uint256 _amount);\n    // @dev emitted whenever weekly token rewards are transferred to the user.\n    event TokenRewardTransferred(address indexed _user, uint256 _amount);\n\n    // @dev returns the current tokenBalance of the Stake Contract\n    function totalStakedTokens() external view returns (uint256) {\n        return ERC20(swanTokenAddress).balanceOf(address(this));\n    }\n\n    function setPrice(uint256 price) external onlyOwner {\n        require(price > 0, \"Price Cannot be ZERO\");\n        currentPrice = price;\n    }\n\n    /**\n     * @param _amount - the amount user wants to stake\n     * @dev allows the user to stake the initial $2000 worth of SWAN tokens\n     *      Lists the user as a valid Staker.(by adding True in the isStaker mapping)\n     *      User can earn comparatively more interest on Future stakes by calling this function\n     **/\n    function stake(uint256 _amount) external whenNotPaused returns (bool) {\n        require(\n            !isStaker[msg.sender],\n            \"Previous Staked Amount is not Withdrawn yet\"\n        );\n        require(\n            _amount >= currentPrice.mul(2000),\n            \"Staking Amount is Less Than $2000\"\n        );\n\n        stakeAccountDetails[msg.sender] = StakeAccount({\n            stakedAmount: _amount,\n            time: now,\n            interestRate: 14,\n            unstaked: false\n        });\n        isStaker[msg.sender] = true;\n        userTotalStakes[msg.sender] = userTotalStakes[msg.sender].add(_amount);\n\n        require(\n            ERC20(swanTokenAddress).transferFrom(\n                msg.sender,\n                address(this),\n                _amount\n            ),\n            \"Token Transfer Failed\"\n        );\n\n        emit staked(msg.sender, _amount, 4, 14);\n        return true;\n    }\n\n    /**\n     *  @notice Assigns the interestRates to users investments based on their time Duration and Stake Criteria\n     *  @param  amount-  The amount user wishes to Stake\n     *  @param  duration-   The lockUp duration\n     *  @return true or false based on the function execution\n     */\n\n    function earnInterest(uint256 amount, uint256 duration)\n        external\n        whenNotPaused\n        returns (bool)\n    {\n        require(amount > 0, \"Amount can not be equal to ZERO\");\n        require(duration > 0, \"Duration can not be Zero\");\n\n        uint256 oneMonthNum = interestAccountNumber[msg.sender].add(1);\n        if (isStaker[msg.sender]) {\n            if (duration == 3) {\n                interestAccountDetails[msg.sender][\n                    oneMonthNum\n                ] = InterestAccount({\n                    amount: amount,\n                    time: now,\n                    interestRate: 20,\n                    interestPayouts: 0,\n                    timeperiod: duration,\n                    proposalId: oneMonthNum,\n                    withdrawn: false\n                });\n                emit ThreeMonthStaked(\n                    oneMonthNum,\n                    msg.sender,\n                    amount,\n                    duration,\n                    20\n                );\n            } else if (duration == 1) {\n                interestAccountDetails[msg.sender][\n                    oneMonthNum\n                ] = InterestAccount({\n                    amount: amount,\n                    time: now,\n                    interestRate: 16,\n                    interestPayouts: 0,\n                    timeperiod: duration,\n                    proposalId: oneMonthNum,\n                    withdrawn: false\n                });\n                emit OneMonthStaked(\n                    oneMonthNum,\n                    msg.sender,\n                    amount,\n                    duration,\n                    16\n                );\n            }\n        } else {\n            if (duration == 3) {\n                interestAccountDetails[msg.sender][\n                    oneMonthNum\n                ] = InterestAccount({\n                    amount: amount,\n                    time: now,\n                    interestRate: 16,\n                    interestPayouts: 0,\n                    timeperiod: duration,\n                    proposalId: oneMonthNum,\n                    withdrawn: false\n                });\n                emit ThreeMonthStaked(\n                    oneMonthNum,\n                    msg.sender,\n                    amount,\n                    duration,\n                    16\n                );\n            } else if (duration == 1) {\n                interestAccountDetails[msg.sender][\n                    oneMonthNum\n                ] = InterestAccount({\n                    amount: amount,\n                    time: now,\n                    interestRate: 12,\n                    interestPayouts: 0,\n                    timeperiod: duration,\n                    proposalId: oneMonthNum,\n                    withdrawn: false\n                });\n                emit OneMonthStaked(\n                    oneMonthNum,\n                    msg.sender,\n                    amount,\n                    duration,\n                    12\n                );\n            }\n        }\n        userTotalStakes[msg.sender] = userTotalStakes[msg.sender].add(amount);\n        interestAccountNumber[msg.sender] = interestAccountNumber[msg.sender]\n            .add(1);\n\n        require(\n            ERC20(swanTokenAddress).transferFrom(\n                msg.sender,\n                address(this),\n                amount\n            ),\n            \"transfer From failed\"\n        );\n        return true;\n    }\n\n    /**\n     *  @param id - the interestAccount id\n     *  @dev  allows users to claim their invested tokens for 1 or 3 months from same function\n     *        calculates the remaining interest to be transferred to the user\n     *        transfers the invested amount as well as the remaining interest to the user.\n     *        updates the user's staked balance to ZERO\n     */\n    function claimInterestTokens(uint256 id) external whenNotPaused {\n        InterestAccount memory interestData =\n            interestAccountDetails[msg.sender][id];\n        require(\n            now >= interestData.time.add(interestData.timeperiod.mul(2629746)),\n            \"Deadline is not over\"\n        ); // 2,629,746 seconds = 1 month\n        require(interestData.amount > 0, \"Invested Amount is ZERO\");\n\n        uint256 interestAmount =\n            interestData.amount.mul(interestData.interestRate).div(100);\n        uint256 remainingInterest =\n            interestAmount.sub(totalPoolRewards[msg.sender][id]);\n        uint256 tokensToSend = interestData.amount.add(remainingInterest);\n\n        userTotalStakes[msg.sender] = userTotalStakes[msg.sender].sub(interestData.amount);\n        interestData.withdrawn = true;\n        interestData.amount = 0;\n        interestAccountDetails[msg.sender][id] = interestData;\n        require(\n            ERC20(swanTokenAddress).transfer(msg.sender, tokensToSend),\n            \"Token Transfer Failed\"\n        );\n        emit ClaimedInterestTokens(msg.sender, tokensToSend);\n    }\n\n    /**\n     *  @dev  allows users to claim their staked tokens for 4 months\n     *        calculates the total interest to be transferred to the user after 4 months\n     *        transfers the staked amount as well as the remaining interest to the user.\n     *        marks the user as NON STAKER.\n     *\n     */\n    function claimStakeTokens() external whenNotPaused {\n        require(isStaker[msg.sender], \"User is not a Staker\");\n\n        StakeAccount memory stakeData = stakeAccountDetails[msg.sender];\n        require(\n            now >= stakeData.time.add(10518984),\n            \"LockUp Period NOT OVER Yet\"\n        ); // 10,518,984 seconds = 4 months\n        uint256 interestAmount = stakeData.stakedAmount.mul(14).div(100);\n        uint256 tokensToSend = stakeData.stakedAmount.add(interestAmount);\n        userTotalStakes[msg.sender] = userTotalStakes[msg.sender].sub(stakeData.stakedAmount);\n        isStaker[msg.sender] = false;\n        stakeData.unstaked = true;\n        stakeAccountDetails[msg.sender] = stakeData;\n        require(\n            ERC20(swanTokenAddress).transfer(msg.sender, tokensToSend),\n            \"Token Transfer Failed\"\n        );\n        emit ClaimedStakedTokens(msg.sender, tokensToSend);\n    }\n\n    /**\n     *  @param id - the interestAccount id\n     *  @dev  allows users to claim their weekly interests\n     *        updates the totalRewards earned by the user on a particular investment\n     *        Total interest is divided into the number of weeks during the lockUpPeriod\n     *        The remaining weekly interests(if any) will be withdrawn at the time of claiming the particular interestAccount.\n     *\n     */\n    function payOuts(uint256 id) external returns (bool) {\n        InterestAccount memory interestData =\n            interestAccountDetails[msg.sender][id];\n        require(\n            now <= interestData.time.add(interestData.timeperiod.mul(2629746)),\n            \"Reward Timeline is Over\"\n        ); // 2,629,746 seconds = 1 month\n        require(!interestData.withdrawn, \"Amount Has already Been Withdrawn\");\n\n        uint256 preSaleCycle = getCycle(msg.sender, id);\n        require(preSaleCycle > 0, \"Cycle is not complete\");\n\n        uint256 interestAmount =\n            interestData.amount.mul(interestData.interestRate).div(100);\n        uint256 onePercentOfInitialFund =\n            interestAmount.div(interestData.timeperiod.mul(4));\n\n        if (\n            interestData.interestPayouts <=\n            onePercentOfInitialFund.mul(preSaleCycle)\n        ) {\n            uint256 tokenToSend =\n                onePercentOfInitialFund.mul(preSaleCycle).sub(\n                    interestData.interestPayouts\n                );\n            require(\n                tokenToSend.add(totalPoolRewards[msg.sender][id]) <=\n                    interestAmount,\n                \"Total Interest has already been given out\"\n            );\n            interestData.interestPayouts = onePercentOfInitialFund.mul(\n                preSaleCycle\n            );\n\n            totalPoolRewards[msg.sender][id] = totalPoolRewards[msg.sender][id].add(tokenToSend);\n            require(\n                ERC20(swanTokenAddress).transfer(msg.sender, tokenToSend),\n                \"Token Transfer Failed\"\n            );\n            emit TokenRewardTransferred(msg.sender, tokenToSend);\n            return true;\n        }\n    }\n\n    /**\n     *  @notice returns the cycle for weekly payouts\n     *  @param userAddress,id - takes caller's address and interstAccount\n     *  @dev  calculates the number of week cycles passed\n     */\n    function getCycle(address userAddress, uint256 id)\n        internal\n        returns (uint256)\n    {\n        InterestAccount memory interestData =\n            interestAccountDetails[userAddress][id];\n        require(interestData.amount > 0, \"Amount Withdrawn Already\");\n        uint256 cycle;\n        if (checkCycle[userAddress][id]) {\n            cycle = now.sub(lastPayoutCall[userAddress][id]);\n        } else {\n            cycle = now.sub(interestData.time);\n            checkCycle[userAddress][id] = true;\n        }\n        if (cycle <= 21600) //21600 6 hours for testing\n        {\n            return 0;\n        } else if (cycle > 21600) //21600 6 hours\n        {\n            require(\n                now.sub(lastPayoutCall[userAddress][id]) >= 21600,\n                \"Cannot Call Before 6 hours\"\n            );\n            uint256 secondsToHours = cycle.div(21600); //21600 6 hours\n            lastPayoutCall[userAddress][id] = now;\n            return secondsToHours;\n        }\n    }\n\n    function getUserStakedAmount(address userAddress)\n        external\n        view\n        returns (uint256)\n    {\n        return userTotalStakes[userAddress];\n    }\n}\n",
  "sourcePath": "/home/zaryab/blockchain_begins/all_about_ethereum/quillHash_CODES/NewSwan/swan_smart_contracts/contracts/SwanStake.sol",
  "compiler": {
    "name": "solc",
    "version": "0.5.16+commit.9c3226ce.Emscripten.clang"
  },
  "schemaVersion": "3.2.2",
  "updatedAt": "2020-12-17T10:37:29.800Z",
  "networkType": "ethereum",
  "devdoc": {
    "methods": {
      "claimInterestTokens(uint256)": {
        "details": "allows users to claim their invested tokens for 1 or 3 months from same function       calculates the remaining interest to be transferred to the user       transfers the invested amount as well as the remaining interest to the user.       updates the user's staked balance to ZERO",
        "params": {
          "id": "- the interestAccount id"
        }
      },
      "claimStakeTokens()": {
        "details": "allows users to claim their staked tokens for 4 months       calculates the total interest to be transferred to the user after 4 months       transfers the staked amount as well as the remaining interest to the user.       marks the user as NON STAKER.     "
      },
      "earnInterest(uint256,uint256)": {
        "params": {
          "amount": "-  The amount user wishes to Stake",
          "duration": "-   The lockUp duration"
        },
        "return": "true or false based on the function execution"
      },
      "isOwner()": {
        "details": "Returns true if the caller is the current owner."
      },
      "owner()": {
        "details": "Returns the address of the current owner."
      },
      "pause()": {
        "details": "Called by a pauser to pause, triggers stopped state."
      },
      "paused()": {
        "details": "Returns true if the contract is paused, and false otherwise."
      },
      "payOuts(uint256)": {
        "details": "allows users to claim their weekly interests       updates the totalRewards earned by the user on a particular investment       Total interest is divided into the number of weeks during the lockUpPeriod       The remaining weekly interests(if any) will be withdrawn at the time of claiming the particular interestAccount.     ",
        "params": {
          "id": "- the interestAccount id"
        }
      },
      "renounceOwnership()": {
        "details": "Leaves the contract without owner. It will not be possible to call `onlyOwner` functions anymore. Can only be called by the current owner.     * NOTE: Renouncing ownership will leave the contract without an owner, thereby removing any functionality that is only available to the owner."
      },
      "stake(uint256)": {
        "details": "allows the user to stake the initial $2000 worth of SWAN tokens     Lists the user as a valid Staker.(by adding True in the isStaker mapping)     User can earn comparatively more interest on Future stakes by calling this function*",
        "params": {
          "_amount": "- the amount user wants to stake"
        }
      },
      "transferOwnership(address)": {
        "details": "Transfers ownership of the contract to a new account (`newOwner`). Can only be called by the current owner."
      },
      "unpause()": {
        "details": "Called by a pauser to unpause, returns to normal state."
      }
    },
    "title": "Swan Staking Contract"
  },
  "userdoc": {
    "methods": {
      "earnInterest(uint256,uint256)": {
        "notice": "Assigns the interestRates to users investments based on their time Duration and Stake Criteria"
      }
    }
  }
}