{
  "contractName": "SwanStake",
  "abi": [
    {
      "inputs": [
        {
          "internalType": "address",
          "name": "swanToken",
          "type": "address"
        }
      ],
      "payable": false,
      "stateMutability": "nonpayable",
      "type": "constructor"
    },
    {
      "anonymous": false,
      "inputs": [
        {
          "indexed": true,
          "internalType": "address",
          "name": "from",
          "type": "address"
        },
        {
          "indexed": true,
          "internalType": "address",
          "name": "_to",
          "type": "address"
        }
      ],
      "name": "OwnershipTransferred",
      "type": "event"
    },
    {
      "anonymous": false,
      "inputs": [],
      "name": "Pause",
      "type": "event"
    },
    {
      "anonymous": false,
      "inputs": [],
      "name": "Unpause",
      "type": "event"
    },
    {
      "anonymous": false,
      "inputs": [
        {
          "indexed": true,
          "internalType": "address",
          "name": "_user",
          "type": "address"
        },
        {
          "indexed": false,
          "internalType": "uint256",
          "name": "_amount",
          "type": "uint256"
        }
      ],
      "name": "claimedInterestTokens",
      "type": "event"
    },
    {
      "anonymous": false,
      "inputs": [
        {
          "indexed": true,
          "internalType": "address",
          "name": "_user",
          "type": "address"
        },
        {
          "indexed": false,
          "internalType": "uint256",
          "name": "_amount",
          "type": "uint256"
        }
      ],
      "name": "claimedStakedTokens",
      "type": "event"
    },
    {
      "anonymous": false,
      "inputs": [
        {
          "indexed": true,
          "internalType": "address",
          "name": "_user",
          "type": "address"
        },
        {
          "indexed": false,
          "internalType": "uint256",
          "name": "_amount",
          "type": "uint256"
        },
        {
          "indexed": false,
          "internalType": "uint256",
          "name": "_lockupPeriod",
          "type": "uint256"
        },
        {
          "indexed": false,
          "internalType": "uint256",
          "name": "_interest",
          "type": "uint256"
        }
      ],
      "name": "oneMonthStaked",
      "type": "event"
    },
    {
      "anonymous": false,
      "inputs": [
        {
          "indexed": true,
          "internalType": "address",
          "name": "_user",
          "type": "address"
        },
        {
          "indexed": false,
          "internalType": "uint256",
          "name": "_amount",
          "type": "uint256"
        },
        {
          "indexed": false,
          "internalType": "uint256",
          "name": "_lockupPeriod",
          "type": "uint256"
        },
        {
          "indexed": false,
          "internalType": "uint256",
          "name": "_interest",
          "type": "uint256"
        }
      ],
      "name": "staked",
      "type": "event"
    },
    {
      "anonymous": false,
      "inputs": [
        {
          "indexed": true,
          "internalType": "address",
          "name": "_user",
          "type": "address"
        },
        {
          "indexed": false,
          "internalType": "uint256",
          "name": "_amount",
          "type": "uint256"
        },
        {
          "indexed": false,
          "internalType": "uint256",
          "name": "_lockupPeriod",
          "type": "uint256"
        },
        {
          "indexed": false,
          "internalType": "uint256",
          "name": "_interest",
          "type": "uint256"
        }
      ],
      "name": "threeMonthStaked",
      "type": "event"
    },
    {
      "anonymous": false,
      "inputs": [
        {
          "indexed": true,
          "internalType": "address",
          "name": "_user",
          "type": "address"
        },
        {
          "indexed": false,
          "internalType": "uint256",
          "name": "_amount",
          "type": "uint256"
        }
      ],
      "name": "tokenRewardTransferred",
      "type": "event"
    },
    {
      "constant": true,
      "inputs": [
        {
          "internalType": "address",
          "name": "",
          "type": "address"
        },
        {
          "internalType": "uint256",
          "name": "",
          "type": "uint256"
        }
      ],
      "name": "InterestAccountDetails",
      "outputs": [
        {
          "internalType": "uint256",
          "name": "amount",
          "type": "uint256"
        },
        {
          "internalType": "uint256",
          "name": "time",
          "type": "uint256"
        },
        {
          "internalType": "uint256",
          "name": "interestRate",
          "type": "uint256"
        },
        {
          "internalType": "uint256",
          "name": "interestPayouts",
          "type": "uint256"
        },
        {
          "internalType": "uint256",
          "name": "timeperiod",
          "type": "uint256"
        },
        {
          "internalType": "bool",
          "name": "withdrawn",
          "type": "bool"
        }
      ],
      "payable": false,
      "stateMutability": "view",
      "type": "function"
    },
    {
      "constant": true,
      "inputs": [
        {
          "internalType": "address",
          "name": "",
          "type": "address"
        }
      ],
      "name": "InterestAccountNumber",
      "outputs": [
        {
          "internalType": "uint256",
          "name": "",
          "type": "uint256"
        }
      ],
      "payable": false,
      "stateMutability": "view",
      "type": "function"
    },
    {
      "constant": false,
      "inputs": [],
      "name": "acceptOwnership",
      "outputs": [],
      "payable": false,
      "stateMutability": "nonpayable",
      "type": "function"
    },
    {
      "constant": true,
      "inputs": [
        {
          "internalType": "address",
          "name": "",
          "type": "address"
        },
        {
          "internalType": "uint256",
          "name": "",
          "type": "uint256"
        }
      ],
      "name": "checkCycle",
      "outputs": [
        {
          "internalType": "bool",
          "name": "",
          "type": "bool"
        }
      ],
      "payable": false,
      "stateMutability": "view",
      "type": "function"
    },
    {
      "constant": true,
      "inputs": [
        {
          "internalType": "address",
          "name": "",
          "type": "address"
        }
      ],
      "name": "isStaker",
      "outputs": [
        {
          "internalType": "bool",
          "name": "",
          "type": "bool"
        }
      ],
      "payable": false,
      "stateMutability": "view",
      "type": "function"
    },
    {
      "constant": true,
      "inputs": [
        {
          "internalType": "address",
          "name": "",
          "type": "address"
        },
        {
          "internalType": "uint256",
          "name": "",
          "type": "uint256"
        }
      ],
      "name": "lastPayoutCall",
      "outputs": [
        {
          "internalType": "uint256",
          "name": "",
          "type": "uint256"
        }
      ],
      "payable": false,
      "stateMutability": "view",
      "type": "function"
    },
    {
      "constant": true,
      "inputs": [],
      "name": "newOwner",
      "outputs": [
        {
          "internalType": "address",
          "name": "",
          "type": "address"
        }
      ],
      "payable": false,
      "stateMutability": "view",
      "type": "function"
    },
    {
      "constant": true,
      "inputs": [],
      "name": "owner",
      "outputs": [
        {
          "internalType": "address",
          "name": "",
          "type": "address"
        }
      ],
      "payable": false,
      "stateMutability": "view",
      "type": "function"
    },
    {
      "constant": false,
      "inputs": [],
      "name": "pause",
      "outputs": [],
      "payable": false,
      "stateMutability": "nonpayable",
      "type": "function"
    },
    {
      "constant": true,
      "inputs": [],
      "name": "paused",
      "outputs": [
        {
          "internalType": "bool",
          "name": "",
          "type": "bool"
        }
      ],
      "payable": false,
      "stateMutability": "view",
      "type": "function"
    },
    {
      "constant": true,
      "inputs": [
        {
          "internalType": "address",
          "name": "",
          "type": "address"
        }
      ],
      "name": "stakeAccountDetails",
      "outputs": [
        {
          "internalType": "uint256",
          "name": "stakedAmount",
          "type": "uint256"
        },
        {
          "internalType": "uint256",
          "name": "time",
          "type": "uint256"
        },
        {
          "internalType": "uint256",
          "name": "interestRate",
          "type": "uint256"
        },
        {
          "internalType": "bool",
          "name": "unstaked",
          "type": "bool"
        }
      ],
      "payable": false,
      "stateMutability": "view",
      "type": "function"
    },
    {
      "constant": true,
      "inputs": [],
      "name": "swanTokenAddress",
      "outputs": [
        {
          "internalType": "address",
          "name": "",
          "type": "address"
        }
      ],
      "payable": false,
      "stateMutability": "view",
      "type": "function"
    },
    {
      "constant": true,
      "inputs": [
        {
          "internalType": "address",
          "name": "",
          "type": "address"
        },
        {
          "internalType": "uint256",
          "name": "",
          "type": "uint256"
        }
      ],
      "name": "totalPoolRewards",
      "outputs": [
        {
          "internalType": "uint256",
          "name": "",
          "type": "uint256"
        }
      ],
      "payable": false,
      "stateMutability": "view",
      "type": "function"
    },
    {
      "constant": false,
      "inputs": [
        {
          "internalType": "address",
          "name": "_newOwner",
          "type": "address"
        }
      ],
      "name": "transferOwnership",
      "outputs": [],
      "payable": false,
      "stateMutability": "nonpayable",
      "type": "function"
    },
    {
      "constant": false,
      "inputs": [],
      "name": "unpause",
      "outputs": [],
      "payable": false,
      "stateMutability": "nonpayable",
      "type": "function"
    },
    {
      "constant": true,
      "inputs": [
        {
          "internalType": "address",
          "name": "",
          "type": "address"
        }
      ],
      "name": "userTotalStakes",
      "outputs": [
        {
          "internalType": "uint256",
          "name": "",
          "type": "uint256"
        }
      ],
      "payable": false,
      "stateMutability": "view",
      "type": "function"
    },
    {
      "constant": true,
      "inputs": [],
      "name": "totalStakedTokens",
      "outputs": [
        {
          "internalType": "uint256",
          "name": "",
          "type": "uint256"
        }
      ],
      "payable": false,
      "stateMutability": "view",
      "type": "function"
    },
    {
      "constant": false,
      "inputs": [
        {
          "internalType": "uint256",
          "name": "_amount",
          "type": "uint256"
        }
      ],
      "name": "stake",
      "outputs": [
        {
          "internalType": "bool",
          "name": "",
          "type": "bool"
        }
      ],
      "payable": false,
      "stateMutability": "nonpayable",
      "type": "function"
    },
    {
      "constant": false,
      "inputs": [
        {
          "internalType": "uint256",
          "name": "amount",
          "type": "uint256"
        }
      ],
      "name": "stakeTokensOneMonth",
      "outputs": [
        {
          "internalType": "bool",
          "name": "",
          "type": "bool"
        }
      ],
      "payable": false,
      "stateMutability": "nonpayable",
      "type": "function"
    },
    {
      "constant": false,
      "inputs": [
        {
          "internalType": "uint256",
          "name": "amount",
          "type": "uint256"
        }
      ],
      "name": "stakeTokensThreeMonth",
      "outputs": [
        {
          "internalType": "bool",
          "name": "",
          "type": "bool"
        }
      ],
      "payable": false,
      "stateMutability": "nonpayable",
      "type": "function"
    },
    {
      "constant": false,
      "inputs": [
        {
          "internalType": "uint256",
          "name": "id",
          "type": "uint256"
        }
      ],
      "name": "claimInterestTokens",
      "outputs": [],
      "payable": false,
      "stateMutability": "nonpayable",
      "type": "function"
    },
    {
      "constant": false,
      "inputs": [],
      "name": "claimStakeTokens",
      "outputs": [],
      "payable": false,
      "stateMutability": "nonpayable",
      "type": "function"
    },
    {
      "constant": false,
      "inputs": [
        {
          "internalType": "uint256",
          "name": "id",
          "type": "uint256"
        }
      ],
      "name": "payOuts",
      "outputs": [
        {
          "internalType": "bool",
          "name": "",
          "type": "bool"
        }
      ],
      "payable": false,
      "stateMutability": "nonpayable",
      "type": "function"
    }
  ],
  "bytecode": "0x60806040526001805460ff60a01b1916905534801561001d57600080fd5b506040516124033803806124038339818101604052602081101561004057600080fd5b5051600080546001600160a01b03199081163317909155600280546001600160a01b03909316929091169190911790556123848061007f6000396000f3fe608060405234801561001057600080fd5b506004361061014d5760003560e01c80638456cb59116100c3578063c0ea542d1161007c578063c0ea542d14610345578063d4e2085114610362578063d4ee1d90146103c3578063ed43e41c146103cb578063f2fde38b146103e8578063f35dba441461040e5761014d565b80638456cb59146102a95780638da5cb5b146102b1578063a694fc3a146102b9578063a94351b0146102d6578063aed5470514610302578063b8d380631461031f5761014d565b80634620b243116101155780634620b243146101d5578063497e3fa1146101f95780635c975abb14610225578063646bdd1c1461022d5780636f1e85331461027b57806379ba5097146102a15761014d565b806304ffb580146101525780630c5467be1461015c578063214e5171146101945780633ae73259146101c55780633f4ba83a146101cd575b600080fd5b61015a61043a565b005b6101826004803603602081101561017257600080fd5b50356001600160a01b03166106d7565b60408051918252519081900360200190f35b6101b1600480360360208110156101aa57600080fd5b50356106e9565b604080519115158252519081900360200190f35b610182610baf565b61015a610c2b565b6101dd610c90565b604080516001600160a01b039092168252519081900360200190f35b6101b16004803603604081101561020f57600080fd5b506001600160a01b038135169060200135610c9f565b6101b1610cbf565b6102536004803603602081101561024357600080fd5b50356001600160a01b0316610ccf565b6040805194855260208501939093528383019190915215156060830152519081900360800190f35b6101b16004803603602081101561029157600080fd5b50356001600160a01b0316610cf9565b61015a610d0e565b61015a610d89565b6101dd610df5565b6101b1600480360360208110156102cf57600080fd5b5035610e04565b610182600480360360408110156102ec57600080fd5b506001600160a01b0381351690602001356111ce565b61015a6004803603602081101561031857600080fd5b50356111eb565b6101826004803603602081101561033557600080fd5b50356001600160a01b031661149f565b6101b16004803603602081101561035b57600080fd5b50356114b1565b61038e6004803603604081101561037857600080fd5b506001600160a01b038135169060200135611962565b6040805196875260208701959095528585019390935260608501919091526080840152151560a0830152519081900360c00190f35b6101dd6119a5565b6101b1600480360360208110156103e157600080fd5b50356119b4565b61015a600480360360208110156103fe57600080fd5b50356001600160a01b0316611d30565b6101826004803603604081101561042457600080fd5b506001600160a01b038135169060200135611db0565b600154600160a01b900460ff161561045157600080fd5b3360009081526003602052604090205460ff166104ac576040805162461bcd60e51b81526020600482015260146024820152732ab9b2b91034b9903737ba10309029ba30b5b2b960611b604482015290519081900360640190fd5b6104b46121bd565b503360009081526006602090815260409182902082516080810184528154815260018201549281018390526002820154938101939093526003015460ff161515606083015261050c906201518063ffffffff611dcd16565b421015610560576040805162461bcd60e51b815260206004820152601a60248201527f4c6f636b557020506572696f64204e4f54204f56455220596574000000000000604482015290519081900360640190fd5b80516000906105899060649061057d90600e63ffffffff611e3016565b9063ffffffff611e8916565b82519091506000906105a1908363ffffffff611dcd16565b6002546040805163a9059cbb60e01b81523360048201526024810184905290519293506001600160a01b039091169163a9059cbb916044808201926020929091908290030181600087803b1580156105f857600080fd5b505af115801561060c573d6000803e3d6000fd5b505050506040513d602081101561062257600080fd5b505161062d57600080fd5b82513360008181526004602090815260408083208054959095039094556003808252848320805460ff19908116909155600160608a0181815286865260068552948790208a518155848b015191810191909155868a015160028201559351939091018054909116921515929092179091558251848152925191927f86de8ed233a9377f6c85302d132834c4a0738e932f839a7c931e8c73ca015f17929081900390910190a2505050565b60046020526000908152604090205481565b600154600090600160a01b900460ff161561070357600080fd5b60008211610758576040805162461bcd60e51b815260206004820152601f60248201527f416d6f756e742063616e206e6f7420626520657175616c20746f205a45524f00604482015290519081900360640190fd5b600254604080516370a0823160e01b8152336004820152905184926001600160a01b0316916370a08231916024808301926020929190829003018186803b1580156107a257600080fd5b505afa1580156107b6573d6000803e3d6000fd5b505050506040513d60208110156107cc57600080fd5b5051101561080b5760405162461bcd60e51b81526004018080602001828103825260248152602001806122206024913960400191505060405180910390fd5b60025460408051636eb1769f60e11b815233600482015230602482015290516000926001600160a01b03169163dd62ed3e916044808301926020929190829003018186803b15801561085c57600080fd5b505afa158015610870573d6000803e3d6000fd5b505050506040513d602081101561088657600080fd5b50519050828110156108d4576040805162461bcd60e51b8152602060048201526012602482015271616c6c6f77616e63652069732077726f6e6760701b604482015290519081900360640190fd5b600254604080516323b872dd60e01b81523360048201523060248201526044810186905290516001600160a01b03909216916323b872dd916064808201926020929091908290030181600087803b15801561092e57600080fd5b505af1158015610942573d6000803e3d6000fd5b505050506040513d602081101561095857600080fd5b50516109a2576040805162461bcd60e51b81526020600482015260146024820152731d1c985b9cd9995c88119c9bdb4819985a5b195960621b604482015290519081900360640190fd5b336000908152600560205260408120546109c390600163ffffffff611dcd16565b3360009081526003602052604090205490915060ff1615610aa1576040805160c08101825285815242602080830191825260148385018181526000606080870182815260036080890181815260a08a0185815233808752600a8a528c87208e88528a52958c90209a518b55985160018b0155945160028a01559051888201559251600488015594516005909601805460ff19169615159690961790955585518a81529283015281850152925191927ffd74499421b6b040fa83488547c5c5f7d6c1ca7d51216445aaf22160f757f010929081900390910190a2610b62565b6040805160c08101825285815242602080830191825260108385019081526000606080860182815260036080880181815260a0890185815233808752600a89528b87208d88528952958b902099518a55975160018a0155945160028901559051878201559251600487015593516005909501805460ff191695151595909517909455845189815291820152600681850152925191927ffd74499421b6b040fa83488547c5c5f7d6c1ca7d51216445aaf22160f757f010929081900390910190a25b3360009081526004602090815260408083208054880190556005909152902054610b9390600163ffffffff611dcd16565b336000908152600560205260409020555060019150505b919050565b600254604080516370a0823160e01b815230600482015290516000926001600160a01b0316916370a08231916024808301926020929190829003018186803b158015610bfa57600080fd5b505afa158015610c0e573d6000803e3d6000fd5b505050506040513d6020811015610c2457600080fd5b5051905090565b6000546001600160a01b03163314610c4257600080fd5b600154600160a01b900460ff16610c5857600080fd5b6001805460ff60a01b191690556040517f7805862f689e2f13df9f062ff482ad3ad112aca9e0847911ed832e158c525b3390600090a1565b6002546001600160a01b031681565b600960209081526000928352604080842090915290825290205460ff1681565b600154600160a01b900460ff1681565b60066020526000908152604090208054600182015460028301546003909301549192909160ff1684565b60036020526000908152604090205460ff1681565b6001546001600160a01b03163314610d2557600080fd5b600154600080546040516001600160a01b0393841693909116917f8be0079c531659141344cd1fd0a4f28419497f9722a3daafe3b4186f6b6457e091a360018054600080546001600160a01b03199081166001600160a01b03841617909155169055565b6000546001600160a01b03163314610da057600080fd5b600154600160a01b900460ff1615610db757600080fd5b6001805460ff60a01b1916600160a01b1790556040517f6985a02210a168e66602d3235cb6db0e70f92b3ba4d376a33c0f3d9434bff62590600090a1565b6000546001600160a01b031681565b600154600090600160a01b900460ff1615610e1e57600080fd5b3360009081526003602052604090205460ff1615610e6d5760405162461bcd60e51b815260040180806020018281038252602b815260200180612244602b913960400191505060405180910390fd5b686c6b935b8bbd400000821015610eb55760405162461bcd60e51b815260040180806020018281038252602181526020018061232f6021913960400191505060405180910390fd5b600254604080516370a0823160e01b8152336004820152905184926001600160a01b0316916370a08231916024808301926020929190829003018186803b158015610eff57600080fd5b505afa158015610f13573d6000803e3d6000fd5b505050506040513d6020811015610f2957600080fd5b50511015610f7e576040805162461bcd60e51b815260206004820181905260248201527f5573657220646f65736e2774206861766520456e6f7567682042616c616e6365604482015290519081900360640190fd5b60025460408051636eb1769f60e11b815233600482015230602482015290516000926001600160a01b03169163dd62ed3e916044808301926020929190829003018186803b158015610fcf57600080fd5b505afa158015610fe3573d6000803e3d6000fd5b505050506040513d6020811015610ff957600080fd5b505190508281101561103c5760405162461bcd60e51b815260040180806020018281038252602781526020018061226f6027913960400191505060405180910390fd5b600254604080516323b872dd60e01b81523360048201523060248201526044810186905290516001600160a01b03909216916323b872dd916064808201926020929091908290030181600087803b15801561109657600080fd5b505af11580156110aa573d6000803e3d6000fd5b505050506040513d60208110156110c057600080fd5b505161110b576040805162461bcd60e51b8152602060048201526015602482015274151bdad95b88151c985b9cd9995c8811985a5b1959605a1b604482015290519081900360640190fd5b60408051608081018252848152426020808301918252600e83850181815260006060808701828152338084526006875289842098518955965160018981019190915593516002890155516003978801805491151560ff19928316179055968552878220805490971690921790955560048084529486902080548a01905585518981529283019490945281850152925190927ffee41ab8d413b04bf85ae4b4d4a2652bae467f4763d02c3568697de3c58f251d92908290030190a250600192915050565b600760209081526000928352604080842090915290825290205481565b600154600160a01b900460ff161561120257600080fd5b61120a6121e7565b50336000908152600a60209081526040808320848452825291829020825160c081018452815480825260018301549382019390935260028201549381019390935260038101546060840152600481015460808401526005015460ff16151560a083015261127657600080fd5b60808101516112a3906112929062278d0063ffffffff611e3016565b60208301519063ffffffff611dcd16565b4210156112ee576040805162461bcd60e51b81526020600482015260146024820152732232b0b23634b7329034b9903737ba1037bb32b960611b604482015290519081900360640190fd5b6000611310606461057d84604001518560000151611e3090919063ffffffff16565b3360009081526008602090815260408083208784529091528120549192509061134090839063ffffffff611ef316565b8351909150600090611358908363ffffffff611dcd16565b6002546040805163a9059cbb60e01b81523360048201526024810184905290519293506001600160a01b039091169163a9059cbb916044808201926020929091908290030181600087803b1580156113af57600080fd5b505af11580156113c3573d6000803e3d6000fd5b505050506040513d60208110156113d957600080fd5b50516113e457600080fd5b8351336000818152600460208181526040808420805496909603909555600160a08a01818152848b52858552600a83528685208c86528352938690208a518155828b015191810191909155858a0151600282015560608a0151600382015560808a01519281019290925591516005909101805460ff19169115159190911790558251848152925191927faf5dccd0fc57979e8c43a23632a0e312bfbd53cedb15dbaba527c6816bee4b3a929081900390910190a25050505050565b60056020526000908152604090205481565b600154600090600160a01b900460ff16156114cb57600080fd5b60008211611520576040805162461bcd60e51b815260206004820152601f60248201527f416d6f756e742063616e206e6f7420626520657175616c20746f205a45524f00604482015290519081900360640190fd5b600254604080516370a0823160e01b8152336004820152905184926001600160a01b0316916370a08231916024808301926020929190829003018186803b15801561156a57600080fd5b505afa15801561157e573d6000803e3d6000fd5b505050506040513d602081101561159457600080fd5b505110156115d35760405162461bcd60e51b81526004018080602001828103825260248152602001806122206024913960400191505060405180910390fd5b60025460408051636eb1769f60e11b815233600482015230602482015290516000926001600160a01b03169163dd62ed3e916044808301926020929190829003018186803b15801561162457600080fd5b505afa158015611638573d6000803e3d6000fd5b505050506040513d602081101561164e57600080fd5b505190508281101561169c576040805162461bcd60e51b8152602060048201526012602482015271616c6c6f77616e63652069732077726f6e6760701b604482015290519081900360640190fd5b600254604080516323b872dd60e01b81523360048201523060248201526044810186905290516001600160a01b03909216916323b872dd916064808201926020929091908290030181600087803b1580156116f657600080fd5b505af115801561170a573d6000803e3d6000fd5b505050506040513d602081101561172057600080fd5b505161176a576040805162461bcd60e51b81526020600482015260146024820152731d1c985b9cd9995c88119c9bdb4819985a5b195960621b604482015290519081900360640190fd5b3360009081526005602052604081205461178b90600163ffffffff611dcd16565b3360009081526003602052604090205490915060ff1615611869576040805160c08101825285815242602080830191825260108385018181526000606080870182815260016080890181815260a08a0185815233808752600a8a528c87208e88528a52958c90209a518b5598518a830155945160028a0155905160038901559251600488015594516005909601805460ff19169615159690961790955585518a81529283015281850152925191927f5c91b21e5c7284b562620f3448c94fa20f79b5f7ee634c5d0f319a864fb03eaa929081900390910190a2610b62565b6040805160c081018252858152426020808301918252600c8385018181526000606080870182815260016080890181815260a08a0185815233808752600a8a528c87208e88528a52958c90209a518b5598518a830155945160028a0155905160038901559251600488015594516005909601805460ff19169615159690961790955585518a8152928301819052828601919091529351949093019391927f5c91b21e5c7284b562620f3448c94fa20f79b5f7ee634c5d0f319a864fb03eaa929081900390910190a23360009081526004602090815260408083208054880190556005909152902054610b9390600163ffffffff611dcd16565b600a602090815260009283526040808420909152908252902080546001820154600283015460038401546004850154600590950154939492939192909160ff1686565b6001546001600160a01b031681565b60006119be6121e7565b50336000908152600a60209081526040808320858452825291829020825160c08101845281548152600182015492810192909252600281015492820192909252600382015460608201526004820154608082015260059091015460ff1615801560a0830152611a5e5760405162461bcd60e51b815260040180806020018281038252602181526020018061230e6021913960400191505060405180910390fd5b6080810151611a7a906112929062278d0063ffffffff611e3016565b421115611ace576040805162461bcd60e51b815260206004820152601760248201527f5265776172642054696d656c696e65206973204f766572000000000000000000604482015290519081900360640190fd5b6000611ada3385611f50565b905060008111611b29576040805162461bcd60e51b81526020600482015260156024820152744379636c65206973206e6f7420636f6d706c65746560581b604482015290519081900360640190fd5b6000611b4b606461057d85604001518660000151611e3090919063ffffffff16565b90506000611b77611b6a60048660800151611e3090919063ffffffff16565b839063ffffffff611e8916565b9050611b89818463ffffffff611e3016565b846060015111611d27576060840151600090611bbb90611baf848763ffffffff611e3016565b9063ffffffff611ef316565b3360009081526008602090815260408083208b84529091529020549091508390611bec90839063ffffffff611dcd16565b1115611c295760405162461bcd60e51b81526004018080602001828103825260298152602001806122e56029913960400191505060405180910390fd5b611c39828563ffffffff611e3016565b60608601526002546040805163a9059cbb60e01b81523360048201526024810184905290516001600160a01b039092169163a9059cbb916044808201926020929091908290030181600087803b158015611c9257600080fd5b505af1158015611ca6573d6000803e3d6000fd5b505050506040513d6020811015611cbc57600080fd5b5051611cc757600080fd5b3360008181526008602090815260408083208b8452825291829020805485019055815184815291517fc9a31c34d0f82bc3305a6af2488882d5fec570647483c277af8909c8c444d10e9281900390910190a2600195505050505050610baa565b50505050919050565b6000546001600160a01b03163314611d4757600080fd5b6001546001600160a01b0316611d8e5760405162461bcd60e51b815260040180806020018281038252602e8152602001806122b7602e913960400191505060405180910390fd5b600180546001600160a01b0319166001600160a01b0392909216919091179055565b600860209081526000928352604080842090915290825290205481565b600082820183811015611e27576040805162461bcd60e51b815260206004820152601b60248201527f536166654d6174683a206164646974696f6e206f766572666c6f770000000000604482015290519081900360640190fd5b90505b92915050565b600082611e3f57506000611e2a565b82820282848281611e4c57fe5b0414611e275760405162461bcd60e51b81526004018080602001828103825260218152602001806122966021913960400191505060405180910390fd5b6000808211611edf576040805162461bcd60e51b815260206004820152601a60248201527f536166654d6174683a206469766973696f6e206279207a65726f000000000000604482015290519081900360640190fd5b6000828481611eea57fe5b04949350505050565b600082821115611f4a576040805162461bcd60e51b815260206004820152601e60248201527f536166654d6174683a207375627472616374696f6e206f766572666c6f770000604482015290519081900360640190fd5b50900390565b6000611f5a6121e7565b506001600160a01b0383166000908152600a60209081526040808320858452825291829020825160c081018452815480825260018301549382019390935260028201549381019390935260038101546060840152600481015460808401526005015460ff16151560a0830152612017576040805162461bcd60e51b815260206004820152601860248201527f416d6f756e742057697468647261776e20416c72656164790000000000000000604482015290519081900360640190fd5b6001600160a01b038416600090815260096020908152604080832086845290915281205460ff161561207f576001600160a01b038516600090815260076020908152604080832087845290915290205461207890429063ffffffff611ef316565b90506120c6565b602082015161209590429063ffffffff611ef316565b6001600160a01b03861660009081526009602090815260408083208884529091529020805460ff1916600117905590505b61546081116120da57600092505050611e2a565b6154608111156121b5576001600160a01b03851660009081526007602090815260408083208784529091529020546154609061211d90429063ffffffff611ef316565b1015612170576040805162461bcd60e51b815260206004820152601d60248201527f43616e6e6f742043616c6c204265666f7265203630207365636f6e6473000000604482015290519081900360640190fd5b60006121848261546063ffffffff611e8916565b6001600160a01b038716600090815260076020908152604080832089845290915290204290559350611e2a92505050565b505092915050565b60405180608001604052806000815260200160008152602001600081526020016000151581525090565b6040518060c001604052806000815260200160008152602001600081526020016000815260200160008152602001600015158152509056fe62616c616e6365206f6620612075736572206973206c657373207468656e2076616c756550726576696f7573205374616b656420416d6f756e74206973206e6f742057697468647261776e207965745573657220686173206e6f7420617070726f7665642074686520636f6e7472616374207965742e536166654d6174683a206d756c7469706c69636174696f6e206f766572666c6f77496e76616c696420416464726573733a204e6577206f776e657220697320746865207a65726f2061646472657373546f74616c20496e7465726573742068617320616c7265616479206265656e20676976656e206f7574416d6f756e742048617320616c7265616479204265656e2057697468647261776e5374616b696e6720416d6f756e74206973204c657373205468616e202432303030a265627a7a723158208bb0f0a1ffdf3545acf1c60069c1cba7968b9a6c432eb611ef60f0dd8a49398364736f6c63430005100032",
  "source": "pragma solidity 0.5.16;\n\ninterface ERC20 {\n\n    function transferFrom (address,address, uint256) external returns (bool);\n    function balanceOf(address) external view returns (uint256);\n    function allowance(address, address) external view returns (uint256);\n    function transfer (address, uint256) external returns (bool);\n\n}\n\ncontract Owned {\n\n    address public owner;\n    address public newOwner;\n\n    event OwnershipTransferred(address indexed from, address indexed _to);\n\n    constructor(address _owner) public {\n        owner = _owner;\n    }\n\n    modifier onlyOwner {\n        require(msg.sender == owner);\n        _;\n    }\n\n    function transferOwnership(address _newOwner) external onlyOwner {\n        require(newOwner != address(0), \"Invalid Address: New owner is the zero address\");\n        newOwner = _newOwner;\n    }\n    function acceptOwnership() external {\n        require(msg.sender == newOwner);\n        emit OwnershipTransferred(owner, newOwner);\n        owner = newOwner;\n        newOwner = address(0);\n    }\n}\n\ncontract Pausable is Owned {\n    event Pause();\n    event Unpause();\n\n    bool public paused = false;\n\n    modifier whenNotPaused() {\n      require(!paused);\n      _;\n    }\n\n    modifier whenPaused() {\n      require(paused);\n      _;\n    }\n\n    function pause() onlyOwner whenNotPaused external {\n      paused = true;\n      emit Pause();\n    }\n\n    function unpause() onlyOwner whenPaused external {\n      paused = false;\n      emit Unpause();\n    }\n}\n\n\n/**\n * @dev Wrappers over Solidity's arithmetic operations with added overflow\n * checks.\n *\n * Arithmetic operations in Solidity wrap on overflow. This can easily result\n * in bugs, because programmers usually assume that an overflow raises an\n * error, which is the standard behavior in high level programming languages.\n * `SafeMath` restores this intuition by reverting the transaction when an\n * operation overflows.\n *\n * Using this library instead of the unchecked operations eliminates an entire\n * class of bugs, so it's recommended to use it always.\n */\nlibrary SafeMath {\n    /**\n     * @dev Returns the addition of two unsigned integers, reverting on\n     * overflow.\n     *\n     * Counterpart to Solidity's `+` operator.\n     *\n     * Requirements:\n     * - Addition cannot overflow.\n     */\n    function add(uint256 a, uint256 b) internal pure returns (uint256) {\n        uint256 c = a + b;\n        require(c >= a, \"SafeMath: addition overflow\");\n\n        return c;\n    }\n\n    /**\n     * @dev Returns the subtraction of two unsigned integers, reverting on\n     * overflow (when the result is negative).\n     *\n     * Counterpart to Solidity's `-` operator.\n     *\n     * Requirements:\n     * - Subtraction cannot overflow.\n     */\n    function sub(uint256 a, uint256 b) internal pure returns (uint256) {\n        require(b <= a, \"SafeMath: subtraction overflow\");\n        uint256 c = a - b;\n\n        return c;\n    }\n\n    /**\n     * @dev Returns the multiplication of two unsigned integers, reverting on\n     * overflow.\n     *\n     * Counterpart to Solidity's `*` operator.\n     *\n     * Requirements:\n     * - Multiplication cannot overflow.\n     */\n    function mul(uint256 a, uint256 b) internal pure returns (uint256) {\n        // Gas optimization: this is cheaper than requiring 'a' not being zero, but the\n        // benefit is lost if 'b' is also tested.\n        // See: https://github.com/OpenZeppelin/openzeppelin-solidity/pull/522\n        if (a == 0) {\n            return 0;\n        }\n\n        uint256 c = a * b;\n        require(c / a == b, \"SafeMath: multiplication overflow\");\n\n        return c;\n    }\n\n    /**\n     * @dev Returns the integer division of two unsigned integers. Reverts on\n     * division by zero. The result is rounded towards zero.\n     *\n     * Counterpart to Solidity's `/` operator. Note: this function uses a\n     * `revert` opcode (which leaves remaining gas untouched) while Solidity\n     * uses an invalid opcode to revert (consuming all remaining gas).\n     *\n     * Requirements:\n     * - The divisor cannot be zero.\n     */\n    function div(uint256 a, uint256 b) internal pure returns (uint256) {\n        // Solidity only automatically asserts when dividing by 0\n        require(b > 0, \"SafeMath: division by zero\");\n        uint256 c = a / b;\n        // assert(a == b * c + a % b); // There is no case in which this doesn't hold\n\n        return c;\n    }\n\n}\n\n///@title Swan Staking Contract\ncontract SwanStake is Pausable{\n\n    using SafeMath for uint256;\n\n    address public swanTokenAddress;\n\n    /**\n     * @dev address of a token contrac swan \n     */\n    constructor(address swanToken) public Owned(msg.sender) {\n\n    swanTokenAddress = swanToken;\n  }\n\n  // Includes all the necessary details about the User's initial $2000 stake.\n    struct StakeAccount{\n      uint256 stakedAmount;\n      uint256 time;\n      uint256 interestRate;\n      bool unstaked;\n    }\n// Includes details about further major or minor stakes by a user in order to earn interest\n    struct InterestAccount \n    {\n\n    uint256 amount;\n    uint256 time;\n    uint256 interestRate;\n    uint256 interestPayouts;\n    uint256 timeperiod;\n    bool withdrawn;\n    }\n\n  // isStaker is TRUE for those addresses which have staked $2000 worth tokens.\n  mapping(address => bool) public isStaker;\n  mapping(address => uint256) public userTotalStakes;\n  mapping (address => uint256) public InterestAccountNumber;\n  mapping(address => StakeAccount) public stakeAccountDetails;\n  mapping(address=>mapping(uint256 => uint256)) public lastPayoutCall;\n  mapping(address => mapping(uint256 => uint256)) public totalPoolRewards;\n  mapping(address => mapping(uint256 => bool)) public checkCycle;\n  mapping(address => mapping (uint256 => InterestAccount)) public InterestAccountDetails;\n\n\n  //  @dev emitted whenever user stakes tokens in the Stake Account\n  event staked(address indexed _user,uint256 _amount,uint256 _lockupPeriod,uint256 _interest);\n  // @dev emitted whenever user stakes tokens in the Stake Account\n  event claimedStakedTokens(address indexed _user,uint256 _amount);\n  \n   // @dev emitted whenever user stakes tokens for One month LockUp period\n  event oneMonthStaked(address indexed _user,uint256 _amount,uint256 _lockupPeriod, uint256 _interest);\n   // @dev emitted whenever user stakes tokens for Three month LockUp period\n    \n  event threeMonthStaked(address indexed _user,uint256 _amount,uint256 _lockupPeriod, uint256 _interest);\n   // @dev emitted whenever user's staked tokens are successfully unstaked and trasnferred back to the user\n  event claimedInterestTokens(address indexed _user,uint256 _amount);\n  \n    // @dev emitted whenever weekly token rewards are transferred to the user.\n   \n  event tokenRewardTransferred(address indexed _user,uint256 _amount);\n    // @dev returns the total amount of SWAN tokens staked in this contract\n \n\n  // @dev returns the current tokenBalance of the Stake Contract\n  function totalStakedTokens() external view returns(uint256){\n      return ERC20(swanTokenAddress).balanceOf(address(this));\n  }\n   \n   /**\n      * @param _amount - the amount user wants to stake\n      * @dev allows the user to stake the initial $2000 worth of SWAN tokens\n      *      Lists the user as a valid Staker.(by adding True in the isStaker mapping) \n      *      User can earn comparatively more interest on Future stakes by calling this function\n  **/\n\n  \n  function stake(uint256 _amount) external whenNotPaused returns(bool){\n    require(!isStaker[msg.sender],\"Previous Staked Amount is not Withdrawn yet\");  \n    require (_amount >= 2000 ether,\"Staking Amount is Less Than $2000\");\n    \n    require (ERC20(swanTokenAddress).balanceOf(msg.sender) >= _amount, \"User doesn't have Enough Balance\");\n    uint256 checkAllowance = ERC20(swanTokenAddress).allowance(msg.sender, address(this)); \n    require (checkAllowance >= _amount,\"User has not approved the contract yet.\");\n    require(ERC20(swanTokenAddress).transferFrom(msg.sender,address(this),_amount),\"Token Transfer Failed\");\n  \n      stakeAccountDetails[msg.sender] = StakeAccount(\n    {\n      stakedAmount:_amount,\n      time:now,\n      interestRate:14,\n      unstaked:false\n    });\n      isStaker[msg.sender] = true;\n      userTotalStakes[msg.sender] += _amount;\n      emit staked(msg.sender,_amount,4,14);\n      return true;\n  }    \n   /**\n     *  @param amount - the amount user wants to invest\n     *  @dev  User can earn interest by staking for 1 month\n     *        User will get higher APY if he is a Staker\n     */\n  function stakeTokensOneMonth (uint256 amount)  external whenNotPaused returns (bool) {   \n       require (amount>0,\"Amount can not be equal to ZERO\");\n   \n       require(ERC20(swanTokenAddress).balanceOf(msg.sender) >= amount,'balance of a user is less then value');\n       uint256 checkAllowance = ERC20(swanTokenAddress).allowance(msg.sender, address(this)); \n       require (checkAllowance >= amount, 'allowance is wrong');\n       require(ERC20(swanTokenAddress).transferFrom(msg.sender,address(this),amount),'transfer From failed');\n       \n       uint256 oneMonthNum = InterestAccountNumber[msg.sender].add(1);\n      if (isStaker[msg.sender]){\n       InterestAccountDetails[msg.sender][oneMonthNum] = InterestAccount(\n         {\n              amount: amount,\n              time: now,\n              interestRate : 16,\n              interestPayouts : 0,\n              timeperiod : 1,\n              withdrawn : false\n\n         });       \n        emit oneMonthStaked(msg.sender,amount,1,16);\n      }else {\n         InterestAccountDetails[msg.sender][oneMonthNum ++] = InterestAccount(\n           {\n                amount: amount,\n                time: now,\n                interestRate : 12,\n                interestPayouts : 0,\n                timeperiod : 1,\n                withdrawn : false\n           });  \n           emit oneMonthStaked(msg.sender,amount,1,12);     \n          }\n      userTotalStakes[msg.sender] += amount;\n      InterestAccountNumber[msg.sender] = InterestAccountNumber[msg.sender].add(1);\n      return true;\n  }  \n   /**\n     *  @param amount - the amount user wants to invest\n     *  @dev  User can earn interest by staking for 3 month\n     *        User will get higher APY if he is a Staker\n     */\n  function stakeTokensThreeMonth (uint256 amount)  external whenNotPaused returns (bool) {\n     require (amount>0,\"Amount can not be equal to ZERO\");\n\n     require(ERC20(swanTokenAddress).balanceOf(msg.sender) >= amount,'balance of a user is less then value');\n     uint256 checkAllowance = ERC20(swanTokenAddress).allowance(msg.sender, address(this)); \n     require (checkAllowance >= amount, 'allowance is wrong');\n     require(ERC20(swanTokenAddress).transferFrom(msg.sender,address(this),amount),'transfer From failed');\n    \n    uint256 threeMonthNum = InterestAccountNumber[msg.sender].add(1);\n    if (isStaker[msg.sender]){\n       InterestAccountDetails[msg.sender][threeMonthNum] = InterestAccount(\n         {\n              amount: amount,\n              time: now,\n              interestRate : 20,\n              interestPayouts : 0,\n              timeperiod : 3,\n              withdrawn : false\n         });       \n\n        emit threeMonthStaked(msg.sender,amount,3,20);\n      }else {\n         InterestAccountDetails[msg.sender][threeMonthNum] = InterestAccount(\n           {\n              amount: amount,\n              time: now,\n              interestRate : 16,\n              interestPayouts : 0,\n              timeperiod : 3,\n              withdrawn : false\n           });  \n           emit threeMonthStaked(msg.sender,amount,3,6);     \n          }\n      userTotalStakes[msg.sender] += amount;\n      InterestAccountNumber[msg.sender] = InterestAccountNumber[msg.sender].add(1); \n      return true;\n  }  \n\n    /**\n     *  @param id - the interestAccount id \n     *  @dev  allows users to claim their invested tokens for 1 or 3 months from same function\n     *        calculates the remaining interest to be transferred to the user\n     *        transfers the invested amount as well as the remaining interest to the user.\n     *         updates the user's staked balance to ZERO\n     * \n     */\n    function claimInterestTokens(uint256 id) external whenNotPaused{\n        InterestAccount memory interestData =  InterestAccountDetails[msg.sender][id];\n        require (interestData.amount > 0 );\n        require (now >= interestData.time.add(interestData.timeperiod.mul(30 days)),\"Deadline is not over\"); // will be chnanged to \"months\" time unit for production\n      \n        uint256 interestAmount = interestData.amount.mul(interestData.interestRate).div(100);\n        uint256 remainingInterest = interestAmount.sub(totalPoolRewards[msg.sender][id]);\n        uint256 tokensToSend = interestData.amount.add(remainingInterest);\n        \n        require(ERC20(swanTokenAddress).transfer(msg.sender, tokensToSend));\n        userTotalStakes[msg.sender] -= interestData.amount;\n        interestData.withdrawn = true;\n        interestData.amount = 0;\n        InterestAccountDetails[msg.sender][id] = interestData;\n        emit claimedInterestTokens(msg.sender,tokensToSend);\n    } \n    \n   /**\n     *  @dev  allows users to claim their staked tokens for 4 months\n     *        calculates the total interest to be transferred to the user after 4 months\n     *        transfers the staked amount as well as the remaining interest to the user.\n     *        marks the user as NON STAKER.\n     * \n     */\n  function claimStakeTokens() external whenNotPaused{\n      require(isStaker[msg.sender],\"User is not a Staker\");\n\n      StakeAccount memory stakeData = stakeAccountDetails[msg.sender];\n      require (now >= stakeData.time.add(86400),\"LockUp Period NOT OVER Yet\"); // 10368000 will be changed to 4 months for production use \n      uint256 interestAmount = stakeData.stakedAmount.mul(14).div(100);\n      uint256 tokensToSend = stakeData.stakedAmount.add(interestAmount);\n      require(ERC20(swanTokenAddress).transfer(msg.sender, tokensToSend));\n      \n      userTotalStakes[msg.sender] -= stakeData.stakedAmount;\n      isStaker[msg.sender] = false;\n      stakeData.unstaked = true;\n      stakeAccountDetails[msg.sender] = stakeData;\n      emit claimedStakedTokens(msg.sender,tokensToSend);\n    } \n  /**\n     *  @param id - the interestAccount id \n     *  @dev  allows users to claim their weekly interests\n     *        updates the totalRewards earned by the user on a particular investment\n     *        Total interest is divided into the number of weeks during the lockUpPeriod\n     *        The remaining weekly interests(if any) will be withdrawn at the time of claiming the particular interestAccount.\n     * \n     */\n     function payOuts (uint256 id) external returns(bool) {\n        \n        InterestAccount memory interestData =  InterestAccountDetails[msg.sender][id];\n        require(!interestData.withdrawn,\"Amount Has already Been Withdrawn\");\n        require (now <= interestData.time.add(interestData.timeperiod.mul(30 days)),\"Reward Timeline is Over\");//change it to one month for production use \n\n        uint256 preSaleCycle = getCycle(msg.sender, id);\n        require (preSaleCycle > 0,\"Cycle is not complete\");\n\n        uint256 interestAmount = interestData.amount.mul(interestData.interestRate).div(100);\n        uint256 onePercentOfInitialFund = interestAmount.div(interestData.timeperiod.mul(4));\n        \n        if(interestData.interestPayouts <= onePercentOfInitialFund.mul(preSaleCycle)) {   \n        uint256 tokenToSend = onePercentOfInitialFund.mul(preSaleCycle).sub(interestData.interestPayouts);\n        require(tokenToSend.add(totalPoolRewards[msg.sender][id]) <= interestAmount,\"Total Interest has already been given out\");\n        interestData.interestPayouts = onePercentOfInitialFund.mul(preSaleCycle);\n        require(ERC20(swanTokenAddress).transfer(msg.sender, tokenToSend));\n        totalPoolRewards[msg.sender][id] += tokenToSend;\n        emit tokenRewardTransferred(msg.sender,tokenToSend);\n        return true;\n\n        }\n    }\n   /**\n     *  @param userAddress,id - takes caller's address and interstAccount \n     *  @dev  gets cycle for weekly payouts \n     */\n\n    function getCycle(address userAddress, uint256 id) internal returns (uint256){\n     \n    InterestAccount memory interestData =  InterestAccountDetails[userAddress][id];\n    require (interestData.amount > 0,\"Amount Withdrawn Already\");\n    uint256 cycle;\n    if(checkCycle[userAddress][id]){\n        cycle = now.sub(lastPayoutCall[userAddress][id]);\n    }else{\n        cycle = now.sub(interestData.time);\n        checkCycle[userAddress][id] = true;\n    }\n     if(cycle <= 21600)//21600 6 hours for testing \n     {\n         return 0;\n     }\n     else if (cycle > 21600)//21600 6 hours \n     {     \n      require(now.sub(lastPayoutCall[userAddress][id]) >= 21600,\"Cannot Call Before 60 seconds\");\n      uint256 secondsToHours = cycle.div(21600);//21600 6 hours\n      lastPayoutCall[userAddress][id] = now;\n      return secondsToHours;\n     }\n     }\n}",
  "sourcePath": "/home/zaryab/blockchain_begins/all_about_ethereum/quillHash_CODES/swan_smart_contracts/contracts/SwanStake.sol",
  "compiler": {
    "name": "solc",
    "version": "0.5.16+commit.9c3226ce.Emscripten.clang"
  },
  "schemaVersion": "3.2.2",
  "updatedAt": "2020-11-25T05:20:13.155Z",
  "networkType": "ethereum",
  "devdoc": {
    "methods": {
      "claimInterestTokens(uint256)": {
        "details": "allows users to claim their invested tokens for 1 or 3 months from same function       calculates the remaining interest to be transferred to the user       transfers the invested amount as well as the remaining interest to the user.        updates the user's staked balance to ZERO      ",
        "params": {
          "id": "- the interestAccount id "
        }
      },
      "claimStakeTokens()": {
        "details": "allows users to claim their staked tokens for 4 months       calculates the total interest to be transferred to the user after 4 months       transfers the staked amount as well as the remaining interest to the user.       marks the user as NON STAKER.      "
      },
      "constructor": {
        "details": "address of a token contrac swan "
      },
      "payOuts(uint256)": {
        "details": "allows users to claim their weekly interests       updates the totalRewards earned by the user on a particular investment       Total interest is divided into the number of weeks during the lockUpPeriod       The remaining weekly interests(if any) will be withdrawn at the time of claiming the particular interestAccount.      ",
        "params": {
          "id": "- the interestAccount id "
        }
      },
      "stake(uint256)": {
        "details": "allows the user to stake the initial $2000 worth of SWAN tokens     Lists the user as a valid Staker.(by adding True in the isStaker mapping)      User can earn comparatively more interest on Future stakes by calling this function*",
        "params": {
          "_amount": "- the amount user wants to stake"
        }
      },
      "stakeTokensOneMonth(uint256)": {
        "details": "User can earn interest by staking for 1 month       User will get higher APY if he is a Staker",
        "params": {
          "amount": "- the amount user wants to invest"
        }
      },
      "stakeTokensThreeMonth(uint256)": {
        "details": "User can earn interest by staking for 3 month       User will get higher APY if he is a Staker",
        "params": {
          "amount": "- the amount user wants to invest"
        }
      }
    },
    "title": "Swan Staking Contract"
  },
  "userdoc": {
    "methods": {}
  }
}