{
  "contractName": "SwanStake",
  "abi": [
    {
      "inputs": [
        {
          "internalType": "address",
          "name": "swanToken",
          "type": "address"
        }
      ],
      "payable": false,
      "stateMutability": "nonpayable",
      "type": "constructor"
    },
    {
      "anonymous": false,
      "inputs": [
        {
          "indexed": true,
          "internalType": "address",
          "name": "from",
          "type": "address"
        },
        {
          "indexed": true,
          "internalType": "address",
          "name": "_to",
          "type": "address"
        }
      ],
      "name": "OwnershipTransferred",
      "type": "event"
    },
    {
      "anonymous": false,
      "inputs": [],
      "name": "Pause",
      "type": "event"
    },
    {
      "anonymous": false,
      "inputs": [],
      "name": "Unpause",
      "type": "event"
    },
    {
      "anonymous": false,
      "inputs": [
        {
          "indexed": true,
          "internalType": "address",
          "name": "_user",
          "type": "address"
        },
        {
          "indexed": false,
          "internalType": "uint256",
          "name": "_amount",
          "type": "uint256"
        }
      ],
      "name": "claimedInterestTokens",
      "type": "event"
    },
    {
      "anonymous": false,
      "inputs": [
        {
          "indexed": true,
          "internalType": "address",
          "name": "_user",
          "type": "address"
        },
        {
          "indexed": false,
          "internalType": "uint256",
          "name": "_amount",
          "type": "uint256"
        }
      ],
      "name": "claimedStakedTokens",
      "type": "event"
    },
    {
      "anonymous": false,
      "inputs": [
        {
          "indexed": true,
          "internalType": "address",
          "name": "_user",
          "type": "address"
        },
        {
          "indexed": false,
          "internalType": "uint256",
          "name": "_amount",
          "type": "uint256"
        },
        {
          "indexed": false,
          "internalType": "uint256",
          "name": "_lockupPeriod",
          "type": "uint256"
        },
        {
          "indexed": false,
          "internalType": "uint256",
          "name": "_interest",
          "type": "uint256"
        }
      ],
      "name": "oneMonthStaked",
      "type": "event"
    },
    {
      "anonymous": false,
      "inputs": [
        {
          "indexed": true,
          "internalType": "address",
          "name": "_user",
          "type": "address"
        },
        {
          "indexed": false,
          "internalType": "uint256",
          "name": "_amount",
          "type": "uint256"
        },
        {
          "indexed": false,
          "internalType": "uint256",
          "name": "_lockupPeriod",
          "type": "uint256"
        },
        {
          "indexed": false,
          "internalType": "uint256",
          "name": "_interest",
          "type": "uint256"
        }
      ],
      "name": "staked",
      "type": "event"
    },
    {
      "anonymous": false,
      "inputs": [
        {
          "indexed": true,
          "internalType": "address",
          "name": "_user",
          "type": "address"
        },
        {
          "indexed": false,
          "internalType": "uint256",
          "name": "_amount",
          "type": "uint256"
        },
        {
          "indexed": false,
          "internalType": "uint256",
          "name": "_lockupPeriod",
          "type": "uint256"
        },
        {
          "indexed": false,
          "internalType": "uint256",
          "name": "_interest",
          "type": "uint256"
        }
      ],
      "name": "threeMonthStaked",
      "type": "event"
    },
    {
      "anonymous": false,
      "inputs": [
        {
          "indexed": true,
          "internalType": "address",
          "name": "_user",
          "type": "address"
        },
        {
          "indexed": false,
          "internalType": "uint256",
          "name": "_amount",
          "type": "uint256"
        }
      ],
      "name": "tokenRewardTransferred",
      "type": "event"
    },
    {
      "constant": false,
      "inputs": [],
      "name": "acceptOwnership",
      "outputs": [],
      "payable": false,
      "stateMutability": "nonpayable",
      "type": "function"
    },
    {
      "constant": true,
      "inputs": [
        {
          "internalType": "address",
          "name": "",
          "type": "address"
        },
        {
          "internalType": "uint256",
          "name": "",
          "type": "uint256"
        }
      ],
      "name": "interestAccountDetails",
      "outputs": [
        {
          "internalType": "uint256",
          "name": "amount",
          "type": "uint256"
        },
        {
          "internalType": "uint256",
          "name": "time",
          "type": "uint256"
        },
        {
          "internalType": "uint256",
          "name": "interestRate",
          "type": "uint256"
        },
        {
          "internalType": "uint256",
          "name": "interestPayouts",
          "type": "uint256"
        },
        {
          "internalType": "uint256",
          "name": "timeperiod",
          "type": "uint256"
        },
        {
          "internalType": "bool",
          "name": "withdrawn",
          "type": "bool"
        }
      ],
      "payable": false,
      "stateMutability": "view",
      "type": "function"
    },
    {
      "constant": true,
      "inputs": [
        {
          "internalType": "address",
          "name": "",
          "type": "address"
        }
      ],
      "name": "interestAccountNumber",
      "outputs": [
        {
          "internalType": "uint256",
          "name": "",
          "type": "uint256"
        }
      ],
      "payable": false,
      "stateMutability": "view",
      "type": "function"
    },
    {
      "constant": true,
      "inputs": [
        {
          "internalType": "address",
          "name": "",
          "type": "address"
        }
      ],
      "name": "isStaker",
      "outputs": [
        {
          "internalType": "bool",
          "name": "",
          "type": "bool"
        }
      ],
      "payable": false,
      "stateMutability": "view",
      "type": "function"
    },
    {
      "constant": true,
      "inputs": [],
      "name": "newOwner",
      "outputs": [
        {
          "internalType": "address",
          "name": "",
          "type": "address"
        }
      ],
      "payable": false,
      "stateMutability": "view",
      "type": "function"
    },
    {
      "constant": true,
      "inputs": [],
      "name": "owner",
      "outputs": [
        {
          "internalType": "address",
          "name": "",
          "type": "address"
        }
      ],
      "payable": false,
      "stateMutability": "view",
      "type": "function"
    },
    {
      "constant": false,
      "inputs": [],
      "name": "pause",
      "outputs": [],
      "payable": false,
      "stateMutability": "nonpayable",
      "type": "function"
    },
    {
      "constant": true,
      "inputs": [],
      "name": "paused",
      "outputs": [
        {
          "internalType": "bool",
          "name": "",
          "type": "bool"
        }
      ],
      "payable": false,
      "stateMutability": "view",
      "type": "function"
    },
    {
      "constant": true,
      "inputs": [
        {
          "internalType": "address",
          "name": "",
          "type": "address"
        }
      ],
      "name": "stakeAccountDetails",
      "outputs": [
        {
          "internalType": "uint256",
          "name": "stakedAmount",
          "type": "uint256"
        },
        {
          "internalType": "uint256",
          "name": "time",
          "type": "uint256"
        },
        {
          "internalType": "uint256",
          "name": "interestRate",
          "type": "uint256"
        },
        {
          "internalType": "bool",
          "name": "unstaked",
          "type": "bool"
        }
      ],
      "payable": false,
      "stateMutability": "view",
      "type": "function"
    },
    {
      "constant": true,
      "inputs": [],
      "name": "swanTokenAddress",
      "outputs": [
        {
          "internalType": "address",
          "name": "",
          "type": "address"
        }
      ],
      "payable": false,
      "stateMutability": "view",
      "type": "function"
    },
    {
      "constant": true,
      "inputs": [
        {
          "internalType": "address",
          "name": "",
          "type": "address"
        }
      ],
      "name": "totalPoolRewards",
      "outputs": [
        {
          "internalType": "uint256",
          "name": "",
          "type": "uint256"
        }
      ],
      "payable": false,
      "stateMutability": "view",
      "type": "function"
    },
    {
      "constant": false,
      "inputs": [
        {
          "internalType": "address",
          "name": "_newOwner",
          "type": "address"
        }
      ],
      "name": "transferOwnership",
      "outputs": [],
      "payable": false,
      "stateMutability": "nonpayable",
      "type": "function"
    },
    {
      "constant": false,
      "inputs": [],
      "name": "unpause",
      "outputs": [],
      "payable": false,
      "stateMutability": "nonpayable",
      "type": "function"
    },
    {
      "constant": true,
      "inputs": [
        {
          "internalType": "address",
          "name": "",
          "type": "address"
        }
      ],
      "name": "userTotalStakes",
      "outputs": [
        {
          "internalType": "uint256",
          "name": "",
          "type": "uint256"
        }
      ],
      "payable": false,
      "stateMutability": "view",
      "type": "function"
    },
    {
      "constant": true,
      "inputs": [],
      "name": "totalStakedTokens",
      "outputs": [
        {
          "internalType": "uint256",
          "name": "",
          "type": "uint256"
        }
      ],
      "payable": false,
      "stateMutability": "view",
      "type": "function"
    },
    {
      "constant": false,
      "inputs": [
        {
          "internalType": "uint256",
          "name": "_amount",
          "type": "uint256"
        }
      ],
      "name": "stake",
      "outputs": [
        {
          "internalType": "bool",
          "name": "",
          "type": "bool"
        }
      ],
      "payable": false,
      "stateMutability": "nonpayable",
      "type": "function"
    },
    {
      "constant": false,
      "inputs": [
        {
          "internalType": "uint256",
          "name": "amount",
          "type": "uint256"
        }
      ],
      "name": "stakeTokensOneMonth",
      "outputs": [
        {
          "internalType": "bool",
          "name": "",
          "type": "bool"
        }
      ],
      "payable": false,
      "stateMutability": "nonpayable",
      "type": "function"
    },
    {
      "constant": false,
      "inputs": [
        {
          "internalType": "uint256",
          "name": "amount",
          "type": "uint256"
        }
      ],
      "name": "stakeTokensThreeMonth",
      "outputs": [
        {
          "internalType": "bool",
          "name": "",
          "type": "bool"
        }
      ],
      "payable": false,
      "stateMutability": "nonpayable",
      "type": "function"
    },
    {
      "constant": false,
      "inputs": [
        {
          "internalType": "uint256",
          "name": "id",
          "type": "uint256"
        }
      ],
      "name": "claimInterestTokens",
      "outputs": [
        {
          "internalType": "bool",
          "name": "",
          "type": "bool"
        }
      ],
      "payable": false,
      "stateMutability": "nonpayable",
      "type": "function"
    },
    {
      "constant": false,
      "inputs": [],
      "name": "claimStakeTokens",
      "outputs": [],
      "payable": false,
      "stateMutability": "nonpayable",
      "type": "function"
    },
    {
      "constant": false,
      "inputs": [
        {
          "internalType": "uint256",
          "name": "id",
          "type": "uint256"
        }
      ],
      "name": "payOuts",
      "outputs": [
        {
          "internalType": "bool",
          "name": "",
          "type": "bool"
        }
      ],
      "payable": false,
      "stateMutability": "nonpayable",
      "type": "function"
    }
  ],
  "bytecode": "0x60806040526001805460ff60a01b1916905534801561001d57600080fd5b50604051611e6b380380611e6b8339818101604052602081101561004057600080fd5b5051600080546001600160a01b03199081163317909155600280546001600160a01b0390931692909116919091179055611dec8061007f6000396000f3fe608060405234801561001057600080fd5b50600436106101375760003560e01c806379ba5097116100b8578063aed547051161007c578063aed54705146102e0578063c0ea542d146102fd578063d4ee1d901461031a578063ed43e41c14610322578063f2fde38b1461033f578063f3c2399b1461036557610137565b806379ba5097146102855780638456cb591461028d5780638da5cb5b146102955780639219b3491461029d578063a694fc3a146102c357610137565b80633f4ba83a116100ff5780633f4ba83a146101dd5780634620b243146101e55780635c975abb14610209578063646bdd1c146102115780636f1e85331461025f57610137565b806304ffb5801461013c5780630c5467be14610146578063214e51711461017e5780632fc0f4fe146101af5780633ae73259146101d5575b600080fd5b6101446103c6565b005b61016c6004803603602081101561015c57600080fd5b50356001600160a01b031661065e565b60408051918252519081900360200190f35b61019b6004803603602081101561019457600080fd5b5035610670565b604080519115158252519081900360200190f35b61016c600480360360208110156101c557600080fd5b50356001600160a01b0316610aa2565b61016c610ab4565b610144610b30565b6101ed610b95565b604080516001600160a01b039092168252519081900360200190f35b61019b610ba4565b6102376004803603602081101561022757600080fd5b50356001600160a01b0316610bb4565b6040805194855260208501939093528383019190915215156060830152519081900360800190f35b61019b6004803603602081101561027557600080fd5b50356001600160a01b0316610bde565b610144610bf3565b610144610c6e565b6101ed610cda565b61016c600480360360208110156102b357600080fd5b50356001600160a01b0316610ce9565b61019b600480360360208110156102d957600080fd5b5035610cfb565b61019b600480360360208110156102f657600080fd5b50356110c2565b61019b6004803603602081101561031357600080fd5b5035611366565b6101ed61178d565b61019b6004803603602081101561033857600080fd5b503561179c565b6101446004803603602081101561035557600080fd5b50356001600160a01b031661199f565b6103916004803603604081101561037b57600080fd5b506001600160a01b0381351690602001356119d8565b6040805196875260208701959095528585019390935260608501919091526080840152151560a0830152519081900360c00190f35b600154600160a01b900460ff16156103dd57600080fd5b3360009081526003602052604090205460ff16610438576040805162461bcd60e51b81526020600482015260146024820152732ab9b2b91034b9903737ba10309029ba30b5b2b960611b604482015290519081900360640190fd5b610440611c7d565b503360009081526007602090815260409182902082516080810184528154815260018201549281018390526002820154938101939093526003015460ff161515606083015261049690600663ffffffff611a1b16565b4210156104de576040805162461bcd60e51b81526020600482015260116024820152702232b0b23634b732902727aa1027ab22a960791b604482015290519081900360640190fd5b8051600090610507906064906104fb90604063ffffffff611a7e16565b9063ffffffff611ad716565b825190915060009061051f908363ffffffff611a1b16565b6002546040805163a9059cbb60e01b81523360048201526024810184905290519293506001600160a01b039091169163a9059cbb916044808201926020929091908290030181600087803b15801561057657600080fd5b505af115801561058a573d6000803e3d6000fd5b505050506040513d60208110156105a057600080fd5b50516105ab57600080fd5b82513360008181526004602090815260408083208054959095039094556003808252848320805460ff19908116909155600160608a01818152868652600785528786208b518155858c015192810192909255878b01516002830155519201805490911691151591909117905560058152908390208054860190558251848152925191927f86de8ed233a9377f6c85302d132834c4a0738e932f839a7c931e8c73ca015f17929081900390910190a2505050565b60046020526000908152604090205481565b600154600090600160a01b900460ff161561068a57600080fd5b600254604080516370a0823160e01b8152336004820152905184926001600160a01b0316916370a08231916024808301926020929190829003018186803b1580156106d457600080fd5b505afa1580156106e8573d6000803e3d6000fd5b505050506040513d60208110156106fe57600080fd5b5051101561073d5760405162461bcd60e51b8152600401808060200182810382526024815260200180611ce06024913960400191505060405180910390fd5b60025460408051636eb1769f60e11b815233600482015230602482015290516000926001600160a01b03169163dd62ed3e916044808301926020929190829003018186803b15801561078e57600080fd5b505afa1580156107a2573d6000803e3d6000fd5b505050506040513d60208110156107b857600080fd5b5051905082811015610806576040805162461bcd60e51b8152602060048201526012602482015271616c6c6f77616e63652069732077726f6e6760701b604482015290519081900360640190fd5b600254604080516323b872dd60e01b81523360048201523060248201526044810186905290516001600160a01b03909216916323b872dd916064808201926020929091908290030181600087803b15801561086057600080fd5b505af1158015610874573d6000803e3d6000fd5b505050506040513d602081101561088a57600080fd5b50516108d4576040805162461bcd60e51b81526020600482015260146024820152731d1c985b9cd9995c88119c9bdb4819985a5b195960621b604482015290519081900360640190fd5b3360009081526006602090815260408083205460039092529091205460ff16156109b8576040805160c08101825285815242602080830191825260148385018181526000606080870182815260036080890181815260a08a018581523380875260088a528c87208e88528a52958c90209a518b55985160018b810191909155955160028b01559151898201559051600489015595516005909701805497151560ff199098169790971790965586518b81529384019490945282860191909152935194909301939092600080516020611d5683398151915292908290030190a2610a74565b6040805160c08101825285815242602080830191825260108385018181526000606080870182815260036080890181815260a08a018581523380875260088a528c87208e88528a52958c90209a518b55985160018b810191909155955160028b01559151898201559051600489015595516005909701805497151560ff199098169790971790965586518b81529384019490945282860191909152935194909301939092600080516020611d5683398151915292908290030190a25b5050336000908152600460209081526040808320805490950190945560069052919091208054600101905590565b60056020526000908152604090205481565b600254604080516370a0823160e01b815230600482015290516000926001600160a01b0316916370a08231916024808301926020929190829003018186803b158015610aff57600080fd5b505afa158015610b13573d6000803e3d6000fd5b505050506040513d6020811015610b2957600080fd5b5051905090565b6000546001600160a01b03163314610b4757600080fd5b600154600160a01b900460ff16610b5d57600080fd5b6001805460ff60a01b191690556040517f7805862f689e2f13df9f062ff482ad3ad112aca9e0847911ed832e158c525b3390600090a1565b6002546001600160a01b031681565b600154600160a01b900460ff1681565b60076020526000908152604090208054600182015460028301546003909301549192909160ff1684565b60036020526000908152604090205460ff1681565b6001546001600160a01b03163314610c0a57600080fd5b600154600080546040516001600160a01b0393841693909116917f8be0079c531659141344cd1fd0a4f28419497f9722a3daafe3b4186f6b6457e091a360018054600080546001600160a01b03199081166001600160a01b03841617909155169055565b6000546001600160a01b03163314610c8557600080fd5b600154600160a01b900460ff1615610c9c57600080fd5b6001805460ff60a01b1916600160a01b1790556040517f6985a02210a168e66602d3235cb6db0e70f92b3ba4d376a33c0f3d9434bff62590600090a1565b6000546001600160a01b031681565b60066020526000908152604090205481565b600154600090600160a01b900460ff1615610d1557600080fd5b3360009081526003602052604090205460ff1615610d645760405162461bcd60e51b815260040180806020018281038252602b815260200180611d04602b913960400191505060405180910390fd5b686c6b935b8bbd400000821015610dac5760405162461bcd60e51b8152600401808060200182810382526021815260200180611d976021913960400191505060405180910390fd5b600254604080516370a0823160e01b8152336004820152905184926001600160a01b0316916370a08231916024808301926020929190829003018186803b158015610df657600080fd5b505afa158015610e0a573d6000803e3d6000fd5b505050506040513d6020811015610e2057600080fd5b50511015610e75576040805162461bcd60e51b815260206004820181905260248201527f5573657220646f65736e2774206861766520456e6f7567682042616c616e6365604482015290519081900360640190fd5b60025460408051636eb1769f60e11b815233600482015230602482015290516000926001600160a01b03169163dd62ed3e916044808301926020929190829003018186803b158015610ec657600080fd5b505afa158015610eda573d6000803e3d6000fd5b505050506040513d6020811015610ef057600080fd5b5051905082811015610f335760405162461bcd60e51b8152600401808060200182810382526027815260200180611d2f6027913960400191505060405180910390fd5b600254604080516323b872dd60e01b81523360048201523060248201526044810186905290516001600160a01b03909216916323b872dd916064808201926020929091908290030181600087803b158015610f8d57600080fd5b505af1158015610fa1573d6000803e3d6000fd5b505050506040513d6020811015610fb757600080fd5b5051611002576040805162461bcd60e51b8152602060048201526015602482015274151bdad95b88151c985b9cd9995c8811985a5b1959605a1b604482015290519081900360640190fd5b60408051608081018252848152426020808301918252600e83850181815260006060808701828152338084526007875289842098518955965160018981019190915593516002890155516003978801805491151560ff19928316179055968552878220805490971690921790955560048084529486902080548a01905585518981529283019490945281850152925190927ffee41ab8d413b04bf85ae4b4d4a2652bae467f4763d02c3568697de3c58f251d92908290030190a250919050565b600154600090600160a01b900460ff16156110dc57600080fd5b6110e4611ca7565b50336000908152600860209081526040808320858452825291829020825160c081018452815480825260018301549382019390935260028201549381019390935260038101546060840152600481015460808401526005015460ff16151560a083015261115057600080fd5b6080810151602082015161116c91603c0263ffffffff611a1b16565b4210156111b7576040805162461bcd60e51b81526020600482015260146024820152732232b0b23634b7329034b9903737ba1037bb32b960611b604482015290519081900360640190fd5b60006111d482608001518360400151611a7e90919063ffffffff16565b905060006111f460646104fb848660000151611a7e90919063ffffffff16565b835190915060009061120c908363ffffffff611a1b16565b6002546040805163a9059cbb60e01b81523360048201526024810184905290519293506001600160a01b039091169163a9059cbb916044808201926020929091908290030181600087803b15801561126357600080fd5b505af1158015611277573d6000803e3d6000fd5b505050506040513d602081101561128d57600080fd5b505161129857600080fd5b835133600081815260046020908152604080832080549590950390945560058152908390208054860190558251848152925191927faf5dccd0fc57979e8c43a23632a0e312bfbd53cedb15dbaba527c6816bee4b3a929081900390910190a25050600160a08301818152336000908152600860209081526040808320988352978152908790208551815590850151928101929092559483015160028201556060830151600382015560809092015160048301555091516005909201805460ff19169215159290921790915590565b600154600090600160a01b900460ff161561138057600080fd5b600254604080516370a0823160e01b8152336004820152905184926001600160a01b0316916370a08231916024808301926020929190829003018186803b1580156113ca57600080fd5b505afa1580156113de573d6000803e3d6000fd5b505050506040513d60208110156113f457600080fd5b505110156114335760405162461bcd60e51b8152600401808060200182810382526024815260200180611ce06024913960400191505060405180910390fd5b60025460408051636eb1769f60e11b815233600482015230602482015290516000926001600160a01b03169163dd62ed3e916044808301926020929190829003018186803b15801561148457600080fd5b505afa158015611498573d6000803e3d6000fd5b505050506040513d60208110156114ae57600080fd5b50519050828110156114fc576040805162461bcd60e51b8152602060048201526012602482015271616c6c6f77616e63652069732077726f6e6760701b604482015290519081900360640190fd5b600254604080516323b872dd60e01b81523360048201523060248201526044810186905290516001600160a01b03909216916323b872dd916064808201926020929091908290030181600087803b15801561155657600080fd5b505af115801561156a573d6000803e3d6000fd5b505050506040513d602081101561158057600080fd5b50516115ca576040805162461bcd60e51b81526020600482015260146024820152731d1c985b9cd9995c88119c9bdb4819985a5b195960621b604482015290519081900360640190fd5b3360009081526006602090815260408083205460039092529091205460ff16156116a9576040805160c08101825285815242602080830191825260108385018181526000606080870182815260016080890181815260a08a018581523380875260088a528c87208e88528a52958c90209a518b5598518a830155945160028a0155905160038901559251600488015594516005909601805460ff19169615159690961790955585518a815292830181905282860191909152935194909301939192600080516020611d56833981519152929081900390910190a2610a74565b6040805160c081018252858152426020808301918252600c8385018181526000606080870182815260016080890181815260a08a018581523380875260088a528c87208e88528a52958c90209a518b5598518a830155945160028a0155905160038901559251600488015594516005909601805460ff19169615159690961790955585518a815292830181905282860191909152935194909301939192600080516020611d56833981519152929081900390910190a25050336000908152600460209081526040808320805490950190945560069052919091208054600101905590565b6001546001600160a01b031681565b60006117a6611ca7565b50336000908152600860209081526040808320858452825291829020825160c081018452815480825260018301549382019390935260028201549381019390935260038101546060840152600481015460808401526005015460ff16151560a083015261181257600080fd5b602081015161182890606463ffffffff611a1b16565b42101561183457600080fd5b60006118403385611b41565b90506000811161184f57600080fd5b8151600090611867906201518063ffffffff611ad716565b9050611879818363ffffffff611a7e16565b8360600151116119975760608301516000906118ab9061189f848663ffffffff611a7e16565b9063ffffffff611c2016565b90506118bd828463ffffffff611a7e16565b60608501526002546040805163a9059cbb60e01b81523360048201526024810184905290516001600160a01b039092169163a9059cbb916044808201926020929091908290030181600087803b15801561191657600080fd5b505af115801561192a573d6000803e3d6000fd5b505050506040513d602081101561194057600080fd5b505161194b57600080fd5b33600081815260056020908152604091829020805485019055815184815291517fc9a31c34d0f82bc3305a6af2488882d5fec570647483c277af8909c8c444d10e9281900390910190a2505b505050919050565b6000546001600160a01b031633146119b657600080fd5b600180546001600160a01b0319166001600160a01b0392909216919091179055565b6008602090815260009283526040808420909152908252902080546001820154600283015460038401546004850154600590950154939492939192909160ff1686565b600082820183811015611a75576040805162461bcd60e51b815260206004820152601b60248201527f536166654d6174683a206164646974696f6e206f766572666c6f770000000000604482015290519081900360640190fd5b90505b92915050565b600082611a8d57506000611a78565b82820282848281611a9a57fe5b0414611a755760405162461bcd60e51b8152600401808060200182810382526021815260200180611d766021913960400191505060405180910390fd5b6000808211611b2d576040805162461bcd60e51b815260206004820152601a60248201527f536166654d6174683a206469766973696f6e206279207a65726f000000000000604482015290519081900360640190fd5b6000828481611b3857fe5b04949350505050565b6000611b4b611ca7565b506001600160a01b0383166000908152600860209081526040808320858452825291829020825160c081018452815480825260018301549382019390935260028201549381019390935260038101546060840152600481015460808401526005015460ff16151560a0830152611bc057600080fd5b6000611bd9826080015142611c2090919063ffffffff16565b90506154608111611bef57600092505050611a78565b615460811115611c18576000611c0d8261546063ffffffff611ad716565b9350611a7892505050565b505092915050565b600082821115611c77576040805162461bcd60e51b815260206004820152601e60248201527f536166654d6174683a207375627472616374696f6e206f766572666c6f770000604482015290519081900360640190fd5b50900390565b60405180608001604052806000815260200160008152602001600081526020016000151581525090565b6040518060c001604052806000815260200160008152602001600081526020016000815260200160008152602001600015158152509056fe62616c616e6365206f6620612075736572206973206c657373207468656e2076616c756550726576696f7573205374616b656420416d6f756e74206973206e6f742057697468647261776e207965745573657220686173206e6f7420617070726f7665642074686520636f6e7472616374207965742e5c91b21e5c7284b562620f3448c94fa20f79b5f7ee634c5d0f319a864fb03eaa536166654d6174683a206d756c7469706c69636174696f6e206f766572666c6f775374616b696e6720416d6f756e74206973204c657373205468616e202432303030a265627a7a72315820dcc3ad41f668b9e75f673975f8157dd5bc901490a2cfb31f22242bc139f0b99d64736f6c63430005100032",
  "source": "pragma solidity 0.5.16;\n\ncontract ERC20 {\n\n    function transferFrom (address,address, uint256) external returns (bool);\n    function balanceOf(address) external view returns (uint256);\n    function allowance(address, address) external view returns (uint256);\n    function transfer (address, uint256) external returns (bool);\n\n}\n\ncontract Owned {\n\n    address public owner;\n    address public newOwner;\n\n    event OwnershipTransferred(address indexed from, address indexed _to);\n\n    constructor(address _owner) public {\n        owner = _owner;\n    }\n\n    modifier onlyOwner {\n        require(msg.sender == owner);\n        _;\n    }\n\n    function transferOwnership(address _newOwner) external onlyOwner {\n        newOwner = _newOwner;\n    }\n    function acceptOwnership() external {\n        require(msg.sender == newOwner);\n        emit OwnershipTransferred(owner, newOwner);\n        owner = newOwner;\n        newOwner = address(0);\n    }\n}\n\ncontract Pausable is Owned {\n    event Pause();\n    event Unpause();\n\n    bool public paused = false;\n\n    modifier whenNotPaused() {\n      require(!paused);\n      _;\n    }\n\n    modifier whenPaused() {\n      require(paused);\n      _;\n    }\n\n    function pause() onlyOwner whenNotPaused external {\n      paused = true;\n      emit Pause();\n    }\n\n    function unpause() onlyOwner whenPaused external {\n      paused = false;\n      emit Unpause();\n    }\n}\n\n\n/**\n * @dev Wrappers over Solidity's arithmetic operations with added overflow\n * checks.\n *\n * Arithmetic operations in Solidity wrap on overflow. This can easily result\n * in bugs, because programmers usually assume that an overflow raises an\n * error, which is the standard behavior in high level programming languages.\n * `SafeMath` restores this intuition by reverting the transaction when an\n * operation overflows.\n *\n * Using this library instead of the unchecked operations eliminates an entire\n * class of bugs, so it's recommended to use it always.\n */\nlibrary SafeMath {\n    /**\n     * @dev Returns the addition of two unsigned integers, reverting on\n     * overflow.\n     *\n     * Counterpart to Solidity's `+` operator.\n     *\n     * Requirements:\n     * - Addition cannot overflow.\n     */\n    function add(uint256 a, uint256 b) internal pure returns (uint256) {\n        uint256 c = a + b;\n        require(c >= a, \"SafeMath: addition overflow\");\n\n        return c;\n    }\n\n    /**\n     * @dev Returns the subtraction of two unsigned integers, reverting on\n     * overflow (when the result is negative).\n     *\n     * Counterpart to Solidity's `-` operator.\n     *\n     * Requirements:\n     * - Subtraction cannot overflow.\n     */\n    function sub(uint256 a, uint256 b) internal pure returns (uint256) {\n        require(b <= a, \"SafeMath: subtraction overflow\");\n        uint256 c = a - b;\n\n        return c;\n    }\n\n    /**\n     * @dev Returns the multiplication of two unsigned integers, reverting on\n     * overflow.\n     *\n     * Counterpart to Solidity's `*` operator.\n     *\n     * Requirements:\n     * - Multiplication cannot overflow.\n     */\n    function mul(uint256 a, uint256 b) internal pure returns (uint256) {\n        // Gas optimization: this is cheaper than requiring 'a' not being zero, but the\n        // benefit is lost if 'b' is also tested.\n        // See: https://github.com/OpenZeppelin/openzeppelin-solidity/pull/522\n        if (a == 0) {\n            return 0;\n        }\n\n        uint256 c = a * b;\n        require(c / a == b, \"SafeMath: multiplication overflow\");\n\n        return c;\n    }\n\n    /**\n     * @dev Returns the integer division of two unsigned integers. Reverts on\n     * division by zero. The result is rounded towards zero.\n     *\n     * Counterpart to Solidity's `/` operator. Note: this function uses a\n     * `revert` opcode (which leaves remaining gas untouched) while Solidity\n     * uses an invalid opcode to revert (consuming all remaining gas).\n     *\n     * Requirements:\n     * - The divisor cannot be zero.\n     */\n    function div(uint256 a, uint256 b) internal pure returns (uint256) {\n        // Solidity only automatically asserts when dividing by 0\n        require(b > 0, \"SafeMath: division by zero\");\n        uint256 c = a / b;\n        // assert(a == b * c + a % b); // There is no case in which this doesn't hold\n\n        return c;\n    }\n\n}\n\n\ncontract SwanStake is Pausable{\n\n    using SafeMath for uint256;\n\n    address public swanTokenAddress;\n\n    /**\n     * @dev address of a token contrac swan \n     */\n    constructor(address swanToken) public Owned(msg.sender) {\n\n    swanTokenAddress = swanToken;\n  }\n\n  // Includes all the necessary details about the User's initial $2000 stake.\n    struct StakeAccount{\n      uint256 stakedAmount;\n      uint256 time;\n      uint256 interestRate;\n      bool unstaked;\n    }\n// Includes details about further major or minor stakes by a user in order to earn interest\n    struct interestAccount \n    {\n\n    uint256 amount;\n    uint256 time;\n    uint256 interestRate;\n    uint256 interestPayouts;\n    uint256 timeperiod;\n    bool withdrawn;\n    }\n\n  // isStaker is TRUE for those addresses which have staked $2000 worth tokens.\n  mapping(address => bool) public isStaker;\n  mapping(address => uint256) public userTotalStakes;\n  mapping(address => uint256) public totalPoolRewards;\n\n  mapping (address => uint256) public interestAccountNumber;\n  mapping(address => StakeAccount) public stakeAccountDetails;\n  mapping(address => mapping (uint256 => interestAccount)) public interestAccountDetails;\n\n\n  /**\n     * @dev emitted whenever user stakes tokens in the Stake Account\n  */\n   \n  event staked(address indexed _user,uint256 _amount,uint256 _lockupPeriod,uint256 _interest);\n   \n  /**\n     * @dev emitted whenever user stakes tokens in the Stake Account\n  **/\n\n  event claimedStakedTokens(address indexed _user,uint256 _amount);\n  \n    /**\n     * @dev emitted whenever user stakes tokens for One month LockUp period\n     */\n  event oneMonthStaked(address indexed _user,uint256 _amount,uint256 _lockupPeriod, uint256 _interest);\n   /**\n     * @dev emitted whenever user stakes tokens for Three month LockUp period\n    */\n  event threeMonthStaked(address indexed _user,uint256 _amount,uint256 _lockupPeriod, uint256 _interest);\n   /**\n     * @dev emitted whenever user's staked tokens are successfully unstaked and trasnferred back to the user\n    */\n  event claimedInterestTokens(address indexed _user,uint256 _amount);\n   /**\n     * @dev emitted whenever weekly token rewards are transferred to the user.\n    */\n  event tokenRewardTransferred(address indexed _user,uint256 _amount);\n\n\n  /**\n      * @dev returns the total amount of SWAN tokens staked in this contract\n  **/\n\n  function totalStakedTokens() external view returns(uint256){\n      return ERC20(swanTokenAddress).balanceOf(address(this));\n  }\n   \n   /**\n      * @param _amount - the amount user wishes to stake\n      * @dev allows the user to stake the initial $2000 worth of SWAN tokens\n      *      Lists the user as a valid Staker.(by adding True in the isStaker mapping) \n      *      User can earn comparatively more interest on Future stakes.\n  **/\n\n  \n  function stake(uint256 _amount) external whenNotPaused returns(bool){\n    require(!isStaker[msg.sender],\"Previous Staked Amount is not Withdrawn yet\");  \n    require (_amount >= 2000 ether,\"Staking Amount is Less Than $2000\");\n    \n    require (ERC20(swanTokenAddress).balanceOf(msg.sender) >= _amount, \"User doesn't have Enough Balance\");\n    uint256 checkAllowance = ERC20(swanTokenAddress).allowance(msg.sender, address(this)); \n    require (checkAllowance >= _amount,\"User has not approved the contract yet.\");\n    require(ERC20(swanTokenAddress).transferFrom(msg.sender,address(this),_amount),\"Token Transfer Failed\");\n  \n      stakeAccountDetails[msg.sender] = StakeAccount(\n    {\n      stakedAmount:_amount,\n      time:now,\n      interestRate:14,\n      unstaked:false\n    });\n      isStaker[msg.sender] = true;\n      userTotalStakes[msg.sender] += _amount;\n      emit staked(msg.sender,_amount,4,14);\n  }    \n      /**\n     * @dev  User can earn interest by staking for 1 month\n\n     */\n\n\n  function stakeTokensOneMonth (uint256 amount)  external whenNotPaused returns (bool) {   \n       require(ERC20(swanTokenAddress).balanceOf(msg.sender) >= amount,'balance of a user is less then value');\n       uint256 checkAllowance = ERC20(swanTokenAddress).allowance(msg.sender, address(this)); \n       require (checkAllowance >= amount, 'allowance is wrong');\n       require(ERC20(swanTokenAddress).transferFrom(msg.sender,address(this),amount),'transfer From failed');\n       \n       uint256 oneMonthNum = interestAccountNumber[msg.sender];\n      if (isStaker[msg.sender]){\n       interestAccountDetails[msg.sender][oneMonthNum ++] = interestAccount(\n         {\n              amount: amount,\n              time: now,\n              interestRate : 16,\n              interestPayouts : 0,\n              timeperiod : 1,\n              withdrawn : false\n\n         });       \n\n        emit oneMonthStaked(msg.sender,amount,1,16);\n      }else {\n         interestAccountDetails[msg.sender][oneMonthNum ++] = interestAccount(\n           {\n                amount: amount,\n                time: now,\n                interestRate : 12,\n                interestPayouts : 0,\n                timeperiod : 1,\n                withdrawn : false\n           });  \n           emit oneMonthStaked(msg.sender,amount,1,12);     \n          }\n\n      userTotalStakes[msg.sender] += amount;\n      interestAccountNumber[msg.sender]++; \n  }  \n    /**\n     * @dev  User can earn interest by staking for 3 month\n\n     */\n  function stakeTokensThreeMonth (uint256 amount)  external whenNotPaused returns (bool) {\n        \n     require(ERC20(swanTokenAddress).balanceOf(msg.sender) >= amount,'balance of a user is less then value');\n     uint256 checkAllowance = ERC20(swanTokenAddress).allowance(msg.sender, address(this)); \n     require (checkAllowance >= amount, 'allowance is wrong');\n     require(ERC20(swanTokenAddress).transferFrom(msg.sender,address(this),amount),'transfer From failed');\n    \n     uint256 oneMonthNum = interestAccountNumber[msg.sender];\n    if (isStaker[msg.sender]){\n       interestAccountDetails[msg.sender][oneMonthNum ++] = interestAccount(\n         {\n              amount: amount,\n              time: now,\n              interestRate : 20,\n              interestPayouts : 0,\n              timeperiod : 3,\n              withdrawn : false\n         });       \n\n        emit oneMonthStaked(msg.sender,amount,3,20);\n      }else {\n         interestAccountDetails[msg.sender][oneMonthNum ++] = interestAccount(\n           {\n              amount: amount,\n              time: now,\n              interestRate : 16,\n              interestPayouts : 0,\n              timeperiod : 3,\n              withdrawn : false\n           });  \n           emit oneMonthStaked(msg.sender,amount,3,16);     \n          }\n      userTotalStakes[msg.sender] += amount;\n      interestAccountNumber[msg.sender]++; \n  }  \n\n    /**\n     * @dev  claim tokens for 1 or 3 months from same function\n\n     */\n    function claimInterestTokens(uint256 id) external whenNotPaused returns (bool) {\n       \n        interestAccount memory OneMonth =  interestAccountDetails[msg.sender][id];\n        require (OneMonth.amount > 0 );\n        require (now >= OneMonth.time.add(OneMonth.timeperiod * 1 minutes),\"Deadline is not over\");// will be chnanged to \"months\" time unit for production\n\n        uint256 totalInterest = OneMonth.interestRate.mul(OneMonth.timeperiod);\n        uint256 interestAmount = OneMonth.amount.mul(totalInterest).div(100);\n        uint256 tokensToSend = OneMonth.amount.add(interestAmount);\n\n        require(ERC20(swanTokenAddress).transfer(msg.sender, tokensToSend));\n        userTotalStakes[msg.sender] -= OneMonth.amount;\n         totalPoolRewards[msg.sender] += interestAmount;\n        emit claimedInterestTokens(msg.sender,tokensToSend);\n        OneMonth.withdrawn = true;\n        interestAccountDetails[msg.sender][id] = OneMonth;\n\n    } \n    \n\n  function claimStakeTokens() external whenNotPaused{\n      require(isStaker[msg.sender],\"User is not a Staker\");\n\n      StakeAccount memory stakeData = stakeAccountDetails[msg.sender];\n      require (now >= stakeData.time.add(6),\"Deadline NOT OVER\"); // 10368000 will be changed to 4 months for production use \n      uint256 interestAmount = stakeData.stakedAmount.mul(64).div(100);\n      uint256 tokensToSend = stakeData.stakedAmount.add(interestAmount);\n      require(ERC20(swanTokenAddress).transfer(msg.sender, tokensToSend));\n      \n      userTotalStakes[msg.sender] -= stakeData.stakedAmount;\n      isStaker[msg.sender] = false;\n      stakeData.unstaked = true;\n      stakeAccountDetails[msg.sender] = stakeData;\n      totalPoolRewards[msg.sender] += interestAmount;\n     \n      emit claimedStakedTokens(msg.sender,tokensToSend);\n    } \n    /**\n     * @dev  user can claim payouts in everyt seven days \n\n     */\n\n    function payOuts (uint256 id) external returns (bool) {\n        \n        interestAccount memory OneMonth =  interestAccountDetails[msg.sender][id];\n        require (OneMonth.amount > 0 );\n        require (now >= OneMonth.time.add(100));//change it to one month for production use \n\n        uint256 preSaleCycle = getCycle(msg.sender, id);\n        require (preSaleCycle > 0);\n\n        uint256 onePercentOfInitialFund = OneMonth.amount.div(86400);\n        if(OneMonth.interestPayouts <= onePercentOfInitialFund.mul(preSaleCycle)) {\n            \n        uint256 tokenToSend = onePercentOfInitialFund.mul(preSaleCycle).sub(OneMonth.interestPayouts);\n        OneMonth.interestPayouts = onePercentOfInitialFund.mul(preSaleCycle);\n        require(ERC20(swanTokenAddress).transfer(msg.sender, tokenToSend));\n        totalPoolRewards[msg.sender] += tokenToSend;\n        emit tokenRewardTransferred(msg.sender,tokenToSend);\n\n        }\n    }\n        /**\n     * @dev  get cycle for payout \n\n     */\n    function getCycle(address userAddress, uint256 id) internal view returns (uint256){\n     \n        interestAccount memory OneMonth =  interestAccountDetails[userAddress][id];\n        require (OneMonth.amount > 0 );\n\n      uint256 cycle = now.sub(OneMonth.timeperiod);\n    \n     if(cycle <= 21600)//21600 6 hours for testing \n     {\n         return 0;\n     }\n     else if (cycle > 21600)//21600 6 hours \n     {     \n    \n      uint256 secondsToHours = cycle.div(21600);//21600 6 hours\n      return secondsToHours;\n     \n     }\n\n    }    \n\n}\n",
  "sourcePath": "/home/zaryab/blockchain_begins/all_about_ethereum/quillHash_CODES/swan_smart_contracts/contracts/SwanStake.sol",
  "compiler": {
    "name": "solc",
    "version": "0.5.16+commit.9c3226ce.Emscripten.clang"
  },
  "schemaVersion": "3.2.2",
  "updatedAt": "2020-11-06T16:19:04.335Z",
  "devdoc": {
    "methods": {
      "claimInterestTokens(uint256)": {
        "details": "claim tokens for 1 or 3 months from same function"
      },
      "constructor": {
        "details": "address of a token contrac swan "
      },
      "payOuts(uint256)": {
        "details": "user can claim payouts in everyt seven days "
      },
      "stake(uint256)": {
        "details": "allows the user to stake the initial $2000 worth of SWAN tokens     Lists the user as a valid Staker.(by adding True in the isStaker mapping)      User can earn comparatively more interest on Future stakes.*",
        "params": {
          "_amount": "- the amount user wishes to stake"
        }
      },
      "stakeTokensOneMonth(uint256)": {
        "details": "User can earn interest by staking for 1 month"
      },
      "stakeTokensThreeMonth(uint256)": {
        "details": "User can earn interest by staking for 3 month"
      },
      "totalStakedTokens()": {
        "details": "returns the total amount of SWAN tokens staked in this contract*"
      }
    }
  },
  "userdoc": {
    "methods": {}
  }
}